:020000040800F2
:1000000000000320D10E00082567000833670008B0
:10001000396700083F6700084567000800000000D6
:10002000000000000000000000000000A10D010819
:100030004B67000800000000E10F010849100108AB
:10004000210F0008210F0008210F0008210F0008D0
:10005000210F0008210F0008210F0008210F0008C0
:10006000210F000859670008210F0008210F000820
:10007000210F0008210F0008210F0008210F0008A0
:10008000210F0008210F0008210F0008210F000890
:10009000210F0008210F0008210F0008210F000880
:1000A000210F0008210F0008210F0008210F000870
:1000B000210F0008210F0008210F0008210F000860
:1000C000210F0008210F0008210F0008210F000850
:1000D000210F0008210F0008210F0008210F000840
:1000E000210F0008210F0008210F0008210F000830
:1000F000210F0008210F0008210F0008210F000820
:1001000069670008210F0008210F0008210F00086F
:10011000210F0008210F00087D670008210F00084B
:10012000210F0008210F0008210F0008210F0008EF
:10013000210F0008210F0008210F0008210F0008DF
:10014000210F0008210F0008210F0008210F0008CF
:10015000210F0008210F0008210F0008210F0008BF
:10016000210F0008210F0008210F0008210F0008AF
:10017000210F0008210F0008210F000800000000D7
:10018000210F0008210F0008210F0008210F00088F
:10019000210F0008210F0008210F0008210F00087F
:0C01A00099670008210F0008AD670008F7
:1001B00010B5054C237833B9044B13B10448AFF3A1
:1001C00000800123237010BDA40000200000000067
:1001D00014AD010808B5034B1BB103490348AFF345
:1001E000008008BD00000000A800002014AD010838
:1001F00081F0004102E000BF83F0004330B54FEAD8
:1002000041044FEA430594EA050F08BF90EA020F44
:100210001FBF54EA000C55EA020C7FEA645C7FEAD7
:10022000655C00F0E2804FEA5454D4EB5555B8BFFA
:100230006D420CDD2C4480EA020281EA030382EA6B
:10024000000083EA010180EA020281EA0303362DFD
:1002500088BF30BD11F0004F4FEA01314FF4801CD0
:100260004CEA113102D0404261EB410113F0004FE2
:100270004FEA03334CEA133302D0524263EB430399
:1002800094EA050F00F0A780A4F10104D5F1200E37
:100290000DDB02FA0EFC22FA05F2801841F1000192
:1002A00003FA0EF2801843FA05F359410EE0A5F166
:1002B00020050EF1200E012A03FA0EFC28BF4CF097
:1002C000020C43FA05F3C01851EBE37101F000454D
:1002D00007D54FF0000EDCF1000C7EEB00006EEB5A
:1002E0000101B1F5801F1BD3B1F5001F0CD34908E4
:1002F0005FEA30004FEA3C0C04F101044FEA44523B
:1003000012F5800F80F09A80BCF1004F08BF5FEAC1
:10031000500C50F1000041EB045141EA050130BDA1
:100320005FEA4C0C404141EB010111F4801FA4F144
:100330000104E9D191F0000F04BF01460020B1FA99
:1003400081F308BF2033A3F10B03B3F120020CDAD1
:100350000C3208DD02F1140CC2F10C0201FA0CF0AF
:1003600021FA02F10CE002F11402D8BFC2F1200C14
:1003700001FA02F120FA0CFCDCBF41EA0C019040CA
:10038000E41AA2BF01EB0451294330BD6FEA040413
:100390001F3C1CDA0C340EDC04F11404C4F12002FE
:1003A00020FA04F001FA02F340EA030021FA04F310
:1003B00045EA030130BDC4F10C04C4F1200220FA67
:1003C00002F001FA04F340EA0300294630BD21FAA5
:1003D00004F0294630BD94F0000F83F4801306BF6B
:1003E00081F480110134013D4EE77FEA645C18BF5F
:1003F0007FEA655C29D094EA050F08BF90EA020FF6
:1004000005D054EA000C04BF1946104630BD91EAED
:10041000030F1EBF0021002030BD5FEA545C05D1F0
:100420004000494128BF41F0004130BD14F580042F
:100430003CBF01F5801130BD01F0004545F0FE41A3
:1004400041F470014FF0000030BD7FEA645C1ABFD8
:10045000194610467FEA655C1CBF0B46024650EA0F
:10046000013406BF52EA033591EA030F41F400213B
:1004700030BD00BF90F0000F04BF0021704730B5C1
:100480004FF4806404F132044FF000054FF0000196
:1004900050E700BF90F0000F04BF0021704730B557
:1004A0004FF4806404F1320410F0004548BF40422C
:1004B0004FF000013EE700BF42004FEAE2014FEA81
:1004C00031014FEA02701FBF12F07F4393F07F4F5C
:1004D00081F06051704732F07F4208BF704793F05F
:1004E0007F4F04BF41F40021704730B54FF4607472
:1004F00001F0004521F000411CE700BF50EA010275
:1005000008BF704730B54FF000050AE050EA01021D
:1005100008BF704730B511F0004502D5404261EB8D
:1005200041014FF4806404F132045FEA915C3FF4CE
:10053000D8AE4FF003025FEADC0C18BF03325FEA6B
:10054000DC0C18BF033202EBDC02C2F1200300FA1C
:1005500003FC20FA02F001FA03FE40EA0E0021FA41
:1005600002F11444BDE600BF70B54FF0FF0C4CF42F
:10057000E06C1CEA11541DBF1CEA135594EA0C0FE1
:1005800095EA0C0F00F0DEF82C4481EA030621EA1C
:100590004C5123EA4C5350EA013518BF52EA033557
:1005A00041F4801143F4801338D0A0FB02CE4FF009
:1005B0000005E1FB02E506F00042E0FB03E54FF039
:1005C0000006E1FB03569CF0000F18BF4EF0010E31
:1005D000A4F1FF04B6F5007F64F5407404D25FEA2D
:1005E0004E0E6D4146EB060642EAC62141EA5551E0
:1005F0004FEAC52040EA5E504FEACE2EB4F1FD0C22
:1006000088BFBCF5E06F1ED8BEF1004F08BF5FEA9F
:10061000500E50F1000041EB045170BD06F0004651
:1006200046EA010140EA020081EA0301B4EB5C04FE
:10063000C2BFD4EB0C0541EA045170BD41F48011F6
:100640004FF0000E013C00F3AB8014F1360FDEBF1B
:10065000002001F0004170BDC4F10004203C35DAF7
:100660000C341BDC04F11404C4F1200500FA05F37A
:1006700020FA04F001FA05F240EA020001F000421B
:1006800021F0004110EBD37021FA04F642EB060191
:100690005EEA430E08BF20EAD37070BDC4F10C04BB
:1006A000C4F1200500FA04F320FA05F001FA04F27F
:1006B00040EA020001F0004110EBD37041F100016B
:1006C0005EEA430E08BF20EAD37070BDC4F1200576
:1006D00000FA05F24EEA020E20FA04F301FA05F2DE
:1006E00043EA020321FA04F001F0004121FA04F286
:1006F00020EA020000EBD3705EEA430E08BF20EA56
:10070000D37070BD94F0000F0FD101F0004640008F
:1007100041EB010111F4801F08BF013CF7D041EA11
:10072000060195F0000F18BF704703F00046520015
:1007300043EB030313F4801F08BF013DF7D043EAE6
:100740000603704794EA0C0F0CEA135518BF95EA9C
:100750000C0F0CD050EA410618BF52EA4306D1D123
:1007600081EA030101F000414FF0000070BD50EA42
:10077000410606BF1046194652EA430619D094EACC
:100780000C0F02D150EA013613D195EA0C0F05D1B6
:1007900052EA03361CBF104619460AD181EA03010A
:1007A00001F0004141F0FE4141F470014FF00000C2
:1007B00070BD41F0FE4141F4780170BD70B54FF05D
:1007C000FF0C4CF4E06C1CEA11541DBF1CEA1355DD
:1007D00094EA0C0F95EA0C0F00F0A7F8A4EB0504BF
:1007E00081EA030E52EA03354FEA013100F08880B6
:1007F0004FEA03334FF0805545EA131343EA12637F
:100800004FEA022245EA111545EA10654FEA002633
:100810000EF000419D4208BF964244F1FD0404F5EC
:10082000407402D25B084FEA3202B61A65EB030548
:100830005B084FEA32024FF480104FF4002CB6EB05
:10084000020E75EB030E22BFB61A754640EA0C0085
:100850005B084FEA3202B6EB020E75EB030E22BFC5
:10086000B61A754640EA5C005B084FEA3202B6EB06
:10087000020E75EB030E22BFB61A754640EA9C00C5
:100880005B084FEA3202B6EB020E75EB030E22BF95
:10089000B61A754640EADC0055EA060E18D04FEA53
:1008A000051545EA16754FEA06164FEAC30343EAF3
:1008B00052734FEAC2025FEA1C1CC0D111F4801FC0
:1008C0000BD141EA00014FF000004FF0004CB6E7B9
:1008D00011F4801F04BF01430020B4F1FD0C88BF58
:1008E000BCF5E06F3FF6AFAEB5EB030C04BFB6EB63
:1008F000020C5FEA500C50F1000041EB045170BD56
:100900000EF0004E4EEA113114EB5C04C2BFD4EB82
:100910000C0541EA045170BD41F480114FF0000E06
:10092000013C90E645EA060E8DE60CEA135594EA82
:100930000C0F08BF95EA0C0F3FF43BAF94EA0C0F85
:100940000AD150EA01347FF434AF95EA0C0F7FF4FA
:1009500025AF104619462CE795EA0C0F06D152EA4E
:1009600003353FF4FDAE1046194622E750EA410632
:1009700018BF52EA43067FF4C5AE50EA41047FF443
:100980000DAF52EA43057FF4EBAE12E74FF0FF3CA8
:1009900006E000BF4FF0010C02E000BF4FF0010C79
:1009A0004DF804CD4FEA410C7FEA6C5C4FEA430CF2
:1009B00018BF7FEA6C5C1BD001B050EA410C0CBF41
:1009C00052EA430C91EA030F02BF90EA020F0020A3
:1009D000704710F1000F91EA030F58BF994208BF0A
:1009E00090422CBFD8176FEAE37040F001007047C7
:1009F0004FEA410C7FEA6C5C02D150EA013C07D11E
:100A00004FEA430C7FEA6C5CD6D152EA033CD3D068
:100A10005DF8040B704700BF8446104662468C4662
:100A20001946634600E000BF01B5FFF7B7FF002895
:100A300048BF10F1000F01BD4DF808EDFFF7F4FFBE
:100A40000CBF012000205DF808FB00BF4DF808ED49
:100A5000FFF7EAFF34BF012000205DF808FB00BF6C
:100A60004DF808EDFFF7E0FF94BF012000205DF88E
:100A700008FB00BF4DF808EDFFF7CEFF94BF012043
:100A800000205DF808FB00BF4DF808EDFFF7C4FF3C
:100A900034BF012000205DF808FB00BF4FEA41028F
:100AA00012F5001215D211D56FF47873B3EB6252C0
:100AB00012D94FEAC12343F0004343EA505311F0E7
:100AC000004F23FA02F018BF404270474FF0000079
:100AD000704750EA013005D111F0004008BF6FF0B7
:100AE000004070474FF00000704700BF4A0011D22D
:100AF00012F5001211D20DD56FF47873B3EB625278
:100B00000ED44FEAC12343F0004343EA505323FA83
:100B100002F070474FF00000704750EA013002D1F8
:100B20004FF0FF3070474FF00000704753B94AB99B
:100B3000002908BF00281CBF4FF0FF314FF0FF30E5
:100B400000F072B9ADF1080C6DE904CE00F006F8C2
:100B5000DDF804E0DDE9022304B070472DE9F04739
:100B6000089E04468846002B4BD18A42154667D919
:100B7000B2FA82F24AB1C2F1200701FA02F320FA76
:100B800007F7954047EA030894404FEA154E230CB7
:100B9000B8FBFEF71FFA85FC0EFB178843EA0843F3
:100BA00007FB0CF1994209D9EB1807F1FF3080F0EF
:100BB0001B81994240F21881023F2B445B1AA4B278
:100BC000B3FBFEF00EFB103344EA034400FB0CFCC5
:100BD000A44509D92C1900F1FF3380F00781A44501
:100BE00040F2048102382C4440EA0740A4EB0C0494
:100BF00000271EB1D4400023C6E900433946BDE8B2
:100C0000F0878B4209D9002E00F0EB800027C6E95F
:100C1000000138463946BDE8F087B3FA83F7002F64
:100C200047D18B4202D3824200F2FA80841A61EBF0
:100C3000030301209846002EE0D0C6E90048DDE716
:100C400002B9FFDEB2FA82F2002A40F08F80491B1F
:100C50004FEA154E1FFA85F80127B1FBFEFC230C65
:100C60000EFB1C1143EA014308FB0CF1994207D922
:100C7000EB180CF1FF3002D2994200F2CD8084468D
:100C8000591AA3B2B1FBFEF00EFB101443EA044460
:100C900008FB00F8A04507D92C1900F1FF3302D258
:100CA000A04500F2B6801846A4EB080440EA0C40C8
:100CB0009FE7C7F1200CBB4022FA0CFE4EEA030E60
:100CC00001FA07F420FA0CF521FA0CF34FEA1E485A
:100CD0002543B3FBF8F92C0C08FB19331FFA8EFAE5
:100CE00044EA034309FB0AF49C4202FA07F200FAC1
:100CF00007F10BD91EEB030309F1FF3080F0878069
:100D00009C4240F28480A9F1020973441B1BADB2DE
:100D1000B3FBF8F008FB103345EA034400FB0AFA82
:100D2000A24508D91EEB040400F1FF336BD2A245A3
:100D300069D90238744440EA0940A0FB0289A4EB57
:100D40000A044C45C2464B4654D351D0002E69D0BC
:100D5000B1EB0A0564EB030404FA0CFCFD40FC4013
:100D60004CEA0505C6E90054002747E7C2F1200315
:100D700020FA03F7954001FA02F021FA03F34FEA53
:100D8000154E3843010CB3FBFEF71FFA85F80EFB36
:100D9000173341EA034107FB08F38B4204FA02F4DC
:100DA00007D9691807F1FF3C2FD28B422DD9023F9A
:100DB0002944CB1A81B2B3FBFEF00EFB103341EA9B
:100DC000034100FB08F38B4207D9691800F1FF3C8F
:100DD00017D28B4215D902382944C91A40EA07476D
:100DE0003BE73746304609E70746E7E61846FBE6A5
:100DF0004145ABD2B8EB020A69EB0E02013813464B
:100E0000A4E76046E9E7184695E76746D1E78146DB
:100E10007CE702382C4447E7ACF1020C2B442FE767
:100E2000384608E73746E9E6704700BF0000000093
:100E300001F0FF01102A2BDB10F0070F08D010F88B
:100E4000013B013A8B422DD010F0070F42B3F6D18F
:100E5000F0B441EA012141EA014122F007047FF0A8
:100E600000070023F0E80256083C85EA010586EAFF
:100E7000010685FA47F5A3FA87F586FA47F6A5FA3B
:100E800087F68EB9EED1F0BC01F0FF0102F0070247
:100E900032B110F8013B013A83EA010313B1F8D1F2
:100EA0000020704701387047002D06BF35460338D3
:100EB000073815F0010F07D1013015F4807F02BF0C
:100EC000013015F4C03F0130F0BC0138704700BF5D
:100ED000DFF834D0002103E00C4B5B584350043161
:100EE0000B480C4B42189A42F6D30B4A02E00023FF
:100EF00042F8043B094B9A42F9D30AF0B7FA18F0CA
:100F0000BBFF02F089FE7047000003208CE6150845
:100F100000000020A4000020A400002050A3002016
:100F2000FEE780B400AF01231846BD465DF8047BA0
:100F3000704780B582B000AF7860396018F084FFE8
:100F40000246162313604FF0FF3318460837BD469C
:100F500080BD80B582B000AF78604FF0FF31786817
:100F6000FFF7E7FFFEE780B586B000AFF860B96035
:100F70007A6000237B610AE0AFF300800146BB6822
:100F80005A1CBA60CAB21A707B6901337B617A69F4
:100F90007B689A42F0DB7B6818461837BD4680BDF7
:100FA00080B586B000AFF860B9607A6000237B61DD
:100FB00009E0BB685A1CBA601B781846AFF3008082
:100FC0007B6901337B617A697B689A42F1DB7B68DC
:100FD00018461837BD4680BD80B584B000AF786034
:100FE000114B1B68002B02D10F4B104A1A600E4B9D
:100FF0001B68FB600C4B1A687B6813446A4693427B
:1010000007D918F021FF02460C2313604FF0FF337D
:1010100006E0054B1A687B681344034A1360FB68BB
:1010200018461037BD4680BDC400002050A30020E4
:1010300080B483B000AF78604FF0FF3318460C37B0
:10104000BD465DF8047B704780B483B000AF786024
:1010500039603B684FF400525A60002318460C3741
:10106000BD465DF8047B704780B483B000AF786004
:10107000012318460C37BD465DF8047B704780B4E9
:1010800085B000AFF860B9607A6000231846143765
:10109000BD465DF8047B704780B483B000AF7860D4
:1010A000396000BF0C37BD465DF8047B704780B4E3
:1010B00083B000AF7860396000BF0C37BD465DF883
:1010C000047B704780B483B000AF7860396000BFA4
:1010D0000C37BD465DF8047B704780B483B000AF29
:1010E00078600B46FB7000BF0C37BD465DF8047B93
:1010F000704780B483B000AF786000BF0C37BD4646
:101100005DF8047B704780B483B000AF786000BFA7
:101110000C37BD465DF8047B7047000080B483B097
:1011200000AF7860044A7B681A607B6818460C3709
:10113000BD465DF8047B704720C5010880B582B0CC
:1011400000AF78607868FFF7E9FF0421786818F04D
:1011500043FE7B6818460837BD4680BD80B483B027
:1011600000AF78607B6800221A807B6800225A807A
:101170007B6800229A807B680022DA807B680022EC
:101180001A817B6800225A817B6800229A817B68E1
:1011900000229A737B6818460C37BD465DF8047BC5
:1011A000704780B582B000AF78607B681846FFF763
:1011B000D5FF7B6800221A617B6800229A827B68D7
:1011C00018460837BD4680BD80B483B000AF786054
:1011D000044A7B681A607B6818460C37BD465DF888
:1011E000047B704708C5010880B582B000AF786005
:1011F0007868FFF7E9FF0421786818F0EDFD7B6857
:1012000018460837BD4680BD80B483B000AF786013
:10121000074A7B681A607B6800225A607B6800225C
:101220009A607B6818460C37BD465DF8047B7047B2
:10123000E0C4010880B483B000AF7860044A7B68E2
:101240001A607B6818460C37BD465DF8047B704712
:10125000E0C4010880B582B000AF78607868FFF71D
:10126000E9FF0C21786818F0B7FD7B68184608374D
:10127000BD4680BD80B584B000AF78600B46FB7082
:10128000FB78002B11D07B681B6810331B687868D3
:10129000984702467B689B68D31AFB607B685A6854
:1012A000FB681A447B685A6008E07B681B6810334F
:1012B0001B687868984702467B689A6000BF1037C1
:1012C000BD4680BD80B483B000AF78607B685B684A
:1012D00018460C37BD465DF8047B704780B483B078
:1012E00000AF786039607B683A685A6000BF0C379D
:1012F000BD465DF8047B704780B584B000AFF860F0
:10130000B9607A603B603E4AFB681A60FB68BA6865
:101310005A60FB687A689A60FB683A68DA60FB6832
:1013200000221A61FB6800225A61FB6818331846D4
:10133000FFF737FFFB6800225A63FB6800229A63BD
:10134000FB680022DA63FB6800221A64FB68002253
:1013500083F84420FB68012283F84520FB680122C2
:1013600083F84620FB68012283F85420FB680022A2
:1013700083F85520FB68002283F85620FB68012281
:1013800083F85720FB68002283F85820FB6800226E
:1013900083F85920FB68002283F85A20FB6800225A
:1013A00083F85B20FB68002283F85C20FB68002246
:1013B0001A66FB68002283F86520124AFB681360F6
:1013C000114A3B8B1380114ABB8B1380104B0022B8
:1013D0001A700D4B1A880F4B1A800C4B1A880E4B43
:1013E0001A803A8BBB8B9A4201D3002200E0012283
:1013F000FB6883F83020FB6818461037BD4680BD77
:1014000028D7010864A2002058A200205AA2002078
:101410005CA200205EA2002060A2002080B483B005
:1014200000AF7860044A7B681A607B6818460C3706
:10143000BD465DF8047B704728D7010880B582B0AF
:1014400000AF78607868FFF7E9FF6821786818F0E6
:10145000C3FC7B6818460837BD4680BD80B400AF2A
:10146000034B1B681846BD465DF8047B704700BF00
:1014700064A2002080B483B000AF78600B46FB709C
:101480007B68FA7883F8462000BF0C37BD465DF8CC
:10149000047B704780B483B000AF78600B46FB706C
:1014A0007B68FA7883F8582000BF0C37BD465DF89A
:1014B000047B704780B483B000AF78600B46FB704C
:1014C00097F90330002B03DD7B68FA7883F854200A
:1014D00000BF0C37BD465DF8047B704780B483B015
:1014E00000AF786039607B683A681A6100BF0C37DA
:1014F000BD465DF8047B704780B483B000AF786070
:101500000B46FB707B68FA7883F85C2000BF0C37D1
:10151000BD465DF8047B704780B483B000AF78604F
:101520000B46FB707B68FA7883F8452000BF0C37C8
:10153000BD465DF8047B704780B483B000AF78602F
:10154000044A7B68136000BF0C37BD465DF8047B1E
:10155000704700BFD0A2002080B483B000AF786095
:10156000044A7B681A607B6818460C37BD465DF8F4
:10157000047B7047CCC4010880B582B000AF7860AE
:101580007868FFF7E9FF0421786818F025FC7B688C
:1015900018460837BD4680BD80B485B000AFF860FE
:1015A000B9607A603B600B4AFB681A60FB68BA68F6
:1015B0005A60FB687A689A60FB683A68DA60FB6890
:1015C000BA691A61FB6818461437BD465DF8047B9A
:1015D000704700BFBCC4010880B483B000AF78601E
:1015E000044A7B681A607B6818460C37BD465DF874
:1015F000047B7047BCC4010880B582B000AF78603E
:101600007868FFF7E9FF1421786818F0E5FB7B683C
:1016100018460837BD4680BD80B483B000AF7860FF
:10162000044A7B681A607B6818460C37BD465DF833
:10163000047B704788C4010880B582B000AF786031
:101640007868FFF7E9FF0421786818F0C5FB7B682C
:1016500018460837BD4680BD80B483B000AF7860BF
:1016600000BF0C37BD465DF8047B704780B483B083
:1016700000AF78600B46FB7000BF0C37BD465DF8CD
:10168000047B704780B483B000AF7860044A7B6805
:101690001A607B6818460C37BD465DF8047B7047BE
:1016A00070C4010880B582B000AF78607868FFF739
:1016B000E9FF0421786818F08FFB7B68184608372B
:1016C000BD4680BD80B582B000AF7860054A7B68BA
:1016D0001A607B681846FFF721FD7B6818460837BB
:1016E000BD4680BDB8E0010880B582B000AF78602B
:1016F0007868FFF7E7FF4FF49871786818F06CFB93
:101700007B6818460837BD4680BD000080B582B0B2
:1017100000AF7860054A7B681A607B681846FFF75F
:10172000D1FF7B6818460837BD4680BD34C4010828
:1017300080B582B000AF78607868FFF7E7FF4FF4BC
:101740009C71786818F048FB7B6818460837BD46DE
:1017500080BD80B582B000AF7860786800F004F892
:1017600000BF0837BD4680BD80B582B000AF78604D
:101770007B68D3F83431002B0FD07B68D3F8342149
:101780007B68D3F834311B680C331B6810469847CC
:101790000346002B01D0012300E00023002B0ED0D4
:1017A0007B68D3F834217B68D3F834311B68083365
:1017B0001B68104698477B680022C3F8342100BF9D
:1017C0000837BD4680BD000080B582B000AF7860AC
:1017D000084A7B681A607B6803F59C73184600F022
:1017E000BDFB7B681846FFF791FF7B6818460837FA
:1017F000BD4680BDE0C3010880B582B000AF78600F
:101800007868FFF7E1FF4FF4A871786818F0E4FA00
:101810007B6818460837BD4680BD000080B582B0A1
:1018200000AF7860054A7B681A607B681846FFF74E
:10183000CBFF7B6818460837BD4680BDA4C30108AE
:1018400080B582B000AF78607868FFF7E7FF4FF4AB
:10185000A871786818F0C0FA7B6818460837BD464A
:1018600080BD80B582B000AF78607B68D3F84C3122
:10187000184609F00DFC7B68184614F0FFFA00BF0B
:101880000837BD4680BD80B582B000AF7860396052
:101890003B68184605F062FB00BF0837BD4680BDB7
:1018A00080B586B002AFF860B9607A603B60F868D6
:1018B000BB6900933B687A68B968FFF76DFE044A1C
:1018C000FB681A60FB6818461037BD4680BD00BF34
:1018D00090C3010880B500AF134B1B78BFF35B8F3B
:1018E000DBB203F00103002B0CBF01230023DBB2AA
:1018F000002B15D00C4818F047FA0346002B14BFF4
:1019000001230023DBB2002B0AD0084800F036F890
:10191000054818F045FA064A0649044818F057FAEF
:10192000024B184680BD00BFE8A10020F4930020C0
:1019300000000020191E000880B582B000AF78605A
:10194000054A7B681A607B681846FFF745FE7B688E
:1019500018460837BD4680BD90C3010880B582B0E7
:1019600000AF78607868FFF7E7FF1421786818F017
:1019700033FA7B6818460837BD4680BD90B585B000
:1019800002AF786078687B6803F114017B6803F12B
:101990002C027B6803F68C447B6803F54A63009352
:1019A0002346FFF77DFF184A7B681A607B68143373
:1019B000184600F0EDF87B682C33184600F01CF94F
:1019C0007B6803F68C43184600F04CF97B6803F5FE
:1019D0004A607B6803F55F637A68194609F0BAFAD2
:1019E0007B6803F55F63184609F044FB7A687B68FF
:1019F00003F54A6319461046FFF745FF7B68184612
:101A00000C37BD4690BD00BFE0C2010880B582B072
:101A100000AF7860054A7B681A607B681846FFF75C
:101A2000FBFD7B6818460837BD4680BDC0E701084E
:101A300080B582B000AF78607868FFF7E7FF0421D7
:101A4000786818F0C9F97B6818460837BD4680BD2C
:101A500080B586B002AFF860B9607A603B60F86824
:101A6000BB8B01933B8B00933B687A68B968FFF7A7
:101A700043FC044AFB681A60FB6818461037BD46F1
:101A800080BD00BF70AE010880B500AF00F086FCDD
:101A900000F0DAFC00F0F2FB00F0C7FB00BF80BDF5
:101AA00080B582B000AF78607B681846FFF7ACFB6A
:101AB000034A7B681A607B6818460837BD4680BDBC
:101AC000CCAF010890B587B004AF4FF48063FB80C2
:101AD0004FF41673BB80B7F90610B7F90430002233
:101AE0000392002202920022019200930B46194AAF
:101AF00019491A4800F0EAF838603B681B687433EB
:101B00001C68174B1B681946164B1A880123009353
:101B100001233868A04702213868FFF7CBFC012178
:101B20003868FFF7F9FC00213868FFF7B3FC0021A3
:101B30003868FFF79FFC0C4801F090FE0A493868AE
:101B4000FFF7CCFC01213868FFF7D6FC00BF0C374B
:101B5000BD4690BD0C00002010000020CC000020ED
:101B600008000020140000206C0B002080B500AF9E
:101B7000FFF7A8FF00BF80BD80B500AFFFF76EFC88
:101B8000024613680C331B681046984700BF80BD9F
:101B900080B582B000AF78607B68184611F0A2FA79
:101BA000034A7B681A607B6818460837BD4680BDCB
:101BB0005CC3010880B582B000AF7860054A7B68DD
:101BC0001A607B68184611F08BFA7B681846083754
:101BD000BD4680BD5CC3010880B582B000AF7860AF
:101BE0007868FFF7E7FF1821786818F0F5F87B6848
:101BF00018460837BD4680BD80B582B000AF78601A
:101C00007B68184611F06EFA034A7B681A607B689D
:101C100018460837BD4680BD28C3010880B582B08C
:101C200000AF7860054A7B681A607B68184611F03F
:101C300057FA7B6818460837BD4680BD28C301089F
:101C400080B582B000AF78607868FFF7E7FF4FF4A7
:101C50004661786818F0C0F87B6818460837BD46BA
:101C600080BD000080B582B000AF78607B68184608
:101C700011F038FA034A7B681A607B681846083707
:101C8000BD4680BDF4C2010880B582B000AF786067
:101C9000054A7B681A607B68184611F021FA7B6858
:101CA00018460837BD4680BDF4C2010880B582B031
:101CB00000AF78607868FFF7E7FF1421786818F0C4
:101CC0008BF87B6818460837BD4680BD90B589B053
:101CD00002AFF860B9607A607B80B7F90220B7F98B
:101CE0002830009313467A68B968F86800F054F811
:101CF0007861786912F07AFA09F062F8044609F01E
:101D000069F8034619467B6B00933B6BFA6A2046E1
:101D100015F05EFF0D48FFF70FFC002009F07EF87C
:101D20000B4815F0BFFEFFF7D5FD38617B691B68D6
:101D300050331C6814F0D4F9034619467869A0475B
:101D40007B6918461C37BD4690BD00BFC800002007
:101D50000400002080B582B000AF7860054A7B683F
:101D60001A607B681846FFF759FB7B6818460837EE
:101D7000BD4680BD70AE010880B582B000AF78600E
:101D80007868FFF7E7FF6821786818F025F87B6826
:101D900018460837BD4680BD80B586B002AFF860F2
:101DA000B9607A607B80184B1B78BFF35B8FDBB226
:101DB00003F00103002B0CBF01230023DBB2002B37
:101DC0001CD0114817F0E0FF0346002B14BF01237D
:101DD0000023DBB2002B11D07B883A8B0192009359
:101DE0007B68BA68F9680948FFF732FE064817F0C1
:101DF000D7FF074A0749054817F0E9FF034B184684
:101E00001037BD4680BD00BF54A20020ECA10020C9
:101E100000000020551D000880B582B000AF78603A
:101E2000104A7B681A607B6803F54A631846FFF71F
:101E3000F5FC7B6803F68C431846FFF725FF7B68AB
:101E40002C331846FFF7EAFE7B6814331846FFF779
:101E5000B1FE7B681846FFF76FFD7B6818460837B0
:101E6000BD4680BDE0C2010880B582B000AF786099
:101E70007868FFF7D1FF40F6F451786817F0ACFFAF
:101E80007B6818460837BD4680BD000080B582B02B
:101E900000AF7860054A7B681A607B681846FFF7D8
:101EA000C9F97B6818460837BD4680BDCCAF01082C
:101EB00080B582B000AF78607868FFF7E7FF102147
:101EC000786817F089FF7B6818460837BD4680BDE3
:101ED00080B582B000AF786039607B68012B23D178
:101EE0003B684FF6FF7293421ED1114A11491248C6
:101EF00017F06DFF114800F09DFE0D4A10490F4884
:101F000017F065FF0A4A0F490F4817F060FF0F48A6
:101F1000FFF7C6FD064A0E490C4817F058FF044A61
:101F20000C490D4817F053FF00BF0837BD4680BD70
:101F300000000020A11F000804000020CC000020A9
:101F4000892C0008E51F00080C0000206C0B002005
:101F50008D1E00080D1A00081000002080B582B008
:101F600000AF7860054A7B681A607B681846FFF707
:101F700089FB7B6818460837BD4680BD1CC4010834
:101F800080B582B000AF78607868FFF7E7FF102176
:101F9000786817F021FF7B6818460837BD4680BD7A
:101FA00080B582B000AF7860054A7B681A607B68B4
:101FB0001846FFF7D1FA7B6818460837BD4680BD42
:101FC000F8B0010880B582B000AF78607868FFF79C
:101FD000E7FF0421786817F0FFFE7B681846083792
:101FE000BD4680BD80B582B000AF7860054A7B6891
:101FF0001A607B681846FFF7E7F87B6818460837D1
:10200000BD4680BD04B0010880B582B000AF7860E5
:102010007868FFF7E7FF0421786817F0DDFE7B683A
:1020200018460837BD4680BD80B483B000AF7860E5
:10203000012318460C37BD465DF8047B704780B419
:1020400083B000AF78600C2318460C37BD465DF8AE
:10205000047B704780B483B000AF78600B467B8010
:102060007A8813465B0013449B0008337A68134454
:1020700018460C37BD465DF8047B704780B483B0CA
:1020800000AF78600B467B807A8813465B00134470
:102090009B0008337A68134418460C37BD465DF838
:1020A000047B704780B483B000AF7860012318468A
:1020B0000C37BD465DF8047B704780B483B000AF39
:1020C000786040F6584318460C37BD465DF8047BEF
:1020D000704780B483B000AF78600B467B807B880C
:1020E00040F6584202FB03F308337A68134418465B
:1020F0000C37BD465DF8047B704780B483B000AFF9
:1021000078600B467B807B8840F6584202FB03F3E5
:1021100008337A68134418460C37BD465DF8047BD3
:10212000704780B483B000AF7860012318460C3745
:10213000BD465DF8047B704780B483B000AF786023
:10214000102318460C37BD465DF8047B704780B4F9
:1021500083B000AF78600B467B807B881B0108331F
:102160007A68134418460C37BD465DF8047B704707
:1021700080B483B000AF78600B467B807B881B0106
:1021800008337A68134418460C37BD465DF8047B63
:10219000704780B582B000AF78607B685B687A6812
:1021A000D268521099187B68DB6803F00103002B9A
:1021B00002D17B689B680AE07B685B687A68D268BA
:1021C000521013441B687A68926813441B680846CF
:1021D000984700BF0837BD4680BD80B483B000AFCC
:1021E00078607B685B68002B10D07B689B68002B55
:1021F00007D17B68DB6803F00103002B01D10123C9
:1022000000E00023012B01D0012300E00023184649
:102210000C37BD465DF8047B704780B500AF4FF6C4
:10222000FF710120FFF754FE80BD80B400AF00BFF6
:10223000BD465DF8047B704780B483B000AF0346B1
:10224000FB7100BF0C37BD465DF8047B704780B45E
:1022500083B000AF0346FB7100BF0C37BD465DF88D
:10226000047B704780B483B000AF0346FB7100BFAE
:102270000C37BD465DF8047B7047000080B58EB01A
:1022800000AF43480BF0D2FF414B424A1A60404B2B
:1022900000225A603E4B00229A603D4B0022DA60D9
:1022A0003B4B00221A613A4B2F225A61384B0222D3
:1022B0009A61374B8722DA61354B22221A62344BFE
:1022C00040F287425A62324B40F27A229A62304B95
:1022D00040F2AF42DA622E4B40F287221A632C4B57
:1022E000002283F834202A4B642283F83520284BBF
:1022F000002283F8362026480BF0C8FE0346002B48
:1023000014BF01230023DBB2002B01D002F0A6F999
:1023100000237B604FF48063BB600023FB604FF4BD
:1023200016733B6102237B61FF23BB610023FB61CA
:102330004FF480633B6205237B62174BBB624FF413
:102340008063FB624FF416733B63002387F83430DD
:10235000002387F83530002387F836303B1D0022F4
:1023600019460B480CF032F80346002B14BF01232A
:102370000023DBB2002B01D002F070F900224FF4F1
:10238000806103480CF060F800BF3837BD4680BD5F
:102390007C0B002000680140000800D080B588B0A8
:1023A00000AF3B1D00221A605A609A60DA601A6121
:1023B0005A619A61224B234A1A60214B01225A60CA
:1023C0001F4B00229A601E4B0422DA601C4B102225
:1023D0001A611B4B40225A61194B4FF4C0729A612B
:1023E000174B0022DA61164B4FF400621A62144B4D
:1023F00000225A62124B4FF400529A6202237B6011
:102400000723BB600423FB6007233B6103237B613D
:102410000223BB610223FB613B1D194608480DF0F6
:1024200099F80346002B14BF01230023DBB2002BD5
:1024300001D002F013F900BF2037BD4680BD00BFB8
:10244000640C0020400100A080B582B000AF0023E2
:102450007B602B4B01221A60294B08225A60284BC3
:1024600001229A60264B0022DA604FF6FF7224495F
:1024700024480DF0C7F8012009F070F8204B022223
:102480001A601F4B08225A601D4B01229A601C4B98
:102490000022DA604FF6FF7219491A480DF0B2F8BF
:1024A000174B03221A60164B08225A60144B042261
:1024B0009A60134B0022DA604FF6FF721049114800
:1024C0000DF0A0F84FF40C737B600D4B04221A60E2
:1024D0000B4B08225A600A4B01229A607B68084A1B
:1024E000D3604FF6FF72064906480DF08BF840F2B4
:1024F0006A5104480DF0B1F800BF0837BD4680BDF1
:10250000980C0020640C002080B58EB000AF78607D
:1025100007F1240300221A605A609A60DA601A6197
:102520007B681B687B4A934240F0F08000233B624B
:10253000794B5B6C784A43F080635364764B5B6CF9
:1025400003F080633B623B6A0023FB61724B1B6BB1
:10255000714A43F4807313636F4B1B6B03F48073F6
:10256000FB61FB690023BB616B4B1B6B6A4A43F049
:1025700020031363684B1B6B03F02003BB61BB6933
:1025800000237B61644B1B6B634A43F001031363BD
:10259000614B1B6B03F001037B617B6900233B6193
:1025A0005D4B1B6B5C4A43F0020313635A4B1B6B7E
:1025B00003F002033B613B690023FB60564B1B6B3E
:1025C000554A43F080031363534B1B6B03F08003A6
:1025D000FB60FB680023BB604F4B1B6B4E4A43F014
:1025E000400313634C4B1B6B03F04003BB60BB68A1
:1025F00040F207637B620223BB620023FB6200237D
:102600003B630E237B6307F12403194643480AF01A
:102610002BFA4FF480637B620223BB620023FB62D0
:1026200000233B630E237B6307F1240319463C48D8
:102630000AF01AFA08237B620223BB620023FB62C2
:1026400000233B630E237B6307F1240319463548BF
:102650000AF00AFA03237B620223BB620023FB62B7
:1026600000233B6309237B6307F1240319462E48AB
:102670000AF0FAF94FF4E0637B620223BB620023A5
:10268000FB6200233B630E237B6307F1240319469F
:1026900025480AF0E9F94FF4D8437B620223BB6274
:1026A0000023FB6200233B630E237B6307F12403BB
:1026B00019461E480AF0D8F94FF40C637B620223D6
:1026C000BB620023FB6200233B630E237B6307F1A5
:1026D0002403194616480AF0C7F94FF480537B6269
:1026E0000223BB620023FB6200233B6309237B635D
:1026F00007F1240319460E480AF0B6F90022052115
:10270000582009F027F8582009F040F800BF383762
:10271000BD4680BD006801400038024000200240F4
:10272000001402400000024000040240001C02406D
:102730000018024080B582B000AF78607B681B68EB
:10274000164A934225D1164B5B6C154A23F08063E1
:10275000536440F2076113480AF030FB4FF4806184
:1027600011480AF02BFB082110480AF027FB40F221
:1027700003710F480AF022FB4FF4D8410D480AF0CC
:102780001DFB4FF4C6510C480AF018FB582009F005
:102790000BF800BF0837BD4680BD00BF0068014090
:1027A00000380240002002400014024000000240B5
:1027B00000040240001C02400018024080B586B0B0
:1027C00000AF3B1D00221A605A609A60DA601A61FD
:1027D0003F4B1B68002B77D13D4B01221A60002331
:1027E0003B603C4B9B6B3B4A43F001039363394B8B
:1027F0009B6B03F001033B603B684FF63F037B603C
:102800000223BB600023FB6003233B610C237B613D
:102810003B1D194630480AF027F901237B6002234B
:10282000BB600023FB6003233B610C237B613B1DEA
:1028300019462A480AF018F948F233137B6002233C
:10284000BB600023FB6003233B610C237B613B1DCA
:10285000194623480AF008F94FF683737B60022378
:10286000BB600023FB6003233B610C237B613B1DAA
:1028700019461C480AF0F8F8C0237B600223BB60AD
:102880000023FB6003233B610C237B613B1D194646
:1028900015480AF0E9F84CF203737B600223BB6031
:1028A0000023FB6003233B610C237B613B1D194626
:1028B0000E480AF0D9F800220521302008F04AFF1E
:1028C000302008F063FF00E000BF1837BD4680BD30
:1028D000A80C00200038024000140240000802400A
:1028E0000018024000100240001C0240000C024090
:1028F00080B582B000AF7860FFF760FF00BF083797
:10290000BD4680BD80B584B000AF78607B681B6831
:102910000E4A934215D10023FB600D4B1B6B0C4AF2
:1029200043F4000313630A4B1B6B03F40003FB60C7
:10293000FB68002205215A2008F00CFF5A2008F0FD
:1029400025FF00BF1037BD4680BD00BF00B002406C
:102950000038024080B582B000AF78607B681B68A9
:10296000074A934208D1074B1B6B064A23F4000326
:1029700013635A2008F018FF00BF0837BD4680BD1A
:1029800000B002400038024080B483B000AF7860ED
:102990007B6800221A607B6818460C37BD465DF8DC
:1029A000047B704780B483B000AF78607B681B689D
:1029B00018460C37BD465DF8047B704780B483B081
:1029C00000AF78607B681B689BB218460C37BD4629
:1029D0005DF8047B7047000080B483B000AF78607E
:1029E000044A7B681A607B6818460C37BD465DF860
:1029F000047B704748C5010880B582B000AF78609D
:102A00007868FFF7E9FF0421786817F0E5F97B683B
:102A100018460837BD4680BD80B582B000AF7860EB
:102A20007B681B6840331B687868984700BF08378D
:102A3000BD4680BD80B483B000AF7860044A7B6837
:102A40001A607B6818460C37BD465DF8047B7047FA
:102A5000B0DA010880B582B000AF78607868FFF71F
:102A6000E9FF0C21786817F0B7F97B68184608373A
:102A7000BD4680BD80B483B000AF78603960094A3C
:102A80007B681A607B683A685A607B6800221A7219
:102A90007B6800225A727B6818460C37BD465DF889
:102AA000047B7047B0DA010880B582B000AF78606F
:102AB0007B685A687B685B681B6814331B68104628
:102AC000984700BF0837BD4680BD000080B400AF06
:102AD000034B1B689B681846BD465DF8047B704736
:102AE00064A2002080B582B000AF78607A687B680D
:102AF0001B6824331B681046984700BF0837BD4643
:102B000080BD000080B483B000AF0346FB7197F92D
:102B10000730002B0DDB97F90730DBB203F01F0203
:102B2000074997F907305B09012000FA02F241F8E2
:102B3000232000BF0C37BD465DF8047B704700BF03
:102B400000E100E080B483B000AF0346FB7197F969
:102B50000730002B12DB97F90730DBB203F01F02BE
:102B6000094997F907305B09012000FA02F2203386
:102B700041F82320BFF34F8FBFF36F8F00BF0C3797
:102B8000BD465DF8047B704700E100E080B485B08D
:102B900000AFF860B9607A603B60FB681B681B6837
:102BA00023F44031BA68FB681B680A431A60FB686B
:102BB0001B685B6B23F007017A68FB681B680A439C
:102BC0005A63FB681B681B6C23F47F5323F03F039D
:102BD0003968FA6812680B431364002318461437E7
:102BE000BD465DF8047B704780B582B000AF786069
:102BF000FEF734FC03461846FFF756FF00BF0837C0
:102C0000BD4680BD80B483B000AF786000BF0C3794
:102C1000BD465DF8047B704780B582B000AF786038
:102C20007B6814331846FFF7AFFE7B6818460837F9
:102C3000BD4680BDB0B582B000AF78607A687B6871
:102C40000C3319461046FFF715FF0E4A7B681A60D1
:102C50007B6803F10C007B6820336022194611F079
:102C6000F1FD7B6820335F241D46002C05DB2846E0
:102C7000FFF7D2FF1C35013CF7E77B6818460837A1
:102C8000BD46B0BD4CAD010880B582B000AF7860E4
:102C90000B4A7B681A600B4808F0CAFE5A20FFF7FF
:102CA00051FF7B680C33184600F0AAFA7B6818467F
:102CB000FFF7C0FE7B6818460837BD4680BD00BFE1
:102CC0004CAD0108240C002080B582B000AF7860C4
:102CD0007868FFF7D9FF4FF42A61786817F07CF81D
:102CE0007B6818460837BD4680BD000080B582B0BD
:102CF00000AF7860094B0A4A1A60084808F04EFE97
:102D0000064B084A1A61054B074A5A615A20FFF7D9
:102D1000F9FE00BF0837BD4680BD00BF240C00206F
:102D200000B00240E92B0008052C000880B483B0F5
:102D300000AF7860074B1B78DBB2002B01D000237B
:102D400001E040F2EF1318460C37BD465DF8047BF6
:102D5000704700BFB00C002090B58DB002AF786016
:102D600039604FF400337B6200233B623B681B6891
:102D7000202B07D03B681B68402B03D03B681B68A7
:102D8000042B01D1012300E00023FB773B681B6883
:102D9000802B04D03B681B68B3F5807F01D10123F1
:102DA00000E00023BB77FFF791FE02461368203353
:102DB0001B681046984703467B773B681B68402B8F
:102DC0001DD0402B04D8042B0ED0202B17D019E097
:102DD000802B03D0B3F5807F03D013E00A233B623E
:102DE0001AE009233B6217E04FF400337B627B7FDC
:102DF000102B01D1022300E001233B620CE00023F1
:102E00003B6209E000237B627B7F102B01D1022310
:102E100000E001233B6200BF764A7B6A53607B7F00
:102E2000102B01D1022300E00123724A93603B681A
:102E30005B8A1A463B689B89D31A1A466D4BDA6047
:102E40007B7F102B01D1022200E001223B685B8ACC
:102E500019463B689B89CB1A796A6648FFF796FE4C
:102E6000644A3B6AD3623B681B8A1A463B689B896B
:102E7000D31A1A465F4B9A62FB7F002B03D1BB7FAC
:102E8000002B00F082803B681B7EFF2B08D0594B43
:102E900002221A633B681B7E1A46564B5A6302E0B5
:102EA000544B00221A63BB7F002B59D07B7F102B21
:102EB0004AD13B6814331846FFF780FD0346DB1206
:102EC00003F01F0213461B029B1A4B4A82FB03129C
:102ED0001A441211DB17D31ABB613B68143318462E
:102EE000FFF76CFD03465B1103F03F0213461B0224
:102EF0009B1A424A82FB03121A445211DB17D31A5F
:102F00007B613B6814331846FFF758FD034603F016
:102F10001F0213461B029B1A374A82FB03121A44F4
:102F20001211DB17D31A3B613B681B7EFB60FB6809
:102F30001A06BB691B041A437B691B021A433B69CF
:102F400013432C4A53630BE03B6814331846FFF7D6
:102F500029FD02463B681B7E1B061343254A53632B
:102F60003B685B8A1A463B689B89D31A1A46214BF9
:102F70009A617B7F102B01D1022300E001231D4ABF
:102F8000D36100211B4808F0D3FF0121194808F044
:102F9000CFFFFB7F002B02D1BB7F002B15D03B68FE
:102FA0005B6819463B689B6818463B689B681C46F3
:102FB0003B689B891A463B68DB8901930092234654
:102FC00002460C4808F0D7FD0FE03B685B681946E5
:102FD0003B689B681A463B689B8918463B68DB89BF
:102FE00000930346034808F093FD00BF2C37BD460D
:102FF00090BD00BF240C0020430821848320088258
:1030000090B58DB002AF78603960FFF75FFD024682
:10301000136820331B68104698470346FB77FB7FF5
:10302000102B01D1022300E00123BB6100233B628E
:10303000FB7F102B49D13B6814331846FFF7BEFCC9
:103040000346DB1203F01F0213461B029B1A694A58
:1030500082FB03121A441211DB17D31A7B613B68FF
:1030600014331846FFF7AAFC03465B1103F03F0236
:1030700013461B029B1A604A82FB03121A44521128
:10308000DB17D31A3B613B6814331846FFF796FCF5
:10309000034603F01F0213461B029B1A554A82FB8C
:1030A00003121A441211DB17D31AFB603B681B7E14
:1030B000BB60BB681A067B691B041A433B691B0291
:1030C0001343FA6813433B620BE03B681B7E1B060D
:1030D0001C463B6814331846FFF764FC0346234341
:1030E0003B623B681B68082B03D14FF400337B62C3
:1030F00003E04FF440337B6200BF404A7B6A536079
:10310000FB7F102B01D1022300E001233B4A936097
:103110003B685B8A1A463B689B89D31A1A46374B31
:10312000DA60FB7F102B01D1022200E001223B6814
:103130005B8A19463B689B89CB1A796A2F48FFF74F
:1031400025FD7B6AB3F5003F1ED12C4B01221A638B
:103150002A4A3B6A5363294B0922DA623B685B8A3D
:103160001A463B689B89D31A1A46244B9A61FB7F07
:10317000102B01D1022300E00123204AD36100215A
:103180001E4808F0D5FE05E01C4ABB69D3621B4B04
:1031900000229A620121194808F0CAFE7B6AB3F541
:1031A000003F15D13B689B6819463B689B681846F1
:1031B0003B689B681C463B689B891A463B68DB89D9
:1031C00001930092234602460C4808F0D4FC0DE01F
:1031D0003B689B681A463B689B8919463B68DB89BC
:1031E00000930B46396A054808F092FC00BF2C3763
:1031F000BD4690BD4308218483200882240C002012
:1032000080B582B000AF7860054A7B681A607B6841
:103210001846FFF7E1FB7B6818460837BD4680BDBE
:10322000FCDA010880B582B000AF78607868FFF7FB
:10323000E7FF1421786816F0CFFD7B681846083741
:10324000BD4680BD80B483B000AF78600B46FB7094
:103250007B68FA7883F864207B68012283F8652014
:1032600000BF0C37BD465DF8047B704780B582B067
:1032700000AF78607B681B6818331B6878689847D4
:1032800000BF0837BD4680BD80B582B000AF786012
:103290007B685A687B685B681B681B6810469847A8
:1032A000034618460837BD4680BD80B483B000AFE2
:1032B00078607B6893F856300133DAB27B6883F824
:1032C000562000BF0C37BD465DF8047B704780B5C3
:1032D00082B000AF7860786811F078F97B681B687D
:1032E00084331B687868984700BF0837BD4680BDA7
:1032F00080B483B000AF78603960002318460C3783
:10330000BD465DF8047B704780B586B000AFF860BD
:10331000B96011461A460B46FB8013467B710023A9
:103320007B61FB88013B1F2B62D801A252F823F07E
:10333000CD330008CD330008F1330008CD33000849
:10334000F1330008F1330008F1330008B13300080D
:10335000F1330008F1330008F1330008F1330008BD
:10336000F1330008F1330008F1330008B1330008ED
:10337000F1330008F1330008F1330008F13300089D
:10338000F1330008F1330008F1330008B1330008CD
:10339000F1330008F1330008F1330008F13300087D
:1033A000F1330008F1330008F1330008B1330008AD
:1033B000294B1B881A46294B1B8803FB02F3FA880A
:1033C000D20892B202FB03F37B6118E0224B1B8808
:1033D0001A46FB8803FB02F30733002B00DA07339E
:1033E000DB101A461D4B1B8803FB02F37B6106E0D2
:1033F0001B4B1C4A4FF439711B4816F0F9FCBB6893
:103400003B61FB683A699A637B79002B07D03A6984
:103410007B6913443B61FB683A69DA6302E0FB684D
:103420000022DA6397F82030002B07D03A697B69D5
:1034300013443B61FB683A691A6402E0FB680022AE
:103440001A640A4A7B791370094A97F8203013707E
:1034500000BF1837BD4680BD58A200205AA20020E8
:10346000A0AD010860AF0108C0AD010862A2002054
:1034700063A2002080B584B000AFF860B9607A60C4
:103480003B60BB68002B06D1114B124A4FF44371CD
:10349000114816F0ADFCFB68BA689A63FB687A685D
:1034A000DA63FB683A681A647B68002B14BF012357
:1034B0000023DAB2094B1A703B68002B14BF0123BA
:1034C0000023DAB2064B1A7000BF1037BD4680BD2C
:1034D0002CAE010810AF0108C0AD010862A20020A7
:1034E00063A2002080B582B000AF78600B467B807D
:1034F0007B685B6B002B04D07B685B6B7A88104623
:10350000984700BF0837BD4680BD000080B483B037
:1035100000AF78607B6893F864207B6893F8303064
:103520009A4217D01A4B1B78002B2AD1194B1A88B4
:10353000194B1A80194B1A88194B1A80164B1A8886
:10354000164B1A80164B1A88124B1A80104B012208
:103550001A7016E00E4B1B78002B12D00F4B1A88F6
:103560000D4B1A800B4B1A880D4B1A800C4B1A8886
:103570000A4B1A80084B1A88064B1A80044B00220B
:103580001A7000BF0C37BD465DF8047B704700BF62
:103590005CA2002058A200205EA200205AA20020B7
:1035A00060A2002080B483B000AF0346FB7197F99E
:1035B0000730002B0DDB97F90730DBB203F01F0259
:1035C000074997F907305B09012000FA02F241F838
:1035D000232000BF0C37BD465DF8047B704700BF59
:1035E00000E100E080B483B000AF0346FB7197F9BF
:1035F0000730002B12DB97F90730DBB203F01F0214
:10360000094997F907305B09012000FA02F22033DB
:1036100041F82320BFF34F8FBFF36F8F00BF0C37EC
:10362000BD465DF8047B704700E100E080B483B0E4
:1036300000AF03463960FB7197F90730002B0CDBB4
:103640003B68DBB20E4A97F9071008461B01D9B256
:1036500013180A4683F800230CE03B68DAB20949E4
:1036600097F90730DBB203F00F03043B1201D2B22B
:103670000B441A7600BF0C37BD465DF8047B7047DB
:1036800000E100E000ED00E080B483B000AF7860BE
:10369000034B9B6A18460C37BD465DF8047B7047A8
:1036A0008468014080B483B000AF78603960064A16
:1036B0003B689362054B01225A6200BF0C37BD463E
:1036C0005DF8047B704700BF8468014000680140DA
:1036D00080B485B000AF78600D4B5B6CFB810C4B08
:1036E000DB689BB2C3F30A039BB20133BB81FA8947
:1036F000BB899A4201D2002303E0FA89BB89D31A1D
:103700009BB218461437BD465DF8047B704700BF76
:103710000068014080B582B000AF786009215A206E
:10372000FFF784FF09215820FFF780FF00BF08370B
:10373000BD4680BD80B582B000AF7860124BDB68BB
:103740009BB2C3F30A039BB2013B9AB20F4B1A80A0
:103750000D4B1B699BB2C3F30A039BB2013B9AB2A8
:103760000B4B1A80094B1B8819460A480AF0F2FED7
:10377000084B1B685A6B074B1B6842F003025A63E5
:1037800000BF0837BD4680BD00680140B20C002074
:10379000B40C00207C0B002080B582B000AF7860B4
:1037A0005820FFF71FFF5A20FFF71CFF5920FFF793
:1037B00019FF00BF0837BD4680BD80B582B000AF9D
:1037C00078605820FFF7EEFE5A20FFF7EBFE5920F5
:1037D000FFF7E8FE00BF0837BD4680BD80B582B068
:1037E00000AF78601A4B1B6C1A4A128893420CBFC8
:1037F00001230023DBB2002B17D0174B1B8819467F
:1038000078680AF0A7FEFDF729FE03461846FFF781
:103810004CFD0FF06FFBFDF721FE0346184610F03C
:10382000D5FE0020FEF708FD0EE00A4B1B88194666
:1038300078680AF08FFE0020FEF709FDFDF70EFE06
:1038400003461846FFF712FD00BF0837BD4680BD8E
:1038500000680140B20C0020B40C002080B596B086
:1038600000AF786000233B650023BB60424B1B6CBC
:10387000414A43F0010313643F4B1B6C03F0010307
:10388000BB60BB6807F1140324220021184616F020
:103890002AFB07F10C0300221A605A60374B4FF0E5
:1038A00080421A60354B00225A60344B00229A60E5
:1038B000324B0022DA60314B00221A612F4B00227A
:1038C0009A6101237B610023BB610123FB6100231B
:1038D0003B6200237B620023BB620123FB62002367
:1038E0003B6300237B6307F11403194623480BF065
:1038F000B5FF0346002B14BF01230023DBB2002BCE
:1039000001D000F0ABFE0023FB6000233B6107F118
:103910000C03194619480CF003FA0346002B14BF98
:1039200001230023DBB2002B01D000F097FE07F14A
:10393000380207F13C03114618460BF035FCBB6C0E
:103940003B653B6D002B03D10BF006FC786504E072
:103950000BF002FC03465B007B650BF0F1FB0246BB
:103960007B6DB2FBF3F27B68DA6004480BF02EFF4C
:1039700000BF5837BD4680BD00380240B80C00205B
:1039800080B485B000AFF860B9607A603B607A6857
:10399000BB68D21A3B685B081A443B68B2FBF3F37E
:1039A00018461437BD465DF8047B704780B483B079
:1039B00000AF7860064B1B685B6A7A68D26802FBCE
:1039C00003F318460C37BD465DF8047B704700BF13
:1039D000B80C002080B582B000AF78600B46FB7059
:1039E000FB78002B0FD07B681B6810331B6878684E
:1039F000984702467B689B68D21A7B685B681A44CA
:103A00007B685A6008E07B681B6810331B68786825
:103A1000984702467B689A6000BF0837BD4680BD64
:103A200080B582B000AF786000F048F800BF08377A
:103A3000BD4680BD80B586B000AFF860B9607A60E1
:103A40004FF480410D4809F0DCFA07F110031846E5
:103A500000F064F83B8A002B0BD07B8A1A46BB68C7
:103A60001A60BB8A1A467B681A6000233B820123D6
:103A700000E0002318461837BD4680BD00180240FC
:103A800080B586B004AF03463960FB711346BB7145
:103A9000FB7999B2BB799BB20222029201933B68F7
:103AA000009301230A467021034809F011FC0346E4
:103AB00018460837BD4680BDB40F002080B582B0DF
:103AC00000AF00220421134809F082FAC82007F051
:103AD00045FD012204210F4809F07AFAC82007F0B9
:103AE0003DFD0023FB71FB1D01221946A720FFF7B6
:103AF000C7FF0346002B09D04FF48041064809F068
:103B000080FA40F2DC5007F029FDF5E700BF0837E6
:103B1000BD4680BD001C02400018024080B58AB03E
:103B200004AF786000233B6103233B740323FB75E0
:103B3000FB7D9AB2642302930423019307F11003DF
:103B4000009301237021244809F0BCFC0346FB7359
:103B5000FB7BDBB2002B04D01F4809F0D9FE0346E3
:103B6000BB603B7C1B021BB203F470631AB27B7C0C
:103B70001BB213431BB29AB27B685A80BB7C1B02F8
:103B80001BB203F470631AB2FB7C1BB213431BB26B
:103B90009BB2C3F516739AB27B689A803B7C5BB28A
:103BA000002B08DA7B6801221A804FF400410B4891
:103BB00009F027FA0CE03B7C03F04003002B07D010
:103BC0004FF40071064809F01CFA7B6800221A8045
:103BD00000BF1837BD4680BDB40F00200000024072
:103BE000001C024080B485B000AFF860B9607A6014
:103BF000FB68074A1A60BB68064A1A607B68802225
:103C00001A6000BF1437BD465DF8047B704700BFE3
:103C1000F80C0020500D0020B0B58EB000AF07F0BA
:103C20005BFC00F061F800F095FB00F047F900F054
:103C300063FB00F07DF900F043FA00F09FFA00F01A
:103C4000FBFA00F0C5F900F0FFF900F003F900F00D
:103C5000E9F84FF480411E4809F0D3F94FF47A7027
:103C600007F07CFC4FF48041194809F0CAF94FF481
:103C70000041184809F0C5F9FDF706FFFDF776FF8A
:103C8000154B07F11C041D460FCD0FC495E8070026
:103C900084E8070007F11C03002118460CF034FDEE
:103CA00002460E4B1A600E4B3C461D460FCD0FC40C
:103CB00095E8070084E807003B46002118460CF011
:103CC00023FD0246074B1A600CF017FDFEE700BF0C
:103CD000001802400000024030B00108B811002076
:103CE00058B00108BC11002080B5A0B000AF07F1AA
:103CF000500330220021184616F0F5F807F13C0376
:103D000000221A605A609A60DA601A6107F10C03A7
:103D100030220021184616F0E6F80023BB603F4B26
:103D20001B6C3E4A43F0805313643C4B1B6C03F006
:103D30008053BB60BB6800237B60394B1B68384AEB
:103D400043F440431360364B1B6803F440437B60ED
:103D50007B6802233B650123FB6510233B6602233E
:103D6000BB660023FB6608233B67B4237B67022303
:103D7000BB670623FB6707F1500318460AF00AFEEB
:103D80000346002B14BF01230023DBB2002B01D01C
:103D900000F064FC0AF0AEFD0346002B14BF0123C3
:103DA0000023DBB2002B01D000F058FC0F23FB6393
:103DB00002233B6400237B644FF4A053BB644FF4A5
:103DC0008053FB6407F13C03052118460BF024F8EF
:103DD0000346002B14BF01230023DBB2002B01D0CC
:103DE00000F03CFC0823FB603223FB6102237B6272
:103DF00000233B6307F10C0318460BF007FA034658
:103E0000002B14BF01230023DBB2002B01D000F0F4
:103E100025FC00BF8037BD4680BD00BF0038024092
:103E20000070004080B500AF084B094A1A6007488F
:103E300007F0C8FC0346002B14BF01230023DBB2AC
:103E4000002B01D000F00AFC00BF80BD500F002005
:103E50000030024080B582B000AF3B4600221A60BD
:103E60005A60144B144A1A60124807F0CAFC034601
:103E7000002B14BF01230023DBB2002B01D000F084
:103E8000EDFB00233B6000237B603B46002219468C
:103E9000084807F02CFD0346002B14BF0123002324
:103EA000DBB2002B01D000F0D9FB00BF0837BD46C4
:103EB00080BD00BF580F00200074004080B582B064
:103EC00000AF194B194A1A60174B01225A60164B62
:103ED00001221A8200233B7080237B70E123BB7098
:103EE0000023FB7000233B7100237B710E4A3B468D
:103EF00053610D4B00229A610B4B0022DA610A4B91
:103F00004FF400021A62084808F040F90346002BFB
:103F100014BF01230023DBB2002B01D000F09EFB75
:103F200000BF0837BD4680BD6C0F002000800240F6
:103F300080B500AF234B244A1A60224B234A5A60B3
:103F4000204B00229A601F4B0022DA601D4B4FF479
:103F500080421A611B4B00225A611A4B00229A615F
:103F6000184B0022DA61174B00221A62154809F03B
:103F700087F80346002B14BF01230023DBB2002B7C
:103F800001D000F06BFB00210E480AF004F8034654
:103F9000002B14BF01230023DBB2002B01D000F063
:103FA0005DFB002107480AF032F80346002B14BFDE
:103FB00001230023DBB2002B01D000F04FFB00BF38
:103FC00080BD00BFB40F002000580040A086010053
:103FD00080B500AF1A4B1B4A1A60194B4FF482721E
:103FE0005A60174B00229A60154B0022DA60144B7E
:103FF00000221A61124B00225A61114B4FF40072D9
:104000009A610F4B0022DA610D4B00221A620C4BB1
:1040100000225A620A4B00229A62094B0A22DA6293
:1040200007480BF03AFB0346002B14BF0123002383
:10403000DBB2002B01D000F011FB00BF80BD00BF40
:10404000081000200038004080B500AF1A4B1B4A12
:104050001A60194B4FF482725A60174B00229A6013
:10406000154B0022DA60144B00221A61124B002219
:104070005A61114B4FF400729A610F4B0022DA61C2
:104080000D4B00221A620C4B00225A620A4B00228E
:104090009A62094B0A22DA6207480BF0FEFA0346DD
:1040A000002B14BF01230023DBB2002B01D000F052
:1040B000D5FA00BF80BD00BF601000200034014071
:1040C00080B58CB000AF07F10C0324220021184604
:1040D00015F009FF3B1D00221A605A60254B264A45
:1040E0001A60244B00225A60224B00229A60214B16
:1040F0000022DA601F4B00221A611E4B00229A61D7
:104100000123FB6000233B6101237B610023BB6132
:104110000023FB6100233B6201237B620023BB621F
:104120000023FB6207F10C03194612480BF096FBC3
:104130000346002B14BF01230023DBB2002B01D068
:1041400000F08CFA00237B600023BB603B1D194606
:1041500008480BF0E5FD0346002B14BF01230023A4
:10416000DBB2002B01D000F079FA00BF3037BD463A
:1041700080BD00BFB81000200004004080B58CB0A6
:1041800000AF07F10C0324220021184615F0ABFE06
:104190003B1D00221A605A60254B264A1A60244BA8
:1041A00000225A60224B00229A60214B0022DA60E2
:1041B0001F4B00221A611E4B00229A610123FB60F3
:1041C00000233B6101237B610023BB610023FB6172
:1041D00000233B6201237B620023BB620023FB625E
:1041E00007F10C03194612480BF038FB0346002B6D
:1041F00014BF01230023DBB2002B01D000F02EFA04
:1042000000237B600023BB603B1D194608480BF070
:1042100087FD0346002B14BF01230023DBB2002BD4
:1042200001D000F01BFA00BF3037BD4680BD00BF93
:10423000F81000200008004080B58CB000AF07F1F6
:104240000C0324220021184615F04DFE3B1D0022D0
:104250001A605A60264B274A1A60254B00225A6082
:10426000234B00229A60224B0022DA60204B00226E
:104270001A611F4B00225A611D4B00229A610123D3
:10428000FB6000233B6101237B610023BB610023B2
:10429000FB6100233B6201237B620023BB6200239E
:1042A000FB6207F10C03194611480BF0D7FA0346DD
:1042B000002B14BF01230023DBB2002B01D000F040
:1042C000CDF900237B600023BB603B1D19460848E5
:1042D0000BF026FD0346002B14BF01230023DBB2A5
:1042E000002B01D000F0BAF900BF3037BD4680BDC9
:1042F000381100200004014080B500AF134B144A70
:104300001A60124B4FF4E1325A60104B00229A604F
:104310000E4B0022DA600D4B00221A610B4B0C226F
:104320005A610A4B00229A61084B0022DA61074861
:104330000BF04FFD0346002B14BF01230023DBB21B
:10434000002B01D000F08AF900BF80BD7811002059
:104350000010014080B58EB000AF07F124030022A9
:104360001A605A609A60DA601A6100233B629E4BC1
:104370001B6B9D4A43F0100313639B4B1B6B03F0B5
:1043800010033B623B6A0023FB61974B1B6B964A11
:1043900043F480731363944B1B6B03F48073FB61D2
:1043A000FB690023BB61904B1B6B8F4A43F02003DA
:1043B00013638D4B1B6B03F02003BB61BB690023B0
:1043C0007B61894B1B6B884A43F004031363864B64
:1043D0001B6B03F004037B617B6900233B61824B11
:1043E0001B6B814A43F0010313637F4B1B6B03F08C
:1043F00001033B613B690023FB607B4B1B6B7A4AEB
:1044000043F080031363784B1B6B03F08003FB6066
:10441000FB680023BB60744B1B6B734A43F00203C1
:104420001363714B1B6B03F00203BB60BB6800237B
:104430007B606D4B1B6B6C4A43F0400313636A4B0C
:104440001B6B03F040037B607B6800233B60664B83
:104450001B6B654A43F008031363634B1B6B03F04C
:1044600008033B603B6800221821604808F0B0FD5B
:1044700000224FF480715E4808F0AAFD00224FF43C
:1044800001715C4808F0A4FD002248F240015A483E
:1044900008F09EFD00224FF48041584808F098FD36
:1044A00018237B620123BB620023FB6200233B6372
:1044B00007F1240319464D4808F0D6FA4FF48073EB
:1044C0007B620123BB620023FB6200233B6307F195
:1044D00024031946464808F0C7FA4FF400737B627C
:1044E000474BBB620023FB6207F124031946404897
:1044F00008F0BAFA4FF401737B620123BB62002318
:10450000FB6200233B6307F124031946394808F096
:10451000ABFA08237B623A4BBB620023FB6207F1D4
:1045200024031946334808F09FFA48F240037B629F
:104530000123BB620023FB6200233B6307F12403DA
:1045400019462D4808F090FA4FF480537B620223FD
:10455000BB620023FB6200233B6302237B6307F102
:1045600024031946234808F07FFA4FF480437B6206
:104570000123BB620023FB6200233B6307F124039A
:1045800019461E4808F070FA20237B621C4BBB6260
:104590000023FB6207F1240319461A4808F064FA65
:1045A00010237B62164BBB620023FB6207F12403DE
:1045B0001946154808F058FA80237B62134BBB62FA
:1045C0000023FB6207F1240319460F4808F04CFA58
:1045D00000220521092007F0BDF8092007F0D6F8D0
:1045E00000BF3837BD4680BD003802400010024091
:1045F00000140240001C024000000240001802406B
:1046000000001110000402400020024000002110B0
:1046100080B582B000AF7860FDF7AEFA01200CF0F3
:10462000BFF8FBE780B582B000AF78604FF4C87088
:104630000CF0B6F8FAE7000080B582B000AF786001
:104640007B681B68044A934201D106F067FF00BFF4
:104650000837BD4680BD00BF0010004080B400AFE9
:1046600000BFBD465DF8047B7047000080B582B096
:1046700000AF0346FB71F91D4FF47A730122034822
:104680000BF0F4FB00BF0837BD4680BD7811002059
:1046900080B485B000AFB9607A603B600346FB73BD
:1046A00000BF1437BD465DF8047B704780B584B009
:1046B00000AFB9607A603B600346FB73FB7B002B65
:1046C00003D0FB7B1846FFF7D1FF00BF1037BD4674
:1046D00080BD80B485B000AF786039607B68FB60D6
:1046E00002E0FB680133FB60FB681B78002B04D001
:1046F0003B685A1E3A60002BF3D1FA687B68D31AE4
:1047000018461437BD465DF8047B704780B483B00B
:1047100000AF0346FB71FB792F2B04D9FB79392BB2
:1047200001D8012300E00023DBB218460C37BD4658
:104730005DF8047B704780B584B000AF78600023DB
:10474000FB600EE0FA6813469B0013445B001846BA
:104750007B681B68591C7A6811601B780344303BE6
:10476000FB607B681B681B781846FFF7CFFF03468A
:10477000002BE7D1FB6818461037BD4680BD90B5C9
:1047800087B000AFF860B9607A603B607B683B61DE
:104790007B6B03F00203002B25D17B6B03F001033D
:1047A000002B20D1FB6A7B610AE07A68531C7B6096
:1047B000FC683B68B9682020A0477B6901337B61B6
:1047C0007A693B6B9A42F0D30DE0FB6A013BFB62D6
:1047D000BA6AFB6A134418787A68531C7B60FC68D9
:1047E0003B68B968A047FB6A002BEED17B6B03F0F6
:1047F0000203002B0ED007E07A68531C7B60FC6834
:104800003B68B9682020A0477A683B69D31A3A6BA5
:104810009A42F1D87B6818461C37BD4690BD80B5DA
:1048200088B004AFF860B9607A603B603B6B03F01E
:104830000203002B36D1FB6A002B18D03B6B03F030
:104840000103002B13D097F82030002B04D13B6BD1
:1048500003F00C03002B0AD0FB6A013BFB6206E06D
:10486000FB695A1CFA61BA69134430221A70FA695A
:10487000BB6A9A420AD2FB691F2BF1D906E0FB6999
:104880005A1CFA61BA69134430221A703B6B03F068
:104890000103002B06D0FA69FB6A9A4202D2FB6937
:1048A0001F2BECD93B6B03F01003002B58D03B6B54
:1048B00003F48063002B16D1FB69002B13D0FA6937
:1048C000BB6A9A4203D0FA69FB6A9A420BD1FB6930
:1048D000013BFB61FB69002B05D07B6A102B02D1E9
:1048E000FB69013BFB617B6A102B0FD13B6B03F033
:1048F0002003002B0AD1FB691F2B07D8FB695A1C28
:10490000FA61BA69134478221A701FE07B6A102B8F
:104910000FD13B6B03F02003002B0AD0FB691F2B48
:1049200007D8FB695A1CFA61BA69134458221A70F5
:104930000CE07B6A022B09D1FB691F2B06D8FB69AF
:104940005A1CFA61BA69134462221A70FB691F2B60
:1049500006D8FB695A1CFA61BA69134430221A70EE
:10496000FB691F2B24D897F82030002B07D0FB6958
:104970005A1CFA61BA6913442D221A7018E03B6B75
:1049800003F00403002B07D0FB695A1CFA61BA69D3
:1049900013442B221A700BE03B6B03F00803002B2F
:1049A00006D0FB695A1CFA61BA69134420221A70B6
:1049B0003B6B0393FB6A0293FB690193BB69009312
:1049C0003B687A68B968F868FFF7D9FE034618466D
:1049D0001037BD4680BD80B596B008AFF860B960AD
:1049E0007A603B6000237B633B6C002B03D17B6DC3
:1049F00023F010037B657B6D03F48063002B02D0F2
:104A00003B6C002B33D03B6CBA6CB3FBF2F2B96C4D
:104A100001FB02F29B1A87F8333097F83330092BE9
:104A200004D897F833303033DAB20DE07B6D03F001
:104A30002003002B01D0412200E0612297F833309F
:104A40001344DBB20A3BDAB27B6B591C796307F182
:104A500038010B4403F8282C3A6CBB6CB2FBF3F31F
:104A60003B643B6C002B02D07B6B1F2BCBD97B6D47
:104A700006933B6D0593FB6C0493BB6C039397F813
:104A8000443002937B6B019307F1100300933B6862
:104A90007A68B968F868FFF7C2FE034618463837E7
:104AA000BD4680BD90B597B008AFF860B9607A6038
:104AB0003B6000237B63D7E91234234303D1BB6EF1
:104AC00023F01003BB66BB6E03F48063002B03D09E
:104AD000D7E91234234339D0D7E91201D7E9162395
:104AE000FCF724F81C46134687F8333097F8333028
:104AF000092B04D897F833303033DAB20DE0BB6EAF
:104B000003F02003002B01D0412200E0612297F83E
:104B100033301344DBB20A3BDAB27B6B591C796346
:104B200007F138010B4403F8282CD7E91623D7E9FD
:104B30001201FBF7FBFF03460C46C7E91234D7E925
:104B40001234234302D07B6B1F2BC5D9BB6DBA6EC9
:104B500006927A6E05923A6E0492039397F850305B
:104B600002937B6B019307F1100300933B687A6813
:104B7000B968F868FFF753FE034618463C37BD4650
:104B800090BD00000000000090B59DB004AF7861BA
:104B90003961FA60BB6087ED000B0023FB654FF0C5
:104BA00000034FF00004C7E91034D7E90023D7E928
:104BB0000001FBF741FF0346002B0FD1BB6F0393AE
:104BC0007B6F029303230193AF4B0093BB68FA689A
:104BD00039697869FFF7D3FD034637E24FF0FF32BA
:104BE0006FF48013D7E90001FBF730FF0346002B79
:104BF0000FD0BB6F03937B6F029304230193A34BEE
:104C00000093BB68FA6839697869FFF7B8FD034615
:104C10001CE24FF0FF329E4BD7E90001FBF734FF57
:104C20000346002B1DD0BB6F03F00403002B01D003
:104C3000984B00E0984BBA6F02F00402002A01D0B2
:104C4000042200E00322B96F0391796F029101926F
:104C50000093BB68FA6839697869FFF790FD0346ED
:104C6000F4E185A3D3E90023D7E90001FBF70CFFAA
:104C70000346002B09D182A3D3E90023D7E9000121
:104C8000FBF7E4FE0346002B0FD0BB6F02937B6F54
:104C900001933B6F009397ED000BBB68FA6839698D
:104CA000786900F0DDF90346D0E1002387F85B3036
:104CB0004FF000024FF00003D7E90001FBF7C6FEFA
:104CC0000346002B0ED0012387F85B30D7E9002381
:104CD0004FF000004FF00001FBF78EFA03460C4640
:104CE000C7E90034BB6F03F48063002B0ED10623A9
:104CF0003B670BE0FB6D5A1CFA6507F16002134439
:104D0000302203F8482C3B6F013B3B67FB6D1F2BA8
:104D100002D83B6F092BEDD8D7E90001FBF7BEFEA7
:104D200003467B65786DFBF7B5FB03460C461A46D8
:104D30002346D7E90001FBF75FFA03460C46184605
:104D40002146564A3B6FDB001344D3E900341A4630
:104D50002346FBF709FC03460C46C7E90E34D7E9A6
:104D60000E01FBF7C3FE03463B65386DFBF782FB84
:104D700003460C461A462346D7E90E01FBF73CFAD8
:104D800003460C46C7E910344FF00002444BD7E904
:104D90001001FBF779FE0346002B18D03B6D013361
:104DA0003B65386DFBF766FB3C4A3B6FDB00134409
:104DB000D3E900341A462346FBF75CFE0346002B7A
:104DC0001AD000233B657B6D01337B6514E04FF007
:104DD0000002334BD7E91001FBF738FE0346002BE6
:104DE0000AD13B6D002B04D03B6D03F00103002B77
:104DF00002D03B6D01333B653B6F002B36D1786DA4
:104E0000FBF748FB03460C461A462346D7E9000148
:104E1000FBF7F2F903460C46C7E9103401231C46A0
:104E20004FF000021E4BD7E91001FBF70FFE0346BF
:104E3000002B01D100231C46E3B283F00103DBB257
:104E4000002B09D14FF00002154BD7E91001FBF7F9
:104E50001BFE0346002B69D07B6D03F00103002B82
:104E600000F087807B6D01337B6582E03B6FFB64E4
:104E700039E000BFAFF300800000000065CDCD41F8
:104E80000000000065CDCDC178B001087CB00108FC
:104E9000FFFFEF7F84B001088CB0010890B00108DB
:104EA0000000E03FFB6C013BFB64396D694BA3FBE9
:104EB0000123DA0813469B0013445B00CA1AD2B2DE
:104EC000FB6D591CF9653032D2B207F160010B4419
:104ED00003F8482C3B6D5F4AA2FB0323DB083B65CC
:104EE0003B6D002B03D0FB6D1F2BDBD90AE000BF0D
:104EF00008E0FB6D5A1CFA6507F16002134430228A
:104F000003F8482CFB6D1F2B04D8FB6C5A1EFA6467
:104F1000002BEED1FB6D1F2B2BD8FB6D5A1CFA65B5
:104F200007F1600213442E2203F8482C21E07A6D29
:104F3000494B83FB02139910D317C91A0B469B00E8
:104F40000B445B00D11ACAB2FB6D591CF9653032B3
:104F5000D2B207F160010B4403F8482C7B6D3E4A46
:104F600082FB03129210DB17D31A7B657B6D002B3B
:104F700003D0FB6D1F2BDAD900E000BFBB6F03F03D
:104F80000203002B24D1BB6F03F00103002B1FD0C1
:104F90007B6F002B15D097F85B30002B04D1BB6FD3
:104FA00003F00C03002B0CD07B6F013B7B6708E008
:104FB000FB6D5A1CFA6507F160021344302203F8B6
:104FC000482CFA6D7B6F9A4202D2FB6D1F2BEFD9F2
:104FD000FB6D1F2B2AD897F85B30002B09D0FB6D97
:104FE0005A1CFA6507F1600213442D2203F8482C7D
:104FF0001CE0BB6F03F00403002B09D0FB6D5A1CAF
:10500000FA6507F1600213442B2203F8482C0DE0E7
:10501000BB6F03F00803002B08D0FB6D5A1CFA6528
:1050200007F160021344202203F8482CBB6F03935E
:105030007B6F0293FB6D019307F118030093BB682C
:10504000FA6839697869FFF79AFB034618466437AE
:10505000BD4690BDCDCCCCCC676666660000000036
:105060002DE9F04F9DB006AFF861B9617A613B61FF
:1050700087ED020BD7E90223D7E90201FBF7DCFC3D
:105080000346002B14D04FF0FF32134BD7E9020137
:10509000FBF7FAFC0346002B0AD14FF0FF326FF406
:1050A0008013D7E90201FBF7D1FC0346002B15D092
:1050B000D7F888300293D7F884300193D7F880303E
:1050C000009397ED020B3B697A69B969F869FFF7BC
:1050D0005BFD03465BE200BFFFFFEF7F01231C4641
:1050E0004FF000024FF00003D7E90201FBF7AEFCDE
:1050F0000346002B01D100231C46E3B287F84B3056
:1051000097F84B30002B05D0BB68BB60FB6883F081
:105110000043FB60D7F8883003F48063002B02D192
:105120000623C7F88030D7E90234C7E90834D7E945
:1051300008124FF000034FF00004130D0024C3F3D6
:105140000A03A3F2FF337B64D7E908344FF0FF3141
:10515000C74A03EA010804EA02094FF00001C54A00
:1051600048EA010349EA0204C7E90834786CFBF70E
:1051700091F9AFA3D3E90023FBF7F6F903460C46F8
:1051800018462146ACA3D3E90023FBF737F80346C2
:105190000C469846A146D7E908014FF00002B64BED
:1051A000FBF72AF803460C4618462146A4A3D3E988
:1051B0000023FBF7D9F903460C461A46234640461E
:1051C0004946FBF71BF803460C4618462146FBF7F9
:1051D00065FC03467B65786DFBF75CF99AA3D3E920
:1051E0000023FBF7C1F903460C46184621464FF051
:1051F0000002A24BFBF702F803460C461846214674
:10520000FBF74CFC03467B64786DFBF743F990A3F6
:10521000D3E90023FBF7A8F903460C469846A146BC
:10522000786CFBF737F98CA3D3E90023FBF79CF9E3
:1052300003460C461A46234640464946FAF7DCFF29
:1052400003460C46C7E90E34D7E90E23D7E90E0111
:10525000FBF78AF903460C46C7E90C347B6C03F272
:10526000FF3319464FEAE1724FF000034FF000049C
:105270000C050023C7E90834D7E90889D7E90E01EE
:1052800002460B46FAF7BAFF03460C469A46A34677
:10529000D7E90E234FF000004FF08041FAF7ACFF42
:1052A00003460C46C7E900344FF00002744BD7E9BF
:1052B0000C01FBF783FA03460C46184621464FF0D3
:1052C0000002704BFAF79AFF03460C461A46234633
:1052D000D7E90C01FBF772FA03460C461846214643
:1052E0004FF00002684BFAF789FF03460C461A4656
:1052F0002346D7E90C01FBF761FA03460C461A4630
:105300002346D7E90001FAF779FF03460C461A460F
:10531000234650465946FBF751FA03460C461846B9
:1053200021464FF00002534BFAF768FF03460C4644
:105330001A46234640464946FBF716F903460C46F3
:10534000C7E90834D7E908341A462346D7E90201E9
:10535000FBF77CFB0346002B0DD07B6D013B7B658F
:10536000D7E908014FF00002464BFBF727FA034646
:105370000C46C7E908347B6D632B05DC7B6D13F1AC
:10538000630F01DB042300E005233B65D7F8883079
:1053900003F40063002B3DD031A3D3E90023D7E908
:1053A0000201FBF767FB0346002B24D02EA3D3E9B1
:1053B0000023D7E90201FBF749FB0346002B1AD073
:1053C000D7F880307A6D9A4207DAD7F880207B6D63
:1053D000D31A013BC7F8803002E00023C7F88030C1
:1053E000D7F8883043F48063C7F8883000233B65E2
:1053F00000237B650EE0D7F88030002B0AD0D7F869
:10540000883003F48063002B04D0D7F88030013B50
:10541000C7F88030D7F88430FB64D7F884203B6D20
:105420009A4233D9FA6C3B6DD31AFB6430E000BF6B
:10543000FB799F501344D33FB3C8608B288AC63F83
:1054400061436F63A787D23F71A379094F930A40E5
:105450001655B5BBB16B0240EF39FAFE422EE63F5E
:105460002D431CEBE2361A3F0000000080842E41E1
:10547000FFFF0F000000F03F0000F83F0000E03F9A
:1054800000002C4000002440000018400023FB6472
:10549000D7F8883003F00203002B04D03B6D002BBB
:1054A00001D00023FB647B6D002B0BD0D7E90834BF
:1054B0001A462346D7E90201FBF780F903460C465A
:1054C000C7E902347B69FB6297F84B30002B04D0AC
:1054D000BD68FB6883F0004601E0D7E90256D7F8C3
:1054E000883023F400630293FB6C0193D7F880307B
:1054F000009346EC105B3B697A69B969F869FFF77C
:1055000043FB78613B6D002B40D0D7F8883003F027
:105510002003002B01D0452000E065207A69531C50
:105520007B61FC693B69B969A0477B6D002BB8BF03
:105530005B4219467B6DDB0FDBB218463B6D013BCE
:10554000052205920493002303930A2302930190FA
:1055500000913B697A69B969F869FFF73CFA7861AB
:10556000D7F8883003F00203002B0FD007E07A69E8
:10557000531C7B61FC693B69B9692020A0477A69AB
:10558000FB6AD31AD7F884209A42F0D87B69184670
:105590005C37BD46BDE8F08FB0B5A0B00AAFF8608B
:1055A000B9607A603B6000237B64BB68002B40F0ED
:1055B0009584A04BFB6000F091BC3B681B78252BC9
:1055C0000DD03B6818787A6C531C7B64FC687B6850
:1055D000B968A0473B6801333B6000F07FBC3B6883
:1055E00001333B6000237B653B681B78203B102B1D
:1055F00056D801A252F823F079560008A1560008A7
:10560000A15600088D560008A1560008A1560008B2
:10561000A1560008A1560008A1560008A15600088E
:10562000A156000865560008A1560008515600080A
:10563000A1560008A15600083D5600087B6D43F0B6
:1056400001037B653B6801333B600123BB642AE0B7
:105650007B6D43F002037B653B6801333B600123B4
:10566000BB6420E07B6D43F004037B653B68013342
:105670003B600123BB6416E07B6D43F008037B6550
:105680003B6801333B600123BB640CE07B6D43F05E
:1056900010037B653B6801333B600123BB6402E080
:1056A0000023BB6400BFBB6C002B9DD100233B6576
:1056B0003B681B781846FFF729F80346002B05D0F6
:1056C0003B461846FFF737F8386518E03B681B780B
:1056D0002A2B14D1BB6E1A1DBA661B683B633B6B49
:1056E000002B07DA7B6D43F002037B653B6B5B426B
:1056F0003B6501E03B6B3B653B6801333B6000234E
:10570000FB643B681B782E2B24D17B6D43F48063B4
:105710007B653B6801333B603B681B781846FEF7AE
:10572000F5FF0346002B05D03B461846FFF703F86C
:10573000F8640FE03B681B782A2B0BD1BB6E1A1D57
:10574000BA661B68FB62FB6A23EAE373FB643B688F
:1057500001333B603B681B78683B122B66D801A283
:1057600052F823F0D75700082D5800080D580008AC
:105770002D580008B15700082D5800082D58000872
:105780002D5800082D5800082D5800082D580008E5
:105790002D580008FD5700082D5800082D58000806
:1057A0002D5800082D5800082D5800081D580008D5
:1057B0007B6D43F480737B653B6801333B603B68E2
:1057C0001B786C2B34D17B6D43F400737B653B6895
:1057D00001333B602CE07B6D43F080037B653B68CD
:1057E00001333B603B681B78682B25D17B6D43F010
:1057F00040037B653B6801333B601DE07B6D43F4F8
:1058000080737B653B6801333B6016E07B6D43F43E
:1058100000737B653B6801333B600EE07B6D43F4B6
:1058200080737B653B6801333B6006E000BF04E0AA
:1058300000BF02E09146000800BF3B681B78253B93
:10584000532B00F23E8301A252F823F0AB5E000816
:10585000C35E0008C35E0008C35E0008C35E0008A4
:10586000C35E0008C35E0008C35E0008C35E000894
:10587000C35E0008C35E0008C35E0008C35E000884
:10588000C35E0008C35E0008C35E0008C35E000874
:10589000C35E0008C35E0008C35E0008C35E000864
:1058A000C35E0008C35E0008C35E0008C35E000854
:1058B000C35E0008C35E0008C35E0008C35E000844
:1058C000C35E0008C35E0008C35E00087B5C00087E
:1058D0002F5C00087B5C0008C35E0008C35E000804
:1058E000C35E0008C35E0008C35E0008C35E000814
:1058F000C35E0008C35E0008C35E0008C35E000804
:10590000C35E0008C35E0008C35E0008C35E0008F3
:10591000C35E0008C35E00089D590008C35E00080E
:10592000C35E0008C35E0008C35E0008C35E0008D3
:10593000C35E0008C35E0008C35E0008C35E0008C3
:105940009D590008E75C00089D5900087B5C000831
:105950002F5C00087B5C0008C35E00089D590008AE
:10596000C35E0008C35E0008C35E0008C35E000893
:10597000C35E00089D5900081F5E0008C35E000852
:10598000C35E00085B5D0008C35E00089D59000807
:10599000C35E0008C35E00089D5900083B681B7881
:1059A000782B03D03B681B78582B02D110233B6423
:1059B00013E03B681B786F2B02D108233B640CE09B
:1059C0003B681B78622B02D102233B6405E00A236B
:1059D0003B647B6D23F010037B653B681B78582B81
:1059E00003D17B6D43F020037B653B681B78692BFB
:1059F00007D03B681B78642B03D07B6D23F00C032E
:105A00007B657B6D03F48063002B03D07B6D23F0FB
:105A100001037B653B681B78692B04D03B681B78CE
:105A2000642B40F090807B6D03F40073002B2FD02B
:105A3000BB6E073323F0070303F10802BA66D3E90C
:105A40000034C7E90434D7E90434002B74F10002B0
:105A500002DA5B4264EB4404194622467B69DB0FA1
:105A6000DBB21D463B6C4FF00004786D0890386D3A
:105A70000790F86C0690CDE904340295CDE9001248
:105A80007B687A6CB968F868FFF70CF87864CAE04C
:105A90007B6D03F48073002B1FD0BB6E1A1DBA669A
:105AA0001B68FB61FB69002BB8BF5B421A46FB69B0
:105AB000DB0FDBB219467B6D05933B6D0493FB6CEA
:105AC00003933B6C0293019100927B687A6CB968F6
:105AD000F868FEF780FF7864A5E07B6D03F0400373
