:020000040800F2
:100000000000032091050008592A0008672A00080B
:100010006D2A0008732A0008792A000800000000F1
:1000200000000000000000000000000081910008B6
:100030007F2A000800000000C193000829940008EE
:10004000E1050008E1050008E1050008E1050008F8
:10005000E1050008E1050008E1050008E1050008E8
:10006000E10500088D2A0008E1050008E105000807
:10007000E1050008E1050008E1050008E1050008C8
:10008000E1050008E1050008E1050008E1050008B8
:10009000E1050008E1050008E1050008E1050008A8
:1000A000E1050008E1050008E1050008E105000898
:1000B000E1050008E1050008E1050008E105000888
:1000C000E1050008E1050008E1050008E105000878
:1000D000E1050008E1050008E1050008E105000868
:1000E000E1050008E1050008E1050008E105000858
:1000F000E1050008E1050008E1050008E105000848
:100100009D2A0008E1050008E1050008E105000856
:10011000E1050008E1050008B12A0008E105000832
:10012000E1050008E1050008E1050008E105000817
:10013000E1050008E1050008E1050008E105000807
:10014000E1050008E1050008E1050008E1050008F7
:10015000E1050008E1050008E1050008E1050008E7
:10016000E1050008E1050008E1050008E1050008D7
:10017000E1050008E1050008E105000800000000B5
:10018000E1050008E1050008E1050008E1050008B7
:10019000E1050008E1050008E1050008E1050008A7
:0C01A000CD2A0008E1050008E12A000853
:1001B00010B5054C237833B9044B13B10448AFF3A1
:1001C00000800123237010BD9C000020000000006F
:1001D000543B010808B5034B1BB103490348AFF377
:1001E000008008BD00000000A0000020543B010872
:1001F00053B94AB9002908BF00281CBF4FF0FF318E
:100200004FF0FF3000F072B9ADF1080C6DE904CE8B
:1002100000F006F8DDF804E0DDE9022304B07047E1
:100220002DE9F047089E04468846002B4BD18A42B0
:10023000154667D9B2FA82F24AB1C2F1200701FA33
:1002400002F320FA07F7954047EA030894404FEA83
:10025000154E230CB8FBFEF71FFA85FC0EFB178822
:1002600043EA084307FB0CF1994209D9EB1807F15F
:10027000FF3080F01B81994240F21881023F2B44ED
:100280005B1AA4B2B3FBFEF00EFB103344EA034446
:1002900000FB0CFCA44509D92C1900F1FF3380F0B8
:1002A0000781A44540F2048102382C4440EA07400B
:1002B000A4EB0C0400271EB1D4400023C6E9004380
:1002C0003946BDE8F0878B4209D9002E00F0EB805B
:1002D0000027C6E9000138463946BDE8F087B3FA81
:1002E00083F7002F47D18B4202D3824200F2FA807B
:1002F000841A61EB030301209846002EE0D0C6E982
:100300000048DDE702B9FFDEB2FA82F2002A40F0CF
:100310008F80491B4FEA154E1FFA85F80127B1FB64
:10032000FEFC230C0EFB1C1143EA014308FB0CF1FD
:10033000994207D9EB180CF1FF3002D2994200F232
:10034000CD808446591AA3B2B1FBFEF00EFB101407
:1003500043EA044408FB00F8A04507D92C1900F132
:10036000FF3302D2A04500F2B6801846A4EB080481
:1003700040EA0C409FE7C7F1200CBB4022FA0CFE7C
:100380004EEA030E01FA07F420FA0CF521FA0CF3F9
:100390004FEA1E482543B3FBF8F92C0C08FB193330
:1003A0001FFA8EFA44EA034309FB0AF49C4202FA5C
:1003B00007F200FA07F10BD91EEB030309F1FF3036
:1003C00080F087809C4240F28480A9F10209734446
:1003D0001B1BADB2B3FBF8F008FB103345EA034436
:1003E00000FB0AFAA24508D91EEB040400F1FF3312
:1003F0006BD2A24569D90238744440EA0940A0FB97
:100400000289A4EB0A044C45C2464B4654D351D052
:10041000002E69D0B1EB0A0564EB030404FA0CFC6E
:10042000FD40FC404CEA0505C6E90054002747E7BB
:10043000C2F1200320FA03F7954001FA02F021FAF5
:1004400003F34FEA154E3843010CB3FBFEF71FFAD6
:1004500085F80EFB173341EA034107FB08F38B4293
:1004600004FA02F407D9691807F1FF3C2FD28B4236
:100470002DD9023F2944CB1A81B2B3FBFEF00EFB0B
:10048000103341EA034100FB08F38B4207D9691896
:1004900000F1FF3C17D28B4215D902382944C91A02
:1004A00040EA07473BE73746304609E70746E7E6B5
:1004B0001846FBE64145ABD2B8EB020A69EB0E02E7
:1004C00001381346A4E76046E9E7184695E7674612
:1004D000D1E781467CE702382C4447E7ACF1020CB7
:1004E0002B442FE7384608E73746E9E6704700BF58
:1004F00001F0FF01102A2BDB10F0070F08D010F8D5
:10050000013B013A8B422DD010F0070F42B3F6D1D8
:10051000F0B441EA012141EA014122F007047FF0F1
:1005200000070023F0E80256083C85EA010586EA48
:10053000010685FA47F5A3FA87F586FA47F6A5FA84
:1005400087F68EB9EED1F0BC01F0FF0102F0070290
:1005500032B110F8013B013A83EA010313B1F8D13B
:100560000020704701387047002D06BF354603381C
:10057000073815F0010F07D1013015F4807F02BF55
:10058000013015F4C03F0130F0BC0138704700BFA6
:10059000DFF834D0002103E00C4B5B5843500431AA
:1005A0000B480C4B42189A42F6D30B4A02E0002348
:1005B00042F8043B094B9A42F9D303F025FA12F0B2
:1005C0007BFB01F0EDFD70470000032070BB0C08C1
:1005D000000000209C0000209C000020909800203B
:1005E000FEE780B400AF01231846BD465DF8047BEA
:1005F000704780B582B000AF7860396012F044FB7C
:100600000246162313604FF0FF3318460837BD46E5
:1006100080BD80B582B000AF78604FF0FF31786860
:10062000FFF7E7FFFEE780B586B000AFF860B9607E
:100630007A6000237B610AE0AFF300800146BB686B
:100640005A1CBA60CAB21A707B6901337B617A693D
:100650007B689A42F0DB7B6818461837BD4680BD40
:1006600080B586B000AFF860B9607A6000237B6126
:1006700009E0BB685A1CBA601B781846AFF30080CB
:100680007B6901337B617A697B689A42F1DB7B6825
:1006900018461837BD4680BD80B584B000AF78607D
:1006A000114B1B68002B02D10F4B104A1A600E4BE6
:1006B0001B68FB600C4B1A687B6813446A469342C4
:1006C00007D912F0E1FA02460C2313604FF0FF3312
:1006D00006E0054B1A687B681344034A1360FB6805
:1006E00018461037BD4680BDBC0000209098002001
:1006F00080B483B000AF78604FF0FF3318460C37FA
:10070000BD465DF8047B704780B483B000AF78606D
:1007100039603B684FF400525A60002318460C378A
:10072000BD465DF8047B704780B483B000AF78604D
:10073000012318460C37BD465DF8047B704780B432
:1007400085B000AFF860B9607A60002318461437AE
:10075000BD465DF8047B704770477047704770472F
:100760007047012070470C20704701EB41018B005E
:1007700008331844704701EB41018B0008331844DB
:100780007047012070474FF4F8707047C1EB41117A
:100790000B01083318447047C1EB41110B010833BA
:1007A0001844704701207047102070470901083134
:1007B00008447047090108310844704708B50846E5
:1007C00002F0EEFA08BD000010B50446024B0360CB
:1007D0000AF03EFE204610BDB042010810B50446A6
:1007E000044B03600AF034FE1421204612F014FA80
:1007F000204610BDB042010810B50446024B03600C
:100800000AF026FE204610BD7C42010810B50446C1
:10081000054B03600AF01CFE4FF4FC71204612F0F9
:10082000FBF9204610BD00BF7C42010810B504460C
:10083000024B03600AF00CFE204610BD484201083E
:1008400010B50446044B03600AF002FE182120464E
:1008500012F0E2F9204610BD4842010810B50446E6
:100860000B4B03600B4BC0F8243200F509700AF003
:10087000EFFD2046084B40F82C3F0AF0E9FD2046EA
:10088000064B40F8143F0AF0E3FD204610BD00BFC0
:10089000E4420108B04201087C42010848420108D4
:1008A000012800D070474FF6FF739942FAD170B516
:1008B000144D154E2A461549304612F0A8F9144C2D
:1008C000204600F097FE2A461249204612F09FF972
:1008D0002A461149301D12F09AF90023C4F8A43AAF
:1008E000C4F8A83A0D4BC4F8A03A2A460C4904F5BE
:1008F0002A6012F08CF92A460A4906F1080012F023
:1009000086F970BD00000020040000205F07000889
:10091000C000002095120008610700080C3D010886
:100920005D0700085907000810B504460D4B036029
:100930000D4BC0F8243200F509700AF089FD2046FD
:100940000A4B40F82C3F0AF083FD2046084B40F844
:10095000143F0AF07DFD4FF46371204612F05CF9FC
:10096000204610BDE4420108B04201087C42010863
:100970004842010810B50446042112F04DF9204602
:1009800010BD08B500F058FA00F094FA00F0F0F944
:1009900000F06EF908BD000008B5034B1868036845
:1009A000DB68984708BD00BFA497002010B5044637
:1009B000682112F031F9204610BD0000F8B5334C23
:1009C0002478BFF35B8F14F0010F01D03048F8BDDD
:1009D0001C4617460D4606462C4812F0F4F800282F
:1009E000F4D0A4B2BDF81800294B5E609D60DF60B2
:1009F00000221A615A611A835A839A83DA831A840D
:100A00005A849A8483F826209A629A855A639A6354
:100A1000DA631A6483F84420012183F8451083F8CF
:100A2000461083F8541083F8552083F8562083F835
:100A3000571083F8582083F8592083F85A2083F8F8
:100A40005B2083F85C201A6683F8652011490B60EF
:100A5000114B1C80114B1880114B1A70114B1C80CC
:100A6000114B188084420ED20123094C84F8303097
:100A70000E4B2360054812F0B2F80D4A0D4920468E
:100A800012F0C5F8A2E71346EFE700BF9C930020E1
:100A9000A0930020A4970020989700209A97002008
:100AA0009C9700209E970020A0970020643C01089E
:100AB000000000205B0700082DE9F04182B0BDF97D
:100AC00020400094FFF77AFF04460BF0D3FE02F0BB
:100AD00067FE054602F068FE0B9B00930A9B099A8D
:100AE000014628460FF014FF2A4B2B4A1A600020BB
:100AF00002F06CFE29480FF075FE294B1B78BFF3FE
:100B00005B8F13F0010F0AD023681D6D0DF09EFF5F
:100B100001462046A847204602B0BDE8F0812048A3
:100B200012F051F80028EFD01E4D05F11400686056
:100B300005F12C08C5F8088005F50977EF6005F583
:100B40000E762E61184B2B600AF084FC174B6B61FC
:100B500040460AF07FFC164BEB6238460AF07AFCFE
:100B6000144BC5F8243205F562772A4639463046DB
:100B700002F08CFE384602F093FE304602F010F987
:100B8000074812F02CF80C4A0C49284612F03FF89E
:100B9000BAE700BF10980020700B0020040000206E
:100BA000089400200C940020E44201084842010807
:100BB0007C420108B0420108000000205D080008E6
:100BC0002DE9F04184B01749174D0026039602968F
:100BD00001964FF4167300934FF480630A1D083199
:100BE0002846FFF769FF04460368D3F8748001279D
:100BF00000973B4610220D49C047022384F8543029
:100C000084F8457084F8586084F8466005F52A65D4
:100C1000284600F099FE256184F85C7004B0BDE8B8
:100C2000F08100BF04000020C0000020000800D0B8
:100C300008B5FFF7C5FF08BD10B50446102111F037
:100C4000EBFF204610BD10B50446042111F0E4FF6F
:100C5000204610BD10B50446042111F0DDFF2046EA
:100C600010BD08B54FF6FF710120FFF719FE08BD52
:100C700070477047704770472DE9F04186B00023F8
:100C800001930293039304930593314B1B6813B1B3
:100C900006B0BDE8F0814FF001082D4BC3F800808D
:100CA000002400942B4B9A6B42EA08029A639B6BD8
:100CB00003EA08030093009B4FF63F0301930227CA
:100CC0000297032604960C25059501A9224804F0F5
:100CD00099F9CDF80480029703940496059501A92B
:100CE0001E4804F08FF948F23313019302970394DE
:100CF0000496059501A91A4804F084F94FF6837308
:100D00000193029703940496059501A9154804F0F0
:100D100079F9C0230193029703940496059501A9DC
:100D2000114804F06FF94CF2037301930297039496
:100D30000496059501A90D4804F064F922460521A1
:100D4000302002F0D5FF302002F0EEFFA0E700BF18
:100D5000740B0020003802400014024000080240DA
:100D60000018024000100240001C0240000C02402B
:100D700030B58FB02C4C04F10805284605F024FD51
:100D80002A4BA3600023E36023616361A3613222E5
:100D9000E26103222262A22262622A22A26240F25D
:100DA000A242E26240F28222226340F2D5426263B2
:100DB00040F29222A26384F83C3084F83D3084F8FB
:100DC0003E30284605F030FC40BB002201924FF433
:100DD0008063029303924FF41671049102200590F0
:100DE000FF200690079008930520099010480A906C
:100DF0000B930C911F238DF834308DF835308DF81E
:100E0000363001A90B4805F0AFFD50B900224FF470
:100E10008061084805F0E6FD0FB030BD01F02AFA08
:100E2000D3E701F027FAF1E7740B002000680140D6
:100E3000000800D07C0B002000B589B01B481C4B7B
:100E4000C0F8B0300123C0F8B4300023C0F8B83087
:100E50000421C0F8BC101022C0F8C0204022C0F805
:100E6000C4204FF4C072C0F8C820C0F8CC304FF492
:100E70000062C0F8D020C0F8D4304FF40053C0F85E
:100E8000D830022301930722029203910492032295
:100E90000592069307936944B03006F029FE10B915
:100EA00009B05DF804FB01F0E5F9F9E7740B0020E7
:100EB000400100A02DE9F04782B04FF00009CDF8C5
:100EC0000490294C0126C4F8E4604FF00808C4F8E7
:100ED000E880C4F8EC60C4F8F09004F1E40704F191
:100EE000B0054FF6FF723946284606F059FE3046E7
:100EF00002F002FE0223C4F8E430C4F8E880C4F82B
:100F0000EC60C4F8F0904FF6FF723946284606F0C0
:100F100047FE0323C4F8E430C4F8E8804FF0040A25
:100F2000C4F8ECA0C4F8F0904FF6FF72394628469A
:100F300006F036FE4FF40C730193C4F8E4A0C4F835
:100F4000E880C4F8EC60019BC4F8F0304FF6FF7203
:100F50003946284606F024FE40F26A51284606F03B
:100F60004AFE02B0BDE8F087740B00202DE9F04185
:100F70008EB0002309930A930B930C930D93026890
:100F8000644B9A4202D00EB0BDE8F0810024019477
:100F900003F550435A6C42F080625A645A6C02F076
:100FA00080620192019A02941A6B42F480721A6371
:100FB0001A6B02F480720292029A03941A6B42F046
:100FC00020021A631A6B02F020020392039A04941F
:100FD0001A6B42F001021A631A6B02F001020492CA
:100FE000049A05941A6B42F002021A631A6B02F01B
:100FF00002020592059A06941A6B42F080021A6367
:101000001A6B02F080020692069A07941A6B42F05D
:1010100040021A631A6B02F040020792079A089482
:101020001A6B42F008021A631B6B03F00803089363
:10103000089B40F20763099302250A950E260D9638
:1010400009A9354803F0DEFF4FF4806309930A9540
:101050000B940C940D9609A9304803F0D3FF082394
:1010600009930A950B940C940D9609A92C4803F04A
:10107000C9FF032309930A950B940C944FF00908B8
:10108000CDF83480274F09A9384603F0BBFF4FF451
:10109000E06309930A950B940C940D9609A93846C0
:1010A00003F0B0FF4FF4DA4309930A950B940C94C4
:1010B0000D9609A91C4803F0A5FF4FF40C63099392
:1010C0000A950B940C940D9607F5A05709A938467C
:1010D00003F098FF402309930A950B940C940D9606
:1010E00009A9124803F08EFF4FF4805309930A9523
:1010F0000B940C94CDF8348009A9384603F082FF94
:1011000022460521582002F0F3FD582002F00CFE83
:1011100039E700BF0068014000200240001402408F
:101120000000024000040240001C0240000C02408B
:1011300008B50268164B9A4200D008BD154A536C98
:1011400023F08063536440F20761134804F004F90C
:101150004FF48061114804F0FFF80821104804F0B2
:10116000FBF840F203710F4804F0F6F84FF4DA414F
:101170000D4804F0F1F84FF4C6510C4804F0ECF8B7
:1011800040210B4804F0E8F8582002F0DBFDD4E7DA
:101190000068014000380240002002400014024074
:1011A0000000024000040240001C024000180240FF
:1011B000000C024008B5FFF75FFD08BD02680E4B4A
:1011C0009A4200D0704700B583B000220192A3F587
:1011D000F043196B41F4000119631B6B03F4000326
:1011E0000193019B05215A2002F082FD5A2002F052
:1011F0009BFD03B05DF804FB00B0024008B5026837
:10120000064B9A4200D008BD054A136B23F4000335
:1012100013635A2002F096FDF5E700BF00B00240CC
:101220000038024008B503681B6C984708BD08B534
:1012300003685B6A984708BD30B405682C6824F4DD
:101240004034214329600468616B21F007010A439F
:10125000626301680A6C22F47F5222F03F0213435A
:101260000B64002030BC704708B5034B1B685868FE
:1012700003685B69984708BDA49700207047000089
:10128000034B1B780BB10020704740F2EF10704702
:10129000A80C002010B50446074B0360074802F075
:1012A00095FE074B4FF08062C3F88820BFF34F8F45
:1012B000BFF36F8F204610BD743B0108680C0020FF
:1012C00000E100E010B50446FFF7E4FF4FF42A61A7
:1012D000204611F0A1FC204610BD000010B5074CBF
:1012E000074B2360204602F027FE064B2361064B86
:1012F0006361064B4FF080629A6010BD680C00205D
:1013000000B00240691200087D12000800E100E010
:101310002DE9F04782B00C460B68202B07D0402BFC
:1013200021D0042B01D0002602E0012600E0012696
:10133000802B1CD0B3F5807F17D00027624B1B6831
:10134000986803681B6A984780462368402B77D0CB
:101350000FD9802B18D0B3F5807F0ED14FF0090A3A
:101360004FF4003114E00126E2E70127E6E7012708
:10137000E4E7042B58D0202B62D0B8F1100F64D0D2
:101380004FF0010A002103E04FF00A0A4FF4003148
:101390004E4B5960B8F1100F5BD04FF001094B4D27
:1013A000C5F80890638AA2899A1AEA60A2899B1AF2
:1013B0004A462846FFF740FFC5F82CA0238AA28999
:1013C0009B1AAB6206B9DFB1237EFF2B44D03F4BA3
:1013D00002221A63227E5A6347B1B8F1100F3FD040
:1013E0006369227E43EA0263384A5363638AA289AF
:1013F0009B1A36488361C0F81C90002103F066F800
:101400000121324803F062F80EB9002F53D0616811
:10141000A268A389E0890190009313462B4802F04B
:1014200078FE02B0BDE8F087102804D04FF0010A22
:101430004FF40031ACE74FF0020A4FF40031A7E758
:101440004FF0000A4FF40031A2E74FF0020A0021EA
:101450009EE74FF00209A2E71C4B00221A63BBE78C
:101460006369C3F3C421C1EB0121194880FB015218
:101470005518CA17C2EB2512C3F34511C1EB012160
:10148000144D85FB01C50D44C917C1EB651103F06F
:101490001F03C3EB032380FB03501844DB17C3EB8C
:1014A0002013207E120442EA006242EA0122134322
:1014B000064A53639AE76168A268A389E0890090AD
:1014C000024802F0F3FDACE7A4970020680C00206E
:1014D0004308218483200882F0B583B00C46414B39
:1014E0001B68986803681B6A9847102830D001264B
:1014F00010282FD0237E656945EA03652368082BF1
:1015000052D14FF40037384847608660638AA28919
:101510009A1AC260A2899B1A32463946FFF78CFE9E
:10152000B7F5003F43D0304BDE6200229A620121C2
:101530002D4802F0CBFFB7F5003F47D0A268A38942
:10154000E18900912946284802F0B0FD03B0F0BDC2
:101550000226CDE76369C3F3C422C2EB022223490A
:1015600081FB02051544D217C2EB2515C3F34512C2
:10157000C2EB02221E4880FB02701044D217C2EB5D
:10158000601203F01F03C3EB032381FB0301194423
:10159000DB17C3EB2113217E2D0445EA016545EAE3
:1015A000022242EA0305A9E74FF44037ABE70E48B1
:1015B0000123036345630923C362638AA2899B1ADB
:1015C0008361C661002102F081FFB0E7A168A389B1
:1015D000E289019200930B460A46034802F099FD06
:1015E000B4E700BFA4970020680C002043082184C2
:1015F0008320088238B505460C30686000232B72C2
:101600006B722C46084B44F8203B602221460BF0BD
:1016100065FC5F23002B04DB002262611C34013B6C
:10162000F8E7284638BD00BF743B010880F8641015
:10163000012380F86530704708B5406803681B686F
:10164000984708BD0020704708B5436B0BB10846AA
:10165000984708BD10B490F8642090F830309A4252
:1016600012D0124B1B7863B9114B1888114A1080A5
:1016700011490A88114C228008801A800B4B0122E4
:101680001A705DF8044B7047084B1B78002BF8D09C
:1016900009490A88074B1A80054B1888074C208097
:1016A00008801A80014B00221A70EAE79C970020FC
:1016B000989700209E9700209A970020A0970020DE
:1016C000014B986A704700BF84680140024B9962E1
:1016D000843B01225A62704784680140064B586C73
:1016E00080B2DB68C3F30A030133984202D3C01A05
:1016F00080B270470020704700680140034B902281
:1017000083F85A2383F85823704700BF00E100E0B4
:101710000C4B4FF08072C3F88820BFF34F8FBFF39C
:101720006F8F4FF08062C3F88820BFF34F8FBFF3F5
:101730006F8F4FF00072C3F88820BFF34F8FBFF355
:101740006F8F704700E100E0054B4FF080729A60A8
:101750004FF080629A604FF000729A60704700BF4D
:1017600000E100E010B50B4BD968C1F30A01013963
:1017700089B2094A11801B69C3F30A03013B5380F4
:10178000064C204605F0B4F92268536B43F003037E
:10179000536310BD00680140AA0C00207C0B0020A0
:1017A00010B504460BF056FA2368D3F8843020466F
:1017B000984710BD10B569B18163C26303640032FC
:1017C00018BF012207490A70003318BF0123064AD7
:1017D000137010BD054B064A4FF44371054811F0D4
:1017E00027FA00BFA2970020A3970020104301080A
:1017F000B83B01084843010870B59DF81040551EDC
:101800001F2D34D8DFE805F0252533253333331079
:1018100033333333333333103333333333333310DE
:101820003333333333333310174D2E88174D2D8810
:1018300005FB06F5D20802FB05F28163F3B1114402
:10184000C163F4B900220264114A1370114B1C7079
:1018500070BD0D4D2D8802FB05F2073205D4D21064
:101860000A4D2D8802FB05F2E7E70732F7E70A4B3E
:101870000A4A4FF439710A4811F0DAF90025C563B4
:10188000DFE70A440264DFE7989700209A97002078
:10189000A2970020A3970020F0420108083C01080D
:1018A0004843010810B5124B1B6C124A11888B4239
:1018B0000AD005F01DF90020FFF7DCF90E4B18687F
:1018C00003689B69984710BD518805F011F90A4CCF
:1018D000226892F85630013382F8563009F0F4FC51
:1018E00020680BF0B7F90020FFF7C3F9EBE700BF62
:1018F00000680140AA0C0020A497002040687047AF
:1019000041607047521A02EB5302B2FBF3F070478A
:10191000034B1B685B6AC06800FB03F0704700BFA5
:10192000B00C002010B5044621B903681B69984724
:10193000A06010BD03681B699847A368C01A63685C
:1019400018446060F5E7000030B593B00546002408
:101950000094234B1A6C42F001021A641B6C03F0D2
:1019600001030093009B2022214604A811F0DBF91B
:10197000019402941B484FF08043036044608460EC
:10198000C46004618461012303930593099303A94F
:1019900006F032FAD0B900230193029301A911484D
:1019A00006F08CFCA8B90CA90DA805F0CBFE109B85
:1019B00093B105F09FFE440005F090FEB0FBF4F0FB
:1019C000E860084806F0D0F913B030BD00F052FCD2
:1019D000E1E700F04FFCE6E705F08CFE0446EBE79C
:1019E00000380240B00C002008B500F03BF808BDFC
:1019F00030B583B00D4614464FF48041094803F0DA
:101A0000CEFD684600F05EF8BDF8003043B1BDF889
:101A100002302B60BDF804302360012003B030BDDC
:101A20000020FBE70018024080B586B004AF0346F3
:101A30003960FB711346BB71FB7999B2BB799BB2DC
:101A40000222029201933B68009301230A4670210F
:101A5000034803F00BFF034618460837BD4680BD18
:101A6000D00F002080B582B000AF002204211348BF
:101A700003F07CFDC82002F03FF8012204210F484A
:101A800003F074FDC82002F037F80023FB71FB1D42
:101A900001221946A720FFF7C7FF0346002B09D0F4
:101AA0004FF48041064803F07AFD40F2DC5002F02A
:101AB00023F8F5E700BF0837BD4680BD001C024093
:101AC0000018024080B58AB004AF786000233B6103
:101AD00003233B740323FB75FB7D9AB264230293BB
:101AE0000423019307F1100300930123702124487C
:101AF00003F0B6FF0346FB73FB7BDBB2002B04D085
:101B00001F4804F0D3F90346BB603B7C1B021BB2A9
:101B100003F470631AB27B7C1BB213431BB29AB2FC
:101B20007B685A80BB7C1B021BB203F470631AB241
:101B3000FB7C1BB213431BB29BB2C3F516739AB264
:101B40007B689A803B7C5BB2002B08DA7B680122C1
:101B50001A804FF400410B4803F021FD0CE03B7C60
:101B600003F04003002B07D04FF40071064803F048
:101B700016FD7B6800221A8000BF1837BD4680BD65
:101B8000D00F002000000240001C024080B485B04D
:101B900000AFF860B9607A60FB68074A1A60BB68FA
:101BA000064A1A607B6880221A6000BF1437BD465F
:101BB0005DF8047B704700BFF00C0020480D00204A
:101BC0002DE9F0478EB0002409940A940B940C94EC
:101BD0000D940094794B1A6B42F010021A631A6B41
:101BE00002F010020092009A01941A6B42F4807283
:101BF0001A631A6B02F480720192019A02941A6BB2
:101C000042F020021A631A6B02F020020292029A3A
:101C100003941A6B42F004021A631A6B02F0040276
:101C20000392039A04941A6B42F001021A631A6B2E
:101C300002F001020492049A05941A6B42F08002A9
:101C40001A631A6B02F080020592059A06941A6BC9
:101C500042F002021A631A6B02F002020692069A1E
:101C600007941A6B42F040021A631A6B02F04002AA
:101C70000792079A08941A6B42F008021A631B6BCA
:101C800003F008030893089B4D4E22461821304666
:101C900003F06CFCDFF8408122464FF4807140462F
:101CA00003F064FC474F22464FF40171384603F0BD
:101CB0005DFCDFF828A1224648F24001504603F0BF
:101CC00055FCDFF81C9122464FF48041484603F052
:101CD0004DFC1823099301250A950B940C9409A92E
:101CE000304603F08FF94FF4807309930A950B94F3
:101CF0000C9409A9404603F085F94FF40073099349
:101D0000314E0A960B9409A9404603F07BF94FF433
:101D1000017309930A950B940C9409A9384603F0B2
:101D200071F9082309930A960B9409A9384603F020
:101D300069F948F2400309930A950B940C9409A998
:101D4000504603F05FF94FF48053099302230A933E
:101D50000B940C940D9309A9384603F053F94FF4F2
:101D6000804309930A950B940C9409A9484603F003
:101D700049F9202309930A960B9409A9134803F003
:101D800041F9102309930A960B94114D09A928468D
:101D900003F038F9802309930E4B0A930B9409A999
:101DA000284603F02FF922460521092001F0A0FF63
:101DB000092001F0B9FF0EB0BDE8F08700380240FD
:101DC00000100240001C02400000111000040240FC
:101DD00000200240000021100014024000000240D8
:101DE0000018024000B583B01048114B0360012376
:101DF0004360038200238DF8003080228DF801209B
:101E0000E1228DF802208DF803308DF804308DF832
:101E10000530C0F814D08361C3614FF4000303623E
:101E200002F082FC03B05DF804FB00BF480F002005
:101E30000080024008B50948094B83644FF4E13340
:101E4000C36400230365436583650C22C265036692
:101E50004366483006F08BFA08BD00BF480F0020EB
:101E60000010014038B5124C124BC4F88830124BA8
:101E7000C4F88C300025C4F89050C4F894504FF446
:101E80008043C4F89830C4F89C50C4F8A050C4F8FB
:101E9000A450C4F8A8508834204603F0BFFB29465C
:101EA000204604F046FB2946204604F07EFB38BD60
:101EB000480F002000580040A086010030B58DB0CA
:101EC0002022002104A810F02EFF00250195029584
:101ED0000F4C104BC4F8DC30C4F8E050C4F8E450A8
:101EE000C4F8E850C4F8EC50C4F8F450012303934C
:101EF00005930993DC3403A9204605F07DFF019585
:101F0000029501A9204606F0D9F90DB030BD00BFF9
:101F1000480F00200004004030B58DB02022002181
:101F200004A810F000FF0025019502950F4C104BFE
:101F3000C4F81C31C4F82051C4F82451C4F8285105
:101F4000C4F82C51C4F83451012303930593099329
:101F500004F58E7403A9204605F04EFF0195029505
:101F600001A9204606F0AAF90DB030BD480F0020A7
:101F70000008004030B58DB02022002104A810F0E8
:101F8000D2FE002501950295104C114BC4F85C312E
:101F9000C4F86051C4F86451C4F86851C4F86C5175
:101FA000C4F87051C4F87451012303930593099345
:101FB00004F5AE7403A9204605F01EFF01950295B5
:101FC00001A9204606F07AF90DB030BD480F002077
:101FD0000004014008B51248124BC0F89C314FF480
:101FE0008273C0F8A0310023C0F8A431C0F8A83132
:101FF000C0F8AC31C0F8B0314FF40072C0F8B42171
:10200000C0F8B831C0F8BC31C0F8C031C0F8C43134
:102010000A23C0F8C83100F5CE7005F00CFE08BDEB
:10202000480F00200038004008B51248124BC0F895
:10203000F4314FF48273C0F8F8310023C0F8FC315A
:10204000C0F80032C0F80432C0F808324FF4007211
:10205000C0F80C22C0F81032C0F81432C0F81832A0
:10206000C0F81C320A23C0F8203200F5FA7005F0DF
:10207000E2FD08BD480F00200034014030B583B0B8
:10208000002500950195094C094BC4F84C3204F524
:102090001374204601F083FE009501952A46694697
:1020A000204601F0F2FE03B030BD00BF480F002013
:1020B0000074004008B50448044BC0F8603200F5D5
:1020C000187001F04DFE08BD480F0020003002409E
:1020D00008B5FEF761FC012006F04CFDFBE708B5F2
:1020E0004FF4C87006F046FDFAE7000070B5A0B0E6
:1020F00030252A46002114A810F015FE00240F9464
:1021000010941194129413942A46214603A810F0B7
:102110000AFE0194204B1A6C42F080521A641B6C28
:1021200003F080530193019B02941C4B1A6842F404
:1021300040421A601B6803F440430293029B02254D
:10214000149501231793102318931A951B940826AE
:102150001C96B4231D931E9506231F9314A804F008
:10216000E7FE04F095FE0F230F93109511944FF4A2
:10217000A05312934FF48053139305210FA805F039
:1021800019F903963223079309950C9403A805F0D7
:102190000BFB20B070BD00BF003802400070004053
:1021A00000B58FB001F066FCFFF7A0FFFFF708FD58
:1021B000FFF718FEFFF73EFEFFF754FEFFF77EFE27
:1021C000FFF7AAFEFFF7D6FEFFF704FFFFF72CFF8D
:1021D000FFF754FFFFF76EFF1C4C4FF48041204681
:1021E00003F0DDF94FF47A7001F086FC4FF4804182
:1021F000204603F0D4F94FF40041154803F0CFF91D
:10220000FEF7BFFBFEF714FD124C07AD26460FCEBE
:102210000FC596E8070085E80700002107A806F02B
:102220005DFC0D4EC6F868026D461C340FCC0FC520
:1022300094E8070085E807000021684606F04EFC98
:10224000C6F86C0206F043FCFEE700BF001802402F
:1022500000000240443D0108480F002008B5026814
:10226000034B9A4200D008BD01F026FCFBE700BFFB
:10227000001000407047000080B582B000AF00231E
:102280007B60124B5B6C114A43F4804353640F4BE9
:102290005B6C03F480437B607B6800233B600B4BEB
:1022A0001B6C0A4A43F080531364084B1B6C03F009
:1022B00080533B603B6800220F216FF0010001F06A
:1022C00017FD00BF0837BD4680BD00BF0038024083
:1022D00080B485B000AF78607B681B680B4A93427E
:1022E0000DD10023FB600A4B1B6B094A43F480535A
:1022F0001363074B1B6B03F48053FB60FB6800BF49
:102300001437BD465DF8047B704700BF00300240C3
:102310000038024080B58AB000AF786007F114033E
:1023200000221A605A609A60DA601A617B681B6842
:102330001B4A93422FD100233B611A4B1B6C194A55
:1023400043F000531364174B1B6C03F000533B61C5
:102350003B690023FB60134B1B6B124A43F00103E4
:102360001363104B1B6B03F00103FB60FB6810232E
:102370007B610323BB610023FB6107F11403194652
:10238000094802F03FFE00220021362001F0B0FC97
:10239000362001F0C9FC00BF2837BD4680BD00BF14
:1023A00000740040003802400000024080B58EB04A
:1023B00000AF786007F1240300221A605A609A6027
:1023C000DA601A617B681B68464A934240F0858058
:1023D00000233B62444B1B6B434A43F0007313637F
:1023E000414B1B6B03F000733B623B6A0023FB61B4
:1023F0003D4B1B6B3C4A43F0806313633A4B1B6BB2
:1024000003F08063FB61FB690023BB61364B1B6BF0
:10241000354A43F000631363334B1B6B03F00063D7
:10242000BB61BB6900237B612F4B1B6B2E4A43F0C2
:10243000040313632C4B1B6B03F004037B617B6968
:1024400000233B61284B1B6B274A43F001031363B6
:10245000254B1B6B03F001033B613B690023FB60D1
:10246000214B1B6B204A43F0020313631E4B1B6B73
:1024700003F00203FB60FB6832237B620223BB6232
:102480000023FB6203233B630B237B6307F12403DD
:102490001946164802F0B6FD86237B620223BB6212
:1024A0000023FB6203233B630B237B6307F12403BD
:1024B00019460F4802F0A6FD4FF460537B620223D9
:1024C000BB620023FB6203233B630B237B6307F1A7
:1024D00024031946074802F095FD00BF3837BD4672
:1024E00080BD00BF0080024000380240000802406A
:1024F000000002400004024080B58AB000AF78605E
:1025000007F1140300221A605A609A60DA601A61B7
:102510007B681B68194A93422BD100233B61184BFF
:102520001B6B174A43F080031363154B1B6B03F0BF
:1025300080033B613B6930237B611223BB61002335
:10254000FB6103233B6204237B6207F114031946FA
:102550000C4802F057FD0023FB60094B1B6C084A36
:1025600043F480031364064B1B6C03F48003FB608D
:10257000FB6800BF2837BD4680BD00BF0058004043
:1025800000380240001C024080B58CB000AF78607B
:1025900007F11C0300221A605A609A60DA601A611F
:1025A0007B681B68414A93424AD10023BB61404B80
:1025B0001B6C3F4A43F4804313643D4B1B6C03F494
:1025C0008043BB61BB6900237B61394B1B6B384A7D
:1025D00043F004031363364B1B6B03F004037B616E
:1025E0007B6900233B61324B1B6B314A43F008038C
:1025F00013632F4B1B6B03F008033B613B690C23F8
:10260000FB6102233B6200237B620323BB62052341
:10261000FB6207F11C031946264802F0F3FC08236D
:10262000FB6102233B6200237B620323BB62052321
:10263000FB6207F11C0319461F4802F0E3FC30E07F
:102640007B681B681D4A93422BD10023FB60184B0B
:102650005B6C174A43F400535364154B5B6C03F4F3
:102660000053FB60FB680023BB60114B1B6B104ADF
:1026700043F0100313630E4B1B6B03F01003BB609E
:10268000BB686423FB6102233B6200237B6203235C
:10269000BB620523FB6207F11C031946084802F0E0
:1026A000B1FC00BF3037BD4680BD00BF00380040E0
:1026B0000038024000080240000C02400034014093
:1026C0000010024080B590B000AF786007F12C0395
:1026D00000221A605A609A60DA601A617B681B688F
:1026E000B3F1804F4AD10023BB62714B1B6C704A1F
:1026F00043F0010313646E4B1B6C03F00103BB62D8
:10270000BB6A00237B626A4B1B6B694A43F001037F
:102710001363674B1B6B03F001037B627B6A00232F
:102720003B62634B1B6B624A43F002031363604BD3
:102730001B6B03F002033B623B6A0123FB62022333
:102740003B6300237B630023BB630123FB6307F12F
:102750002C031946574802F055FC0823FB6202235C
:102760003B6300237B630023BB630123FB6307F10F
:102770002C031946504802F045FC95E07B681B6825
:102780004E4A93422CD10023FB61494B1B6C484AB3
:1027900043F002031364464B1B6C03F00203FB611E
:1027A000FB690023BB61424B1B6B414A43F00403AE
:1027B00013633F4B1B6B03F00403BB61BB69C02376
:1027C000FB6202233B6300237B630023BB63022382
:1027D000FB6307F12C031946394802F013FC63E050
:1027E0007B681B68374A93422DD100237B61304BB5
:1027F0001B6C2F4A43F0040313642D4B1B6C03F036
:1028000004037B617B6900233B61294B1B6B284AD6
:1028100043F008031363264B1B6B03F008033B6173
:102820003B694FF44053FB6202233B6300237B630D
:102830000023BB630223FB6307F12C0319462248E4
:1028400002F0E0FB30E07B681B68204A93422BD10A
:102850000023FB60164B5B6C154A43F00203536484
:10286000134B5B6C03F00203FB60FB680023BB604F
:102870000F4B1B6B0E4A43F4807313630C4B1B6BA3
:1028800003F48073BB60BB686023FB6202233B637D
:1028900000237B630023BB630323FB6307F12C034B
:1028A00019460B4802F0AEFB00BF4037BD4680BD65
:1028B00000380240000002400004024000040040D2
:1028C0000008024000080040000C024000040140E3
:1028D0000020024080B58AB000AF786007F1140391
:1028E00000221A605A609A60DA601A617B681B687D
:1028F000284A93424AD100233B61274B5B6C264A0E
:1029000043F010035364244B5B6C03F010033B61F2
:102910003B690023FB60204B1B6B1F4A43F0010304
:1029200013631D4B1B6B03F00103FB60FB6800236B
:10293000BB60194B1B6B184A43F002031363164B21
:102940001B6B03F00203BB60BB684FF480637B61C9
:102950000223BB610123FB6103233B6207237B62EC
:1029600007F1140319460D4802F04CFB40237B612C
:102970000223BB610123FB6103233B6207237B62CC
:1029800007F114031946064802F03CFB00BF283744
:10299000BD4680BD001001400038024000000240EA
:1029A0000004024080B58CB000AF78600023FB6269
:1029B0000023BB6200227968362001F099F93620A5
:1029C00001F0B2F90023FB601F4B1B6C1E4A43F061
:1029D000100313641C4B1B6C03F01003FB60FB68BB
:1029E00007F1100207F114031146184604F0AAFE7D
:1029F00004F080FE03465B00FB62FB6A134AA2FB05
:102A000003239B0C013BBB62114B124A1A60104B13
:102A100040F2E732DA600E4ABB6A53600C4B002288
:102A20001A610B4B00229A60094805F068F90346C9
:102A3000002B04D1064805F0BBF9034600E0012352
:102A400018463037BD4680BD0038024083DE1B4348
:102A5000489800200010004080B400AF00BFBD4681
:102A60005DF8047B704780B400AFFEE780B400AF30
:102A7000FEE780B400AFFEE780B400AFFEE780B4AD
:102A800000AF00BFBD465DF8047B704780B500AF66
:102A9000082002F09FFD00BF80BD000080B500AFA0
:102AA000024805F059F800BF80BD00BF240C00208B
:102AB00080B500AF034801F094F9034805F02EFA01
:102AC00000BF80BD941100204898002080B500AF61
:102AD000024803F091FE00BF80BD00BF7C0B0020C8
:102AE00080B500AF024801F0E0FB00BF80BD00BF31
:102AF000680C002008B5012907D019B1022907D0B8
:102B0000002001E000F044F808BD00F083F8FBE786
:102B100000F002F8F8E77047164B1B78BFF35B8FA5
:102B200013F0010F01D01448704730B589B0114837
:102B300010F049F810B9104809B030BD0D4D2C1DEA
:102B40000022079206920D4B05930D4B04930392BE
:102B500002920423019300920A230A4920460CF0B2
:102B6000F3FF284610F03BF8074A0849204610F0CA
:102B70004EF8E0E7B8110020BC11002008690108F8
:102B8000986501081869010800000020172B00084B
:102B9000184B93F82430BFF35B8F13F0010F01D073
:102BA0001548704730B589B0144810F00CF810B9CA
:102BB000114809B030BD0F4D05F1280400230793DB
:102BC00006930F4A05920F4A04920393029304233B
:102BD0000193009314230C220B4920460CF0B4FF00
:102BE00005F124000FF0FBFF084A0949204610F0C8
:102BF0000EF8DDE7B8110020E0110020DC11002004
:102C00000C6901089C650108286901080000002082
:102C1000172B0008184B93F84830BFF35B8F13F065
:102C2000010F01D01548704730B589B014480FF036
:102C3000CAFF10B9114809B030BD0F4D05F14C0461
:102C40000022079206920F4B05930F4B04930392B9
:102C5000029204230193009228230C4920460CF091
:102C600073FF05F148000FF0BAFF094A09492046F1
:102C70000FF0CDFFDEE700BFB811002004120020E6
:102C8000001200201469010804690108D0690108D4
:102C900000000020172B000810B5044620210FF07B
:102CA000BBFF204610BD70477047416070477047BA
:102CB000D0F8343183B110B504461A68D26818468A
:102CC000904700B910BDD4F8340103689B68984759
:102CD0000023C4F83431F5E770477047704701238B
:102CE00003727047704710B503464468C2685110BC
:102CF000601812F0010F04D062589B68D3589847AF
:102D000010BD9B68FBE743684BB183680BB10120A2
:102D10007047C36813F0010F03D0012070470020F3
:102D200070470020704710B504460C210FF074FF67
:102D3000204610BD10B504464FF4A8710FF06CFF8B
:102D4000204610BD10B5044610210FF065FF204647
:102D500010BD000070B504460D4616460BF096FEF9
:102D60000020C4F83001C4F834010A4B1C600A4B3F
:102D700023600A4BC4F83831C4F83C01C4F8400160
:102D8000C4F84401C4F84861C4F84C5100F01EFD79
:102D9000204670BD00980020EC430108D443010890
:102DA00010B489B003460D4A0692002207926C4681
:102DB00008AA12E9030084E8030004AA82E80300D9
:102DC000C3F83C3103F5A07484E8030003F59C725A
:102DD000C3F8342109B05DF8044B70476D2F00082B
:102DE00010B489B003460D4A0692002207926C4641
:102DF00008AA12E9030084E8030004AA82E8030099
:102E0000C3F83C3103F5A07484E8030003F59C7219
:102E1000C3F8342109B05DF8044B7047E130000875
:102E20002DE9F0470746884614469946DDF820A06C
:102E3000906803681B6A9847B0F5F87F75D360689F
:102E400003681B6A98470F2875D9E06803681B6AF6
:102E500098470B2875D90BF0F9FD0BF0FDFDD9F85B
:102E6000000010B10368DB689847D9F8000010B182
:102E700003681B689847386810B103685B69984716
:102E8000D8F8000010B103685B689847386810B143
:102E900003681B689847D8F8000010B103689B6866
:102EA0009847E06803685B6A00219847054620B1AF
:102EB000002343600372274B0360A06803685B6ACA
:102EC00000219847064608B100F018FD60680368C5
:102ED0005B6A00219847044610B1314600F0F8FCC7
:102EE000C9F80050C8F800403E60002C2FD0231DC8
:102EF000CAF80030C4F808A0F4633368DB683046D1
:102F0000984723681B6820469847294630460CF0AE
:102F1000F9FD2B681B69284698470BF097FD03685D
:102F20009B6A98472046BDE8F0870B4B0B4AC221AD
:102F30000B480FF07DFE0B4B084AC32108480FF0E9
:102F400077FE094B054AC42105480FF071FE0023A6
:102F5000CEE700BF2844010840440108903D010825
:102F6000D04401083C450108E045010800B583B0A4
:102F7000D0F84C310093054BD0F8482100F59871FA
:102F80000348FFF74DFF03B05DF804FBFC970020FA
:102F9000F89700202DE9F0470746884614469946E1
:102FA000DDF820A0906803681B6A9847B0F5CE7FD3
:102FB00075D3606803681B6A98470F2875D9E06865
:102FC00003681B6A98470B2875D90BF03FFD0BF07F
:102FD00043FDD9F8000010B10368DB689847D9F8C1
:102FE000000010B103681B689847386810B1036887
:102FF0005B699847D8F8000010B103685B68984790
:10300000386810B103681B689847D8F8000010B101
:1030100003689B689847E06803685B6A00219847EB
:10302000054620B1002343600372274B0360A0686C
:1030300003685B6A00219847064608B100F0B6FCB9
:10304000606803685B6A00219847044610B1314606
:1030500000F096FCC9F80050C8F800403E60002C13
:103060002FD0231DCAF80030C4F808A0F4633368D9
:10307000DB683046984723681B68204698472946F6
:1030800030460CF03FFD2B681B69284698470BF033
:10309000DDFC03689B6A98472046BDE8F0870B4B30
:1030A0000B4AC2210B480FF0C3FD0B4B084AC3214A
:1030B00008480FF0BDFD094B054AC42105480FF033
:1030C000B7FD0023CEE700BF2844010840440108B3
:1030D000943E0108D04401083C450108E045010840
:1030E00000B583B0D0F84C310093054BD0F848219F
:1030F00000F598710348FFF74DFF03B05DF804FB3E
:10310000FC970020F8970020704770477047704781
:103110007047704738B503464568C268541028198F
:1031200012F0010F04D02A599B68D358984738BD34
:103130009B68FBE743684BB183680BB10120704784
:10314000C36813F0010F03D00120704700207047BF
:103150000020704710B5044610210FF05DFD204699
:1031600010BD6C30884200D0704708B50BF06EFC83
:10317000FFF736FE08BD00002DE9F04F8FB0044682
:103180000CF042FB0025E5632646A54B46F8403B84
:10319000304609F00DFF04F16C0738460AF078FB61
:1031A00004F1B008404609F009F9A4F8B051A4F8B8
:1031B000B251A4F8B451A4F8B651A4F8B851A4F887
:1031C000BA51A4F8BC51A4F8BE51C4F8C051C4F817
:1031D000C451C4F8C8514FF0010A84F8D1A1C4F811
:1031E000D45184F8D85184F8D0A18E4BC4F8AC31B6
:1031F0004FF6FF73A4F8DA31A4F8DC3184F8DE313D
:10320000894B0493059502AB04AA92E8030083E876
:103210000300864AC4F8E021C4F8E44104F5F472DE
:1032200082E803000EA9072321F8203D304609F06B
:103230007BFE236C5B6B2A46294630469847236CFD
:103240009B6B4FF4806130469847236CDB6B4FF4E7
:103250001671304698472946304609F058FEE36E0D
:10326000DB6A40F2ED2138469847E36E1B6B40F273
:10327000CF1138469847ADF81C500EAA22F818AD69
:1032800007A938460AF0B8F80223A4F8A030684B22
:103290001B68002B00F0AC8004F5D679B4F8A020B0
:1032A000644B1B889A4280F0A980B4F8A020604B40
:1032B0001B6813F81210604A126852F821A0002B04
:1032C00000F0A280B4F8A0205A4B1B889A4280F0EC
:1032D000A180BA8E594B1B6853F822B0DAF800303F
:1032E0009B6A5946504698470546DAF80030DB6B32
:1032F00059465046984715FB00F5EDB2DAF8003014
:103300005B6A594650469847284487F84100FF2297
:10331000114610460DF00EFAC4F8A400162211460C
:10332000D9200DF007FAC4F8A80004F5F073C4F82A
:10333000943004F1B00AD4F8B030DB6ABE215046B4
:103340009847D4F8B0301B6BA92150469847042306
:10335000ADF824300523ADF828300EAB032223F856
:103360000C2D0AAA09A9404609F07EF840F26D2307
:103370000193002500952B4616220221404608F0B5
:10338000B3FE64222946404608F014FE2946404612
:1033900008F09AFD04F5D678D4F8AC31DB6AD22176
:1033A00040469847D4F8AC311B6B4FF4CD71404682
:1033B0009847ADF830500EAA012322F8043D0CA91D
:1033C00048460AF019F8251D3146284608F03AFC0F
:1033D0003946284608F036FC5146284608F032FCAB
:1033E0004146284608F02EFC20460FB0BDE8F08F7D
:1033F000134B144ACF2114480FF01AFC134B114AF7
:10340000D02111480FF014FC0D4B0E4ACF210E486D
:103410000FF00EFC0D4B0B4AD0210B480FF008FCAF
:10342000A03F0108B4590108633100088C46010827
:1034300004980020089800200C98002024120020F6
:103440009C460108CC3F0108E04601084C470108B2
:1034500010B50446054B40F8B03B08F034FD04F1CC
:10346000400009F053FD204610BD00BFA03F0108F9
:1034700010B50446074B40F8B03B08F024FD04F1BA
:10348000400009F043FD4FF4F87120460FF0C4FBF3
:10349000204610BDA03F01087047704738B503466D
:1034A0004568C2685410281912F0010F04D02A5937
:1034B0009B68D358984738BD9B68FBE743684BB17E
:1034C00083680BB101207047C36813F0010F03D06C
:1034D00001207047002070470020704710B5044657
:1034E00010210FF099FB204610BD6C30884200D0AF
:1034F000704708B50BF0AAFAFFF752FC08BD0000B0
:103500002DE9F0478CB004460CF07EF90026E66306
:103510002546864B45F8403B284609F049FD04F115
:103520006C0738460AF0B4F904F1B008404608F0D8
:1035300021F97F4B0593069603AB05AA92E8030099
:1035400083E803007B4AC4F88C21C4F8904104F559
:10355000CA7282E803000CA9082321F8143D28460A
:1035600009F0E2FC236C5B6B3246314628469847F3
:10357000236C9B6B4FF4806128469847236CDB6B70
:1035800040F2FE51284698473146284609F0BFFCD4
:10359000E36EDB6ABE2138469847E36E1B6B9B21C6
:1035A00038469847ADF820600CAA012322F80C3D5C
:1035B00008A9384609F020FFA4F8A0605E4B1B68FC
:1035C000002B00F09A80B4F8A0205C4B1B889A4234
:1035D00080F09980B4F8A020574B1B6813F81210A4
:1035E000574A126852F82190002B00F09280B4F8EC
:1035F000A020524B1B889A4280F09180BA8E514B8A
:103600001B6853F822A0D9F800309B6A51464846FF
:1036100098470646D9F80030DB6B51464846984734
:1036200016FB00F6F6B2D9F800305B6A5146484600
:103630009847304487F84100FF22114610460DF0AC
:1036400079F8C4F8A400522211465C200DF072F8FB
:10365000C4F8A80004F5C673C4F8943004F1B009A6
:10366000D4F8B030DB6AE92148469847D4F8B03046
:103670001B6B4FF49B7148469847222300935423B9
:1036800000221146404608F0BDF800260096334659
:1036900064223146484608F07FF9324631463046CA
:1036A0000DF048F80146404607F041FF31464046DC
:1036B00007F049FF0CA9012321F8083D404607F017
:1036C00067FF0CA9022321F8043D484608F059F988
:1036D0003C21404608F0AEF8261D2946304608F049
:1036E000B1FA3946304608F0ADFA4946304608F09E
:1036F000A9FA20460CB0BDE8F087134B134ACF213E
:1037000013480FF095FA134B104AD02110480FF0D0
:103710008FFA0D4B0D4ACF210D480FF089FA0D4B52
:103720000A4AD0210A480FF083FA00BF044001087A
:10373000EB340008A84701080498002008980020EE
:103740000C980020241200209C46010830400108FB
:10375000E04601084C47010810B50446054B40F807
:10376000B03B07F001FF04F1400009F0CFFB204619
:1037700010BD00BF0440010810B50446074B40F8D7
:10378000B03B07F0F1FE04F1400009F0BFFB4FF43D
:10379000CE7120460FF040FA204610BD04400108CB
:1037A000004870476040010809207047012800D098
:1037B00070474FF6FF739942FAD1024B024A1A60E2
:1037C000F6E700BF2412002018BB0C0838B5094BDF
:1037D0009880094A1A6000F035F8054600F038F87C
:1037E000044600F033F8054B1D60054B1C60054B8B
:1037F000188038BD2412002018BB0C080498002043
:103800000C9800200898002008B54FF6FF710120A1
:10381000FFF7CCFF08BD0000012800D070474FF62D
:10382000FF739942FAD110B5FFF7B2F9044C20604A
:10383000FFF7F0F96060FFF76FF9A06010BD00BFFF
:103840003C120020004870474CBB0C080320704716
:10385000004870473C12002008B54FF6FF71012068
:10386000FFF7DAFF08BD704710B504464FF4A871A2
:103870000FF0D2F9204610BD10B50446D0F84C0127
:1038800000F011F820460AF0A5FF10BD10B504465F
:10389000FFF760FA014B2360204610BDC0470108C6
:1038A00000220260704770477047043870477047C5
:1038B000704710B5044610210FF0AEF9204610BD38
:1038C00010B5041F102120460FF0A6F9204610BDA8
:1038D00010B400228260054A02F10804046020321C
:1038E0004260C1605DF8044B704700BF144101089D
:1038F000704708B5FFF70CFC08BD000010B5044682
:10390000FFF73AFC014B2360204610BD44410108FB
:1039100010B50446054B40F8B03B08F0D4FA04F16A
:10392000400009F0F3FA204610BD00BFA03F010897
:1039300010B50446074B40F8B03B08F0C4FA04F158
:10394000400009F0E3FA4FF4F87120460FF064F9F3
:10395000204610BDA03F01087047043870477047EB
:10396000704710B5044610210FF056F9204610BDDF
:1039700010B5041F102120460FF04EF9204610BD4F
:1039800010B400228260054A02F10804046020326B
:103990004260C1605DF8044B704700BF7041010890
:1039A000704708B5FFF778FD08BD000010B5044664
:1039B000FFF7A6FD014B2360204610BDA041010882
:1039C00010B50446054B40F8B03B07F0CDFD04F1BF
:1039D000400009F09BFA204610BD00BF04400108DA
:1039E00010B50446074B40F8B03B07F0BDFD04F1AD
:1039F000400009F08BFA4FF4CE7120460FF00CF91D
:103A0000204610BD0440010880B400AF164BD3F827
:103A10008830154A43F47003C2F88830134B1B6892
:103A2000124A43F001031360104B00229A600F4BBF
:103A30001B680E4A23F0847323F4803313600B4B0E
:103A40000B4A5A60094B1B68084A23F48023136011
:103A5000064B0022DA60044B4FF000629A6000BF10
:103A6000BD465DF8047B704700ED00E00038024081
:103A70001030002480B500AF0E4B1B680D4A43F494
:103A8000007313600B4B1B680A4A43F48063136096
:103A9000084B1B68074A43F480731360032000F04F
:103AA0001CF90020FEF77EFFFEF7E6FB0023184618
:103AB00080BD00BF003C024080B400AF064B1B78C5
:103AC0001A46064B1B681344044A136000BFBD46E8
:103AD0005DF8047B704700BF280000208898002014
:103AE00080B400AF034B1B681846BD465DF8047BED
:103AF000704700BF8898002080B584B000AF786020
:103B0000FFF7EEFFB8607B68FB60FB68B3F1FF3F37
:103B100005D0094B1B781A46FB681344FB6000BFB5
:103B2000FFF7DEFF0246BB68D31AFA689A42F7D85D
:103B300000BF1037BD4680BD2800002080B485B08E
:103B400000AF78607B6803F00703FB600C4BDB6819
:103B5000BB60BA684FF6FF031340BB60FB681A02F4
:103B6000BB68134343F0BF6343F40033BB60044AB4
:103B7000BB68D36000BF1437BD465DF8047B704757
:103B800000ED00E080B400AF044BDB681B0A03F0DB
:103B900007031846BD465DF8047B704700ED00E062
:103BA00080B483B000AF0346FB7197F90730002B58
:103BB0000BDBFB7903F01F02074997F907305B091C
:103BC000012000FA02F241F8232000BF0C37BD4665
:103BD0005DF8047B704700BF00E100E080B483B073
:103BE00000AF0346FB7197F90730002B10DBFB7920
:103BF00003F01F02094997F907305B09012000FA19
:103C000002F2203341F82320BFF34F8FBFF36F8FB1
:103C100000BF0C37BD465DF8047B704700E100E053
:103C200080B483B000AF03463960FB7197F9073069
:103C3000002B0ADB3B68DAB20C4997F90730120116
:103C4000D2B20B4483F800230AE03B68DAB2084999
:103C5000FB7903F00F03043B1201D2B20B441A7636
:103C600000BF0C37BD465DF8047B704700E100E003
:103C700000ED00E080B489B000AFF860B9607A6010
:103C8000FB6803F00703FB61FB69C3F10703042B27
:103C900028BF0423BB61FB690433062B02D9FB69EF
:103CA000033B00E000237B614FF0FF32BB6902FA67
:103CB00003F3DA43BB681A407B699A404FF0FF3147
:103CC0007B6901FA03F3D9437B680B401343184621
:103CD0002437BD465DF8047B704780B582B000AFE5
:103CE00078607868FFF72AFF00BF0837BD4680BDBF
:103CF00080B586B000AF0346B9607A60FB730023DD
:103D00007B61FFF73FFF78617A68B9687869FFF7F0
:103D1000B1FF024697F90F3011461846FFF780FFB2
:103D200000BF1837BD4680BD80B582B000AF0346E6
:103D3000FB7197F907301846FFF732FF00BF0837CD
:103D4000BD4680BD80B582B000AF0346FB7197F9D8
:103D500007301846FFF742FF00BF0837BD4680BD59
:103D600080B582B000AF78607B68002B01D1012361
:103D700011E07B685B79DBB2002B05D17B68002208
:103D80001A717868FEF7A4FA7B6802225A717B6880
:103D900001225A71002318460837BD4680BD80B500
:103DA00082B000AF78607B68002B01D1012314E062
:103DB0007B681B79DBB2002B05D17B6800225A712E
:103DC0007868FEF7A7FA7B6802221A717B680022E6
:103DD0001A617B6801221A71002318460837BD4614
:103DE00080BD80B582B000AF78607B681B685B6B7C
:103DF00003F40053B3F5005F18D17B6804221A71F5
:103E00007B681B6943F001027B681A617B681B6851
:103E10004FF400525A637B681B681A687B681B6802
:103E200022F480521A60786800F025F87B681B68DD
:103E30005B6B03F00053B3F1005F18D17B68042281
:103E40001A717B681B6943F002027B681A617B6808
:103E50001B684FF000525A637B681B681A687B68C6
:103E60001B6822F080521A60786800F05BF800BF8F
:103E70000837BD4680BD80B483B000AF786000BF16
:103E80000C37BD465DF8047B704780B487B000AF47
:103E9000F860B9607A6000237B6100233B61FB68B6
:103EA0005B79012B01D1022336E0FB6801225A71B4
:103EB000FB6802221A71FB681B681B687B6140F675
:103EC000FE727B6802FA03F3DB437A6913407B617D
:103ED000BB681A68BB685B6813433B613A697B68DF
:103EE00002FA03F37A6913437B61FB681B687A6902
:103EF0001A60FB681B681968C0227B6802FA03F32A
:103F0000DA43FB681B680A401A60FB6801221A71D9
:103F1000FB6800225A71002318461C37BD465DF825
:103F2000047B704780B483B000AF786000BF0C376B
:103F3000BD465DF8047B704780B582B000AF786005
:103F40007B68002B01D101233BE07B6893F839307B
:103F5000DBB2002B06D17B68002283F8382078681A
:103F6000FDF72CF97B68022283F839207B681B68F7
:103F70001B6823F440317B685A687B681B680A43DE
:103F80001A607B681B685B6B23F007017B689A688B
:103F90007B681B680A435A637B681B681B6C23F4AD
:103FA0007F5323F03F037A68D1687A6812680B4325
:103FB00013647B680022DA637B68012283F839206E
:103FC000002318460837BD4680BD000080B582B08A
:103FD00000AF78607B68002B01D101235FE0324B9A
:103FE0001B6B03F40003002B2ED07B681B681B683F
:103FF00003F00103012B07D1786800F0C1F80346F4
:10400000002B21D001234AE07B681B685B6A03F028
:104010002003202B08D10021786800F0F7F8034630
:10402000002B11D001233AE07B681B68DB6903F0A9
:104030002003202B08D10121786800F0E7F803461F
:10404000002B01D001232AE07B681B6800221A6044
:104050007B681B683F229A607B681B6800221A619C
:104060007B681B6800229A617B681B680022DA610A
:104070007B681B6800225A627B681B6800225A63B7
:104080007868FDF7BBF87B680022DA637B68002262
:1040900083F839207B68002283F8382000231846F3
:1040A0000837BD4680BD00BF0038024080B586B0ED
:1040B00002AFF860B9607A603B60FB6893F8383013
:1040C000012B01D1022320E0FB68012283F8382074
:1040D000FB68022283F83920BB6900933B687A6849
:1040E000B968F86800F084FAFB681B681A68FB6816
:1040F0001B6842F40C521A60FB681B681A68FB6864
:104100001B6842F001021A60002318461037BD46B2
:1041100080BD80B586B002AFF860B9607A603B6060
:10412000FB6893F83830012B01D1022324E0FB68AF
:10413000012283F83820FB68022283F83920FB68CB
:104140001B687A685A61FB690093BB693A68B96871
:10415000F86800F04DFAFB681B681A68FB681B687A
:1041600042F40C521A60FB681B681A68FB681B68F3
:1041700042F001021A60002318461037BD4680BD88
:1041800080B584B000AF78607B681B681B6823F043
:1041900005027B681B6842F004021A60FFF7A0FC6E
:1041A000F86017E0FFF79CFC0246FB68D31AB3F5F2
:1041B0007A7F0FD97B68DB6B43F020027B68DA6380
:1041C0007B68032283F839207B68002283F838203B
:1041D000032317E07B681B681B6803F00103002BB7
:1041E000E0D17B681B681A687B681B6822F40C525C
:1041F0001A607B68012283F839207B68002283F8EB
:104200003820002318461037BD4680BD80B584B0E5
:1042100000AF786039607B681B682433FB607B6883
:104220001B681A687B681B6842F004021A603B68CE
:10423000012B03D17B681B681C33FB60FFF750FC2C
:10424000B86017E0FFF74CFC0246BB68D31AB3F521
:104250007A7F0FD97B68DB6B43F020027B68DA63DF
:104260007B68032283F839207B68002283F838209A
:10427000032316E0FB681B6803F02003002BE1D149
:104280007B681B681A687B681B6822F464521A609A
:104290007B68012283F839207B68002283F838206C
:1042A000002318461037BD4680BD80B584B000AFEE
:1042B00078607B681B685B68FB607B681B681B68B9
:1042C000BB60FB6803F00103002B26D0BB6803F43E
:1042D0008073002B21D07B681B681A687B681B6881
:1042E00022F480721A607B68DB6B43F001027B680A
:1042F000DA637B681B6801229A607B68042283F87A
:1043000039207B68002283F838207B685B69002BAA
:1043100003D07B685B6978689847FB6803F02003EB
:10432000002B26D0BB6803F40053002B21D07B6800
:104330001B681A687B681B6822F400521A607B684D
:104340001B6820229A607B68DB6B43F002027B686B
:10435000DA637B68042283F839207B68002283F8C3
:1043600038207B685B69002B03D07B685B697868C9
:104370009847FB6803F00803002B26D0BB6803F4C2
:104380000063002B21D07B681B681A687B681B6860
:1043900022F400621A607B681B6808229A607B68BE
:1043A000DB6B43F004027B68DA637B68042283F8EA
:1043B00039207B68002283F838207B685B69002BFA
:1043C00003D07B685B6978689847FB6803F0040357
:1043D000002B13D0BB6803F48063002B0ED07B68E6
:1043E0001B681A687B681B6822F480621A607B680D
:1043F0001B6804229A60786800F053F8FB6803F0A9
:104400000203002B24D0BB6803F40073002B1FD0E1
:104410007B681B681A687B681B6822F400721A604C
:104420007B681B6802229A607B68DA6B7B68DA63C0
:104430007B68012283F839207B68002283F83820CA
:104440007B681B69002B03D07B681B6978689847E1
:10445000FB6803F01003002B1FD0BB6803F48053EC
:10446000002B1AD07B681B681A687B681B6822F4D3
:1044700080521A607B681B6810229A607B68DA6B36
:104480007B68DA637B68012283F839207B6800222D
:1044900083F83820786800F00EF800BF1037BD466A
:1044A00080BD80B483B000AF786000BF0C37BD46DC
:1044B0005DF8047B704780B483B000AF786000BFC4
:1044C0000C37BD465DF8047B7047000080B487B0B0
:1044D00000AF786039607B685B68B3F5403F7B680C
:1044E00093F83830012B01D1022379E07B68012257
:1044F00083F838207B68022283F839203B681B014F
:1045000018337A6813443B613B695A683B699B687E
:104510001B0413437B61354BFB603B695B680A2BD3
:1045200003D03B695B68092B07D13B69DB6803F06B
:104530007F437A6913437B6105E03B69DB681B06B7
:104540007A6913437B613B68002B20D17B681B6831
:104550005A6AFB68DB4302EA03017B681B687A69DD
:104560000A435A627B681B683A6912689A613B6920
:104570005B680A2B03D03B695B68092B27D13B6939
:10458000DA687B681B6822F07F429A621FE07B68D2
:104590001B68DA69FB68DB4302EA03017B681B687E
:1045A0007A690A43DA617B681B683A6912681A61A2
:1045B0003B695B680A2B03D03B695B68092B06D11A
:1045C0003B69DA687B681B6822F07F421A627B686D
:1045D000012283F839207B68002283F838200023E9
:1045E00018461C37BD465DF8047B70470F0003FF7B
:1045F00080B48BB000AFF860B9607A603B60FB6854
:104600001B685B6C03F040413B681A043B6B1A4328
:10461000FB681B680A435A64FB681B687A68DA63A4
:10462000FB685B68B3F5403F74D1BB6803F07F4320
:104630003B62BB6803F47F03FB61BB6803F47F4309
:10464000BB61BB68DBB27B61FB689B68002B08D158
:10465000BA69FB691A433B6A13437A6913437B6265
:1046600053E0FB689B68012B06D1BA69FB691343D1
:104670007A6913437B6248E0FB689B68022B11D187
:10468000FB69DB0CFB61BB699B0ABB617B69DB08D7
:104690007B61BB695A01FB69DB0213437A691343EF
:1046A0007B6232E0FB689B68032B17D13B6ADB0F10
:1046B0003B62FB69DB0CFB61BB69DB0ABB617B69AD
:1046C000DB087B61BB695A01FB699B021A433B6AA9
:1046D000DB0313437A6913437B6216E03B6A1B0FCB
:1046E0003B62FB691B0DFB61BB691B0BBB617B69FB
:1046F0001B097B61BB691A01FB691B021A433B6AF8
:104700001B0313437A6913437B62FB681B687A6A55
:104710009A6303E0FB681B68BA68DA6000BF2C3755
:10472000BD465DF8047B704780B588B000AF786007
:104730000023FB610023FB60AA4BBB6100237B616C
:1047400000233B617B68002B01D1012385E17B685D
:1047500093F84430DBB2002B06D17B68002283F84B
:1047600045207868FDF722FE0023BB609E4B5B6C02
:104770009D4A43F4804353649B4B5B6C03F480433A
:10478000BB60BB68994B5B68984A23F40003536095
:10479000964B5A687B681B6A944913434B607B684D
:1047A0001B6803F580531A687B681B6842F001029E
:1047B00003F580531A60FFF793F9786111E0FFF772
:1047C0008FF902467B69D31AB3F5FA7F09D97B6862
:1047D000032283F844207B68002283F845200323CA
:1047E0003BE17B681B6803F580531B6803F0010302
:1047F000002BE4D17B681B681B69FB61FB6923F01C
:104800001C03FB6102F06AFFB861BB69784A9342FE
:1048100008D9BB69774A934204D8FB6943F008037F
:10482000FB6127E0BB69734A934208D9BB69724AAE
:10483000934204D8FB6943F00C03FB611AE0BB69A7
:104840006D4A934203D9BB696C4A934211D9BB6943
:104850006A4A934208D9BB69694A934204D8FB6902
:1048600043F00403FB6105E0FB6943F01003FB61C7
:1048700000E000BF7B681B68FA691A614FF40042D0
:104880000021786800F056F90346002B0BD0012375
:104890003B613969786800F0B3F97B68012283F8DD
:1048A00044200123D9E0FF20FFF726F97B685B68ED
:1048B000002B00F0A780FFF713F9786107F10C03D4
:1048C0001A460121786800F0CDF8FFF709F9024691
:1048D0007B69D31A41F2883293420FD901233B619D
:1048E0003969786800F08CF97B68012283F84420EC
:1048F0007B68002283F845200323AEE0FB6803F0C9
:104900000403002BDAD04FF480520021786800F0C5
:1049100011F90346002B0BD001233B6139697868FC
:1049200000F06EF97B68012283F84420012394E0B3
:10493000FFF7D6F8786107F10C031A460121786871
:1049400000F090F8FFF7CCF802467B69D31A41F2E9
:10495000883293420FD901233B613969786800F0AE
:104960004FF97B68012283F844207B68002283F89A
:104970004520032371E0FB6803F02003002BDAD00D
:1049800007F10C031A461F21786800F06BF8034604
:10499000002B0BD001233B613969786800F030F9B6
:1049A0007B68012283F84420012356E0FB6803F072
:1049B0001003002B04D07B684FF40062DA6002E041
:1049C0007B680022DA60FB6803F00403002B03D04D
:1049D0007B6800229A6037E07B684FF480429A60DF
:1049E00032E000BF008793030038024000380140E6
:1049F000FF2C3101BF0E1602FF869303FFE0F50581
:104A00007FD1F0087B68DB68DB089AB27B689B6823
:104A10005B089BB213439BB21A460021786800F0F2
:104A200089F80346002B0BD001233B613969786874
:104A300000F0E6F87B68012283F8442001230CE0B3
:104A400040F6FF70FFF758F83969786800F0D8F839
:104A50007B68012283F84420002318462037BD4696
:104A600080BD00BF80B586B000AFF8600B467A60AD
:104A70007B8100237B6100233B61FB6893F844301A
:104A8000DBB2822B01D1022350E0FB68822283F843
:104A90004420FB681B681B697B617B6903F01C0376
:104AA0007B61FB681B8ADB029BB27A6913437B61E3
:104AB0007B899B0103F4F8637A6913437B617B690B
:104AC00023F002037B617B6943F001037B61FB6898
:104AD0001B687A691A61FFF703F8386115E0FEF781
:104AE000FFFF02463B69D31AB3F5803F09D3FB6849
:104AF000012283F84420FB68002283F84520032329
:104B000014E0FB681B681B697B617B6903F0010390
:104B1000002BE4D1FB681B685B699BB21A467B687B
:104B20001A60FB68012283F84420002318461837D6
:104B3000BD4680BD80B586B000AFF8600B467A6098
:104B40007B8100237B6100233B61FB6893F8443049
:104B5000DBB2422B01D102234EE0FB68422283F8F4
:104B60004420FB681B681B697B617B6903F01C03A5
:104B70007B61FB681B8ADB029BB27A6913437B6112
:104B80007B899B0103F4F8637A6913437B617B693A
:104B900043F002037B617B6943F001037B617B6827
:104BA0009AB2FB681B685A61FB681B687A691A61D4
:104BB000FEF796FF386115E0FEF792FF02463B696B
:104BC000D31AB3F5803F09D3FB68012283F8442050
:104BD000FB68002283F8452003230DE0FB681B6877
:104BE0001B697B617B6903F00103002BE4D1FB6847
:104BF000012283F84420002318461837BD4680BDA3
:104C000080B5B0B000AF786039600023C7F8BC3021
:104C10003B68002B07D07B684FF40062DA607B684A
:104C20004FF480429A600023BB640023FB6400239E
:104C30003B6500237B650023BB650023FB657B6828
:104C4000DB69002B03D14FF480633B6601E0002356
:104C50003B664FF400737B660023BB660023FB6654
:104C600000233B6700237B670023BB674023FB6770
:104C70000023C7F880300023C7F884300023C7F82A
:104C800088300023C7F88C300023C7F89030002309
:104C9000C7F894300023C7F898300023C7F89C3039
:104CA0008023C7F8A0300023C7F8A4300023C7F83A
:104CB000A8300023C7F8AC300023C7F8B030002379
:104CC000C7F8B4300023C7F8B8307B681B681B688E
:104CD000C7F8BC30D7F8BC20AC4B1340C7F8BC3089
:104CE000BA6CFB6C1A433B6D1A437B6D1A437B68AD
:104CF0009B681A43BB6D1A43FB6D1A437B68DB68E4
:104D00001A433B6E1A437B6E1A43BB6E1A43FB6E0B
:104D10001A433B6F1343D7F8BC201343C7F8BC308A
:104D20007B681B68D7F8BC201A607B681B681B680F
:104D3000C7F8BC300120FEF7DFFE7B681B68D7F8A0
:104D4000BC201A607A6FBB6F1A43FB6F1A43D7F807
:104D500080301A43D7F884301A43D7F888301A4382
:104D6000D7F88C3042EA0301D7F890207B681B68A3
:104D70000A435A607B681B685B68C7F8BC30012037
:104D8000FEF7BAFE7B681B68D7F8BC205A607B68C8
:104D90001B68D7F894209A607B681B68D7F8982026
:104DA000DA607B681B689B69C7F8BC30D7F8BC2009
:104DB0004FF641731340C7F8BC30D7F89C301A0443
:104DC000D7F8A0301A43D7F8A4301A43D7F8A83040
:104DD0001A43D7F8AC301A43D7F8B0301343D7F89A
:104DE000BC201343C7F8BC307B681B68D7F8BC20D5
:104DF0009A617B681B689B69C7F8BC300120FEF78D
:104E00007BFE7B681B68D7F8BC209A61D7F8B4108A
:104E1000D7F8B8207B681B680A43DA617B681B6897
:104E2000DB69C7F8BC300120FEF766FE7B681B68B3
:104E3000D7F8BC20DA610023BB604FF00073FB6041
:104E400000233B614FF400137B610023BB6100230F
:104E5000FB6100233B6200237B620423BB624FF0B3
:104E60000073FB624FF480333B634FF480037B633A
:104E70004FF40053BB638023FB6300233B64002398
:104E80007B647B681B6803F5805318331B68C7F885
:104E9000BC30D7F8BC203E4B1340C7F8BC30BA68D2
:104EA000FB681A433B691A437B691A43BB691A437F
:104EB000FB691A433B6A1A437B6A1A43BB6A134372
:104EC000D7F8BC201343C7F8BC307B681B6803F5D8
:104ED00080531833D7F8BC201A607B681B6803F531
:104EE000805318331B68C7F8BC300120FEF704FE5E
:104EF0007B681B6803F580531833D7F8BC201A6011
:104F0000FA6A3B6B1A437B6B1A43BB6B1A43FB6B0E
:104F10001A433B6C9B001A437B6C1A437B681B68EB
:104F200042F4000203F580531A607B681B6803F5A6
:104F300080531B68C7F8BC300120FEF7DDFD7B689D
:104F40001B6803F58053D7F8BC201A607B689B6907
:104F5000012B0FD17B681B6803F580531C331A6843
:104F60007B681B6842F4803242F0400203F58053B4
:104F70001C331A607B685B691A460021786800F070
:104F800009F800BFC037BD4680BD00BF0F8120FFBC
:104F9000233FDEF880B487B000AFF860B9607A6074
:104FA0007B6805331B781B027A680432127813433E
:104FB0007B61BA68114B13441A467B6913607B68A6
:104FC00003331B781A067B6802331B781B041A43D1
:104FD0007B6801331B781B0213437A6812781343F2
:104FE0007B61BA68064B13441A467B69136000BFA5
:104FF0001C37BD465DF8047B704700BF408002400F
:105000004480024080B489B000AF786039600023EA
:105010007B6100233B610023BB610023FB6177E1DF
:105020000122FB6902FA03F37B613B681B687A6922
:1050300013403B613A697B699A4240F066813B6864
:105040005B68022B03D03B685B68122B23D1FB69A2
:10505000DA087B68083253F82230BB61FB6903F041
:1050600007039B000F2202FA03F3DB43BA691340E4
:10507000BB613B681A69FB6903F007039B0002FAF6
:1050800003F3BA691343BB61FB69DA087B68083232
:10509000B96943F822107B681B68BB61FB695B0040
:1050A000032202FA03F3DB43BA691340BB613B6896
:1050B0005B6803F00302FB695B0002FA03F3BA6961
:1050C0001343BB617B68BA691A603B685B68012B5C
:1050D0000BD03B685B68022B07D03B685B68112BE9
:1050E00003D03B685B68122B30D17B689B68BB6147
:1050F000FB695B00032202FA03F3DB43BA69134046
:10510000BB613B68DA68FB695B0002FA03F3BA69CA
:105110001343BB617B68BA699A607B685B68BB615B
:105120000122FB6902FA03F3DB43BA691340BB6156
:105130003B685B681B0903F00102FB6902FA03F399
:10514000BA691343BB617B68BA695A607B68DB68E4
:10515000BB61FB695B00032202FA03F3DB43BA691C
:105160001340BB613B689A68FB695B0002FA03F37A
:10517000BA691343BB617B68BA69DA603B685B68F4
:1051800003F08053002B00F0C0800023FB60654BD0
:105190005B6C644A43F480435364624B5B6C03F47E
:1051A0008043FB60FB68604AFB699B08023352F84E
:1051B0002330BB61FB6903F003039B000F2202FA5B
:1051C00003F3DB43BA691340BB617B68574A9342E0
:1051D00037D07B68564A934231D07B68554A934218
:1051E0002BD07B68544A934225D07B68534A934224
:1051F0001FD07B68524A934219D07B68514A934230
:1052000013D07B68504A93420DD07B684F4A93423B
:1052100007D07B684E4A934201D1092312E00A234A
:1052200010E008230EE007230CE006230AE0052324
:1052300008E0042306E0032304E0022302E0012344
:1052400000E00023FA6902F0030292009340BA6979
:105250001343BB613449FB699B080233BA6941F8C7
:1052600023203C4B1B68BB613B69DB43BA6913409D
:10527000BB613B685B6803F48033002B03D0BA69E1
:105280003B691343BB61334ABB691360314B5B68B5
:10529000BB613B69DB43BA691340BB613B685B6838
:1052A00003F40033002B03D0BA693B691343BB619D
:1052B000284ABB695360274B9B68BB613B69DB4352
:1052C000BA691340BB613B685B6803F48013002B31
:1052D00003D0BA693B691343BB611E4ABB69936043
:1052E0001C4BDB68BB613B69DB43BA691340BB61A4
:1052F0003B685B6803F40013002B03D0BA693B6979
:105300001343BB61134ABB69D360FB690133FB6183
:10531000FB690F2B7FF684AE00BF2437BD465DF8D6
:10532000047B704700380240003801400000024012
:105330000004024000080240000C0240001002403D
:105340000014024000180240001C024000200240ED
:1053500000240240003C014080B487B000AF786078
:10536000396000233B610023FB600023BB60002306
:105370007B61D9E001227B6902FA03F33B613A6861
:105380003B691340FB60FA683B699A4240F0C98070
:105390006A4A7B699B08023352F82330BB607B6901
:1053A00003F003039B000F2202FA03F3BA681340D1
:1053B000BB607B68624A934237D07B68614A934204
:1053C00031D07B68604A93422BD07B685F4A93421E
:1053D00025D07B685E4A93421FD07B685D4A93422A
:1053E00019D07B685C4A934213D07B685B4A934236
:1053F0000DD07B685A4A934207D07B68594A934242
:1054000001D1092312E00A2310E008230EE007234C
:105410000CE006230AE0052308E0042306E003234A
:1054200004E0022302E0012300E000237A6902F095
:10543000030292009340BA689A4232D17B6903F02A
:1054400003039B000F2202FA03F3BB603B4A7B6914
:105450009B08023352F82310BB68DA4337487B6954
:105460009B080A40023340F823203F4B1A68FB6830
:10547000DB433D4913400B603B4B5A68FB68DB4301
:10548000394913404B60384B9A68FB68DB43364917
:1054900013408B60344BDA68FB68DB4332491340BE
:1054A000CB607B681A687B695B00032101FA03F318
:1054B000DB431A407B681A607B69DA087B68083234
:1054C00053F822107B6903F007039B000F2202FAB6
:1054D00003F3DB437A69D20819407B68083243F84A
:1054E00022107B689A687B695B00032101FA03F351
:1054F000DB431A407B689A607B685A6801217B69AC
:1055000001FA03F3DB431A407B685A607B68DA6870
:105510007B695B00032101FA03F3DB431A407B68DC
:10552000DA607B6901337B617B690F2B7FF622AFE9
:1055300000BF1C37BD465DF8047B70470038014052
:10554000000002400004024000080240000C02403B
:10555000001002400014024000180240001C0240EB
:105560000020024000240240003C014080B483B08F
:1055700000AF78600B467B8013467B707B78002BF6
:1055800003D07A887B689A6103E07B881A047B6881
:105590009A6100BF0C37BD465DF8047B704780B44C
:1055A00083B000AF78600B467B807B685A697B884C
:1055B0001A407B889A4204D17B881A047B689A61DE
:1055C00002E07A887B689A6100BF0C37BD465DF8BF
:1055D000047B704780B582B000AF0346FB80084B68
:1055E0005A69FB881340002B06D0054AFB8853619B
:1055F000FB88184600F006F800BF0837BD4680BD9E
:10560000003C014080B483B000AF0346FB8000BF84
:105610000C37BD465DF8047B7047000080B584B050
:1056200000AF78607B68002B01D101230FE17B681C
:1056300093F83D30DBB2002B06D17B68002283F863
:105640003C207868FCF758FF7B68242283F83D20D3
:105650007B681B681A687B681B6822F001021A606D
:1056600002F048F8F8607B685B687B4A934207D891
:10567000FB687A4A934294BF01230023DBB206E021
:10568000FB68774A934294BF01230023DBB2002BCF
:1056900001D00123DBE0FB68724AA2FB03239B0CD1
:1056A000BB607B681B685B6823F03F017B681B68FD
:1056B000BA680A435A607B681B681B6A23F03F0183
:1056C0007B685B68644A934202D8BB68013309E097
:1056D000BB684FF4967202FB03F3634AA2FB0323F9
:1056E0009B0901337A6812680B4313627B681B685D
:1056F000DB6923F44F4222F0FF027B685B68564966
:105700008B420DD8FB68591E7B685B685B00B1FB60
:10571000F3F30133C3F30B03042B38BF04234FE02F
:105720007B689B68002B11D1FB68581E7B68596809
:105730000B465B000B44B0FBF3F30133C3F30B03E5
:10574000002B0CBF01230023DBB212E0FB68581EC4
:105750007B6859680B469B000B4499000B44B0FBD7
:10576000F3F30133C3F30B03002B0CBF012300231E
:10577000DBB2002B01D0012322E07B689B68002B69
:105780000ED1FB68581E7B6859680B465B000B44C2
:10579000B0FBF3F30133C3F30B0343F400430FE017
:1057A000FB68581E7B6859680B469B000B449900A8
:1057B0000B44B0FBF3F30133C3F30B0343F4404357
:1057C000796809681343CB617B681B681B6823F009
:1057D000C0017B68DA697B681B6A1A437B681B68B7
:1057E0000A431A607B681B689B6823F4034323F019
:1057F000FF037A6811697A68D26811437A6812687F
:105800000B4393607B681B68DB6823F0FF017B68B8
:105810005A697B689B691A437B681B680A43DA6094
:105820007B681B681A687B681B6842F001021A607B
:105830007B6800221A647B68202283F83D207B6805
:1058400000221A637B68002283F83E20002318465A
:105850001037BD4680BD00BFA08601007F841E00BA
:10586000FF083D0083DE1B43D34D621080B588B036
:1058700002AFF860084611461A4603467B810B4684
:105880003B811346FB80FEF72BF97861FB6893F8A8
:105890003D30DBB2202B40F0D9807B690093192387
:1058A00001226D49F86800F067FC0346002B01D027
:1058B0000223CCE0FB6893F83C30012B01D102239A
:1058C000C5E0FB68012283F83C20FB681B681B686D
:1058D00003F00103012B07D0FB681B681A68FB6803
:1058E0001B6842F001021A60FB681B681A68FB68BB
:1058F0001B6822F400621A60FB68212283F83D20B5
:10590000FB68402283F83E20FB6800221A64FB6893
:105910003A6A5A62FB68BA8C5A85FB685B8D9AB208
:10592000FB681A85FB684D4ADA62F8883A897989FA
:105930007B690193BB6A00930346F86800F0C2FAE2
:105940000346002B52D0012381E07A69B96AF868D6
:1059500000F0E8FC0346002B0DD0FB681B6C042B09
:1059600007D1FB681B681A68FB681B6842F4007269
:105970001A6001236BE0FB685B6A1A78FB681B689E
:105980001A61FB685B6A5A1CFB685A62FB681B8DD4
:10599000013B9AB2FB681A85FB685B8D9BB2013BA9
:1059A0009AB2FB685A85FB681B685B6903F00403C5
:1059B000042B1BD1FB681B8D002B17D0FB685B6A87
:1059C0001A78FB681B681A61FB685B6A5A1CFB68E3
:1059D0005A62FB681B8D013B9AB2FB681A85FB6813
:1059E0005B8D9BB2013B9AB2FB685A85FB681B8DAD
:1059F000002BAAD17A69B96AF86800F0D4FC034692
:105A0000002B0DD0FB681B6C042B07D1FB681B68B7
:105A10001A68FB681B6842F400721A60012316E0E2
:105A2000FB681B681A68FB681B6842F400721A6006
:105A3000FB68202283F83D20FB68002283F83E208B
:105A4000FB68002283F83C20002300E00223184674
:105A50001837BD4680BD00BF020010000000FFFFE8
:105A600080B58CB002AFF860084611461A4603466E
:105A70007B810B463B811346FB80FEF731F8786251
:105A8000FB6893F83D30DBB2202B40F008827B6A44
:105A90000093192301227B49F86800F06DFB03464F
:105AA000002B01D00223FBE1FB6893F83C30012B73
:105AB00001D10223F4E1FB68012283F83C20FB685A
:105AC0001B681B6803F00103012B07D0FB681B68F0
:105AD0001A68FB681B6842F001021A60FB681B68C9
