:020000040800F2
:100000000000032091050008C1240008C324000853
:10001000C5240008C7240008C92400080000000007
:10002000000000000000000000000000B15B0008BC
:10003000CB24000800000000515C0008CD2400081B
:10004000E1050008E1050008E1050008E1050008F8
:10005000E1050008E1050008E1050008E1050008E8
:10006000E1050008D9240008E1050008E1050008C1
:10007000E1050008E1050008E1050008E1050008C8
:10008000E1050008E1050008E1050008E1050008B8
:10009000E1050008E1050008E1050008E1050008A8
:1000A000E1050008E1050008E1050008E105000898
:1000B000E1050008E1050008E1050008E105000888
:1000C000E1050008E1050008E1050008E105000878
:1000D000E1050008E1050008E1050008E105000868
:1000E000E1050008E1050008E1050008E105000858
:1000F000E1050008E1050008E1050008E105000848
:10010000E5240008E1050008E1050008E105000814
:10011000E1050008E1050008E1050008E105000827
:10012000E1050008E1050008E1050008E105000817
:10013000E1050008E1050008E1050008E105000807
:10014000E1050008E1050008E1050008E1050008F7
:10015000E1050008E1050008E1050008E1050008E7
:10016000E1050008E1050008E1050008E1050008D7
:10017000E1050008E1050008E105000800000000B5
:10018000E1050008E1050008E1050008E1050008B7
:10019000E1050008E1050008E1050008E1050008A7
:0C01A000F5240008E10500080525000812
:1001B00010B5054C237833B9044B13B10448AFF3A1
:1001C00000800123237010BD9C000020000000006F
:1001D00028D7000808B5034B1BB103490348AFF308
:1001E000008008BD00000000A000002028D7000803
:1001F00053B94AB9002908BF00281CBF4FF0FF318E
:100200004FF0FF3000F072B9ADF1080C6DE904CE8B
:1002100000F006F8DDF804E0DDE9022304B07047E1
:100220002DE9F047089E04468846002B4BD18A42B0
:10023000154667D9B2FA82F24AB1C2F1200701FA33
:1002400002F320FA07F7954047EA030894404FEA83
:10025000154E230CB8FBFEF71FFA85FC0EFB178822
:1002600043EA084307FB0CF1994209D9EB1807F15F
:10027000FF3080F01B81994240F21881023F2B44ED
:100280005B1AA4B2B3FBFEF00EFB103344EA034446
:1002900000FB0CFCA44509D92C1900F1FF3380F0B8
:1002A0000781A44540F2048102382C4440EA07400B
:1002B000A4EB0C0400271EB1D4400023C6E9004380
:1002C0003946BDE8F0878B4209D9002E00F0EB805B
:1002D0000027C6E9000138463946BDE8F087B3FA81
:1002E00083F7002F47D18B4202D3824200F2FA807B
:1002F000841A61EB030301209846002EE0D0C6E982
:100300000048DDE702B9FFDEB2FA82F2002A40F0CF
:100310008F80491B4FEA154E1FFA85F80127B1FB64
:10032000FEFC230C0EFB1C1143EA014308FB0CF1FD
:10033000994207D9EB180CF1FF3002D2994200F232
:10034000CD808446591AA3B2B1FBFEF00EFB101407
:1003500043EA044408FB00F8A04507D92C1900F132
:10036000FF3302D2A04500F2B6801846A4EB080481
:1003700040EA0C409FE7C7F1200CBB4022FA0CFE7C
:100380004EEA030E01FA07F420FA0CF521FA0CF3F9
:100390004FEA1E482543B3FBF8F92C0C08FB193330
:1003A0001FFA8EFA44EA034309FB0AF49C4202FA5C
:1003B00007F200FA07F10BD91EEB030309F1FF3036
:1003C00080F087809C4240F28480A9F10209734446
:1003D0001B1BADB2B3FBF8F008FB103345EA034436
:1003E00000FB0AFAA24508D91EEB040400F1FF3312
:1003F0006BD2A24569D90238744440EA0940A0FB97
:100400000289A4EB0A044C45C2464B4654D351D052
:10041000002E69D0B1EB0A0564EB030404FA0CFC6E
:10042000FD40FC404CEA0505C6E90054002747E7BB
:10043000C2F1200320FA03F7954001FA02F021FAF5
:1004400003F34FEA154E3843010CB3FBFEF71FFAD6
:1004500085F80EFB173341EA034107FB08F38B4293
:1004600004FA02F407D9691807F1FF3C2FD28B4236
:100470002DD9023F2944CB1A81B2B3FBFEF00EFB0B
:10048000103341EA034100FB08F38B4207D9691896
:1004900000F1FF3C17D28B4215D902382944C91A02
:1004A00040EA07473BE73746304609E70746E7E6B5
:1004B0001846FBE64145ABD2B8EB020A69EB0E02E7
:1004C00001381346A4E76046E9E7184695E7674612
:1004D000D1E781467CE702382C4447E7ACF1020CB7
:1004E0002B442FE7384608E73746E9E6704700BF58
:1004F00001F0FF01102A2BDB10F0070F08D010F8D5
:10050000013B013A8B422DD010F0070F42B3F6D1D8
:10051000F0B441EA012141EA014122F007047FF0F1
:1005200000070023F0E80256083C85EA010586EA48
:10053000010685FA47F5A3FA87F586FA47F6A5FA84
:1005400087F68EB9EED1F0BC01F0FF0102F0070290
:1005500032B110F8013B013A83EA010313B1F8D13B
:100560000020704701387047002D06BF354603381C
:10057000073815F0010F07D1013015F4807F02BF55
:10058000013015F4C03F0130F0BC0138704700BFA6
:10059000DFF834D0002103E00C4B5B5843500431AA
:1005A0000B480C4B42189A42F6D30B4A02E0002348
:1005B00042F8043B094B9A42F9D302F063FD0CF078
:1005C00063F901F097FC70470000032044320208F1
:1005D000000000209C0000209C00002044530020CC
:1005E000FEE70120704708B50CF036F916230360CA
:1005F0004FF0FF3008BD08B54FF0FF31FFF7F3FFB4
:10060000FEE770B50D461646002404E0AFF3008007
:10061000287001340135B442F8DB304670BD70B546
:100620001646002405E04D1C0878AFF30080013425
:100630002946B442F7DB304670BD000008B50346DA
:100640000B4A126842B10A4A106803446A46934250
:1006500006D8074A136008BD054A06491160F2E74B
:100660000CF0FAF80C2303604FF0FF30F3E700BF03
:10067000B8000020485300204FF0FF3070474FF47F
:1006800000534B60002070470120704700207047E6
:1006900070477047704770477047012070470C20C3
:1006A000704701EB41018B0008331844704701EBA0
:1006B00041018B0008331844704701207047EC203B
:1006C0007047EC2303FB01F1083108447047EC2329
:1006D00003FB01F1083108447047012070471020E6
:1006E000704709010831084470470901083108447E
:1006F000704708B5084602F061F808BD10B5044619
:10070000024B036006F062FE204610BDD4DB0008F9
:1007100010B50446044B036006F058FE1421204631
:100720000CF062F8204610BDD4DB000810B504467A
:10073000024B036006F04AFE204610BDA0DB000815
:1007400010B50446044B036006F040FEF421204639
:100750000CF04AF8204610BDA0DB000810B5044696
:10076000024B036006F032FE204610BD6CDB000831
:1007700010B50446044B036006F028FE18212046FD
:100780000CF032F8204610BD6CDB000810B50446B2
:100790000B4B03600B4BC0F8203100F5907006F056
:1007A00015FE2046084B40F82C3F06F00FFE204671
:1007B000064B40F8143F06F009FE204610BD00BF6E
:1007C00008DC0008D4DB0008A0DB00086CDB0008B4
:1007D000012800D070474FF6FF739942FAD170B5E7
:1007E000144D154E2A46154930460BF0F8FF144CAF
:1007F000204600F087FE2A46124920460BF0EFFF04
:100800002A461149301D0BF0EAFF0023C4F8A43A30
:10081000C4F8A83A0D4BC4F8A03A2A460C4904F58E
:100820002A600BF0DCFF2A460A4906F108000BF0AB
:10083000D6FF70BD000000200400002097060008CD
:10084000C0000020A511000899060008E0D80008A3
:10085000950600089106000810B504460D4B03608C
:100860000D4BC0F8203100F5907006F0AFFD20462A
:100870000A4B40F82C3F06F0A9FD2046084B40F8F3
:10088000143F06F0A3FD4FF4227120460BF0ACFF9D
:10089000204610BD08DC0008D4DB0008A0DB0008FF
:1008A0006CDB000810B5044604210BF09DFF2046C8
:1008B00010BD70477047704708B502F059FC08BD7D
:1008C00008B500F05FFA00F09BFA00F0EFF900F0D5
:1008D0006DF908BD08B5034B18680368DB689847D5
:1008E00008BD00BF9852002010B5044668210BF0E7
:1008F0007BFF204610BD0000F8B5334C2478BFF3D1
:100900005B8F14F0010F01D03048F8BD1C4617462C
:100910000D4606462C480BF03EFF0028F4D0A4B24A
:10092000BDF81800294B5E609D60DF6000221A61EF
:100930005A611A835A839A83DA831A845A849A846E
:1009400083F826209A629A855A639A63DA631A6456
:1009500083F84420012183F8451083F8461083F87A
:10096000541083F8552083F8562083F8571083F8E5
:10097000582083F8592083F85A2083F85B2083F8A5
:100980005C201A6683F8652011490B60114B1C80AE
:10099000114B1880114B1A70114B1C80114B188091
:1009A00084420ED20123094C84F830300E4B236070
:1009B00005480BF0FCFE0D4A0D4920460BF00FFFD9
:1009C000A2E71346EFE700BF944F0020984F0020A6
:1009D000985200208C5200208E520020905200200D
:1009E000925200209452002038D8000800000020C5
:1009F000930600082DE9F04182B0BDF92040009433
:100A0000FFF77AFF044607F087F802F02FF9054652
:100A100002F030F90B9B00930A9B099A0146284685
:100A200009F05EFD2A4B2B4A1A60002002F032F9D1
:100A3000294809F0BFFC294B1B78BFF35B8F13F0EB
:100A4000010F0AD023681D6D08F0A8FB014620465F
:100A5000A847204602B0BDE8F08120480BF09BFE7D
:100A60000028EFD01E4D05F11400686005F12C0838
:100A7000C5F8088005F59077EF6005F59A762E6148
:100A8000184B2B6006F0A4FC174B6B61404606F038
:100A90009FFC164BEB62384606F09AFC144BC5F8E7
:100AA000203105F521772A463946304602F050F9C3
:100AB000384602F057F9304601F080FE07480BF047
:100AC00076FE0C4A0C4928460BF089FEBAE700BFB7
:100AD00004530020700B0020040000200050002070
:100AE0000450002008DC00086CDB0008A0DB0008D4
:100AF000D4DB0008000000208D0700082DE9F0413C
:100B000084B01749174D00260396029601964FF4BC
:100B1000167300934FF480630A1D08312846FFF7CF
:100B200069FF04460368D3F87480012700973B46A9
:100B300010220D49C047022384F8543084F84570D0
:100B400084F8586084F8466005F52A65284600F068
:100B500083FE256184F85C7004B0BDE8F08100BFBD
:100B600004000020C0000020000800D008B5FFF7F6
:100B7000C5FF08BD10B5044610210BF035FE204618
:100B800010BD10B5044604210BF02EFE204610BD0A
:100B900010B5044604210BF027FE204610BD08B511
:100BA0004FF6FF710120FFF713FE08BD7047704735
:100BB000704770472DE9F04186B0002301930293FE
:100BC000039304930593314B1B6813B106B0BDE842
:100BD000F0814FF001082D4BC3F8008000240094F1
:100BE0002B4B9A6B42EA08029A639B6B03EA080359
:100BF0000093009B4FF63F030193022702970326C1
:100C000004960C25059501A9224803F031F8CDF88A
:100C10000480029703940496059501A91E4803F0E9
:100C200027F848F23313019302970394049605952D
:100C300001A91A4803F01CF84FF683730193029739
:100C400003940496059501A9154803F011F8C023F3
:100C50000193029703940496059501A9114803F0A6
:100C600007F84CF2037301930297039404960595D9
:100C700001A90D4802F0FCFF22460521302002F0B8
:100C80009DFA302002F0CEFAA0E700BF740B0020DE
:100C900000380240001402400008024000180240E0
:100CA00000100240001C0240000C024030B58FB022
:100CB00002F0A0F82F4C04F10805284603F0DAFBF7
:100CC0002D4BA3600023E36023616361A3612F22A6
:100CD000E26102222262872262622222A26240F242
:100CE0008742E26240F27A22226340F2AF426263BC
:100CF00040F28722A26384F83C30642284F83D20CD
:100D000084F83E30284603F03BFB68BB0C2301937C
:100D10004FF47D730293002203924FF416730493F1
:100D200002210591FF21069107914FF480610891FE
:100D30000521099111490A914FF47A710B910C9395
:100D40001F238DF834308DF835308DF8363001A9F9
:100D50000B4803F00AFC50B900224FF480610848A8
:100D600003F032FC0FB030BD01F002F9CEE701F024
:100D7000FFF8F1E7740B002000680140000800D084
:100D80007C0B002000B589B01B481C4BC0F8B0306C
:100D90000123C0F8B4300023C0F8B8300421C0F8F3
:100DA000BC101022C0F8C0204022C0F8C4204FF46C
:100DB000C072C0F8C820C0F8CC304FF40062C0F850
:100DC000D020C0F8D4304FF40053C0F8D8300223FC
:100DD0000193072202920391049203220592069343
:100DE00007936944B03004F0E9F810B909B05DF830
:100DF00004FB01F0BDF8F9E7740B0020400100A0EE
:100E00002DE9F04782B04FF00009CDF80490294C4D
:100E10000126C4F8E4604FF00808C4F8E880C4F87C
:100E2000EC60C4F8F09004F1E40704F1B0054FF66B
:100E3000FF723946284604F0F1F8304602F098F97E
:100E40000223C4F8E430C4F8E880C4F8EC60C4F8C5
:100E5000F0904FF6FF723946284604F0DFF803237E
:100E6000C4F8E430C4F8E8804FF0040AC4F8ECA0F9
:100E7000C4F8F0904FF6FF723946284604F0CEF8D9
:100E80004FF40C730193C4F8E4A0C4F8E880C4F8EC
:100E9000EC60019BC4F8F0304FF6FF7239462846EB
:100EA00004F0BCF840F26A51284604F0D4F802B0CD
:100EB000BDE8F087740B00202DE9F0418CB00023D1
:100EC0000793089309930A930B930268584B9A422D
:100ED00002D00CB0BDE8F0810024009403F550432B
:100EE0005A6C42F080625A645A6C02F0806200923E
:100EF000009A01941A6B42F480721A631A6B02F41E
:100F000080720192019A02941A6B42F020021A63D5
:100F10001A6B02F020020292029A03941A6B42F0BA
:100F200001021A631A6B02F001020392039A0494FD
:100F30001A6B42F002021A631A6B02F00202049268
:100F4000049A05941A6B42F080021A631A6B02F03D
:100F500080020592059A06941A6B42F040021A63C9
:100F60001B6B03F040030693069B40F20763079355
:100F7000022508950E260B9607A92E4802F078FE4A
:100F80004FF480630793089509940A940B9607A978
:100F9000294802F06DFE08230793089509940A94E6
:100FA0000B9607A9254802F063FE032307930895D3
:100FB00009940A9409270B97DFF88C8007A940460B
:100FC00002F056FE4FF4E0630793089509940A94E3
:100FD0000B9607A9404602F04BFE4FF4D843079307
:100FE000089509940A940B9607A9154802F040FE4B
:100FF0004FF40C630793089509940A940B96114ECD
:1010000007A9304602F034FE4FF480530793089549
:1010100009940A940B9707A9304602F029FE22464C
:101020000521582002F0CAF8582002F0FBF850E7DA
:10103000006801400020024000140240000002400D
:10104000001C0240001802400004024008B502687B
:10105000144B9A4200D008BD134A536C23F08063AE
:10106000536440F20761114802F0F2FE4FF48061D0
:101070000F4802F0EDFE08210E4802F0E9FE40F2B2
:1010800003710D4802F0E4FE4FF4D8410B4802F022
:10109000DFFE4FF4C6510A4802F0DAFE582002F093
:1010A000CFF8D8E700680140003802400020024035
:1010B000001402400000024000040240001C0240F4
:1010C0000018024008B5FFF775FD08BD02680E4B19
:1010D0009A4200D0704700B583B000220192A3F578
:1010E000F043196B41F4000119631B6B03F4000317
:1010F0000193019B05215A2002F060F85A2002F06A
:1011000091F803B05DF804FB00B0024008B5026836
:10111000064B9A4200D008BD054A136B23F4000326
:1011200013635A2002F08CF8F5E700BF00B00240CC
:101130000038024008B503681B6C984708BD08B525
:1011400003685B6A984708BD30B405682C6824F4CE
:101150004034214329600468616B21F007010A4390
:10116000626301680A6C22F47F5222F03F0213434B
:101170000B64002030BC704708B5034B1B685868EF
:1011800003685B69984708BD9852002070470000CB
:10119000034B1B780BB10020704740F2EF107047F3
:1011A000A80C002010B50446074B0360074802F066
:1011B000CFF9074B4FF08062C3F88820BFF34F8F01
:1011C000BFF36F8F204610BD48D70008680C002081
:1011D00000E100E010B50446FFF7E4FF4FF42A6198
:1011E00020460BF001FB204610BD000010B5074C57
:1011F000074B2360204602F0D9F8064B2361064BCB
:101200006361064B4FF080629A6010BD680C00204D
:1012100000B00240791100088D11000800E100E0E3
:101220002DE9F04782B00C460B68202B07D0402BED
:1012300021D0042B01D0002602E0012600E0012687
:10124000802B1CD0B3F5807F17D00027624B1B6822
:10125000986803681B6A984780462368402B77D0BC
:101260000FD9802B18D0B3F5807F0ED14FF0090A2B
:101270004FF4003114E00126E2E70127E6E70127F9
:10128000E4E7042B58D0202B62D0B8F1100F64D0C3
:101290004FF0010A002103E04FF00A0A4FF4003139
:1012A0004E4B5960B8F1100F5BD04FF001094B4D18
:1012B000C5F80890638AA2899A1AEA60A2899B1AE3
:1012C0004A462846FFF740FFC5F82CA0238AA2898A
:1012D0009B1AAB6206B9DFB1237EFF2B44D03F4B94
:1012E00002221A63227E5A6347B1B8F1100F3FD031
:1012F0006369227E43EA0263384A5363638AA289A0
:101300009B1A36488361C0F81C90002102F008FA4D
:101310000121324802F004FA0EB9002F53D061685F
:10132000A268A389E0890190009313462B4802F03C
:101330008BF802B0BDE8F087102804D04FF0010A06
:101340004FF40031ACE74FF0020A4FF40031A7E749
:101350004FF0000A4FF40031A2E74FF0020A0021DB
:101360009EE74FF00209A2E71C4B00221A63BBE77D
:101370006369C3F3C421C1EB0121194880FB015209
:101380005518CA17C2EB2512C3F34511C1EB012151
:10139000144D85FB01C50D44C917C1EB651103F060
:1013A0001F03C3EB032380FB03501844DB17C3EB7D
:1013B0002013207E120442EA006242EA0122134313
:1013C000064A53639AE76168A268A389E08900909E
:1013D000024802F018F8ACE798520020680C002090
:1013E0004308218483200882F0B583B00C46414B2A
:1013F0001B68986803681B6A9847102830D001263C
:1014000010282FD0237E656945EA03652368082BE1
:1014100052D14FF40037384847608660638AA2890A
:101420009A1AC260A2899B1A32463946FFF78CFE8F
:10143000B7F5003F43D0304BDE6200229A620121B3
:101440002D4802F06DF9B7F5003F47D0A268A38997
:10145000E18900912946284801F0D5FF03B0F0BD8D
:101460000226CDE76369C3F3C422C2EB02222349FB
:1014700081FB02051544D217C2EB2515C3F34512B3
:10148000C2EB02221E4880FB02701044D217C2EB4E
:10149000601203F01F03C3EB032381FB0301194414
:1014A000DB17C3EB2113217E2D0445EA016545EAD4
:1014B000022242EA0305A9E74FF44037ABE70E48A2
:1014C0000123036345630923C362638AA2899B1ACC
:1014D0008361C661002102F023F9B0E7A168A38906
:1014E000E289019200930B460A46034801F0ACFFE3
:1014F000B4E700BF98520020680C00204308218404
:101500008320088238B505460C30686000232B72B2
:101510006B722C46084B44F8203B6022214606F0B3
:1015200017FE5F23002B04DB002262611C34013BA9
:10153000F8E7284638BD00BF48D7000880F8641097
:10154000012380F86530704708B5406803681B6860
:10155000984708BD0020704708B5436B0BB108469B
:10156000984708BD10B490F8642090F830309A4243
:1015700012D0124B1B7863B9114B1888114A108096
:1015800011490A88114C228008801A800B4B0122D5
:101590001A705DF8044B7047084B1B78002BF8D08D
:1015A00009490A88074B1A80054B1888074C208088
:1015B00008801A80014B00221A70EAE7905200203E
:1015C0008C520020925200208E5200209452002013
:1015D000014B986A704700BF84680140024B9962D2
:1015E000843B01225A62704784680140064B586C64
:1015F00080B2DB68C3F30A030133984202D3C01AF6
:1016000080B270470020704700680140034B902271
:1016100083F85A2383F85823704700BF00E100E0A5
:101620000C4B4FF08072C3F88820BFF34F8FBFF38D
:101630006F8F4FF08062C3F88820BFF34F8FBFF3E6
:101640006F8F4FF00072C3F88820BFF34F8FBFF346
:101650006F8F704700E100E0054B4FF080729A6099
:101660004FF080629A604FF000729A60704700BF3E
:1016700000E100E010B50B4BD968C1F30A01013954
:1016800089B2094A11801B69C3F30A03013B5380E5
:10169000064C204602F0EAFF2268536B43F0030336
:1016A000536310BD00680140AA0C00207C0B002091
:1016B00010B5044606F020FC2368D3F88430204699
:1016C000984710BD10B569B18163C26303640032ED
:1016D00018BF012207490A70003318BF0123064AC8
:1016E000137010BD054B064A4FF4437105480BF0CB
:1016F00087F800BF965200209752002034DC000883
:101700008CD700086CDC000870B59DF81040551EA1
:101710001F2D34D8DFE805F025253325333333106A
:1017200033333333333333103333333333333310CF
:101730003333333333333310174D2E88174D2D8801
:1017400005FB06F5D20802FB05F28163F3B11144F3
:10175000C163F4B900220264114A1370114B1C706A
:1017600070BD0D4D2D8802FB05F2073205D4D21055
:101770000A4D2D8802FB05F2E7E70732F7E70A4B2F
:101780000A4A4FF439710A480BF03AF80025C5634C
:10179000DFE70A440264DFE78C5200208E5200200B
:1017A000965200209752002014DC0008DCD7000875
:1017B0006CDC000810B5124B1B6C124A11888B426E
:1017C0000AD002F053FF0020FFF7F2F90E4B186821
:1017D00003689B69984710BD518802F047FF0A4C87
:1017E000226892F85630013382F8563005F034FD05
:1017F000206806F081FB0020FFF7D9F9EBE700BF76
:1018000000680140AA0C00209852002040687047F0
:1018100041607047521A02EB5302B2FBF3F070477B
:10182000034B1B685B6AC06800FB03F0704700BF96
:10183000B00C002010B5044621B903681B69984715
:10184000A06010BD03681B699847A368C01A63684D
:1018500018446060F5E7000030B593B005460024F9
:101860000094234B1A6C42F001021A641B6C03F0C3
:1018700001030093009B2022214604A80BF03BF8B3
:10188000019402941B484FF08043036044608460DD
:10189000C46004618461012303930593099303A940
:1018A00003F0A4FCD0B900230193029301A91148CD
:1018B00003F0EAFCA8B90CA90DA803F02DFA109BBF
:1018C00093B103F009FA440003F000FAB0FBF4F01E
:1018D000E860084803F013FC13B030BD00F048FB8B
:1018E000E1E700F045FBE6E703F0F6F90446EBE735
:1018F00000380240B00C0020704700207047000004
:10190000034B036058330B6080231360704700BFA4
:10191000F00C00202DE9F0478EB0002409940A94C1
:101920000B940C940D940094794B1A6B42F01002B6
:101930001A631A6B02F010020092009A01941A6B5B
:1019400042F480721A631A6B02F480720192019A57
:1019500002941A6B42F020021A631A6B02F0200202
:101960000292029A03941A6B42F004021A631A6BF1
:1019700002F004020392039A04941A6B42F00102EB
:101980001A631A6B02F001020492049A05941A6B0E
:1019900042F080021A631A6B02F080020592059AE7
:1019A00006941A6B42F002021A631A6B02F00202EA
:1019B0000692069A07941A6B42F040021A631A6B59
:1019C00002F040020792079A08941A6B42F008024C
:1019D0001A631B6B03F008030893089B4D4E2246C5
:1019E0001821304602F0D2FADFF8408122464FF447
:1019F0008071404602F0CAFA474F22464FF4017107
:101A0000384602F0C3FADFF828A1224648F2400126
:101A1000504602F0BBFADFF81C9122464FF4804199
:101A2000484602F0B3FA1823099301250A950B944E
:101A30000C9409A9304602F01BF94FF48073099306
:101A40000A950B940C9409A9404602F011F94FF441
:101A500000730993314E0A960B9409A9404602F08F
:101A600007F94FF4017309930A950B940C9409A993
:101A7000384602F0FDF8082309930A960B9409A949
:101A8000384602F0F5F848F2400309930A950B94A2
:101A90000C9409A9504602F0EBF84FF480530993D7
:101AA00002230A930B940C940D9309A9384602F073
:101AB000DFF84FF4804309930A950B940C9409A91D
:101AC000484602F0D5F8202309930A960B9409A9F9
:101AD000134802F0CDF8102309930A960B94114D88
:101AE00009A9284602F0C4F8802309930E4B0A93F3
:101AF0000B9409A9284602F0BBF8224605210920CB
:101B000001F05CFB092001F08DFB0EB0BDE8F08711
:101B10000038024000100240001C0240000011107A
:101B20000004024000200240000021100014024086
:101B3000000002400018024000B583B01048114B6D
:101B4000036001234360038200238DF8003080226C
:101B50008DF80120E1228DF802208DF803308DF8F8
:101B600004308DF80530C0F814D08361C3614FF4A0
:101B70000003036201F050FF03B05DF804FB00BFF7
:101B8000480F00200080024008B50948094B8364D3
:101B90004FF4E133C36400230365436583650C227E
:101BA000C26503664366483003F02CFD08BD00BFE4
:101BB000480F00200010014038B5124C124BC4F8F9
:101BC0008830124BC4F88C300025C4F89050C4F80B
:101BD00094504FF48043C4F89830C4F89C50C4F833
:101BE000A050C4F8A450C4F8A8508834204602F08D
:101BF000EBF92946204602F0B7FA2946204602F0C2
:101C0000D5FA38BD480F002000580040A0860100DA
:101C100030B58DB02022002104A80AF06CFE00250A
:101C2000019502950F4C104BC4F8DC30C4F8E0501D
:101C3000C4F8E450C4F8E850C4F8EC50C4F8F450C8
:101C40000123039305930993DC3403A9204603F091
:101C5000CDFA0195029501A9204603F015FB0DB0C0
:101C600030BD00BF480F00200004004030B58DB0EB
:101C70002022002104A80AF03EFE002501950295CD
:101C80000F4C104BC4F81C31C4F82051C4F8245137
:101C9000C4F82851C4F82C51C4F8345101230393DB
:101CA0000593099304F58E7403A9204603F09EFA68
:101CB0000195029501A9204603F0E6FA0DB030BD6A
:101CC000480F00200008004030B58DB020220021D0
:101CD00004A80AF010FE002501950295104C114B46
:101CE000C4F85C31C4F86051C4F86451C4F8685158
:101CF000C4F86C51C4F87051C4F8745101230393B3
:101D00000593099304F5AE7403A9204603F06EFA17
:101D10000195029501A9204603F0B6FA0DB030BD39
:101D2000480F00200004014008B51248124BC0F8CB
:101D30009C314FF48273C0F8A0310023C0F8A43165
:101D4000C0F8A831C0F8AC31C0F8B0314FF400721F
:101D5000C0F8B421C0F8B831C0F8BC31C0F8C03107
:101D6000C0F8C4310A23C0F8C83100F5CE7003F0C2
:101D700086F908BD480F00200038004008B5124819
:101D8000124BC0F8F4314FF48273C0F8F8310023DD
:101D9000C0F8FC31C0F80032C0F80432C0F8083294
:101DA0004FF40072C0F80C22C0F81032C0F81432A0
:101DB000C0F81832C0F81C320A23C0F8203200F5EF
:101DC000FA7003F05CF908BD480F002000340140B0
:101DD00030B583B0002500950195094C094BC4F836
:101DE0004C3204F51374204601F063FA0095019516
:101DF0002A466946204601F06EFA03B030BD00BFA6
:101E0000480F00200074004008B50448044BC0F897
:101E1000603200F5187001F03BFA08BD480F002051
:101E20000030024008B5FEF755FD4FF4007103483D
:101E300002F0B2F8642003F00CFDF6E7001C02404B
:101E400070B5A0B030252A46002114A80AF053FD31
:101E500000240F9410941194129413942A4621464E
:101E600003A80AF048FD0194204B1A6C42F08052FE
:101E70001A641B6C03F080530193019B02941C4B6A
:101E80001A6842F440421A601B6803F4404302930C
:101E9000029B0225149501231793102318931A957A
:101EA0001B9408261C96B4231D931E9506231F938E
:101EB00014A802F03FFC02F0FDFB0F230F931095D6
:101EC00011944FF4A05312934FF4805313930521B0
:101ED0000FA802F04FFE03963223079309950C9446
:101EE00003A802F037FF20B070BD00BF00380240E9
:101EF0000070004000B589B001F00EF9FFF7A0FFB7
:101F0000FFF708FDFFF718FEFFF73EFEFFF754FE50
:101F1000FFF77EFEFFF7AAFEFFF7D6FEFFF704FFEE
:101F2000FFF72CFFFFF754FFFFF76EFF4FF48041E0
:101F30000C4802F031F8FEF7C3FCFEF717FE01ACC7
:101F4000094D0FCD0FC495E8070084E80700002174
:101F500001A803F048FC054BC3F8680203F03EFCFF
:101F6000FEE700BF0018024018D90008480F002003
:101F70007047000000B583B0002200920D4B596CF1
:101F800041F480415964596C01F4804100910099F9
:101F90000192196C41F0805119641B6C03F080535D
:101FA0000193019B0F216FF0010001F007F903B0CD
:101FB0005DF804FB003802400268094B9A4200D0E9
:101FC000704782B000230193064B1A6B42F4805293
:101FD0001A631B6B03F480530193019B02B070479B
:101FE000003002400038024000B589B0002303935E
:101FF00004930593069307930268134B9A4202D009
:1020000009B05DF804FB0021019103F5E2331A6C7D
:1020100042F000521A641A6C02F000520192019AC6
:1020200002911A6B42F001021A631B6B03F0010369
:102030000293029B102303930323049303A90348F1
:1020400001F016FEDCE700BF007400400000024013
:10205000F0B58DB000230793089309930A930B936F
:102060000268334B9A4201D00DB0F0BD00240194B8
:10207000A3F590431A6B42F000721A631A6B02F0D8
:1020800000720192019A02941A6B42F080621A6304
:102090001A6B02F080620292029A03941A6B42F069
:1020A00000621A631A6B02F000620392039A0494AE
:1020B0001A6B42F004021A631A6B02F004020492D3
:1020C000049A05941A6B42F001021A631A6B02F02B
:1020D00001020592059A06941A6B42F002021A63F5
:1020E0001B6B03F002030693069B32230793022720
:1020F000089703260A960B250B9507A90D4801F0B2
:10210000B7FD86230793089709940A960B9507A9AC
:10211000094801F0ADFD4FF4605307930897099407
:102120000A960B9507A9054801F0A2FD9CE700BFA0
:10213000008002400008024000000240000402400B
:1021400030B589B000230393049305930693079356
:102150000268144B9A4201D009B030BD00250195A8
:10216000114C236B43F080032363236B03F0800344
:102170000193019B302303931223049303230693BB
:102180000423079303A9094801F072FD0295236C0B
:1021900043F480032364236C03F480030293029BC3
:1021A000DAE700BF0058004000380240001C02403F
:1021B000F0B58BB00023059306930793089309931A
:1021C0000368314A934204D0304A934238D00BB06E
:1021D000F0BD002400942E4B1A6C42F480421A6425
:1021E0001A6C02F480420092009A01941A6B42F039
:1021F00004021A631A6B02F004020192019A02941B
:102200001A6B42F008021A631B6B03F00803029377
:10221000029B0C23059302270697032608960525A3
:10222000099505A91B4801F023FD0823059306978E
:1022300007940896099505A9174801F019FDC6E706
:1022400000210391124B5A6C42F400525A645A6CAA
:1022500002F400520392039A04911A6B42F01002A6
:102260001A631B6B03F010030493049B6423059310
:1022700002230693032308930523099305A907481E
:1022800001F0F6FCA3E700BF003800400034014035
:102290000038024000080240000C024000100240DA
:1022A00070B58EB0002309930A930B930C930D9392
:1022B0000368B3F1804F0AD0504A93423CD0504A51
:1022C000934259D04F4A934277D00EB070BD00244C
:1022D000009403F50E331A6C42F001021A641A6C72
:1022E00002F001020092009A01941A6B42F001027E
:1022F0001A631A6B02F001020192019A02941A6B9E
:1023000042F002021A631B6B03F002030293029B6A
:102310000125099502260A960D9509A93A4801F06A
:10232000A7FC082309930A960B940C940D9509A910
:10233000364801F09DFCC8E700210391344B1A6C2C
:1023400042F002021A641A6C02F002020392039A2B
:1023500004911A6B42F004021A631B6B03F004032E
:102360000493049BC023099302230A930D9309A9A4
:10237000284801F07DFCA8E700210591244B1A6C48
:1023800042F004021A641A6C02F004020592059AE3
:1023900006911A6B42F008021A631B6B03F00803E4
:1023A0000693069B4FF44053099302230A930D931F
:1023B00009A9194801F05CFC87E700210791144B3B
:1023C0005A6C42F002025A645A6C02F002020792FE
:1023D000079A08911A6B42F480721A631B6B03F41C
:1023E00080730893089B6023099302230A930323B5
:1023F0000D9309A9094801F03BFC66E70004004081
:1024000000080040000401400000024000040240B7
:102410000038024000080240000C02400020024048
:10242000F0B589B0002303930493059306930793B3
:10243000026803F1804303F588339A4201D009B062
:10244000F0BD0022009203F59433596C41F0100165
:102450005964596C01F01001009100990192196BB7
:1024600041F001011963196B01F00101019101991A
:1024700002921A6B42F002021A631B6B03F0020312
:102480000293029B4FF48063039302270497012673
:102490000596032506950724079403A9064801F02D
:1024A000E7FB40230393049705960695079403A939
:1024B000024801F0DDFBC2E70000024000040240D8
:1024C0007047FEE7FEE7FEE7FEE7704708B500F05D
:1024D0003DFE03F0C7F908BD08B5082001F066FD10
:1024E00008BD000008B5024802F088FD08BD00BF25
:1024F000240C002008B5024801F0CAFF08BD00BF47
:102500007C0B002008B5024801F06CF808BD00BF44
:10251000680C002008B5012907D019B1022907D09D
:10252000002001E000F044F808BD00F083F8FBE76C
:1025300000F002F8F8E77047164B1B78BFF35B8F8B
:1025400013F0010F01D01448704730B589B011481D
:102550000AF021F910B9104809B030BD0D4D2C1DFD
:102560000022079206920D4B05930D4B04930392A4
:1025700002920423019300920A230A49204607F09D
:1025800007FE28460AF013F9074A084920460AF0D0
:1025900026F9E0E7B4110020B811002028F3000864
:1025A0001CF3000834F30008000000203725000861
:1025B000184B93F82430BFF35B8F13F0010F01D059
:1025C0001548704730B589B014480AF0E4F810B9DE
:1025D000114809B030BD0F4D05F1280400220792C3
:1025E00006920F4B05930F4B049303920292042320
:1025F0000193009214230C49204607F0C9FD05F110
:1026000024000AF0D4F8094A094920460AF0E7F8FC
:10261000DEE700BFB4110020DC110020D81100203B
:102620002CF3000820F3000844F300080000002009
:1026300037250008184B93F84830BFF35B8F13F031
:10264000010F01D01548704730B589B014480AF021
:10265000A2F810B9114809B030BD0F4D05F14C0476
:102660000022079206920F4B05930F4B049303929F
:10267000029204230193009228230C49204607F07C
:1026800087FD05F148000AF092F8094A09492046F9
:102690000AF0A5F8DEE700BFB41100200012002008
:1026A000FC11002030F3000824F3000854F3000864
:1026B000000000203725000810B5044620210AF04C
:1026C00093F8204610BD70477047416070477047CF
:1026D000D0F8343183B110B504461A68D268184670
:1026E000904700B910BDD4F8340103689B6898473F
:1026F0000023C4F83431F5E7704770477047012371
:1027000003727047704710B503464468C2685110A1
:10271000601812F0010F04D062589B68D358984794
:1027200010BD9B68FBE743684BB183680BB1012088
:102730007047C36813F0010F03D0012070470020D9
:1027400070470020704710B504460C210AF04CF881
:10275000204610BD10B504464FF4A8710AF044F8A5
:10276000204610BD10B5044610210AF03DF8204661
:1027700010BD000070B504460D46164606F02EFD4D
:102780000023C4F83031C4F83431094A1460094ACE
:102790002260094AC4F83821C4F83C31C4F84031F9
:1027A000C4F84431C4F84861C4F84C51204670BDA7
:1027B000F452002020DD000808DD000810B489B0C4
:1027C00003460D4A0692002207926C4608AA12E9B7
:1027D000030084E8030004AA82E80300C3F83C3144
:1027E00003F5A07484E8030003F59C72C3F8342158
:1027F00009B05DF8044B7047452900082DE9F04702
:102800000746884614469946DDF820A0906803687C
:102810001B6A9847EB2875D9606803681B6A98475C
:102820000F2875D9E06803681B6A98470B2875D98B
:1028300006F0B4FC06F0B8FCD9F8000010B103684B
:10284000DB689847D9F8000010B103681B68984707
:10285000386810B103685B699847D8F8000010B178
:1028600003685B689847386810B103681B6898472D
:10287000D8F8000010B103689B689847E0680368C7
:102880005B6A00219847054620B10023436003722C
:10289000264B0360A06803685B6A002198470646E0
:1028A00008B100F095FA606803685B6A00219847F8
:1028B000044610B1314600F06DFAC9F80050C8F86E
:1028C00000403E60002C2FD0231DCAF80030C4F811
:1028D00008A0F4633368DB683046984723681B68B8
:1028E000204698472946304607F030FC2B681B6984
:1028F0002846984706F052FC03689B6A9847204692
:10290000BDE8F0870A4B0B4AC2210B4809F078FF5B
:102910000A4B084AC321084809F072FF084B054AD0
:10292000C421054809F06CFF0023CEE75CDD0008F8
:1029300074DD000848D9000804DE000890DE0008B5
:1029400034DF000800B583B0D0F84C310093054B5C
:10295000D0F8482100F598710348FFF74FFF03B006
:102960005DF804FBF0520020EC52002038B504461C
:102970001D4603685B6B984723689B6B294620467E
:1029800098472368DB6BBDF910102046984738BD87
:1029900081807047C180704738B50446154603688A
:1029A000DB6A984723681B6B29462046984738BD49
:1029B0000181704741817047704770477047704789
:1029C00038B503685D6D8388C91AC388D21A12B2FC
:1029D00009B2A84738BD122070477047704770474A
:1029E000704770B504460E4690F82C500B79002BBA
:1029F0000CBF0122002200D10DB15BB155B184F8AA
:102A00002C202368D3F888302046984723685B69D8
:102A10002046984715B13379012B00D070BD206B4B
:102A20000028FBD00368DB6898470028F6D0206BAD
:102A300003689B6821469847F0E7704770477047E6
:102A400090F82C304BB100F16C021268C2653BB9B2
:102A500000F170031B680366704700F16802F4E739
:102A600000F17403F6E790F82D3080F85A30704783
:102A700010B50446782109F0B7FE204610BD10B508
:102A80000446EC2109F0B0FE204610BD2DE9F04FC0
:102A900083B0064607F0DCF90024F46335466F4B3B
:102AA00045F8403BAC80EC802C816C81AC81EC81A2
:102AB0002C826C826C61AC61EC61012785F8257019
:102AC000AC6285F82C40FF2285F82D202C6385F818
:102AD0002470634B33646C87AC87EC87A5F8404067
:102AE000A5F84240A5F84440A5F84640AC64EC6423
:102AF0002C6585F8584085F859705A4B6B6385F8FA
:102B00005A20EC652C6685F86440AC66EC662C6750
:102B10006C6706F17408A6F878401B6B21464046A6
:102B200098474146284604F0FBFC06F1B809A6F890
:102B3000BC40A6F8BE40A6F8C040A6F8C240A6F821
:102B4000C440A6F8C640A6F8C840A6F8CA40C6F8D1
:102B5000CC40C6F8D040C6F8D44086F8DD70C6F840
:102B6000E04086F8E44086F8DC703F4BC6F8B830A9
:102B70004FF6FF73A6F8E630A6F8E83086F8EA309C
:102B8000736F5B6B2246214640469847736F9B6B81
:102B9000322140469847736FDB6B3221404698479D
:102BA000052386F8A43099226621204607F0AAFB67
:102BB0008346CC229921204607F0A4FB8246662258
:102BC0003321204607F09EFB804699226621332060
:102BD00007F098FBC6F8A8B0C6F8ACA0C6F8B0805D
:102BE000C6F8B400336CD3F8883028469847336C65
:102BF0005B6B40F2131240F2E71128469847336CA2
:102C00009B6B322128469847336CDB6B3221284678
:102C10009847D6F8B830DB6A40F205114846984725
:102C2000D6F8B8301B6B4FF4877148469847ADF81B
:102C3000004002AA22F8047D6946484605F0AFFA32
:102C4000341D2946204604F06BFC4946204604F01A
:102C500067FC304603B0BDE8F08F00BF54DA0008CF
:102C6000E0DF00080CEA000864E90008004870474B
:102C700080DA000802207047012800D070474FF624
:102C8000FF739942FAD1024B00221A60F6E700BFA7
:102C90002012002038B5094B988000221A6000F0FD
:102CA00033F8054600F036F8044600F031F8044BDE
:102CB0001D60044B1C60044B188038BD201200209E
:102CC000F852002000530020FC52002008B54FF6B7
:102CD000FF710120FFF7D0FF08BD0000012800D0E0
:102CE00070474FF6FF739942FAD110B5FFF760FCB9
:102CF000044C2060FFF79EFC6060FFF71DFCA060A5
:102D000010BD00BF3812002000487047243202086E
:102D100001207047004870473812002008B54FF670
:102D2000FF710120FFF7DAFF08BD704710B50446B8
:102D30004FF4A87109F058FD204610BD10B50446A7
:102D4000D0F84C0100F011F8204606F0EBF810BD69
:102D500010B50446FFF70EFD014B2360204610BD61
:102D600078E000080022026070477047704704381E
:102D700070477047704710B50446102109F034FDC4
:102D8000204610BD10B5041F1021204609F02CFD6F
:102D9000204610BD10B400228260054A02F10804EA
:102DA000046020324260C1605DF8044B704700BF90
:102DB000A8DA00087047704708B5FFF73FFE08BD66
:102DC00010B50446EC2109F00FFD204610BD0000AF
:102DD00010B50446FFF75AFE014B2360204610BD94
:102DE000D8DA000808B5FDF765FD08BD08B5FDF7A0
:102DF00062FD08BD08B5FDF75CFDCA20FFF7F2FFD4
:102E0000C320FFF7F3FF0820FFF7F0FF5020FFF784
:102E1000EDFFCF20FFF7E6FF0020FFF7E7FFC1201F
:102E2000FFF7E4FF3020FFF7E1FFED20FFF7DAFFC7
:102E30006420FFF7DBFF0320FFF7D8FF1220FFF726
:102E4000D5FF8120FFF7D2FFE820FFF7CBFF8520D9
:102E5000FFF7CCFF0020FFF7C9FF7820FFF7C6FF80
:102E6000CB20FFF7BFFF3920FFF7C0FF2C20FFF773
:102E7000BDFF0020FFF7BAFF3420FFF7B7FF0220A5
:102E8000FFF7B4FFF720FFF7ADFF2020FFF7AEFFFD
:102E9000EA20FFF7A7FF0020FFF7A8FF0020FFF7B9
:102EA000A5FFB120FFF79EFF0020FFF79FFF1B202B
:102EB000FFF79CFFB620FFF795FF0A20FFF796FF6C
:102EC000A220FFF793FFC020FFF78CFF1020FFF731
:102ED0008DFFC120FFF786FF1020FFF787FFC52079
:102EE000FFF780FF4520FFF781FF1520FFF77EFFEA
:102EF000C720FFF777FF9020FFF778FF3620FFF716
:102F000071FFC820FFF772FFF220FFF76BFF002070
:102F1000FFF76CFFB020FFF765FFC220FFF766FFE9
:102F2000B620FFF75FFF0A20FFF760FFA720FFF73B
:102F30005DFF2720FFF75AFF0420FFF757FF2A20E5
:102F4000FFF750FF0020FFF751FF0020FFF74EFF73
:102F50000020FFF74BFFEF20FFF748FF2B20FFF784
:102F600041FF0020FFF742FF0020FFF73FFF012055
:102F7000FFF73CFF3F20FFF739FFF620FFF732FF56
:102F80000120FFF733FF0020FFF730FF0620FFF797
:102F90002DFF2C20FFF726FFC820FDF78DFC2620F3
:102FA000FFF720FF0120FFF721FFE020FFF71AFFC6
:102FB0000F20FFF71BFF2920FFF718FF2420FFF742
:102FC00015FF0C20FFF712FF0E20FFF70FFF09205F
:102FD000FFF70CFF4E20FFF709FF7820FFF706FFF1
:102FE0003C20FFF703FF0920FFF700FF1320FFF746
:102FF000FDFE0520FFF7FAFE1720FFF7F7FE112070
:10300000FFF7F4FE0020FFF7F1FEE120FFF7EAFEF4
:103010000020FFF7EBFE1620FFF7E8FE1B20FFF76E
:10302000E5FE0420FFF7E2FE1120FFF7DFFE072098
:10303000FFF7DCFE3120FFF7D9FE3320FFF7D6FE85
:103040004220FFF7D3FE0520FFF7D0FE0C20FFF74C
:10305000CDFE0A20FFF7CAFE2820FFF7C7FE2F206B
:10306000FFF7C4FE0F20FFF7C1FE1120FFF7BAFEE5
:10307000C820FDF721FC2920FFF7B4FE2C20FFF724
:10308000B1FE08BD0F49D1F8883043F47003C1F890
:1030900088300D4B1A6842F001021A6000209860D7
:1030A0001A6822F0847222F480321A60074A5A6049
:1030B0001A6822F480221A60D8604FF000638B6097
:1030C000704700BF00ED00E00038024010300024DF
:1030D00010B504460E4B18784FF47A73B3FBF0F337
:1030E0000C4A1068B0FBF3F000F0BCF868B90F2C84
:1030F00001D901200AE0002221464FF0FF3000F004
:103100005DF8034B5C60002000E0012010BD00BFB3
:10311000240000202000002008B50B4B1A6842F460
:1031200000721A601A6842F480621A601A6842F4E7
:1031300080721A60032000F02FF80F20FFF7C8FFFD
:10314000FEF718FF002008BD003C0240034A11684A
:10315000034B1B780B441360704700BF3C530020A7
:1031600024000020014B1868704700BF3C5300202A
:1031700038B50446FFF7F6FF0546B4F1FF3F02D02D
:10318000044B1B781C44FFF7EDFF401BA042FAD311
:1031900038BD00BF24000020074AD36823F4E06351
:1031A0001B041B0C000200F4E060184340F0BF60F9
:1031B00040F40030D060704700ED00E030B4174BB1
:1031C000DB68C3F30223C3F10704042C28BF0424E3
:1031D0001D1D062D18D9033B4FF0FF3505FA04F4E9
:1031E00021EA0401994005FA03F322EA0303194393
:1031F00000280BDB0901C9B200F1604000F5614015
:1032000080F8001330BC70470023E5E700F00F00A2
:103210000901C9B2024B1954F4E700BF00ED00E008
:1032200014ED00E0002807DB00F01F024009012335
:103230009340024A42F82030704700BF00E100E0AE
:1032400000280CDB00F01F024009012393402030CE
:10325000034A42F82030BFF34F8FBFF36F8F7047A0
:1032600000E100E00138B0F1807F0AD2064B5860DF
:10327000064AF02182F823100020986007221A6085
:1032800070470120704700BF10E000E000ED00E053
:1032900068B110B5044643792BB102236371012351
:1032A0006371002010BD0371FEF786FEF5E7012073
:1032B000704770B110B50446037933B1022323710E
:1032C000002020610123237110BD4371FEF78CFEA5
:1032D000F4E7012070474379012B1FD070B401251A
:1032E0004571022303710668336840F6FE7494400A
:1032F00023EA04040B6849680B439340234333607B
:1033000004682368C02101FA02F223EA0202226063
:10331000057100234371184670BC70470220704746
:1033200070B40668746C04F04044039D45EA03439E
:103330001C4374640368DA634368B3F5403F03D009
:103340000368D96070BC704701F07F4601F47F03C9
:1033500001F47F45CAB2846894B1012C0ED0022CCE
:1033600011D0032C17D0360F1B0D2D0B190241EA7B
:10337000051141EA063141EA121101E021F07F41D5
:1033800003689963DEE7DB0CAD0AD90241EA451117
:1033900041EAD201F4E7F60FDB0CED0A990241EAAB
:1033A000451141EAC63141EAD201E9E748B310B517
:1033B000044690F83930FBB1022384F83930226892
:1033C000136823F4403361680B4313602268536B26
:1033D00023F00703A1680B4353632268136C23F4A3
:1033E0007F5323F03F03E1680B4313640020E06345
:1033F000012384F8393010BD80F83830FDF766FEBF
:10340000DAE70120704710B582B090F83840012CFF
:1034100018D00446012084F83800022084F83900CE
:10342000049800902046FFF77BFF2268136843F45E
:103430000C5313602268136843F0010313600020EB
:1034400002B010BD0220FBE730B583B090F83840E1
:10345000012C1CD01D460446012380F8383002237D
:1034600080F8393003685A61079B0093069B2A460F
:10347000FFF756FF2268136843F40C531360226869
:10348000136843F001031360002003B030BD022035
:10349000FBE738B504460268136823F0050343F0E0
:1034A00004031360FFF75EFE054623681A6812F0F6
:1034B000010F10D0FFF756FE401BB0F57A7FF4D90C
:1034C000E36B43F02003E363032084F83900002317
:1034D00084F8383009E01A6822F40C521A6001238B
:1034E00084F83930002084F8380038BD70B50646BD
:1034F000036803F124041A6842F004021A600129E7
:1035000017D0FFF72FFE0546236813F0200F13D0C6
:10351000FFF728FE401BB0F57A7FF5D9F36B43F037
:103520002003F363032086F83900002386F838303F
:103530000DE004681C34E4E73268136823F4645334
:103540001360012386F83930002086F8380070BDFA
:10355000002841D038B50446204B1B6B13F4000FF4
:103560000CD003681A6812F0010F21D15A6A12F0C8
:10357000200F23D1DB6913F0200F26D1236800250B
:103580001D6023683F229A6023681D6123689D6146
:103590002368DD6123685D6223685D632046FDF773
:1035A000B5FDE56384F8395084F83850284638BDB5
:1035B000FFF76FFF0028E1D00120F8E70021FFF7B7
:1035C00095FF0028DAD00120F1E70121FFF78EFFF7
:1035D0000028D3D00120EAE70120704700380240DC
:1035E0007047704770B5044603685D681E6815F043
:1035F000010F16D016F4807F13D01A6822F480725F
:103600001A60C36B43F00103C363036801229A602D
:10361000042380F83930002380F83830436903B13F
:10362000984715F0200F18D016F4005F15D02268C7
:10363000136823F400531360236820229A60E36B1D
:1036400043F00203E363042384F83930002384F851
:10365000383063690BB12046984715F0080F18D031
:1036600016F4006F15D02268136823F4006313600A
:10367000236808229A60E36B43F00403E3630423A6
:1036800084F83930002384F8383063690BB1204660
:10369000984715F0040F02D016F4806F20D115F072
:1036A000020F16D016F4007F13D02268136823F49B
:1036B00000731360236802229A60E36BE3630123C3
:1036C00084F83930002384F8383023690BB1204660
:1036D000984715F0100F02D016F4805F0CD170BD22
:1036E0002268136823F480631360236804229A60BD
:1036F0002046FFF775FFD2E72268136823F4805352
:103700001360236810229A60E36BE363012384F85B
:103710003930002384F838302046FFF762FFDEE7B7
:1037200090F83830012B59D030B4012380F838306C
:10373000022380F8393000EB0113DA698B1C1B017E
:10374000C35842EA0343093A012A1ED98A1C00EBF6
:103750000212526843EA026341BB0468656A204A68
:103760002A4013436362026800EB01139C69946171
:10377000DB69093B012B10D9012380F83930002384
:1037800080F83830184630BC70478A1C00EB0212B3
:10379000526802F07F421343DEE7023100EB011171
:1037A0004B68026823F07F439362E5E70468E569AC
:1037B0000B4A2A401343E361026800EB01139C6942
:1037C0001461DB69093B012BD6D8023100EB0111F2
:1037D0004B68026823F07F431362CDE702207047F5
:1037E000F0FFFC005079137943EA002307480B509F
:1037F000D07893781B0443EA0063507843EA0023AF
:1038000012781343024A8B50704700BF4080024039
:103810004480024070B59EB0044629B14FF4006365
:10382000C3604FF480438360E369002B6AD14FF497
:103830008063079321680B68394A1A40A368E068DF
:1038400003430798034343F4007313430B60236857
:103850001D680120FFF78CFC23681D60236840224F
:103860005A6023685D680120FFF782FC23685D6071
:10387000236800259D602368DD602268936923F03A
:10388000BE031B041B0C43F08003936123689E69F5
:103890000120FFF76DFC23689E612368DD612368CA
:1038A000DD690120FFF764FC2368DD61226841F2D5
:1038B000180551591B4B0B4043F0087343F00403A8
:1038C000535123685E590120FFF752FC23685E5173
:1038D000236803F58053144A1A60236803F5805364
:1038E0001D680120FFF744FC236803F580531D6029
:1038F000A369012B09D0626900212046FFF772FFFE
:103900001EB070BD0023079394E7216841F21C02AA
:103910008B5843F4803343F040038B50EBE700BFF8
:103920000F8120FF233FDEF88020C102F8B590F818
:103930004430DBB2822B33D016460546822380F812
:1039400044300268136903F01C03048AE402A4B241
:1039500023438C0104F4F8641C4344F00104146113
:10396000FFF700FC074614F0010F10D0FFF7FAFB39
:10397000C01BB0F5803F02D22B681C69F3E701231E
:1039800085F84430002385F84530032007E02B6894
:103990005B699BB23360012385F844300020F8BD99
:1039A0000220FCE790F84430DBB2422B32D070B5F5
:1039B0000546422380F844300068036903F01C0385
:1039C0002C8AE402A4B223438C0104F4F8641C435F
:1039D00044F0030492B242612B681C61FFF7C2FB02
:1039E000064614F0010F10D0FFF7BCFB801BB0F5AA
:1039F000803F02D22B681C69F3E7012385F844302D
:103A0000002385F84530032003E0012385F8443086
:103A1000002070BD0220704770B582B00023019372
:103A2000002800F00E81044690F84430002B34D07A
:103A300000230093844B5A6C42F480425A645B6CBE
:103A400003F480430093009B804B5A6822F40002E9
:103A50005A605A68216A0A435A60236803F5805302
:103A60001A6842F001021A60FFF77CFB05462368E2
:103A700003F58052126812F0010F13D0FFF772FBAA
:103A8000401BB0F5FA7FF2D9032584F84450002397
:103A900084F84530284602B070BD80F84530FEF706
:103AA000D7FAC5E71D6925F01C0501F00FF9684B31
:103AB0000344684A934255D845F0080523681D61C0
:103AC0004FF4004200212046FFF76CFF0546002816
:103AD00060D1FF20FFF74CFB6368002B00F0918062
:103AE000FFF740FB064601AA01212046FFF71EFF13
:103AF000FFF738FB801B41F28833984252D8019B74
:103B000013F0040FEFD04FF4805200212046FFF74E
:103B100049FF002852D1FFF725FB064601AA0121E3
:103B20002046FFF703FFFFF71DFB801B41F28833A0
:103B300098424BD8019B13F0200FEFD001AA1F2110
:103B40002046FFF7F3FE00284CD1019B13F0100F25
:103B500050D04FF40062E26013F0040F4DD0002308
:103B6000A3605EE03C4B03443C4A934202D845F0DC
:103B70000C05A3E73A4B03443A4A93429ED93A4B89
:103B800003443A4A934202D845F0040596E745F0CB
:103B9000100593E701212046FFF73CFE012584F83C
:103BA000445077E701212046FFF734FE012384F8D3
:103BB0004430002384F8453003256BE7012120467B
:103BC000FFF728FE012584F8445063E701212046D1
:103BD000FFF720FE012384F84430002384F84530A9
:103BE000032557E701212046FFF714FE012584F83D
:103BF00044504FE70022E260AEE74FF48043A360F9
:103C00000FE0E268C2F3CF02A368C3F34F031A4385
:103C100000212046FFF7C6FE58B940F6FF70FFF7B7
:103C2000A7FA00212046FFF7F5FD012384F8443070
:103C300030E701212046FFF7EDFD012584F84450CF
:103C400028E7012526E700BF003802400038014080
:103C500000D3CEFEBFE1E40040F1E9FD3F787D01F5
:103C600000796CFCFF596202001F0AFA7FF0FA0229
:103C700000230F2B00F2E380F0B482B039E0092278
:103C800000E00022B2403A4302346D4E46F8242050
:103C90006C4A1468EA4302EA04064F6817F4803F4E
:103CA00001D045EA0406674C2660646802EA04060F
:103CB0004F6817F4003F01D045EA0406614C666086
:103CC000A46802EA04064F6817F4801F01D045EA91
:103CD00004065C4CA660E46822404E6816F4001F9F
:103CE00001D045EA0402574CE26001330F2B00F289
:103CF000A38001229A400C6804EA0205AA42F4D18A
:103D00004C68022C01D0122C10D1DE08083650F875
:103D100026C003F00704A7000F24BC402CEA040CC3
:103D20000C69BC4044EA0C0440F8264004685F007B
:103D30000326BE40F64306EA040C4C6804F0030474
:103D4000BC4044EA0C0404604C6804F1FF3CBCF144
:103D5000010F03D9112C01D0122C10D1846806EA6E
:103D6000040CCC68BC4044EA0C048460446824EA37
:103D700002024C68C4F300149C4014434460C268BF
:103D800016408A68BA403243C2604A6812F0805FC7
:103D9000ABD0002201922C4A546C44F48044546409
:103DA000526C02F480420192019A9C08A61C244A9B
:103DB00052F8267003F0030296000F22B24027EA61
:103DC0000207224A90423FF45CAF02F580629042C3
:103DD00022D002F58062904220D002F580629042AB
:103DE0001ED002F5806290421CD002F580629042A3
:103DF0001AD002F58062904218D002F5806290429B
:103E000016D002F58062904214D002F58062904292
:103E10003FF435AF0A2235E7012233E7022231E7CA
:103E200003222FE704222DE705222BE7062229E7AC
:103E3000072227E7082225E702B0F0BC7047704749
:103E400000380140003C01400038024000000240C0
:103E500000230F2B00F29380F0B529E0092700E042
:103E6000002707FA05F5B54270D005685E00032407
:103E7000B440E44325400560DD08083550F825606E
:103E800003F007074FEA870C0F2707FA0CF726EA1B
:103E9000070640F82560856825408560456825EA65
:103EA00002024260C2681440C46001330F2B65D81F
:103EB00001229A4002EA0104A242F6D14FEA930C91
:103EC0000CF102062E4D55F8266003F00305AD00F7
:103ED0000F2707FA05FE0EEA06062A4FB842BFD0A2
:103EE00007F58067B84221D007F58067B8421FD038
:103EF00007F58067B8421DD007F58067B8421BD030
:103F000007F58067B84219D007F58067B84217D027
:103F100007F58067B84215D007F58067B84213D01F
:103F200007F58067B84299D00A279AE7012798E7F2
:103F3000022796E7032794E7042792E7052790E7EF
:103F400006278EE707278CE708278AE70C4E0CF137
:103F5000020556F8257027EA0E0746F825700A4D27
:103F60002E68E44326402E606E6826406E60AE6880
:103F70002640AE60EE683440EC6076E7F0BD7047F6
:103F80000038014000000240003C014012B9090421
:103F90008161704781617047436931EA030301D051
:103FA00081617047090481617047704708B5054B0E
:103FB0005B69034200D108BD024B5861FFF7F5FF72
:103FC000F9E700BF003C0140002800F0BE80F8B5D2
:103FD000044690F83D30002B6BD0242384F83D300C
:103FE0002268136823F00103136000F075FE626815
:103FF000584B9A4262D8584B98428CBF00230123F9
:10400000002B40F0A480554BA3FB00239B0C2168A0
:104010004A6822F03F021A434A6025682A6A22F061
:104020003F0266684B498E424ED8013313432B62E0
:104030002568E96921F44F4121F0FF016368454A91
:1040400093424BD801385B00B0FBF3F30133C3F369
:104050000B03042B38BF04230B43EB6121680B686F
:1040600023F0C003E269206A024313430B60216816
:104070008B6823F4034323F0FF032269E0680243C3
:1040800013438B602168CB6823F0FF036269A0694A
:1040900002431343CB602268136843F001031360AB
:1040A00000202064202384F83D30206384F83E0003
:1040B000F8BD80F83C30FEF743F88EE7284B984275
:1040C0008CBF002301239BE74FF4967101FB03F3A0
:1040D0002449A1FB03139B090133A7E7A268BAB9DE
:1040E000461E03EB4307B6FBF7F60136C6F30B0695
:1040F000B6FA86F6760936BBC2B9013803EB43033C
:10410000B0FBF3F30133C3F30B0242F40043A3E724
:10411000461E03EB830707EB8707B6FBF7F601366E
:10412000C6F30B06B6FA86F67609E4E7013803EB28
:10413000830303EB8303B0FBF3F20132C2F30B0200
:1041400042F4404388E7012386E7012070470120BD
:10415000AEE700BFA08601007F841E0083DE1B4304
:10416000FF083D00D34D621090F83D30DBB2202BAC
:104170001AD1242380F83D300268136823F001032C
:1041800013600268536A23F0100353620268536A93
:10419000194351620268136843F00103136020233E
:1041A00080F83D30002070470220704790F83D3085
:1041B000DBB2202B19D1242380F83D30026813682C
:1041C00023F0010313600268536A9BB223F00F03CC
:1041D000194389B251620268136843F00103136006
:1041E000202380F83D300020704702207047F0B453
:1041F0004D680468E368C3F30B431D44D2011444C3
:10420000D4F8883003F47043C4F888300B6804682D
:10421000E668C6F30B4633440133144443EA0543CE
:10422000C4F88830CD680468E368C3F30A031D440A
:104230001444D4F88C3003F47043C4F88C308B6889
:104240000468E668C6F30A0633440133144443EABB
:104250000543C4F88C3003681344D3F8944024F029
:104260000704C3F89440036813440C69C3F89440EE
:1042700091F831C091F832708E6905681544D5F80F
:104280009C300024C5F89C4091F8303043EA0C2360
:1042900043EA07430568154443EA0663C5F89C30C2
:1042A00003681344D3F8985025F0FF05C3F89850DD
:1042B000036813444D69C3F8985003681344D3F856
:1042C000A05025F4E06525F00705C3F8A050CD699E
:1042D0000E6A036813443543C3F8A05003681344BF
:1042E000D3F8AC50C3F8AC40036813444C6AC3F82D
:1042F000AC400B696BB1012B3CD0042B3CD0022BA2
:1043000008D0032B3AD0072B01D0012302E002236F
:1043100000E0042304681444D4F8B05005F0E0250C
:10432000C4F8B0508C6A03FB04F54C680E68A41BFB
:1043300003FB04F303330468144443EA0543C4F85D
:10434000B03003681344D3F8B44024F4FF6424F07D
:104350000704C3F8B44003681344C96AC3F8B4102F
:1043600003681A44D2F8843043F00103C2F8843061
:10437000F0BC70470323CDE70223CBE70223C9E754
:10438000002872D038B5044690F8A130002B67D0D1
:10439000022384F8A1302268936923F0704393616B
:1043A00021688A696368A0680343E0680343206961
:1043B000034313438B6121688A682D4B1A408A603E
:1043C000656920688268A16941EA05410A43826003
:1043D0002168CA681A40CA60E5692068C268216A13
:1043E00041EA05410A43C26021680A691A400A612C
:1043F000656A20680269A16A41EA05410A430261CF
:1044000021684A6913404B61E06A21684B69226B5D
:1044100042EA004213434B6194F8350094F8363079
:104420001B042168CA6A02F07F42CA622168CA6A14
:1044300043EA002394F8340003431343CB62226819
:10444000536B43F0060353632268936943F00103FF
:1044500093610020C4F8A400012384F8A13038BD82
:1044600080F8A030FCF728FD92E70120704700BFDC
:1044700000F800F010B50446FCF7E8FD0020C4F891
:10448000A40084F8A10084F8A00010BD7047704714
:1044900070B5044603689D6B5E6B15F0040F02D087
:1044A00016F0040F12D115F0020F02D016F0020F11
:1044B00021D115F0010F02D016F0010F32D115F005
:1044C000080F02D016F0080F3DD170BD5A6B22F0D4
:1044D00004025A6303680422DA63D0F8A43043F07C
:1044E0000103C0F8A43080F8A120002380F8A03098
:1044F000FFF7CCFFD7E72268536B23F00203536327
:1045000023680222DA63D4F8A4301343C4F8A43039
:10451000042384F8A130002384F8A0302046FFF75C
:10452000B5FFC6E72268536B23F00103536322688B
:104530000123D36384F8A130002384F8A0302046FF
:10454000FDF738F9BBE72268536B23F00803536388
:1045500023680822DA63012384F8A130002384F859
:10456000A0302046FFF793FFAFE790F8A030012B73
:1045700027D02DE9F04194460F4606464FF001083A
:1045800080F8A080022380F8A130342404FB0204C8
:1045900038340D460FCD0FC40FCD0FC40FCD0FC44F
:1045A0002B682360624639463046FFF720FE3368A9
:1045B000C3F8248086F8A180002086F8A000BDE81A
:1045C000F08102207047000010B490F8A040012C48
:1045D00047D0012380F8A030022380F8A130342492
:1045E00004FB0204A36C6BB1012B34D0042B34D038
:1045F000022B08D0032B32D0072B01D0012302E07D
:10460000022300E0042301FB03F10468D2011444F7
:10461000D4F8B03023F0FF5323F4F813C4F8B030CB
:10462000114C636A43F00103636203681A44D2F8D1
:10463000B03043EA0141C2F8B010636A43F00103AD
:104640006362012380F8A130002380F8A03018466F
:104650005DF8044B70470323D5E70223D3E7022319
:10466000D1E70220F4E700BF0068014090F8A030D5
:10467000012B1AD010B4012280F8A020022380F868
:10468000A1300468636B23F001036363084B196472
:1046900001684B6B13434B6380F8A120002380F823
:1046A000A03018465DF8044B70470220704700BFE9
:1046B0000068014010B582B000230193194B1A6CB9
:1046C00042F080521A641B6C03F080530193019BEB
:1046D000154B01221A60FEF745FD0446134B5B683B
:1046E00013F4803F08D1FEF73DFD001BB0F57A7F43
:1046F000F4D9032002B010BD0D4B01221A60FEF761
:1047000031FD0446094B5B6813F4003F07D1FEF707
:1047100029FD001BB0F57A7FF4D90320EAE70020D9
:10472000E8E700BF0038024040000E420070004041
:1047300044000E42002800F0BB8170B582B00446F0
:10474000036813F0010F3BD0A74B9B6803F00C03E9
:10475000042B2CD0A44B9B6803F00C03082B21D016
:104760006368B3F5803F4FD0B3F5A02F52D09E4B76
:104770001A6822F480321A601A6822F480221A60C1
:104780006368002B50D0FEF7EDFC0546964B1B6886
:1047900013F4003F14D1FEF7E5FC401B6428F5D963
:1047A00003208AE1904B5B6813F4800FD8D08E4BC6
:1047B0001B6813F4003F03D06368002B00F07A817C
:1047C000236813F0020F55D0874B9B6813F00C0F32
:1047D0003ED0854B9B6803F00C03082B33D0E36875
:1047E000002B68D0814B01221A60FEF7BBFC054606
:1047F0007D4B1B6813F0020F54D1FEF7B3FC401B36
:104800000228F5D9032058E1774A136843F480332E
:104810001360B5E7744B1A6842F480221A601A6874
:1048200042F480321A60ABE7FEF79CFC05466E4B03
:104830001B6813F4003FC3D0FEF794FC401B6428B0
:10484000F5D9032039E1684B5B6813F4800FC6D1BA
:10485000654B1B6813F0020F04D0E368012B01D0F5
:1048600001202AE1604A136823F0F803216943EA32
:10487000C1031360236813F0080F40D0636963B36A
:104880005B4B01221A60FEF76DFC0546564B5B6FD1
:1048900013F0020F33D1FEF765FC401B0228F5D957
:1048A00003200AE1504A136823F0F803216943EA20
:1048B000C1031360DEE74D4B00221A60FEF752FC85
:1048C0000546494B1B6813F0020FD3D0FEF74AFC94
:1048D000401B0228F5D90320EFE0454B00221A6067
:1048E000FEF740FC0546404B5B6F13F0020F06D00D
:1048F000FEF738FC401B0228F5D90320DDE02368D1
:1049000013F0040F79D0384B1B6C13F0805F33D158
:1049100000230193344B1A6C42F080521A641B6CD2
:1049200003F080530193019B0125324B1B6813F464
:10493000807F23D0A368012B34D0052B38D02A4B9D
:104940001A6F22F001021A671A6F22F004021A6726
:10495000A368002B36D0FEF705FC0646224B1B6FE2
:1049600013F0020F48D1FEF7FDFB801B41F28833A4
:104970009842F3D90320A0E00025D6E71D4A13682A
:1049800043F480731360FEF7EDFB0646194B1B687A
:1049900013F4807FCED1FEF7E5FB801B0228F5D90A
:1049A00003208AE0104A136F43F001031367CFE737
:1049B0000D4B1A6F42F004021A671A6F42F001029F
:1049C0001A67C5E7FEF7CEFB0646074B1B6F13F0D1
:1049D000020F11D0FEF7C6FB801B41F288339842CC
:1049E000F3D9032069E000BF0038024000004742CD
:1049F000800E474200700040E5B9A369002B5BD0F0
:104A0000304A926802F00C02082A58D0022B17D0C4
:104A10002D4B00221A60FEF7A5FB0446294B1B68AC
:104A200013F0007F42D0FEF79DFB001B0228F5D952
:104A3000032042E0234A136C23F080531364DCE725
:104A4000214B00221A60FEF78DFB05461D4B1B68AB
:104A500013F0007F06D0FEF785FB401B0228F5D936
:104A600003202AE0E369226A1343626A43EA82135D
:104A7000A26A5208013A43EA0243E26A43EA026345
:104A8000104A5360104B01221A60FEF76BFB04467C
:104A90000C4B1B6813F0007F06D1FEF763FB001B75
:104AA0000228F5D9032008E0002006E0002004E0F9
:104AB00001207047012000E0002002B070BD0120FD
:104AC000FBE700BF0038024060004742264B9B686E
:104AD00003F00C03042B44D0082B01D0234870476B
:104AE0002DE9F04B204B5A6802F03F025B6813F44B
:104AF000800F13D01C4B5968C1F3881100231C4848
:104B0000A1FB0001FBF774FB174B5B68C3F3014388
:104B100001335B00B0FBF3F0BDE8F08B124B5B6838
:104B2000C3F388131E4600275C010025E41A65EBD9
:104B30000705A90141EA9461A001001B61EB050191
:104B4000CB0043EA5073C400A01943EB07018B026A
:104B500043EA90538402204619460023FBF748FBA2
:104B6000D2E70348704700BF003802400024F40039
:104B700040787D01002800F09D8070B504464F4BC1
:104B80001B6803F00F038B4209D2CBB24B4A137060
:104B9000136803F00F038B4201D0012070BD23681E
:104BA00013F0020F17D013F0040F04D0444A936897
:104BB00043F4E0539360236813F0080F04D0404A95
:104BC000936843F4604393603D4A936823F0F00395
:104BD000A068034393600D46236813F0010F32D0A1
:104BE0006368012B21D09A1E012A25D9344A126804
:104BF00012F0020F60D032498A6822F00302134398
:104C00008B60FEF7AFFA06462D4B9B6803F00C0352
:104C10006268B3EB820F16D0FEF7A4FA801B41F254
:104C200088339842F0D90320B8E7254A126812F475
:104C3000003FE0D10120B1E7214A126812F0007F65
:104C4000D9D10120AAE71D4B1B6803F00F03AB422B
:104C500009D9EAB2194B1A701B6803F00F03AB4273
:104C600001D001209AE7236813F0040F06D0144AFC
:104C7000936823F4E053E1680B439360236813F0D7
:104C8000080F07D00E4A936823F46043216943EA72
:104C9000C1039360FFF71AFF094B9B68C3F303132B
:104CA000084AD35CD840084B18600F20FEF710FA72
:104CB000002073E70120704701206FE7003C0240AD
:104CC0000038024004DB000820000020014B186877
:104CD000704700BF2000002008B5FFF7F7FF044B26
:104CE0009B68C3F38223034AD35CD84008BD00BF4E
:104CF0000038024014DB000808B5FFF7E7FF044B5B
:104D00009B68C3F34233034AD35CD84008BD00BF5D
:104D10000038024014DB00080F2303600B4B9A6835
:104D200002F0030242609A6802F0F00282609A6820
:104D300002F4E052C2609B68DB0803F4E0530361B5
:104D4000034B1B6803F00F030B60704700380240F1
:104D5000003C024030B583B00446036813F0030FF3
:104D600014D1236813F00C0F5AD1236813F0200FCD
:104D700040F0AF80236813F0100F00F0118194F819
:104D80002C20884B1A60002003B030BD864B0022D7
:104D90001A60FEF7E7F90546844B1B6813F0006FB5
:104DA00006D0FEF7DFF9401B0228F5D90320EBE718
:104DB000236813F0010F07D06268A3681B0743EA5A
:104DC00082137A4AC2F88430236813F0020F15D098
:104DD000764AD2F884106068E3681B0643EA8013C1
:104DE00001F0E0410B43C2F88430D2F88C3023F05C
:104DF0001F03E16901390B43C2F88C306A4B012271
:104E00001A60FEF7AFF90546684B1B6813F0006F98
:104E1000A7D1FEF7A7F9401B0228F5D90320B3E775
:104E2000634B00221A60FEF79DF905465F4B1B6835
:104E300013F0005F06D0FEF795F9401B0228F5D964
:104E40000320A1E7236813F0040F16D0574AD2F8C5
:104E50008810206963691B0643EA801301F0E04172
:104E60000B43C2F88830D2F88C3023F4F853216A0F
:104E7000013943EA0123C2F88C30236813F0080F8C
:104E800014D04A4AD2F88830216903F0706343EAAB
:104E90008113A16943EA0173C2F88830D2F88C30DB
:104EA00023F44033616A0B43C2F88C30404B01223B
:104EB0001A60FEF757F905463C4B1B6813F0005F7C
:104EC0007FF453AFFEF74EF9401B0228F4D90320BC
:104ED0005AE700230193354B1A6C42F080521A6452
:104EE0001B6C03F080530193019B324A136843F417
:104EF00080731360FEF736F905462E4B1B6813F4DA
:104F0000807F06D1FEF72EF9401B0228F5D9032039
:104F10003AE7264B1B6F13F4407312D0A26A02F4D7
:104F200040729A420DD0214B1A6F22F440722249EE
:104F300001200860002008601A671B6F13F0010F42
:104F400012D1A36A03F44072B2F5407F1DD0174A14
:104F5000936823F4F813936014490B6FA26AC2F3A9
:104F60000B0213430B6705E7FEF7FCF805460F4BF2
:104F70001B6F13F0020FE4D1FEF7F4F8401B41F26F
:104F800088339842F3D90320FEE608498A6822F460
:104F9000F81223F0704323F4407313438B60DBE774
:104FA0000020F1E6E0114742680047420038024025
:104FB0007000474200700040400E4742D8B138B5FB
:104FC00004460D4690F82C3083B1022384F82C302F
:104FD000211D206800F045FB62682946206800F02A
:104FE0007CFB012384F82C30002038BD80F82D3064
:104FF000FCF768F8E9E701207047704703689B6990
:1050000013F0010F00D1704710B50446FFF7F5FF0C
:105010002268536943F00103536110BD38B590F81D
:105020002C30DBB2022B14D00D460446022380F84C
:105030002C30006800F09CFB2B68022B04D001236D
:1050400084F82C30002038BD052384F82C30002053
:10505000F9E70220F7E790F82C30DBB2022B0CD0F6
:1050600010B50446022380F82C30006800F0AAFB3B
:10507000012384F82C30002010BD02207047002846
:105080003BD010B504460023836290F85130002BCA
:105090002ED0022384F851302268136823F0400395
:1050A00013606368A2681343E268134322691343E1
:1050B00062691343A26902F400721343E269134365
:1050C000226A1343A16A22680B431360638B03F0C7
:1050D0000403616A22680B4353602268D36923F496
:1050E0000063D36100206065012384F8513010BD56
:1050F00080F85030FDF75CF8CBE7012070470223C1
:1051000080F83D300268936803F00703062B03D054
:10511000136843F001031360012380F83D30002041
:10512000704700000368304A904212D0B0F1804FBF
:105130000FD0A2F57C4290420BD002F580629042E3
:1051400007D002F58062904203D002F57842904287
:1051500003D123F070034A681343234A90422AD0B4
:10516000B0F1804F27D0A2F57C42904223D002F5C7
:10517000806290421FD002F5806290421BD002F5FF
:105180007842904217D002F57052904213D002F547
:10519000806290420FD002F5806290420BD0A2F55F
:1051A0009832904207D002F58062904203D002F517
:1051B0008062904203D123F44073CA68134323F002
:1051C00080034A69134303608B68C3620B68836280
:1051D000054B984203D003F58063984201D10B69D7
:1051E000036301234361704700000140002849D058
:1051F000F8B505460C4690F83D30002B3DD0022313
:1052000085F83D30294651F8042B936823F48043F8
:1052100023F0070393602868FFF784FF29688A68F2
:105220008E690F6A2068104326F4407626F0030644
:10523000A268A36942EA0323334323F47C4323F0A7
:10524000FC03E668E26946EA02261E43226A13036B
:10525000226943EA0213334327F0AA0762686469AC
:1052600042EA04123A43886029688B612B681A620B
:10527000012385F83D300020F8BD80F83C30FDF773
:105280000FF8BCE70120704790F83C30012B1CD090
:1052900070B4012680F83C60022380F83D3002683B
:1052A0005568936825F070050C682C4323F0800541
:1052B0004B682B4354600268936080F83D60002384
:1052C00080F83C30184670BC7047022070470000E0
:1052D0002DE9F84304460268136923F44053C1687A
:1052E0000B43136183680269134342691343C26924
:1052F0001A430168CB6823F4164323F00C031343CD
:10530000CB600268536923F4407381690B43536196
:10531000C369B3F5004F60D00368B84A934200F008
:10532000148102F58062934200F00F81FFF7D4FCF4
:1053300000EB800000EB80006568AD00B0FBF5F588
:10534000AF4FA7FB05356D092E01FFF7C5FC00EB3C
:10535000800000EB80006568AD00B0FBF5F9FFF759
:10536000BBFC00EB800000EB80006568AD00B0FB8B
:10537000F5F5A7FB05356D094FF0640808FB159599
:105380002D013235A7FB05356D0905F0F0053544D3
:10539000FFF7A2FC00EB800000EB80006668B6001F
:1053A000B0FBF6F6FFF798FC00EB800000EB800006
:1053B00063689B00B0FBF3F0A7FB0030400908FBDB
:1053C00010684FEA081808F13208A7FB0837C7F33E
:1053D000431723682F449F600DE10368874A934277
:1053E0005BD002F58062934257D0FFF775FC00EB6B
:1053F000800000EB800065686D00B0FBF5F5804F24
:10540000A7FB05356D092E01FFF766FC00EB800058
:1054100000EB800065686D00B0FBF5F9FFF75CFC00
:1054200000EB800000EB800065686D00B0FBF5F5D7
:10543000A7FB05356D094FF0640808FB1595ED00D5
:105440003235A7FB05356D096D0005F4F875354457
:10545000FFF742FC00EB800000EB800066687600FE
:10546000B0FBF6F6FFF738FC00EB800000EB8000A5
:1054700063685B00B0FBF3F3A7FB03235B0908FB46
:1054800013684FEAC80808F13208A7FB0837C7F3CA
:10549000421723682F449F60ADE0FFF72DFC00EB1F
:1054A000800000EB800065686D00B0FBF5F5544F9F
:1054B000A7FB05356D092E01FFF71EFC00EB8000F0
:1054C00000EB800065686D00B0FBF5F9FFF714FC98
:1054D00000EB800000EB800065686D00B0FBF5F527
:1054E000A7FB05356D094FF0640808FB1595ED0025
:1054F0003235A7FB05356D096D0005F4F8753544A7
:10550000FFF7FAFB00EB800000EB80006668760096
:10551000B0FBF6F6FFF7F0FB00EB800000EB80003D
:1055200063685B00B0FBF3F3A7FB03235B0908FB95
:1055300013684FEAC80808F13208A7FB0837C7F319
:10554000421723682F449F6055E0FFF7D5FB00EB1F
:10555000800000EB80006568AD00B0FBF5F5284FDA
:10556000A7FB05356D092E01FFF7C6FB00EB800098
:1055700000EB80006568AD00B0FBF5F9FFF7BCFB00
:1055800000EB800000EB80006568AD00B0FBF5F536
:10559000A7FB05356D094FF0640808FB15952D0133
:1055A0003235A7FB05356D0905F0F0053544FFF7E9
:1055B000A3FB00EB800000EB80006668B600B0FB48
:1055C000F6F6FFF799FB00EB800000EB80006368C4
:1055D0009B00B0FBF3F0A7FB0030400908FB10680C
:1055E0004FEA081808F13208A7FB0837C7F343173A
:1055F00023682F449F60BDE8F88300BF001001407E
:105600001F85EB5158B310B5044690F839300BB3F1
:10561000242384F839302268D36823F40053D360FC
:105620002046FFF755FE2268136923F49043136167
:105630002268536923F02A0353612268D36843F434
:105640000053D3600020E063202384F8393084F8CD
:105650003A3010BD80F83830FCF7E2FED8E7012080
:10566000704730B40B68012B1AD0026822F4FF4255
:1056700022F07F024B688C682343CC6823430C697B
:1056800023434C6923438C692343CC6923430C6A2D
:105690002343496A0B4313430360002030BC704727
:1056A000026822F4F842CB690C6A1C434B6A1C4323
:1056B0001443426822F4FF4222F07F024B688D6857
:1056C0002B43CD682B430D692B434D692B438969CF
:1056D0000B43134304604360DFE730B4012A21D059
:1056E000826802F070420B68013B4C68013C43EA5F
:1056F00004138C68013C43EA0423CC68013C43EA70
:1057000004330C69013C43EA04434C69013C43EA1D
:1057100004538969013943EA01631343836000201C
:1057200030BC7047846824F4700424F47044CA6860
:10573000551E4B695A1E120542EA05322243C468BF
:1057400004F070440B68013B4D68013D43EA0513CA
:105750008D68013D43EA05230D69013D43EA054398
:105760008969013943EA016323438260C360D6E754
:1057700070B582B004461546002301930B684A6851
:1057800013438A68013A43EA4213CA6843EA422350
:105790000193019B0361FDF7E5FC0646A36913F045
:1057A000200F0AD0B5F1FF3FF8D04DB1FDF7DAFC7C
:1057B000801BA842F2D9032000E0002002B070BD97
:1057C0000320FBE7436943EA410141610020704740
:1057D000842801D0033070470020704708B501F0DD
:1057E0003DF9002008BD2DE9F04387B004460F467F
:1057F0004569A5B1866996B1D0F80480D0F80090CB
:10580000B0F90800FFF7E4FF2269029601950090C5
:105810003B464946404601F0B5F8059013E06568FF
:105820002668D4F81080B4F90800FFF7D1FF05AB63
:10583000019300903B461FFA88F23146284601F05A
:10584000DAF8012803D1059807B0BDE8F0830020FD
:10585000FAE708B5034600B90123184601F038FA03
:10586000002008BD08B501F067FB012801D000F059
:1058700021FA08BD104A12F0070F1AD0D11D21F0ED
:105880000701C1F5705313440A460C490A60002011
:1058900048601344083B23F007038B60586018608E
:1058A000981A50601360C86008614FF000434B6164
:1058B00070474FF47053E8E75C1200204412002058
:1058C00010B4134B1A6882421BD359685C18844287
:1058D00003D1406801445960184641684418A24207
:1058E00013D10B4CA468A2420DD052681144416000
:1058F0001A6812680260984200D018605DF8044B84
:1059000070471346DEE70460F5E70260F3E700BF87
:105910004412002070B5044601F0D2F8394B9B6860
:10592000BBB1384B5B691C4262D1ACB1083414F096
:10593000070F11D024F00704083404F007035BB10B
:105940004FF0500383F31188BFF36F8FBFF34F8F76
:10595000FEE7FFF78FFFE4E7002C4BD0294B1B69D4
:10596000A34249D3274B1D6801E02B4615466A68C0
:10597000A24202D22A68002AF7D1224A9268AA4299
:105980003CD01E6808362A681A606B681B1B102BF7
:1059900010D9281910F0070F08D04FF0500383F3E7
:1059A0001188BFF36F8FBFF34F8FFEE743606C60CA
:1059B000FFF786FF6968134A13695B1A1361D2689F
:1059C000934201D20F4AD3600E4B5B690B436B606D
:1059D00000232B6001F004F916F0070F10D04FF0F0
:1059E000500383F31188BFF36F8FBFF34F8FFEE730
:1059F0000026EFE70026EDE70026EBE70026E9E7C3
:105A0000304670BD4412002080B338B50446A0F182
:105A1000080550F8042C164949690A4208D14FF08C
:105A2000500383F31188BFF36F8FBFF34F8FFEE7EF
:105A300050F8080C40B14FF0500383F31188BFF3C6
:105A40006F8FBFF34F8FFEE722EA010244F8042C68
:105A500001F036F854F8041C054A13690B4413612D
:105A60002846FFF72DFF01F0BBF838BD704700BF97
:105A70004412002000F1080343604FF0FF328260BF
:105A8000C360036100230360704700230361704714
:105A900043684B609A688A609A68516099600861AF
:105AA000036801330360704730B40D68B5F1FF3F00
:105AB00002D000F1080202E0026904E01A465368CD
:105AC0001C68AC42FAD953684B6099608A60516097
:105AD000086103680133036030BC704703694268A2
