:020000040800F2
:1000000000000320910500080D4500081B4500086D
:1000100021450008274500082D4500080000000084
:1000200000000000000000000000000071EC00086B
:100030003345000800000000B1EE000819EF000889
:10004000E1050008E1050008E1050008E1050008F8
:10005000E1050008E1050008E1050008E1050008E8
:10006000E105000841450008E1050008E105000838
:10007000E1050008E1050008E1050008E1050008C8
:10008000E1050008E1050008E1050008E1050008B8
:10009000E1050008E1050008E1050008E1050008A8
:1000A000E1050008E1050008E1050008E105000898
:1000B000E1050008E1050008E1050008E105000888
:1000C000E1050008E1050008E1050008E105000878
:1000D000E1050008E1050008E1050008E105000868
:1000E000E1050008E1050008E1050008E105000858
:1000F000E1050008E1050008E1050008E105000848
:1001000051450008E1050008E1050008E105000887
:10011000E1050008E105000865450008E105000863
:10012000E1050008E1050008E1050008E105000817
:10013000E1050008E1050008E1050008E105000807
:10014000E1050008E1050008E1050008E1050008F7
:10015000E1050008E1050008E1050008E1050008E7
:10016000E1050008E1050008E1050008E1050008D7
:10017000E1050008E1050008E105000800000000B5
:10018000E1050008E1050008E1050008E1050008B7
:10019000E1050008E1050008E1050008E1050008A7
:0C01A00081450008E105000895450008B5
:1001B00010B5054C237833B9044B13B10448AFF3A1
:1001C00000800123237010BDA40000200000000067
:1001D000E48B010808B5034B1BB103490348AFF397
:1001E000008008BD00000000A8000020E48B01088A
:1001F00053B94AB9002908BF00281CBF4FF0FF318E
:100200004FF0FF3000F072B9ADF1080C6DE904CE8B
:1002100000F006F8DDF804E0DDE9022304B07047E1
:100220002DE9F047089E04468846002B4BD18A42B0
:10023000154667D9B2FA82F24AB1C2F1200701FA33
:1002400002F320FA07F7954047EA030894404FEA83
:10025000154E230CB8FBFEF71FFA85FC0EFB178822
:1002600043EA084307FB0CF1994209D9EB1807F15F
:10027000FF3080F01B81994240F21881023F2B44ED
:100280005B1AA4B2B3FBFEF00EFB103344EA034446
:1002900000FB0CFCA44509D92C1900F1FF3380F0B8
:1002A0000781A44540F2048102382C4440EA07400B
:1002B000A4EB0C0400271EB1D4400023C6E9004380
:1002C0003946BDE8F0878B4209D9002E00F0EB805B
:1002D0000027C6E9000138463946BDE8F087B3FA81
:1002E00083F7002F47D18B4202D3824200F2FA807B
:1002F000841A61EB030301209846002EE0D0C6E982
:100300000048DDE702B9FFDEB2FA82F2002A40F0CF
:100310008F80491B4FEA154E1FFA85F80127B1FB64
:10032000FEFC230C0EFB1C1143EA014308FB0CF1FD
:10033000994207D9EB180CF1FF3002D2994200F232
:10034000CD808446591AA3B2B1FBFEF00EFB101407
:1003500043EA044408FB00F8A04507D92C1900F132
:10036000FF3302D2A04500F2B6801846A4EB080481
:1003700040EA0C409FE7C7F1200CBB4022FA0CFE7C
:100380004EEA030E01FA07F420FA0CF521FA0CF3F9
:100390004FEA1E482543B3FBF8F92C0C08FB193330
:1003A0001FFA8EFA44EA034309FB0AF49C4202FA5C
:1003B00007F200FA07F10BD91EEB030309F1FF3036
:1003C00080F087809C4240F28480A9F10209734446
:1003D0001B1BADB2B3FBF8F008FB103345EA034436
:1003E00000FB0AFAA24508D91EEB040400F1FF3312
:1003F0006BD2A24569D90238744440EA0940A0FB97
:100400000289A4EB0A044C45C2464B4654D351D052
:10041000002E69D0B1EB0A0564EB030404FA0CFC6E
:10042000FD40FC404CEA0505C6E90054002747E7BB
:10043000C2F1200320FA03F7954001FA02F021FAF5
:1004400003F34FEA154E3843010CB3FBFEF71FFAD6
:1004500085F80EFB173341EA034107FB08F38B4293
:1004600004FA02F407D9691807F1FF3C2FD28B4236
:100470002DD9023F2944CB1A81B2B3FBFEF00EFB0B
:10048000103341EA034100FB08F38B4207D9691896
:1004900000F1FF3C17D28B4215D902382944C91A02
:1004A00040EA07473BE73746304609E70746E7E6B5
:1004B0001846FBE64145ABD2B8EB020A69EB0E02E7
:1004C00001381346A4E76046E9E7184695E7674612
:1004D000D1E781467CE702382C4447E7ACF1020CB7
:1004E0002B442FE7384608E73746E9E6704700BF58
:1004F00001F0FF01102A2BDB10F0070F08D010F8D5
:10050000013B013A8B422DD010F0070F42B3F6D1D8
:10051000F0B441EA012141EA014122F007047FF0F1
:1005200000070023F0E80256083C85EA010586EA48
:10053000010685FA47F5A3FA87F586FA47F6A5FA84
:1005400087F68EB9EED1F0BC01F0FF0102F0070290
:1005500032B110F8013B013A83EA010313B1F8D13B
:100560000020704701387047002D06BF354603381C
:10057000073815F0010F07D1013015F4807F02BF55
:10058000013015F4C03F0130F0BC0138704700BFA6
:10059000DFF834D0002103E00C4B5B5843500431AA
:1005A0000B480C4B42189A42F6D30B4A02E0002348
:1005B00042F8043B094B9A42F9D308F0A1FF17F027
:1005C000C3FB02F089FE704700000320F4C4150845
:1005D00000000020A4000020A400002054A300205C
:1005E000FEE780B400AF01231846BD465DF8047BEA
:1005F000704780B582B000AF7860396017F08CFB2F
:100600000246162313604FF0FF3318460837BD46E5
:1006100080BD80B582B000AF78604FF0FF31786860
:10062000FFF7E7FFFEE780B586B000AFF860B9607E
:100630007A6000237B610AE0AFF300800146BB686B
:100640005A1CBA60CAB21A707B6901337B617A693D
:100650007B689A42F0DB7B6818461837BD4680BD40
:1006600080B586B000AFF860B9607A6000237B6126
:1006700009E0BB685A1CBA601B781846AFF30080CB
:100680007B6901337B617A697B689A42F1DB7B6825
:1006900018461837BD4680BD80B584B000AF78607D
:1006A000114B1B68002B02D10F4B104A1A600E4BE6
:1006B0001B68FB600C4B1A687B6813446A469342C4
:1006C00007D917F029FB02460C2313604FF0FF33C4
:1006D00006E0054B1A687B681344034A1360FB6805
:1006E00018461037BD4680BDC400002058A3002026
:1006F00080B483B000AF78604FF0FF3318460C37FA
:10070000BD465DF8047B704780B483B000AF78606D
:1007100039603B684FF400525A60002318460C378A
:10072000BD465DF8047B704780B483B000AF78604D
:10073000012318460C37BD465DF8047B704780B432
:1007400085B000AFF860B9607A60002318461437AE
:10075000BD465DF8047B704780B483B000AF78601D
:10076000396000BF0C37BD465DF8047B704780B42C
:1007700083B000AF7860396000BF0C37BD465DF8CC
:10078000047B704780B483B000AF7860396000BFED
:100790000C37BD465DF8047B704780B483B000AF72
:1007A00078600B46FB7000BF0C37BD465DF8047BDC
:1007B000704780B483B000AF786000BF0C37BD468F
:1007C0005DF8047B704780B483B000AF786000BFF1
:1007D0000C37BD465DF8047B7047000080B483B0E1
:1007E00000AF7860044A7B681A607B6818460C3753
:1007F000BD465DF8047B704778A3010880B582B0E0
:1008000000AF78607868FFF7E9FF0421786817F097
:100810004BFA7B6818460837BD4680BD80B483B06C
:1008200000AF78607B6800221A807B6800225A80C3
:100830007B6800229A807B680022DA807B68002235
:100840001A817B6800225A817B6800229A817B682A
:1008500000229A737B6818460C37BD465DF8047B0E
:10086000704780B582B000AF78607B681846FFF7AC
:10087000D5FF7B6800221A617B6800229A827B6820
:1008800018460837BD4680BD80B483B000AF78609D
:10089000044A7B681A607B6818460C37BD465DF8D1
:1008A000047B704760A3010880B582B000AF786018
:1008B0007868FFF7E9FF0421786817F0F5F97B689D
:1008C00018460837BD4680BD80B483B000AF78605D
:1008D000074A7B681A607B6800225A607B680022A6
:1008E0009A607B6818460C37BD465DF8047B7047FC
:1008F00038A3010880B483B000AF7860044A7B68F5
:100900001A607B6818460C37BD465DF8047B70475B
:1009100038A3010880B582B000AF78607868FFF72F
:10092000E9FF0C21786817F0BFF97B681846083793
:10093000BD4680BD80B584B000AF78600B46FB70CB
:10094000FB78002B11D07B681B6810331B6878681C
:10095000984702467B689B68D31AFB607B685A689D
:10096000FB681A447B685A6008E07B681B68103398
:100970001B687868984702467B689A6000BF10370A
:10098000BD4680BD80B483B000AF78607B685B6893
:1009900018460C37BD465DF8047B704780B483B0C1
:1009A00000AF786039607B683A685A6000BF0C37E6
:1009B000BD465DF8047B704780B584B000AFF86039
:1009C000B9607A603B603E4AFB681A60FB68BA68AF
:1009D0005A60FB687A689A60FB683A68DA60FB687C
:1009E00000221A61FB6800225A61FB68183318461E
:1009F000FFF737FFFB6800225A63FB6800229A6307
:100A0000FB680022DA63FB6800221A64FB6800229C
:100A100083F84420FB68012283F84520FB6801220B
:100A200083F84620FB68012283F85420FB680022EB
:100A300083F85520FB68002283F85620FB680122CA
:100A400083F85720FB68002283F85820FB680022B7
:100A500083F85920FB68002283F85A20FB680022A3
:100A600083F85B20FB68002283F85C20FB6800228F
:100A70001A66FB68002283F86520124AFB6813603F
:100A8000114A3B8B1380114ABB8B1380104B002201
:100A90001A700D4B1A880F4B1A800C4B1A880E4B8C
:100AA0001A803A8BBB8B9A4201D3002200E00122CC
:100AB000FB6883F83020FB6818461037BD4680BDC0
:100AC00080B5010868A200205CA200205EA2002080
:100AD00060A2002062A2002064A2002080B483B043
:100AE00000AF7860044A7B681A607B6818460C3750
:100AF000BD465DF8047B704780B5010880B582B0C3
:100B000000AF78607868FFF7E9FF6821786817F030
:100B1000CBF87B6818460837BD4680BD80B400AF6F
:100B2000034B1B681846BD465DF8047B704700BF49
:100B300068A2002080B483B000AF78600B46FB70E1
:100B40007B68FA7883F8462000BF0C37BD465DF815
:100B5000047B704780B483B000AF78600B46FB70B5
:100B60007B68FA7883F8582000BF0C37BD465DF8E3
:100B7000047B704780B483B000AF78600B46FB7095
:100B800097F90330002B03DD7B68FA7883F8542053
:100B900000BF0C37BD465DF8047B704780B483B05E
:100BA00000AF786039607B683A681A6100BF0C3723
:100BB000BD465DF8047B704780B483B000AF7860B9
:100BC0000B46FB707B68FA7883F85C2000BF0C371B
:100BD000BD465DF8047B704780B483B000AF786099
:100BE0000B46FB707B68FA7883F8452000BF0C3712
:100BF000BD465DF8047B704780B483B000AF786079
:100C0000044A7B68136000BF0C37BD465DF8047B67
:100C1000704700BFD4A2002080B483B000AF7860DA
:100C2000044A7B681A607B6818460C37BD465DF83D
:100C3000047B704724A3010880B582B000AF7860C0
:100C40007868FFF7E9FF0421786817F02DF87B68D2
:100C500018460837BD4680BD80B485B000AFF86047
:100C6000B9607A603B600B4AFB681A60FB68BA683F
:100C70005A60FB687A689A60FB683A68DA60FB68D9
:100C8000BA691A61FB6818461437BD465DF8047BE3
:100C9000704700BF14A3010880B483B000AF786030
:100CA000044A7B681A607B6818460C37BD465DF8BD
:100CB000047B704714A3010880B582B000AF786050
:100CC0007868FFF7E9FF1421786816F0EDFF7B687C
:100CD00018460837BD4680BD80B483B000AF786049
:100CE000044A7B681A607B6818460C37BD465DF87D
:100CF000047B7047E0A2010880B582B000AF786045
:100D00007868FFF7E9FF0421786816F0CDFF7B686B
:100D100018460837BD4680BD80B483B000AF786008
:100D200000BF0C37BD465DF8047B704780B483B0CC
:100D300000AF78600B46FB7000BF0C37BD465DF816
:100D4000047B704780B483B000AF7860044A7B684E
:100D50001A607B6818460C37BD465DF8047B704707
:100D6000C8A2010880B582B000AF78607868FFF74C
:100D7000E9FF0421786816F097FF7B68184608376A
:100D8000BD4680BD80B582B000AF7860054A7B6803
:100D90001A607B681846FFF721FD7B681846083704
:100DA000BD4680BD10BF010880B582B000AF78603D
:100DB0007868FFF7E7FF4FF49871786816F074FFD2
:100DC0007B6818460837BD4680BD000080B582B0FC
:100DD00000AF7860054A7B681A607B681846FFF7A9
:100DE000D1FF7B6818460837BD4680BD8CA201083C
:100DF00080B582B000AF78607868FFF7E7FF4FF406
:100E00009C71786816F050FF7B6818460837BD461D
:100E100080BD80B582B000AF7860786800F004F8DB
:100E200000BF0837BD4680BD80B582B000AF786096
:100E30007B68D3F83431002B0FD07B68D3F8342192
:100E40007B68D3F834311B680C331B681046984715
:100E50000346002B01D0012300E00023002B0ED01D
:100E60007B68D3F834217B68D3F834311B680833AE
:100E70001B68104698477B680022C3F8342100BFE6
:100E80000837BD4680BD000080B582B000AF7860F5
:100E9000084A7B681A607B6803F59C73184600F06B
:100EA000BDFB7B681846FFF791FF7B681846083743
:100EB000BD4680BD38A2010880B582B000AF786021
:100EC0007868FFF7E1FF4FF4A871786816F0ECFE40
:100ED0007B6818460837BD4680BD000080B582B0EB
:100EE00000AF7860054A7B681A607B681846FFF798
:100EF000CBFF7B6818460837BD4680BDFCA10108C2
:100F000080B582B000AF78607868FFF7E7FF4FF4F4
:100F1000A871786816F0C8FE7B6818460837BD4689
:100F200080BD80B582B000AF78607B68D3F84C316B
:100F3000184608F0F7F87B68184612F007FF00BF64
:100F40000837BD4680BD80B582B000AF786039609B
:100F50003B68184603F0F6FE00BF0837BD4680BD6B
:100F600080B586B002AFF860B9607A603B60F8681F
:100F7000BB6900933B687A68B968FFF76DFE044A65
:100F8000FB681A60FB6818461037BD4680BD00BF7D
:100F9000E8A1010880B500AF134B1B78BFF35B8F4E
:100FA000DBB203F00103002B0CBF01230023DBB2F3
:100FB000002B15D00C4816F04FFE0346002B14BF33
:100FC00001230023DBB2002B0AD0084800F036F8DA
:100FD000054816F04DFE064A0649044816F05FFE25
:100FE000024B184680BD00BFECA10020F493002006
:100FF00000000020D914000880B582B000AF7860EE
:10100000054A7B681A607B681846FFF745FE7B68D7
:1010100018460837BD4680BDE8A1010880B582B0FA
:1010200000AF78607868FFF7E7FF1421786816F062
:101030003BFE7B6818460837BD4680BD90B585B03D
:1010400002AF786078687B6803F114017B6803F174
:101050002C027B6803F549647B6803F6A443009384
:101060002346FFF77DFF184A7B681A607B681433BC
:10107000184600F0EDF87B682C33184600F01CF998
:101080007B6803F54963184600F04CF97B6803F66A
:10109000A4407B6803F6F4537A68194607F04EFEC5
:1010A0007B6803F6F453184608F02EF87A687B68DC
:1010B00003F6A44319461046FFF745FF7B68184620
:1010C0000C37BD4690BD00BF38A1010880B582B085
:1010D00000AF7860054A7B681A607B681846FFF7A6
:1010E000FBFD7B6818460837BD4680BD18C6010861
:1010F00080B582B000AF78607868FFF7E7FF042121
:10110000786816F0D1FD7B6818460837BD4680BD6B
:1011100080B586B002AFF860B9607A603B60F8686D
:10112000BB8B01933B8B00933B687A68B968FFF7F0
:1011300043FC044AFB681A60FB6818461037BD463A
:1011400080BD00BF3C8D010880B500AF00F086FC7B
:1011500000F0DAFC00F0F2FB00F0C7FB00BF80BD3E
:1011600080B582B000AF78607B681846FFF7ACFBB3
:10117000034A7B681A607B6818460837BD4680BD05
:10118000988E010890B587B004AF4FF48063FB8060
:101190004FF41673BB80B7F90610B7F9043000227C
:1011A0000392002202920022019200930B46194AF8
:1011B00019491A4800F0EAF838603B681B68743334
:1011C0001C68174B1B681946164B1A88012300939D
:1011D00001233868A04702213868FFF7CBFC0121C2
:1011E0003868FFF7F9FC00213868FFF7B3FC0021ED
:1011F0003868FFF79FFC0C4801F090FE0A493868F8
:10120000FFF7CCFC01213868FFF7D6FC00BF0C3794
:10121000BD4690BD0C00002010000020CC00002036
:1012200008000020140000206C0B002080B500AFE7
:10123000FFF7A8FF00BF80BD80B500AFFFF76EFCD1
:10124000024613680C331B681046984700BF80BDE8
:1012500080B582B000AF78607B6818460FF0AAFEB8
:10126000034A7B681A607B6818460837BD4680BD14
:10127000B4A1010880B582B000AF7860054A7B68F0
:101280001A607B6818460FF093FE7B681846083793
:10129000BD4680BDB4A1010880B582B000AF7860C2
:1012A0007868FFF7E7FF1821786816F0FDFC7B6887
:1012B00018460837BD4680BD80B582B000AF786063
:1012C0007B6818460FF076FE034A7B681A607B68DD
:1012D00018460837BD4680BD80A1010880B582B0A0
:1012E00000AF7860054A7B681A607B6818460FF08B
:1012F0005FFE7B6818460837BD4680BD80A10108A7
:1013000080B582B000AF78607868FFF7E7FF40F6FD
:101310006441786816F0C8FC7B6818460837BD46FB
:1013200080BD000080B582B000AF78607B68184651
:101330000FF040FE034A7B681A607B681846083746
:10134000BD4680BD4CA1010880B582B000AF786079
:10135000054A7B681A607B6818460FF029FE7B6897
:1013600018460837BD4680BD4CA1010880B582B043
:1013700000AF78607868FFF7E7FF1421786816F00F
:1013800093FC7B6818460837BD4680BD90B589B090
:1013900002AFF860B9607A607B80B7F90220B7F9D4
:1013A0002830009313467A68B968F86800F054F85A
:1013B0007861786910F082FE07F0F6FB044607F0CA
:1013C000FDFB034619467B6B00933B6BFA6A204694
:1013D00014F066FB0D48FFF70FFC002007F012FC2D
:1013E0000B4814F0C7FAFFF7D5FD38617B691B681D
:1013F00050331C6812F0DCFD034619467869A0479B
:101400007B6918461C37BD4690BD00BFC800002050
:101410000400002080B582B000AF7860054A7B6888
:101420001A607B681846FFF759FB7B681846083737
:10143000BD4680BD3C8D010880B582B000AF7860AC
:101440007868FFF7E7FF6821786816F02DFC7B6865
:1014500018460837BD4680BD80B586B002AFF8603B
:10146000B9607A607B80184B1B78BFF35B8FDBB26F
:1014700003F00103002B0CBF01230023DBB2002B80
:101480001CD0114816F0E8FB0346002B14BF0123C3
:101490000023DBB2002B11D07B883A8B01920093A2
:1014A0007B68BA68F9680948FFF732FE064816F00B
:1014B000DFFB074A0749054816F0F1FB034B1846C6
:1014C0001037BD4680BD00BF58A20020F0A100200B
:1014D000000000201514000880B582B000AF7860CD
:1014E000104A7B681A607B6803F6A4431846FFF72E
:1014F000F5FC7B6803F549631846FFF725FF7B6819
:101500002C331846FFF7EAFE7B6814331846FFF7C2
:10151000B1FE7B681846FFF76FFD7B6818460837F9
:10152000BD4680BD38A1010880B582B000AF7860AB
:101530007868FFF7D1FF40F6F851786816F0B4FBF1
:101540007B6818460837BD4680BD000080B582B074
:1015500000AF7860054A7B681A607B681846FFF721
:10156000C9F97B6818460837BD4680BD988E0108CA
:1015700080B582B000AF78607868FFF7E7FF102190
:10158000786816F091FB7B6818460837BD4680BD29
:1015900080B582B000AF786039607B68012B23D1C1
:1015A0003B684FF6FF7293421ED1114A114912480F
:1015B00016F075FB114800F09DFE0D4A10490F48CA
:1015C00016F06DFB0A4A0F490F4816F068FB0F48EA
:1015D000FFF7C6FD064A0E490C4816F060FB044AA8
:1015E0000C490D4816F05BFB00BF0837BD4680BDB7
:1015F000000000206116000804000020CC0000203C
:1016000049230008A51600080C0000206C0B0020E0
:101610004D150008CD1000081000002080B582B0E4
:1016200000AF7860054A7B681A607B681846FFF750
:1016300089FB7B6818460837BD4680BD74A2010847
:1016400080B582B000AF78607868FFF7E7FF1021BF
:10165000786816F029FB7B6818460837BD4680BDC0
:1016600080B582B000AF7860054A7B681A607B68FD
:101670001846FFF7D1FA7B6818460837BD4680BD8B
:10168000588F010880B582B000AF78607868FFF7A6
:10169000E7FF0421786816F007FB7B6818460837D7
:1016A000BD4680BD80B582B000AF7860054A7B68DA
:1016B0001A607B681846FFF7E7F87B68184608371A
:1016C000BD4680BDD08E010880B582B000AF786085
:1016D0007868FFF7E7FF0421786816F0E5FA7B6881
:1016E00018460837BD4680BD80B483B000AF78602F
:1016F000012318460C37BD465DF8047B704780B463
:1017000083B000AF78600C2318460C37BD465DF8F7
:10171000047B704780B483B000AF78600B467B8059
:101720007A8813465B0013449B0008337A6813449D
:1017300018460C37BD465DF8047B704780B483B013
:1017400000AF78600B467B807A8813465B001344B9
:101750009B0008337A68134418460C37BD465DF881
:10176000047B704780B483B000AF786001231846D3
:101770000C37BD465DF8047B704780B483B000AF82
:10178000786040F65C4318460C37BD465DF8047B34
:10179000704780B483B000AF78600B467B807B8855
:1017A00040F65C4202FB03F308337A6813441846A0
:1017B0000C37BD465DF8047B704780B483B000AF42
:1017C00078600B467B807B8840F65C4202FB03F32B
:1017D00008337A68134418460C37BD465DF8047B1D
:1017E000704780B483B000AF7860012318460C378F
:1017F000BD465DF8047B704780B483B000AF78606D
:10180000102318460C37BD465DF8047B704780B442
:1018100083B000AF78600B467B807B881B01083368
:101820007A68134418460C37BD465DF8047B704750
:1018300080B483B000AF78600B467B807B881B014F
:1018400008337A68134418460C37BD465DF8047BAC
:10185000704780B582B000AF78607B685B687A685B
:10186000D268521099187B68DB6803F00103002BE3
:1018700002D17B689B680AE07B685B687A68D26803
:10188000521013441B687A68926813441B68084618
:10189000984700BF0837BD4680BD80B483B000AF15
:1018A00078607B685B68002B10D07B689B68002B9E
:1018B00007D17B68DB6803F00103002B01D1012312
:1018C00000E00023012B01D0012300E00023184693
:1018D0000C37BD465DF8047B704780B500AF4FF60E
:1018E000FF710120FFF754FE80BD80B400AF00BF40
:1018F000BD465DF8047B704780B483B000AF0346FB
:10190000FB7100BF0C37BD465DF8047B704780B4A7
:1019100083B000AF0346FB7100BF0C37BD465DF8D6
:10192000047B704780B483B000AF0346FB7100BFF7
:101930000C37BD465DF8047B7047000080B58EB063
:1019400000AF43480AF0BCFC414B424A1A60404B8E
:1019500000225A603E4B00229A603D4B0022DA6022
:101960003B4B00221A613A4B2F225A61384B02221C
:101970009A61374B8722DA61354B22221A62344B47
:1019800040F287425A62324B40F27A229A62304BDE
:1019900040F2AF42DA622E4B40F287221A632C4BA0
:1019A000002283F834202A4B642283F83520284B08
:1019B000002283F8362026480AF0B2FB0346002BAB
:1019C00014BF01230023DBB2002B01D002F0A6F9E3
:1019D00000237B604FF48063BB600023FB604FF407
:1019E00016733B6102237B61FF23BB610023FB6114
:1019F0004FF480633B6205237B62174BBB624FF45D
:101A00008063FB624FF416733B63002387F8343026
:101A1000002387F83530002387F836303B1D00223D
:101A200019460B480AF01CFD0346002B14BF012386
:101A30000023DBB2002B01D002F070F900224FF43A
:101A4000806103480AF04AFD00BF3837BD4680BDBB
:101A50007C0B002000680140000800D080B588B0F1
:101A600000AF3B1D00221A605A609A60DA601A616A
:101A70005A619A61224B234A1A60214B01225A6013
:101A80001F4B00229A601E4B0422DA601C4B10226E
:101A90001A611B4B40225A61194B4FF4C0729A6174
:101AA000174B0022DA61164B4FF400621A62144B96
:101AB00000225A62124B4FF400529A6202237B605A
:101AC0000723BB600423FB6007233B6103237B6187
:101AD0000223BB610223FB613B1D194608480BF042
:101AE00083FD0346002B14BF01230023DBB2002B30
:101AF00001D002F013F900BF2037BD4680BD00BF02
:101B0000640C0020400100A080B582B000AF00232B
:101B10007B602B4B01221A60294B08225A60284B0C
:101B200001229A60264B0022DA604FF6FF722449A8
:101B300024480BF0B1FD012007F05AFD204B022292
:101B40001A601F4B08225A601D4B01229A601C4BE1
:101B50000022DA604FF6FF7219491A480BF09CFD1B
:101B6000174B03221A60164B08225A60144B0422AA
:101B70009A60134B0022DA604FF6FF721049114849
:101B80000BF08AFD4FF40C737B600D4B04221A603E
:101B90000B4B08225A600A4B01229A607B68084A64
:101BA000D3604FF6FF72064906480BF075FD40F210
:101BB0006A5104480BF09BFD00BF0837BD4680BD4D
:101BC000980C0020640C002080B58EB000AF7860C7
:101BD00007F1240300221A605A609A60DA601A61E1
:101BE0007B681B687B4A934240F0F08000233B6295
:101BF000794B5B6C784A43F080635364764B5B6C43
:101C000003F080633B623B6A0023FB61724B1B6BFA
:101C1000714A43F4807313636F4B1B6B03F480733F
:101C2000FB61FB690023BB616B4B1B6B6A4A43F092
:101C300020031363684B1B6B03F02003BB61BB697C
:101C400000237B61644B1B6B634A43F00103136306
:101C5000614B1B6B03F001037B617B6900233B61DC
:101C60005D4B1B6B5C4A43F0020313635A4B1B6BC7
:101C700003F002033B613B690023FB60564B1B6B87
:101C8000554A43F080031363534B1B6B03F08003EF
:101C9000FB60FB680023BB604F4B1B6B4E4A43F05D
:101CA000400313634C4B1B6B03F04003BB60BB68EA
:101CB00040F207637B620223BB620023FB620023C6
:101CC0003B630E237B6307F124031946434808F066
:101CD00015FF4FF480637B620223BB620023FB622B
:101CE00000233B630E237B6307F1240319463C4822
:101CF00008F004FF08237B620223BB620023FB621F
:101D000000233B630E237B6307F124031946354808
:101D100008F0F4FE03237B620223BB620023FB6214
:101D200000233B6309237B6307F1240319462E48F4
:101D300008F0E4FE4FF4E0637B620223BB62002301
:101D4000FB6200233B630E237B6307F124031946E8
:101D5000254808F0D3FE4FF4D8437B620223BB62D0
:101D60000023FB6200233B630E237B6307F1240304
:101D700019461E4808F0C2FE4FF40C637B62022332
:101D8000BB620023FB6200233B630E237B6307F1EE
:101D900024031946164808F0B1FE4FF480537B62C5
:101DA0000223BB620023FB6200233B6309237B63A6
:101DB00007F1240319460E4808F0A0FE0022052171
:101DC000582007F011FD582007F02AFD00BF3837D2
:101DD000BD4680BD0068014000380240002002403E
:101DE000001402400000024000040240001C0240B7
:101DF0000018024080B582B000AF78607B681B6835
:101E0000164A934225D1164B5B6C154A23F080632A
:101E1000536440F20761134809F01AF84FF48061E7
:101E2000114809F015F80821104809F011F840F29E
:101E300003710F4809F00CF84FF4D8410D4809F030
:101E400007F84FF4C6510C4809F002F8582007F083
:101E5000F5FC00BF0837BD4680BD00BF00680140EB
:101E600000380240002002400014024000000240FE
:101E700000040240001C02400018024080B586B0F9
:101E800000AF3B1D00221A605A609A60DA601A6146
:101E90003F4B1B68002B77D13D4B01221A6000237A
:101EA0003B603C4B9B6B3B4A43F001039363394BD4
:101EB0009B6B03F001033B603B684FF63F037B6085
:101EC0000223BB600023FB6003233B610C237B6187
:101ED0003B1D1946304808F011FE01237B600223A8
:101EE000BB600023FB6003233B610C237B613B1D34
:101EF00019462A4808F002FE48F233137B60022399
:101F0000BB600023FB6003233B610C237B613B1D13
:101F10001946234808F0F2FD4FF683737B600223D5
:101F2000BB600023FB6003233B610C237B613B1DF3
:101F300019461C4808F0E2FDC0237B600223BB6009
:101F40000023FB6003233B610C237B613B1D19468F
:101F5000154808F0D3FD4CF203737B600223BB608D
:101F60000023FB6003233B610C237B613B1D19466F
:101F70000E4808F0C3FD00220521302007F034FC94
:101F8000302007F04DFC00E000BF1837BD4680BD93
:101F9000A80C002000380240001402400008024053
:101FA0000018024000100240001C0240000C0240D9
:101FB00080B582B000AF7860FFF760FF00BF0837E0
:101FC000BD4680BD80B584B000AF78607B681B687B
:101FD0000E4A934215D10023FB600D4B1B6B0C4A3C
:101FE00043F4000313630A4B1B6B03F40003FB6011
:101FF000FB68002205215A2007F0F6FB5A2007F063
:102000000FFC00BF1037BD4680BD00BF00B00240CE
:102010000038024080B582B000AF78607B681B68F2
:10202000074A934208D1074B1B6B064A23F400036F
:1020300013635A2007F002FC00BF0837BD4680BD7D
:1020400000B002400038024080B483B000AF786036
:102050007B6800221A607B6818460C37BD465DF825
:10206000047B704780B483B000AF78607B681B68E6
:1020700018460C37BD465DF8047B704780B483B0CA
:1020800000AF78607B681B689BB218460C37BD4672
:102090005DF8047B7047000080B483B000AF7860C7
:1020A000044A7B681A607B6818460C37BD465DF8A9
:1020B000047B7047A0A3010880B582B000AF7860B0
:1020C0007868FFF7E9FF0421786815F0EDFD7B687B
:1020D00018460837BD4680BD80B582B000AF786035
:1020E0007B681B6840331B687868984700BF0837D7
:1020F000BD4680BD80B483B000AF7860044A7B6881
:102100001A607B6818460C37BD465DF8047B704743
:1021100008B9010880B582B000AF78607868FFF731
:10212000E9FF0C21786815F0BFFD7B681846083779
:10213000BD4680BD80B483B000AF78603960094A85
:102140007B681A607B683A685A607B6800221A7262
:102150007B6800225A727B6818460C37BD465DF8D2
:10216000047B704708B9010880B582B000AF786081
:102170007B685A687B685B681B6814331B68104671
:10218000984700BF0837BD4680BD000080B400AF4F
:10219000034B1B689B681846BD465DF8047B70477F
:1021A00068A2002080B582B000AF78607A687B6852
:1021B0001B6824331B681046984700BF0837BD468C
:1021C00080BD000080B483B000AF0346FB7197F977
:1021D0000730002B0DDB97F90730DBB203F01F024D
:1021E000074997F907305B09012000FA02F241F82C
:1021F000232000BF0C37BD465DF8047B704700BF4D
:1022000000E100E080B483B000AF0346FB7197F9B2
:102210000730002B12DB97F90730DBB203F01F0207
:10222000094997F907305B09012000FA02F22033CF
:1022300041F82320BFF34F8FBFF36F8F00BF0C37E0
:10224000BD465DF8047B704700E100E080B485B0D6
:1022500000AFF860B9607A603B60FB681B681B6880
:1022600023F44031BA68FB681B680A431A60FB68B4
:102270001B685B6B23F007017A68FB681B680A43E5
:102280005A63FB681B681B6C23F47F5323F03F03E6
:102290003968FA6812680B43136400231846143730
:1022A000BD465DF8047B704780B582B000AF7860B2
:1022B000FEF734FC03461846FFF756FF00BF083709
:1022C000BD4680BD80B483B000AF786000BF0C37DE
:1022D000BD465DF8047B704780B582B000AF786082
:1022E0007B6814331846FFF7AFFE7B681846083743
:1022F000BD4680BDB0B582B000AF78607A687B68BB
:102300000C3319461046FFF715FF0E4A7B681A601A
:102310007B6803F10C007B6820336022194610F0C3
:10232000F9F97B6820335F241D46002C05DB284625
:10233000FFF7D2FF1C35013CF7E77B6818460837EA
:10234000BD46B0BD188C010880B582B000AF786082
:102350000B4A7B681A600B4807F0B4FB5A20FFF762
:1023600051FF7B680C33184600F0AAFA7B681846C8
:10237000FFF7C0FE7B6818460837BD4680BD00BF2A
:10238000188C0108240C002080B582B000AF786062
:102390007868FFF7D9FF4FF42A61786815F084FC5C
:1023A0007B6818460837BD4680BD000080B582B006
:1023B00000AF7860094B0A4A1A60084807F038FBFA
:1023C000064B084A1A61054B074A5A615A20FFF723
:1023D000F9FE00BF0837BD4680BD00BF240C0020B9
:1023E00000B00240A9220008C522000880B483B0D2
:1023F00000AF7860074B1B78DBB2002B01D00023C5
:1024000001E040F2EF1318460C37BD465DF8047B3F
:10241000704700BFB00C002090B58DB002AF78605F
:1024200039604FF400337B6200233B623B681B68DA
:10243000202B07D03B681B68402B03D03B681B68F0
:10244000042B01D1012300E00023FB773B681B68CC
:10245000802B04D03B681B68B3F5807F01D101233A
:1024600000E00023BB77FFF791FE0246136820339C
:102470001B681046984703467B773B681B68402BD8
:102480001DD0402B04D8042B0ED0202B17D019E0E0
:10249000802B03D0B3F5807F03D013E00A233B6287
:1024A0001AE009233B6217E04FF400337B627B7F25
:1024B000102B01D1022300E001233B620CE000233A
:1024C0003B6209E000237B627B7F102B01D102235A
:1024D00000E001233B6200BF764A7B6A53607B7F4A
:1024E000102B01D1022300E00123724A93603B6864
:1024F0005B8A1A463B689B89D31A1A466D4BDA6091
:102500007B7F102B01D1022200E001223B685B8A15
:1025100019463B689B89CB1A796A6648FFF796FE95
:10252000644A3B6AD3623B681B8A1A463B689B89B4
:10253000D31A1A465F4B9A62FB7F002B03D1BB7FF5
:10254000002B00F082803B681B7EFF2B08D0594B8C
:1025500002221A633B681B7E1A46564B5A6302E0FE
:10256000544B00221A63BB7F002B59D07B7F102B6A
:102570004AD13B6814331846FFF780FD0346DB124F
:1025800003F01F0213461B029B1A4B4A82FB0312E5
:102590001A441211DB17D31ABB613B681433184677
:1025A000FFF76CFD03465B1103F03F0213461B026D
:1025B0009B1A424A82FB03121A445211DB17D31AA8
:1025C0007B613B6814331846FFF758FD034603F060
:1025D0001F0213461B029B1A374A82FB03121A443E
:1025E0001211DB17D31A3B613B681B7EFB60FB6853
:1025F0001A06BB691B041A437B691B021A433B6919
:1026000013432C4A53630BE03B6814331846FFF71F
:1026100029FD02463B681B7E1B061343254A536374
:102620003B685B8A1A463B689B89D31A1A46214B42
:102630009A617B7F102B01D1022300E001231D4A08
:10264000D36100211B4807F0BDFC0121194807F0A8
:10265000B9FCFB7F002B02D1BB7F002B15D03B6860
:102660005B6819463B689B6818463B689B681C463C
:102670003B689B891A463B68DB890193009223469D
:1026800002460C4807F0C1FA0FE03B685B68194648
:102690003B689B681A463B689B8918463B68DB8908
:1026A00000930346034807F07DFA00BF2C37BD4670
:1026B00090BD00BF240C00204308218483200882A1
:1026C00090B58DB002AF78603960FFF75FFD0246CC
:1026D000136820331B68104698470346FB77FB7F3F
:1026E000102B01D1022300E00123BB6100233B62D8
:1026F000FB7F102B49D13B6814331846FFF7BEFC13
:102700000346DB1203F01F0213461B029B1A694AA1
:1027100082FB03121A441211DB17D31A7B613B6848
:1027200014331846FFF7AAFC03465B1103F03F027F
:1027300013461B029B1A604A82FB03121A44521171
:10274000DB17D31A3B613B6814331846FFF796FC3E
:10275000034603F01F0213461B029B1A554A82FBD5
:1027600003121A441211DB17D31AFB603B681B7E5D
:10277000BB60BB681A067B691B041A433B691B02DA
:102780001343FA6813433B620BE03B681B7E1B0656
:102790001C463B6814331846FFF764FC034623438A
:1027A0003B623B681B68082B03D14FF400337B620C
:1027B00003E04FF440337B6200BF404A7B6A5360C2
:1027C000FB7F102B01D1022300E001233B4A9360E1
:1027D0003B685B8A1A463B689B89D31A1A46374B7B
:1027E000DA60FB7F102B01D1022200E001223B685E
:1027F0005B8A19463B689B89CB1A796A2F48FFF799
:1028000025FD7B6AB3F5003F1ED12C4B01221A63D4
:102810002A4A3B6A5363294B0922DA623B685B8A86
:102820001A463B689B89D31A1A46244B9A61FB7F50
:10283000102B01D1022300E00123204AD3610021A3
:102840001E4807F0BFFB05E01C4ABB69D3621B4B67
:1028500000229A620121194807F0B4FB7B6AB3F5A4
:10286000003F15D13B689B6819463B689B6818463A
:102870003B689B681C463B689B891A463B68DB8922
:1028800001930092234602460C4807F0BEF90DE082
:102890003B689B681A463B689B8919463B68DB8905
:1028A00000930B46396A054807F07CF900BF2C37C6
:1028B000BD4690BD4308218483200882240C00205B
:1028C00080B582B000AF7860054A7B681A607B688B
:1028D0001846FFF7E1FB7B6818460837BD4680BD08
:1028E00054B9010880B582B000AF78607868FFF70E
:1028F000E7FF1421786815F0D7F97B681846083788
:10290000BD4680BD80B483B000AF78600B46FB70DD
:102910007B68FA7883F864207B68012283F865205D
:1029200000BF0C37BD465DF8047B704780B582B0B0
:1029300000AF78607B681B6818331B68786898471D
:1029400000BF0837BD4680BD80B582B000AF78605B
:102950007B685A687B685B681B681B6810469847F1
:10296000034618460837BD4680BD80B483B000AF2B
:1029700078607B6893F856300133DAB27B6883F86D
:10298000562000BF0C37BD465DF8047B704780B50C
:1029900082B000AF786078680FF080FD7B681B68BC
:1029A00084331B687868984700BF0837BD4680BDF0
:1029B00080B483B000AF78603960002318460C37CC
:1029C000BD465DF8047B704780B586B000AFF86007
:1029D000B96011461A460B46FB8013467B710023F3
:1029E0007B61FB88013B1F2B62D801A252F823F0C8
:1029F0008D2A00088D2A0008B12A00088D2A0008B7
:102A0000B12A0008B12A0008B12A0008712A00087A
:102A1000B12A0008B12A0008B12A0008B12A00082A
:102A2000B12A0008B12A0008B12A0008712A00085A
:102A3000B12A0008B12A0008B12A0008B12A00080A
:102A4000B12A0008B12A0008B12A0008712A00083A
:102A5000B12A0008B12A0008B12A0008B12A0008EA
:102A6000B12A0008B12A0008B12A0008712A00081A
:102A7000294B1B881A46294B1B8803FB02F3FA8853
:102A8000D20892B202FB03F37B6118E0224B1B8851
:102A90001A46FB8803FB02F30733002B00DA0733E7
:102AA000DB101A461D4B1B8803FB02F37B6106E01B
:102AB0001B4B1C4A4FF439711B4815F001F9BB68D8
:102AC0003B61FB683A699A637B79002B07D03A69CE
:102AD0007B6913443B61FB683A69DA6302E0FB6897
:102AE0000022DA6397F82030002B07D03A697B691F
:102AF00013443B61FB683A691A6402E0FB680022F8
:102B00001A640A4A7B791370094A97F820301370C7
:102B100000BF1837BD4680BD5CA200205EA2002029
:102B20006C8C01082C8E01088C8C010866A2002098
:102B300067A2002080B584B000AFF860B9607A6009
:102B40003B60BB68002B06D1114B124A4FF4437116
:102B5000114815F0B5F8FB68BA689A63FB687A68A3
:102B6000DA63FB683A681A647B68002B14BF0123A0
:102B70000023DAB2094B1A703B68002B14BF012303
:102B80000023DAB2064B1A7000BF1037BD4680BD75
:102B9000F88C0108DC8D01088C8C010866A20020ED
:102BA00067A2002080B582B000AF78600B467B80C2
:102BB0007B685B6B002B04D07B685B6B7A8810466C
:102BC000984700BF0837BD4680BD000080B483B081
:102BD00000AF78607B6893F864207B6893F83030AE
:102BE0009A4217D01A4B1B78002B2AD1194B1A88FE
:102BF000194B1A80194B1A88194B1A80164B1A88D0
:102C0000164B1A80164B1A88124B1A80104B012251
:102C10001A7016E00E4B1B78002B12D00F4B1A883F
:102C20000D4B1A800B4B1A880D4B1A800C4B1A88CF
:102C30000A4B1A80084B1A88064B1A80044B002254
:102C40001A7000BF0C37BD465DF8047B704700BFAB
:102C500060A200205CA2002062A200205EA20020F0
:102C600064A2002080B483B000AF0346FB7197F9E3
:102C70000730002B0DDB97F90730DBB203F01F02A2
:102C8000074997F907305B09012000FA02F241F881
:102C9000232000BF0C37BD465DF8047B704700BFA2
:102CA00000E100E080B483B000AF0346FB7197F908
:102CB0000730002B12DB97F90730DBB203F01F025D
:102CC000094997F907305B09012000FA02F2203325
:102CD00041F82320BFF34F8FBFF36F8F00BF0C3736
:102CE000BD465DF8047B704700E100E080B483B02E
:102CF00000AF03463960FB7197F90730002B0CDBFE
:102D00003B68DBB20E4A97F9071008461B01D9B29F
:102D100013180A4683F800230CE03B68DAB209492D
:102D200097F90730DBB203F00F03043B1201D2B274
:102D30000B441A7600BF0C37BD465DF8047B704724
:102D400000E100E000ED00E080B483B000AF786007
:102D5000034B9B6A18460C37BD465DF8047B7047F1
:102D60008468014080B483B000AF78603960064A5F
:102D70003B689362054B01225A6200BF0C37BD4687
:102D80005DF8047B704700BF846801400068014023
:102D900080B485B000AF78600D4B5B6CFB810C4B51
:102DA000DB689BB2C3F30A039BB20133BB81FA8990
:102DB000BB899A4201D2002303E0FA89BB89D31A66
:102DC0009BB218461437BD465DF8047B704700BFC0
:102DD0000068014080B582B000AF786009215A20B8
:102DE000FFF784FF09215820FFF780FF00BF083755
:102DF000BD4680BD80B582B000AF7860124BDB6805
:102E00009BB2C3F30A039BB2013B9AB20F4B1A80E9
:102E10000D4B1B699BB2C3F30A039BB2013B9AB2F1
:102E20000B4B1A80094B1B8819460A4809F0DCFB3A
:102E3000084B1B685A6B074B1B6842F003025A632E
:102E400000BF0837BD4680BD00680140B20C0020BD
:102E5000B40C00207C0B002080B582B000AF7860FD
:102E60005820FFF71FFF5A20FFF71CFF5920FFF7DC
:102E700019FF00BF0837BD4680BD80B582B000AFE6
:102E800078605820FFF7EEFE5A20FFF7EBFE59203E
:102E9000FFF7E8FE00BF0837BD4680BD80B582B0B1
:102EA00000AF78601A4B1B6C1A4A128893420CBF11
:102EB00001230023DBB2002B17D0174B1B881946C8
:102EC000786809F091FBFDF729FE03461846FFF7E5
:102ED0004CFD0DF077FFFDF721FE034618460FF07D
:102EE000DDFA0020FEF708FD0EE00A4B1B881946AC
:102EF000786809F079FB0020FEF709FDFDF70EFE6A
:102F000003461846FFF712FD00BF0837BD4680BDD7
:102F100000680140B20C0020B40C002080B596B0CF
:102F200000AF786000233B650023BB60424B1B6C05
:102F3000414A43F0010313643F4B1B6C03F0010350
:102F4000BB60BB6807F1140324220021184614F06B
:102F500032FF07F10C0300221A605A60374B4FF022
:102F600080421A60354B00225A60344B00229A602E
:102F7000324B0022DA60314B00221A612F4B0022C3
:102F80009A6101237B610023BB610123FB61002364
:102F90003B6200237B620023BB620123FB620023B0
:102FA0003B6300237B6307F11403194623480AF0AF
:102FB0009FFC0346002B14BF01230023DBB2002B30
:102FC00001D000F0ABFE0023FB6000233B6107F162
:102FD0000C03194619480AF0EDFE0346002B14BFF6
:102FE00001230023DBB2002B01D000F097FE07F194
:102FF000380207F13C03114618460AF01FF9BB6C72
:103000003B653B6D002B03D10AF0F0F8786504E0D6
:103010000AF0ECF803465B007B650AF0DBF8024639
:103020007B6DB2FBF3F27B68DA6004480AF018FCAF
:1030300000BF5837BD4680BD00380240B80C0020A4
:1030400080B485B000AFF860B9607A603B607A68A0
:10305000BB68D21A3B685B081A443B68B2FBF3F3C7
:1030600018461437BD465DF8047B704780B483B0C2
:1030700000AF7860064B1B685B6A7A68D26802FB17
:1030800003F318460C37BD465DF8047B704700BF5C
:10309000B80C002080B582B000AF78600B46FB70A2
:1030A000FB78002B0FD07B681B6810331B68786897
:1030B000984702467B689B68D21A7B685B681A4413
:1030C0007B685A6008E07B681B6810331B6878686F
:1030D000984702467B689A6000BF0837BD4680BDAE
:1030E00080B582B000AF786000F048F800BF0837C4
:1030F000BD4680BD80B586B000AFF860B9607A602B
:103100004FF480410D4807F0C6FF07F11003184641
:1031100000F064F83B8A002B0BD07B8A1A46BB6810
:103120001A60BB8A1A467B681A6000233B8201231F
:1031300000E0002318461837BD4680BD0018024045
:1031400080B586B004AF03463960FB711346BB718E
:10315000FB7999B2BB799BB20222029201933B6840
:10316000009301230A467021034808F0FBF8034648
:1031700018460837BD4680BDB40F002080B582B028
:1031800000AF00220421134807F06CFFC82006F0AE
:103190002FFA012204210F4807F064FFC82006F02F
:1031A00027FA0023FB71FB1D01221946A720FFF718
:1031B000C7FF0346002B09D04FF48041064807F0B3
:1031C0006AFF40F2DC5006F013FAF5E700BF08375B
:1031D000BD4680BD001C02400018024080B58AB088
:1031E00004AF786000233B6103233B740323FB752A
:1031F000FB7D9AB2642302930423019307F1100329
:10320000009301237021244808F0A6F90346FB73BC
:10321000FB7BDBB2002B04D01F4808F0C3FB034646
:10322000BB603B7C1B021BB203F470631AB27B7C55
:103230001BB213431BB29AB27B685A80BB7C1B0241
:103240001BB203F470631AB2FB7C1BB213431BB2B4
:103250009BB2C3F516739AB27B689A803B7C5BB2D3
:10326000002B08DA7B6801221A804FF400410B48DA
:1032700007F011FF0CE03B7C03F04003002B07D06C
:103280004FF40071064807F006FF7B6800221A80A1
:1032900000BF1837BD4680BDB40F002000000240BB
:1032A000001C024080B485B000AFF860B9607A605D
:1032B000FB68074A1A60BB68064A1A607B6880226E
:1032C0001A6000BF1437BD465DF8047B704700BF2D
:1032D000F80C0020500D0020B0B58EB000AF06F005
:1032E00045F900F061F800F095FB00F047F900F0B7
:1032F00063FB00F07DF900F043FA00F09FFA00F064
:10330000FBFA00F0C5F900F0FFF900F003F900F056
:10331000E9F84FF480411E4807F0BDFE4FF47A7083
:1033200006F066F94FF48041194807F0B4FE4FF4F7
:103330000041184807F0AFFEFDF706FFFDF776FFE6
:10334000154B07F11C041D460FCD0FC495E807006F
:1033500084E8070007F11C03002118460BF03AF936
:1033600002460E4B1A600E4B3C461D460FCD0FC455
:1033700095E8070084E807003B46002118460BF05B
:1033800029F90246074B1A600BF01DF9FEE700BF52
:103390000018024000000240FC8E0108B811002015
:1033A000248F0108BC11002080B5A0B000AF07F148
:1033B000500330220021184614F0FDFC07F13C03B5
:1033C00000221A605A609A60DA601A6107F10C03F1
:1033D00030220021184614F0EEFC0023BB603F4B66
:1033E0001B6C3E4A43F0805313643C4B1B6C03F050
:1033F0008053BB60BB6800237B60394B1B68384A35
:1034000043F440431360364B1B6803F440437B6036
:103410007B6802233B650123FB6510233B66022387
:10342000BB660023FB6608233B67B4237B6702234C
:10343000BB670623FB6707F15003184609F0F4FA4F
:103440000346002B14BF01230023DBB2002B01D065
:1034500000F064FC09F098FA0346002B14BF012326
:103460000023DBB2002B01D000F058FC0F23FB63DC
:1034700002233B6400237B644FF4A053BB644FF4EE
:103480008053FB6407F13C030521184609F00EFD4B
:103490000346002B14BF01230023DBB2002B01D015
:1034A00000F03CFC0823FB603223FB6102237B62BB
:1034B00000233B6307F10C03184609F0F1FE0346B5
:1034C000002B14BF01230023DBB2002B01D000F03E
:1034D00025FC00BF8037BD4680BD00BF00380240DC
:1034E0000070004080B500AF084B094A1A600748D9
:1034F00006F0B2F90346002B14BF01230023DBB210
:10350000002B01D000F00AFC00BF80BD500F00204E
:103510000030024080B582B000AF3B4600221A6006
:103520005A60144B144A1A60124806F0B4F9034664
:10353000002B14BF01230023DBB2002B01D000F0CD
:10354000EDFB00233B6000237B603B4600221946D5
:10355000084806F016FA0346002B14BF0123002387
:10356000DBB2002B01D000F0D9FB00BF0837BD460D
:1035700080BD00BF580F00200074004080B582B0AD
:1035800000AF194B194A1A60174B01225A60164BAB
:1035900001221A8200233B7080237B70E123BB70E1
:1035A0000023FB7000233B7100237B710E4A3B46D6
:1035B00053610D4B00229A610B4B0022DA610A4BDA
:1035C0004FF400021A62084806F02AFE0346002B58
:1035D00014BF01230023DBB2002B01D000F09EFBBF
:1035E00000BF0837BD4680BD6C0F00200080024040
:1035F00080B500AF234B244A1A60224B234A5A60FD
:10360000204B00229A601F4B0022DA601D4B4FF4C2
:1036100080421A611B4B00225A611A4B00229A61A8
:10362000184B0022DA61174B00221A62154807F086
:1036300071FD0346002B14BF01230023DBB2002BD6
:1036400001D000F06BFB00210E4808F0EEFC0346B1
:10365000002B14BF01230023DBB2002B01D000F0AC
:103660005DFB0021074808F01CFD0346002B14BF3A
:1036700001230023DBB2002B01D000F04FFB00BF81
:1036800080BD00BFB40F002000580040A08601009C
:1036900080B500AF1A4B1B4A1A60194B4FF4827267
:1036A0005A60174B00229A60154B0022DA60144BC7
:1036B00000221A61124B00225A61114B4FF4007222
:1036C0009A610F4B0022DA610D4B00221A620C4BFB
:1036D00000225A620A4B00229A62094B0A22DA62DD
:1036E00007480AF024F80346002B14BF01230023E7
:1036F000DBB2002B01D000F011FB00BF80BD00BF8A
:10370000081000200038004080B500AF1A4B1B4A5B
:103710001A60194B4FF482725A60174B00229A605C
:10372000154B0022DA60144B00221A61124B002262
:103730005A61114B4FF400729A610F4B0022DA610B
:103740000D4B00221A620C4B00225A620A4B0022D7
:103750009A62094B0A22DA62074809F0E8FF034639
:10376000002B14BF01230023DBB2002B01D000F09B
:10377000D5FA00BF80BD00BF6010002000340140BA
:1037800080B58CB000AF07F10C032422002118464D
:1037900014F011FB3B1D00221A605A60254B264A8B
:1037A0001A60244B00225A60224B00229A60214B5F
:1037B0000022DA601F4B00221A611E4B00229A6120
:1037C0000123FB6000233B6101237B610023BB617C
:1037D0000023FB6100233B6201237B620023BB6269
:1037E0000023FB6207F10C03194612480AF080F827
:1037F0000346002B14BF01230023DBB2002B01D0B2
:1038000000F08CFA00237B600023BB603B1D19464F
:1038100008480AF0CFFA0346002B14BF0123002307
:10382000DBB2002B01D000F079FA00BF3037BD4683
:1038300080BD00BFB81000200004004080B58CB0EF
:1038400000AF07F10C0324220021184614F0B3FA4C
:103850003B1D00221A605A60254B264A1A60244BF1
:1038600000225A60224B00229A60214B0022DA602B
:103870001F4B00221A611E4B00229A610123FB603C
:1038800000233B6101237B610023BB610023FB61BB
:1038900000233B6201237B620023BB620023FB62A7
:1038A00007F10C03194612480AF022F80346002BD0
:1038B00014BF01230023DBB2002B01D000F02EFA4D
:1038C00000237B600023BB603B1D194608480AF0BB
:1038D00071FA0346002B14BF01230023DBB2002B37
:1038E00001D000F01BFA00BF3037BD4680BD00BFDD
:1038F000F81000200008004080B58CB000AF07F140
:103900000C0324220021184614F055FA3B1D002216
:103910001A605A60264B274A1A60254B00225A60CB
:10392000234B00229A60224B0022DA60204B0022B7
:103930001A611F4B00225A611D4B00229A6101231C
:10394000FB6000233B6101237B610023BB610023FB
:10395000FB6100233B6201237B620023BB620023E7
:10396000FB6207F10C031946114809F0C1FF034639
:10397000002B14BF01230023DBB2002B01D000F089
:10398000CDF900237B600023BB603B1D194608482E
:103990000AF010FA0346002B14BF01230023DBB208
:1039A000002B01D000F0BAF900BF3037BD4680BD12
:1039B000381100200004014080B500AF134B144AB9
:1039C0001A60124B4FF4E1325A60104B00229A6099
:1039D0000E4B0022DA600D4B00221A610B4B0C22B9
:1039E0005A610A4B00229A61084B0022DA610748AB
:1039F0000AF039FA0346002B14BF01230023DBB27F
:103A0000002B01D000F08AF900BF80BD78110020A2
:103A10000010014080B58EB000AF07F124030022F2
:103A20001A605A609A60DA601A6100233B629E4B0A
:103A30001B6B9D4A43F0100313639B4B1B6B03F0FE
:103A400010033B623B6A0023FB61974B1B6B964A5A
:103A500043F480731363944B1B6B03F48073FB611B
:103A6000FB690023BB61904B1B6B8F4A43F0200323
:103A700013638D4B1B6B03F02003BB61BB690023F9
:103A80007B61894B1B6B884A43F004031363864BAD
:103A90001B6B03F004037B617B6900233B61824B5A
:103AA0001B6B814A43F0010313637F4B1B6B03F0D5
:103AB00001033B613B690023FB607B4B1B6B7A4A34
:103AC00043F080031363784B1B6B03F08003FB60B0
:103AD000FB680023BB60744B1B6B734A43F002030B
:103AE0001363714B1B6B03F00203BB60BB680023C5
:103AF0007B606D4B1B6B6C4A43F0400313636A4B56
:103B00001B6B03F040037B607B6800233B60664BCC
:103B10001B6B654A43F008031363634B1B6B03F095
:103B200008033B603B6800221821604807F09AFABE
:103B300000224FF480715E4807F094FA00224FF49F
:103B400001715C4807F08EFA002248F240015A48A1
:103B500007F088FA00224FF48041584807F082FAB3
:103B600018237B620123BB620023FB6200233B63BB
:103B700007F1240319464D4806F0C0FF4FF4807347
:103B80007B620123BB620023FB6200233B6307F1DE
:103B900024031946464806F0B1FF4FF400737B62D8
:103BA000474BBB620023FB6207F1240319464048E0
:103BB00006F0A4FF4FF401737B620123BB62002374
:103BC000FB6200233B6307F124031946394806F0E2
:103BD00095FF08237B623A4BBB620023FB6207F12F
:103BE00024031946334806F089FF48F240037B62FC
:103BF0000123BB620023FB6200233B6307F1240324
:103C000019462D4806F07AFF4FF480537B62022359
:103C1000BB620023FB6200233B6302237B6307F14B
:103C200024031946234806F069FF4FF480437B6262
:103C30000123BB620023FB6200233B6307F12403E3
:103C400019461E4806F05AFF20237B621C4BBB62BC
:103C50000023FB6207F1240319461A4806F04EFFC1
:103C600010237B62164BBB620023FB6207F1240327
:103C70001946154806F042FF80237B62134BBB6256
:103C80000023FB6207F1240319460F4806F036FFB4
:103C900000220521092005F0A7FD092005F0C0FD3F
:103CA00000BF3837BD4680BD0038024000100240DA
:103CB00000140240001C02400000024000180240B4
:103CC00000001110000402400020024000002110FA
:103CD00080B582B000AF7860FDF7AEFA01200AF03F
:103CE000C5FCFBE780B582B000AF78604FF4C870C8
:103CF0000AF0BCFCFAE7000080B582B000AF786043
:103D00007B681B68044A934201D105F051FC00BF57
:103D10000837BD4680BD00BF0010004080B400AF32
:103D200000BFBD465DF8047B7047000080B582B0DF
:103D300000AF00237B60124B5B6C114A43F480435D
:103D400053640F4B5B6C03F480437B607B68002300
:103D50003B600B4B1B6C0A4A43F080531364084BC7
:103D60001B6C03F080533B603B6800220F216FF017
:103D7000010005F039FD00BF0837BD4680BD00BF1A
:103D80000038024080B485B000AF78607B681B6863
:103D90000B4A93420DD10023FB600A4B1B6B094A6F
:103DA00043F480531363074B1B6B03F48053FB6096
:103DB000FB6800BF1437BD465DF8047B704700BF49
:103DC000003002400038024080B58AB000AF786011
:103DD00007F1140300221A605A609A60DA601A61CF
:103DE0007B681B681B4A93422FD100233B611A4B0F
:103DF0001B6C194A43F000531364174B1B6C03F000
:103E000000533B613B690023FB60134B1B6B124A61
:103E100043F001031363104B1B6B03F00103FB60C2
:103E2000FB6810237B610323BB610023FB6107F167
:103E300014031946094806F061FE002200213620CD
:103E400005F0D2FC362005F0EBFC00BF2837BD465C
:103E500080BD00BF007400400038024000000240F6
:103E600080B58EB000AF786007F1240300221A609D
:103E70005A609A60DA601A617B681B68464A93420E
:103E800040F0858000233B62444B1B6B434A43F068
:103E900000731363414B1B6B03F000733B623B6A7F
:103EA0000023FB613D4B1B6B3C4A43F08063136373
:103EB0003A4B1B6B03F08063FB61FB690023BB6122
:103EC000364B1B6B354A43F000631363334B1B6B5C
:103ED00003F00063BB61BB6900237B612F4B1B6B4D
:103EE0002E4A43F0040313632C4B1B6B03F00403B3
:103EF0007B617B6900233B61284B1B6B274A43F0A6
:103F000001031363254B1B6B03F001033B613B690A
:103F10000023FB60214B1B6B204A43F00203136319
:103F20001E4B1B6B03F00203FB60FB6832237B62BA
:103F30000223BB620023FB6203233B630B237B63EF
:103F400007F124031946164806F0D8FD86237B6244
:103F50000223BB620023FB6203233B630B237B63CF
:103F600007F1240319460F4806F0C8FD4FF46053CB
:103F70007B620223BB620023FB6203233B630B23B0
:103F80007B6307F124031946074806F0B7FD00BF1D
:103F90003837BD4680BD00BF008002400038024077
:103FA00000080240000002400004024080B58AB0D0
:103FB00000AF786007F1140300221A605A609A601B
:103FC000DA601A617B681B68194A93422BD100237F
:103FD0003B61184B1B6B174A43F080031363154B6F
:103FE0001B6B03F080033B613B6930237B61122331
:103FF000BB610023FB6103233B6204237B6207F167
:10400000140319460C4806F079FD0023FB60094BA8
:104010001B6C084A43F480031364064B1B6C03F4C7
:104020008003FB60FB6800BF2837BD4680BD00BF32
:104030000058004000380240001C024080B58CB09F
:1040400000AF786007F11C0300221A605A609A6082
:10405000DA601A617B681B68414A93424AD10023A7
:10406000BB61404B1B6C3F4A43F4804313643D4BA0
:104070001B6C03F48043BB61BB6900237B61394B3C
:104080001B6B384A43F004031363364B1B6B03F07E
:1040900004037B617B6900233B61324B1B6B314A1C
:1040A00043F0080313632F4B1B6B03F008033B61C2
:1040B0003B690C23FB6102233B6200237B620323E9
:1040C000BB620523FB6207F11C031946264806F074
:1040D00015FD0823FB6102233B6200237B6203235F
:1040E000BB620523FB6207F11C0319461F4806F05B
:1040F00005FD30E07B681B681D4A93422BD10023ED
:10410000FB60184B5B6C174A43F400535364154B28
:104110005B6C03F40053FB60FB680023BB60114B36
:104120001B6B104A43F0100313630E4B1B6B03F021
:104130001003BB60BB686423FB6102233B62002366
:104140007B620323BB620523FB6207F11C03194654
:10415000084806F0D3FC00BF3037BD4680BD00BF25
:10416000003800400038024000080240000C0240C5
:10417000003401400010024080B590B000AF78607C
:1041800007F12C0300221A605A609A60DA601A6103
:104190007B681B68B3F1804F4AD10023BB62714B2F
:1041A0001B6C704A43F0010313646E4B1B6C03F0ED
:1041B0000103BB62BB6A00237B626A4B1B6B694ACB
:1041C00043F001031363674B1B6B03F001037B6236
:1041D0007B6A00233B62634B1B6B624A43F0020322
:1041E0001363604B1B6B03F002033B623B6A0123CA
:1041F000FB6202233B6300237B630023BB63012339
:10420000FB6307F12C031946574806F077FC082397
:10421000FB6202233B6300237B630023BB63012318
:10422000FB6307F12C031946504806F067FC95E044
:104230007B681B684E4A93422CD10023FB61494B9B
:104240001B6C484A43F002031364464B1B6C03F09B
:104250000203FB61FB690023BB61424B1B6B414ABC
:1042600043F0040313633F4B1B6B03F00403BB6178
:10427000BB69C023FB6202233B6300237B630023F3
:10428000BB630223FB6307F12C031946394806F090
:1042900035FC63E07B681B68374A93422DD10023CD
:1042A0007B61304B1B6C2F4A43F0040313642D4B8E
:1042B0001B6C03F004037B617B6900233B61294B8A
:1042C0001B6B284A43F008031363264B1B6B03F058
:1042D00008033B613B694FF44053FB6202233B639D
:1042E00000237B630023BB630223FB6307F12C03E2
:1042F0001946224806F002FC30E07B681B68204A21
:1043000093422BD10023FB60164B5B6C154A43F0A4
:1043100002035364134B5B6C03F00203FB60FB6806
:104320000023BB600F4B1B6B0E4A43F48073136377
:104330000C4B1B6B03F48073BB60BB686023FB6298
:1043400002233B6300237B630023BB630323FB63E4
:1043500007F12C0319460B4806F0D0FB00BF40378D
:10436000BD4680BD0038024000000240000402400B
:10437000000400400008024000080040000C024019
:10438000000401400020024080B58AB000AF786090
:1043900007F1140300221A605A609A60DA601A6109
:1043A0007B681B68284A93424AD100233B61274B14
:1043B0005B6C264A43F010035364244B5B6C03F0A0
:1043C00010033B613B690023FB60204B1B6B1F4AC2
:1043D00043F0010313631D4B1B6B03F00103FB60F0
:1043E000FB680023BB60194B1B6B184A43F00203A8
:1043F0001363164B1B6B03F00203BB60BB684FF4E7
:1044000080637B610223BB610123FB6103233B6269
:1044100007237B6207F1140319460D4806F06EFB73
:1044200040237B610223BB610123FB6103233B62C9
:1044300007237B6207F114031946064806F05EFB6A
:1044400000BF2837BD4680BD001001400038024043
:10445000000002400004024080B58CB000AF7860DC
:104460000023FB620023BB6200227968362005F03E
:10447000BBF9362005F0D4F90023FB601F4B1B6C01
:104480001E4A43F0100313641C4B1B6C03F0100313
:10449000FB60FB6807F1100207F114031146184690
:1044A00008F0CCFE08F0A2FE03465B00FB62FB6A4C
:1044B000134AA2FB03239B0C013BBB62114B124A24
:1044C0001A60104B40F2E732DA600E4ABB6A536062
:1044D0000C4B00221A610B4B00229A60094809F02C
:1044E0008AF90346002B04D1064809F0DDF903469A
:1044F00000E0012318463037BD4680BD0038024039
:1045000083DE1B430CA300200010004080B400AFEA
:1045100000BFBD465DF8047B704780B400AFFEE786
:1045200080B400AFFEE780B400AFFEE780B400AF18
:10453000FEE780B400AF00BFBD465DF8047B704766
:1045400080B500AF082006F0C1FD00BF80BD0000AF
:1045500080B500AF024809F07BF800BF80BD00BF06
:10456000640C002080B500AF034805F0B6F903489D
:1045700009F050FA00BF80BD580F00200CA30020A6
:1045800080B500AF024807F0B3FE00BF80BD00BF9A
:104590007C0B002080B500AF024805F002FC00BF94
:1045A00080BD00BF240C002080B582B000AF7860D1
:1045B0000B467B807B88042B20D801A252F823F085
:1045C000D5450008DD450008E5450008ED45000833
:1045D000F545000800F0A6F8034610E000F03AF9AF
:1045E00003460CE000F052F8034608E000F0E6F85D
:1045F000034604E000F07AF9034600E00023184681
:104600000837BD4680BD00BF80B483B000AF78607E
:10461000044A7B681A607B6818460C37BD465DF813
:10462000047B7047F8BF010880B582B000AF7860A6
:104630007868FFF7E9FF1021786813F035FB7B6895
:1046400018460837BD4680BD80B582B000AF78609F
:10465000054A7B681A607B681846FFF7D5FF7B68C0
:1046600018460837BD4680BDACC0010880B582B091
:1046700000AF78607868FFF7E7FF1821786813F0DB
:1046800013FB7B6818460837BD4680BD80B588B0EF
:1046900008AF1D4B1B78BFF35B8FDBB203F0010348
:1046A000002B0CBF01230023DBB2002B28D01648BF
:1046B00013F0D2FA0346002B14BF01230023DBB210
:1046C000002B1DD000230793002306930F4B059367
:1046D0000F4B0493002303930023029304230193BD
:1046E000002300930A2300220A490B4810F00EFD14
:1046F000054813F0BDFA094A0949074813F0CFFAF3
:10470000054B1846BD4680BDE01100207CF701082E
:10471000A4C8010894F70108C0110020000000207F
:104720008549000880B588B008AF1D4B1B78BFF3E2
:104730005B8FDBB203F00103002B0CBF01230023CE
:10474000DBB2002B28D0164813F086FA0346002B64
:1047500014BF01230023DBB2002B1DD000230793DD
:10476000002306930F4B05930F4B049300230393F1
:1047700000230293042301930423009314230D22A6
:104780000A490B4810F0C2FC054813F071FA094AB7
:104790000949074813F083FA054B1846BD4680BD0A
:1047A0000412002080F70108A8C80108A4F7010836
:1047B000E4110020000000208549000880B588B081
:1047C00008AF1D4B1B78BFF35B8FDBB203F0010317
:1047D000002B0CBF01230023DBB2002B28D016488E
:1047E00013F03AFA0346002B14BF01230023DBB277
:1047F000002B1DD0002307933F2306930F4B0593F7
:104800000F4B04930023039300230293042301938B
:1048100000230093182301220A490B4810F076FC6C
:10482000054813F025FA094A0949074813F037FAF1
:10483000054B1846BD4680BD2812002088F70108A8
:1048400054CC01085CF80108081200200000002088
:104850008549000880B588B008AF1D4B1B78BFF3B1
:104860005B8FDBB203F00103002B0CBF012300239D
:10487000DBB2002B28D0164813F0EEF90346002BCC
:1048800014BF01230023DBB2002B1DD000230793AC
:10489000002306930F4B05930F4B049300230393C0
:1048A00000230293042301930123009328230D2264
:1048B0000A490B4810F02AFC054813F0D9F9094AB7
:1048C0000949074813F0EBF9054B1846BD4680BD72
:1048D0004C1200208CF70108C0CC01086CF80108CC
:1048E0002C120020000000208549000880B588B007
:1048F00008AF1D4B1B78BFF35B8FDBB203F00103E6
:10490000002B0CBF01230023DBB2002B28D016485C
:1049100013F0A2F90346002B14BF01230023DBB2DE
:10492000002B1DD0002307933F2306930F4B0593C5
:104930000F4B04930023039300230293042301935A
:104940000123009337230B220A490B4810F0DEFBAA
:10495000054813F08DF9094A0949074813F09FF9F2
:10496000054B1846BD4680BD7012002090F7010827
:10497000F8DD010824F90108501200200000002091
:104980008549000880B582B000AF7860054A7B6831
:104990001A607B681846FFF757FE7B681846083791
:1049A000BD4680BD68C1010880B582B000AF7860A7
:1049B0007868FFF7E7FF2021786813F075F97B68C6
:1049C00018460837BD4680BD80B483B000AF78601C
:1049D00039603B6818460C37BD465DF8047B70476C
:1049E00080B483B000AF7860074A7B681A607B6848
:1049F00000225A607B6800221A727B6818460C37C6
:104A0000BD465DF8047B7047E4A3010880B483B021
:104A100000AF7860044A7B681A607B6818460C37E0
:104A2000BD465DF8047B7047E4A3010880B582B001
:104A300000AF78607868FFF7E9FF0C21786813F021
:104A400033F97B6818460837BD4680BD80B483B013
:104A500000AF786000BF0C37BD465DF8047B70473F
:104A600080B483B000AF786000BF0C37BD465DF8FE
:104A7000047B704780B483B000AF786000BF0C3710
:104A8000BD465DF8047B704780B483B000AF7860AA
:104A900039607B683A685A6000BF0C37BD465DF8E4
:104AA000047B704780B582B000AF78607B681846A1
:104AB0000FF09EFA094A7B681A607B680022C3F8EF
:104AC00030217B680022C3F834217B68044A1360DC
:104AD0007B6818460837BD4680BD00BF8CA2010820
:104AE000C4A2002080B584B000AFF860B9607A60DD
:104AF0000FF05EFA034618460FF060FA7B681B68F9
:104B0000002B08D07B681A687B681B681B680C3315
:104B10001B68104698477B681B68002B07D07B6892
:104B20001A687B681B681B681B6810469847FB68FF
:104B30001B68002B08D0FB681A68FB681B681B68A1
:104B400014331B6810469847BB681B68002B08D0BD
:104B5000BB681A68BB681B681B6804331B68104677
:104B60009847FB681B68002B07D0FB681A68FB6836
:104B70001B681B681B6810469847BB681B68002BA6
:104B800008D0BB681A68BB681B681B6808331B68C1
:104B90001046984700BF1037BD4680BD80B584B031
:104BA00000AFF860B9607A60FB681B680C331B6863
:104BB000F8689847BB681B681B68B86898477968AD
:104BC000F86810F081FA7B681B6810331B687868FE
:104BD00098470FF0EDF90246136828331B6810461A
:104BE000984700BF1037BD4680BD80B483B000AF8A
:104BF000786039607B683A681A6000BF0C37BD4640
:104C00005DF8047B7047000080B582B000AF78602B
:104C10007B681846FFF7E4FE034A7B681A607B68EE
:104C200018460837BD4680BDC4A3010880B582B0D0
:104C300000AF7860054A7B681A607B681846FFF70A
:104C4000E5FE7B6818460837BD4680BDC4A3010851
:104C500080B582B000AF78607868FFF7E7FF0C217D
:104C6000786813F021F87B6818460837BD4680BD88
:104C700080B483B000AF78607B6801221A7200BFF5
:104C80000C37BD465DF8047B704780B483B000AF3D
:104C9000786039607B683A685A6000BF0C37BD465F
:104CA0005DF8047B7047000080B584B000AFF86009
:104CB000B9607A60FB681846FFF7F4FE0C4AFB689F
:104CC0001A60FB6803F59C73184600F0D7F8FB6880
:104CD0007A68C3F84821FB68BA68C3F84C21002001
:104CE00003F090FFFB6818461037BD4680BD00BF3B
:104CF00038A2010880B483B000AF786039607B6867
:104D000018460C37BD465DF8047B704780B582B00D
:104D100000AF786039607B683A6811461846FFF743
:104D2000E9FF3B685A687B685A607B683A680833D9
:104D3000083292E8030083E803007B6818460837CE
:104D4000BD4680BD90B589B000AF78607B6803F543
:104D50009C74104BBB610023FB6107F1080007F155
:104D600018030CCB796800F0A5F807F10803194681
:104D70002046FFF7CBFF07F108031846FCF74EFC6F
:104D80007B6803F59C727B68C3F8342100BF24372D
:104D9000BD4690BD994D000880B584B002AF7860E3
:104DA0007B6803F598717B68D3F848311A467B68B5
:104DB000D3F84C310093044B044800F09BF800BF3B
:104DC0000837BD4680BD00BFC0A20020BCA20020A5
:104DD00090B589B000AF78607B6803F59C74104B88
:104DE000BB610023FB6107F1080007F118030CCB3E
:104DF000796800F05FF807F1080319462046FFF7CD
:104E000085FF07F108031846FCF708FC7B6803F5EB
:104E10009C727B68C3F8342100BF2437BD4690BD27
:104E2000254E000880B584B002AF78607B6803F53A
:104E300098717B68D3F848311A467B68D3F84C31B7
:104E40000093044B044800F011F900BF0837BD4639
:104E500080BD00BFC0A20020BCA2002080B483B0EF
:104E600000AF7860044A7B681A607B6818460C378C
:104E7000BD465DF8047B7047C8A2010880B582B0CA
:104E800000AF78607B681846FFF7E8FF084A7B6848
:104E90001A607B6800225A607B6800229A607B68F7
:104EA0000022DA607B6818460837BD4680BD00BF27
:104EB00074A2010880B584B000AFF860B9603946CB
:104EC00081E80C00FB681846FFF7C8FF084AFB683A
:104ED0001A60FB68BA685A60FB6808333A4692E881
:104EE000030083E80300FB6818461037BD4680BD09
:104EF00074A2010890B589B000AFF860B9607A601B
:104F00003B607B689A687B689B681B6820331B68E2
:104F100010469847024640F65B439A4205D84E4BEE
:104F20004E4AC2214E4812F0CBFE00BF7B685A6841
:104F30007B685B681B6820331B68104698470346F4
:104F40000F2B05D8474B454AC321454812F0B8FE00
:104F500000BF7B68DA687B68DB681B6820331B68EE
:104F60001046984703460B2B05D83F4B3B4AC421BC
:104F70003B4812F0A5FE00BF3A68B968F868FFF731
:104F8000B1FD7B68DB680021184600F029F9034673
:104F900019460C20FFF718FD0446002C04D02046CB
:104FA000FFF732FE234600E02346FB617B689B68E7
:104FB0000021184600F027F90346194640F65C40E8
:104FC000FFF702FD0446002C04D0204604F0B8F997
:104FD000234600E02346BB617B685B6800211846DE
:104FE00000F024F9034619461020FFF7EDFC0446B3
:104FF000002C05D0B969204604F04AF9234600E0A8
:1050000023467B613B68FA691A60BB687A691A605B
:10501000FB68BA691A607B69002B02D07B69043394
:1050200000E000231946386BFFF7DFFD7B6904338E
:10503000396B1846FFF729FEBB697969184600F0FD
:1050400008F9FA697969B869FFF7A8FD7B6918461C
:105050002437BD4690BD00BF7C8F0108C091010878
:105060000C900108789001081C91010890B589B056
:1050700000AFF860B9607A603B607B689A687B68D3
:105080009B681B6820331B68104698470346B3F59E
:10509000E67F05D24D4B4E4AC2214E4812F010FE1B
:1050A00000BF7B685A687B685B681B6820331B689D
:1050B0001046984703460F2B05D8474B444AC32157
:1050C000444812F0FDFD00BF7B68DA687B68DB684E
:1050D0001B6820331B681046984703460B2B05D8E6
:1050E0003E4B3B4AC4213B4812F0EAFD00BF3A6800
:1050F000B968F868FFF7F6FC7B68DB6800211846A2
:1051000000F06EF8034619460C20FFF75DFC0446DC
:10511000002C04D02046FFF777FD234600E023460D
:10512000FB617B689B680021184600F0A0F80346ED
:1051300019464FF4E670FFF747FC0446002C04D0F4
:10514000204604F0B3F9234600E02346BB617B68A8
:105150005B680021184600F09DF8034619461020B0
:10516000FFF732FC0446002C05D0B969204604F054
:1051700045F9234600E023467B613B68FA691A60E3
:10518000BB687A691A60FB68BA691A607B69002B90
:1051900002D07B69043300E000231946386BFFF727
:1051A00024FD7B690433396B1846FFF76EFDBB693C
:1051B0007969184600F081F8FA697969B869FFF7EA
:1051C000EDFC7B6918462437BD4690BD7C8F0108F5
:1051D000C49201080C900108789001081C91010804
:1051E00080B582B000AF78600B467B807B681B681F
:1051F00024331B687A881146786898470346184616
:105200000837BD4680BD80B582B000AF78600B46E0
:105210007B807B681B6824331B687A88114678681A
:105220009847034618460837BD4680BD80B582B012
:1052300000AF78600B467B807B681B6824331B685B
:105240007A88114678689847034618460837BD465D
:1052500080BD80B483B000AF786039607B683A6805
:10526000DA6300BF0C37BD465DF8047B704780B53C
:1052700082B000AF78600B467B807B681B6824336C
:105280001B687A881146786898470346184608379D
:10529000BD4680BD80B582B000AF78600B467B8094
:1052A0007B681B6824331B687A88114678689847A6
:1052B000034618460837BD4680BD80B483B000AFB2
:1052C000786039607B683A68DA6300BF0C37BD46A6
:1052D0005DF8047B704780B483B000AF78603960BC
:1052E0007B683A681A607B6818460C37BD465DF8E3
:1052F000047B704780B483B000AF78607B68002285
:105300001A807B6800225A807B6800229A807B6822
:105310000022DA807B6818460C37BD465DF8047BB6
:10532000704780B485B000AFF860084611461A4651
:1053300003467B810B463B811346FB80FB687A89E1
:105340001A80FB683A895A80FB68FA889A80FB6861
:105350003A8BDA80FB6818461437BD465DF8047B4B
:10536000704780B483B000AF78607B681B791846C3
:105370000C37BD465DF8047B704780B584B000AF44
:10538000F860B9607A60FB70FB6808331846FCF778
:105390005BFEFB68BA681A60FB687A689A60FB6813
:1053A000FA789A73FB683A7E1A71FB6897F82420A2
:1053B0005A71FB6897F820209A71FB68BA8B9A8122
:1053C000FB6897F82820DA73FB6897F82C201A748A
:1053D000FB6818461037BD4680BD000080B584B01C
:1053E00002AF7860134A7B681A607B68181D00233F
:1053F0000093002300220021FFF793FF7B680C330A
:105400001846FFF777FF7B6800225A617B6800220D
:105410009A617B680022DA617B68002283F824208D
:105420007B68012283F825207B6818460837BD4633
:1054300080BD00BF40C0010880B483B000AF786079
:10544000044A7B681A607B6818460C37BD465DF8D5
:10545000047B704740C0010880B582B000AF78601F
:105460007868FFF7E9FF2821786812F01DFC7B6857
:1054700018460837BD4680BD80B584B000AFF860DF
:10548000084611461A4603467B810B463B8113466C
:10549000FB80FB681B6834331B68B7F90820B7F939
:1054A0000A10F8689847FB681B6838331B68B7F91F
:1054B00006201146F8689847FB681B683C331B6858
:1054C000B7F918201146F868984700BF1037BD4655
:1054D00080BD80B483B000AF78607B68B3F90830DA
:1054E00018460C37BD465DF8047B704780B483B026
:1054F00000AF78607B68B3F90A3018460C37BD46B8
:105500005DF8047B704780B483B000AF78600B46D1
:105510007B807B687A889A8000BF0C37BD465DF837
:10552000047B704780B483B000AF78600B467B800B
:105530007B687A88DA8000BF0C37BD465DF8047B53
:10554000704780B582B000AF78600B467B80134611
:105550003B807B681B682C331B68B7F9022011461F
:10556000786898477B681B6830331B68B7F9002060
:1055700011467868984700BF0837BD4680BD80B4A3
:1055800083B000AF78600B467B807B687A881A8195
:1055900000BF0C37BD465DF8047B704780B483B014
:1055A00000AF78600B467B807B687A885A8100BFA9
:1055B0000C37BD465DF8047B704780B483B000AF04
:1055C000786000BF0C37BD465DF8047B704780B43F
:1055D00083B000AF7860396000BF0C37BD465DF81E
:1055E000047B704780B483B000AF7860396000BF3F
:1055F0000C37BD465DF8047B704780B483B000AFC4
:105600007860396000BF0C37BD465DF8047B704799
:1056100080B483B000AF786000BF0C37BD465DF842
:10562000047B704780B483B000AF78600B46FB709A
:105630007B68FA7883F8242000BF0C37BD465DF8FC
:10564000047B704780B483B000AF78607B6893F8C8
:10565000253018460C37BD465DF8047B704780B492
:1056600083B000AF78607B6893F8243018460C371D
:10567000BD465DF8047B704780B582B000AF7860AE
:105680000B467B8013463B807B681B6854331B684A
:1056900079887A68B2F9042092B28A1A92B210B26A
:1056A00039887A68B2F9062092B28A1A92B212B296
:1056B00001467868984700BF0837BD4680BD80B472
:1056C00083B000AF78607B684FF6FF729A817B6889
:1056D0004FF6FF721A847B684FF6FF725A8400BF40
:1056E0000C37BD465DF8047B704780B584B000AFD1
:1056F000F860B9607A60F868FFF7E1FF7B681A68C4
:10570000FB68DA617B68FA681A6000BF1037BD4633
:1057100080BD000080B582B000AF78607B6818461D
:10572000FFF75CFE054A7B681A607B6800229A627C
:105730007B6818460837BD4680BD00BF14AF01081E
:1057400080B582B000AF7860054A7B681A607B68DC
:105750001846FFF771FE7B6818460837BD4680BDC6
:1057600014AF010880B582B000AF78607868FFF7A9
:10577000E7FF2C21786812F097FA7B681846083703
:10578000BD4680BD80B483B000AF78601223184658
:105790000C37BD465DF8047B7047000080B582B0D1
:1057A00000AF78607B681846FFF718FE034A7B68F5
:1057B0001A607B6818460837BD4680BD5CA70108A3
:1057C00080B582B000AF7860054A7B681A607B685C
:1057D0001846FFF731FE7B6818460837BD4680BD86
:1057E0005CA7010880B582B000AF78607868FFF7E9
:1057F000E7FF2821786812F057FA7B6818460837C7
:10580000BD4680BD80B584B000AFF8607B600B46BC
:105810007B8113463B81FB681846FFF713FF034665
:10582000002B08D0FB681846FFF719FF0346002B32
:1058300001D0012300E00023002B02D0FA687B682E
:105840001A6000BF1037BD4680BD80B483B000AF82
:105850007860012318460C37BD465DF8047B70471D
:1058600080B582B000AF78607B681846FFF796FF7E
:105870000D4A7B681A607B68FF2283F826207B68CC
:10588000283300211846FFF726FD7B682C330021C2
:105890001846FFF720FD7B68002283F830207B68E4
:1058A00018460837BD4680BD8CBC010880B582B063
:1058B00000AF7860054A7B681A607B681846FFF77E
:1058C0007FFF7B6818460837BD4680BD8CBC010849
:1058D00080B582B000AF78607868FFF7E7FF3421C9
:1058E000786812F0E1F97B6818460837BD4680BD3C
:1058F00080B483B000AF786039607B683A689A62A0
:1059000000BF0C37BD465DF8047B704780B483B0A0
:1059100000AF786039607B683A68DA6200BF0C37A4
:10592000BD465DF8047B704780B483B000AF7860FB
:105930000B46FB707B68FA7883F8302000BF0C3789
:10594000BD465DF8047B704780B483B000AF7860DB
:105950000B46FB707B68FA7883F8262000BF0C3773
:10596000BD465DF8047B704780B582B000AF7860BB
:105970007B681846FFF7CEFE0B4A7B681A607B688F
:10598000002283F82C207B68FF2283F82D207B687F
:1059900000221A637B6801211846FFF743FE7B68EB
:1059A00018460837BD4680BDC4A6010880B582B040
:1059B00000AF7860054A7B681A607B681846FFF77D
:1059C000BFFE7B6818460837BD4680BDC4A60108E7
:1059D00080B582B000AF78607868FFF7E7FF3421C8
:1059E000786812F061F97B6818460837BD4680BDBB
:1059F00080B582B000AF78600B46FB707B68FA78A8
:105A000083F82C207B681B6888331B68786898476C
:105A100000BF0837BD4680BD80B483B000AF78605A
:105A20007B6893F82C3018460C37BD465DF8047B34
:105A3000704780B483B000AF78607B6893F82D30F6
:105A400018460C37BD465DF8047B704780B483B0C0
:105A500000AF786000BF0C37BD465DF8047B70472F
:105A600080B483B000AF786000BF0C37BD465DF8EE
:105A7000047B704780B582B000AF78607B681846C1
:105A8000FFF772FF034A7B681A607B681846083785
:105A9000BD4680BD2CA6010880B582B000AF7860FD
:105AA000054A7B681A607B681846FFF77FFF7B68B2
:105AB00018460837BD4680BD2CA6010880B582B0C7
:105AC00000AF78607868FFF7E7FF3421786812F05C
:105AD000EBF87B6818460837BD4680BD80B584B0BA
