:020000040800F2
:1000000000000320910500088D2800089B280008A7
:10001000A1280008A7280008AD280008000000005B
:10002000000000000000000000000000017B00084C
:10003000B328000800000000417D0008A97D0008E9
:10004000E1050008E1050008E1050008E1050008F8
:10005000E1050008E1050008E1050008E1050008E8
:10006000E1050008C1280008E1050008E1050008D5
:10007000E1050008E1050008E1050008E1050008C8
:10008000E1050008E1050008E1050008E1050008B8
:10009000E1050008E1050008E1050008E1050008A8
:1000A000E1050008E1050008E1050008E105000898
:1000B000E1050008E1050008E1050008E105000888
:1000C000E1050008E1050008E1050008E105000878
:1000D000E1050008E1050008E1050008E105000868
:1000E000E1050008E1050008E1050008E105000858
:1000F000E1050008E1050008E1050008E105000848
:10010000D1280008E1050008E1050008E105000824
:10011000E1050008E1050008E5280008E105000800
:10012000E1050008E1050008E1050008E105000817
:10013000E1050008E1050008E1050008E105000807
:10014000E1050008E1050008E1050008E1050008F7
:10015000E1050008E1050008E1050008E1050008E7
:10016000E1050008E1050008E1050008E1050008D7
:10017000E1050008E1050008E105000800000000B5
:10018000E1050008E1050008E1050008E1050008B7
:10019000E1050008E1050008E1050008E1050008A7
:0C01A00001290008E105000815290008ED
:1001B00010B5054C237833B9044B13B10448AFF3A1
:1001C00000800123237010BD9C000020000000006F
:1001D000E002010808B5034B1BB103490348AFF324
:1001E000008008BD00000000A0000020E00201081F
:1001F00053B94AB9002908BF00281CBF4FF0FF318E
:100200004FF0FF3000F072B9ADF1080C6DE904CE8B
:1002100000F006F8DDF804E0DDE9022304B07047E1
:100220002DE9F047089E04468846002B4BD18A42B0
:10023000154667D9B2FA82F24AB1C2F1200701FA33
:1002400002F320FA07F7954047EA030894404FEA83
:10025000154E230CB8FBFEF71FFA85FC0EFB178822
:1002600043EA084307FB0CF1994209D9EB1807F15F
:10027000FF3080F01B81994240F21881023F2B44ED
:100280005B1AA4B2B3FBFEF00EFB103344EA034446
:1002900000FB0CFCA44509D92C1900F1FF3380F0B8
:1002A0000781A44540F2048102382C4440EA07400B
:1002B000A4EB0C0400271EB1D4400023C6E9004380
:1002C0003946BDE8F0878B4209D9002E00F0EB805B
:1002D0000027C6E9000138463946BDE8F087B3FA81
:1002E00083F7002F47D18B4202D3824200F2FA807B
:1002F000841A61EB030301209846002EE0D0C6E982
:100300000048DDE702B9FFDEB2FA82F2002A40F0CF
:100310008F80491B4FEA154E1FFA85F80127B1FB64
:10032000FEFC230C0EFB1C1143EA014308FB0CF1FD
:10033000994207D9EB180CF1FF3002D2994200F232
:10034000CD808446591AA3B2B1FBFEF00EFB101407
:1003500043EA044408FB00F8A04507D92C1900F132
:10036000FF3302D2A04500F2B6801846A4EB080481
:1003700040EA0C409FE7C7F1200CBB4022FA0CFE7C
:100380004EEA030E01FA07F420FA0CF521FA0CF3F9
:100390004FEA1E482543B3FBF8F92C0C08FB193330
:1003A0001FFA8EFA44EA034309FB0AF49C4202FA5C
:1003B00007F200FA07F10BD91EEB030309F1FF3036
:1003C00080F087809C4240F28480A9F10209734446
:1003D0001B1BADB2B3FBF8F008FB103345EA034436
:1003E00000FB0AFAA24508D91EEB040400F1FF3312
:1003F0006BD2A24569D90238744440EA0940A0FB97
:100400000289A4EB0A044C45C2464B4654D351D052
:10041000002E69D0B1EB0A0564EB030404FA0CFC6E
:10042000FD40FC404CEA0505C6E90054002747E7BB
:10043000C2F1200320FA03F7954001FA02F021FAF5
:1004400003F34FEA154E3843010CB3FBFEF71FFAD6
:1004500085F80EFB173341EA034107FB08F38B4293
:1004600004FA02F407D9691807F1FF3C2FD28B4236
:100470002DD9023F2944CB1A81B2B3FBFEF00EFB0B
:10048000103341EA034100FB08F38B4207D9691896
:1004900000F1FF3C17D28B4215D902382944C91A02
:1004A00040EA07473BE73746304609E70746E7E6B5
:1004B0001846FBE64145ABD2B8EB020A69EB0E02E7
:1004C00001381346A4E76046E9E7184695E7674612
:1004D000D1E781467CE702382C4447E7ACF1020CB7
:1004E0002B442FE7384608E73746E9E6704700BF58
:1004F00001F0FF01102A2BDB10F0070F08D010F8D5
:10050000013B013A8B422DD010F0070F42B3F6D1D8
:10051000F0B441EA012141EA014122F007047FF0F1
:1005200000070023F0E80256083C85EA010586EA48
:10053000010685FA47F5A3FA87F586FA47F6A5FA84
:1005400087F68EB9EED1F0BC01F0FF0102F0070290
:1005500032B110F8013B013A83EA010313B1F8D13B
:100560000020704701387047002D06BF354603381C
:10057000073815F0010F07D1013015F4807F02BF55
:10058000013015F4C03F0130F0BC0138704700BFA6
:10059000DFF834D0002103E00C4B5B5843500431AA
:1005A0000B480C4B42189A42F6D30B4A02E0002348
:1005B00042F8043B094B9A42F9D302F04DFD0EF08C
:1005C0003FFF01F007FD704700000320CC610208E7
:1005D000000000209C0000209C00002024970020A8
:1005E000FEE780B400AF01231846BD465DF8047BEA
:1005F000704780B582B000AF786039600EF008FFB8
:100600000246162313604FF0FF3318460837BD46E5
:1006100080BD80B582B000AF78604FF0FF31786860
:10062000FFF7E7FFFEE780B586B000AFF860B9607E
:100630007A6000237B610AE0AFF300800146BB686B
:100640005A1CBA60CAB21A707B6901337B617A693D
:100650007B689A42F0DB7B6818461837BD4680BD40
:1006600080B586B000AFF860B9607A6000237B6126
:1006700009E0BB685A1CBA601B781846AFF30080CB
:100680007B6901337B617A697B689A42F1DB7B6825
:1006900018461837BD4680BD80B584B000AF78607D
:1006A000114B1B68002B02D10F4B104A1A600E4BE6
:1006B0001B68FB600C4B1A687B6813446A469342C4
:1006C00007D90EF0A5FE02460C2313604FF0FF334E
:1006D00006E0054B1A687B681344034A1360FB6805
:1006E00018461037BD4680BDBC000020289700206A
:1006F00080B483B000AF78604FF0FF3318460C37FA
:10070000BD465DF8047B704780B483B000AF78606D
:1007100039603B684FF400525A60002318460C378A
:10072000BD465DF8047B704780B483B000AF78604D
:10073000012318460C37BD465DF8047B704780B432
:1007400085B000AFF860B9607A60002318461437AE
:10075000BD465DF8047B704770477047704770472F
:100760007047012070470C20704701EB41018B005E
:1007700008331844704701EB41018B0008331844DB
:100780007047012070478420704701EB41118B00B6
:1007900008331844704701EB41118B0008331844AB
:1007A0007047012070471020704709010831084444
:1007B0007047090108310844704708B5084602F03F
:1007C00009FA08BD10B50446024B036009F000FBAE
:1007D000204610BDE007010810B50446044B036035
:1007E00009F0F6FA142120460EF0DAFD204610BD7D
:1007F000E007010810B50446024B036009F0E8FA6F
:10080000204610BDAC07010810B50446044B036038
:1008100009F0DEFA8C2120460EF0C2FD204610BD04
:10082000AC07010810B50446024B036009F0D0FA8A
:10083000204610BD7807010810B50446044B03603C
:1008400009F0C6FA182120460EF0AAFD204610BD78
:100850007807010810B504460A4B03600A4B40F8BC
:10086000B83F09F0B5FA2046084B40F82C3F09F094
:10087000AFFA2046064B40F8143F09F0A9FA20468B
:1008800010BD00BF14080108E0070108AC0701080B
:1008900078070108012800D070474FF6FF7399428E
:1008A000FAD170B5144D154E2A46154930460EF052
:1008B00072FD144C204600F079FE2A46124920466B
:1008C0000EF069FD2A461149301D0EF064FD00232B
:1008D000C4F8A43AC4F8A83A0D4BC4F8A03A2A4682
:1008E0000C4904F52A600EF056FD2A460A4906F125
:1008F00008000EF050FD70BD000000200400002034
:100900005F070008C00000204D12000861070008C2
:10091000980401085D0700085907000810B504464F
:100920000C4B03600C4B40F8B83F09F051FA2046DD
:100930000A4B40F82C3F09F04BFA2046084B40F890
:10094000143F09F045FA4FF4087120460EF028FDD7
:10095000204610BD14080108E0070108AC07010893
:100960007807010810B5044604210EF019FD204651
:1009700010BD08B500F05AFA00F096FA00F0F0F950
:1009800000F06EF908BD000008B5034B1868036855
:10099000DB68984708BD00BF3896002010B50446B4
:1009A00068210EF0FDFC204610BD0000F8B5334C68
:1009B0002478BFF35B8F14F0010F01D03048F8BDED
:1009C0001C4617460D4606462C480EF0C0FC002873
:1009D000F4D0A4B2BDF81800294B5E609D60DF60C2
:1009E00000221A615A611A835A839A83DA831A841D
:1009F0005A849A8483F826209A629A855A639A6365
:100A0000DA631A6483F84420012183F8451083F8DF
:100A1000461083F8541083F8552083F8562083F845
:100A2000571083F8582083F8592083F85A2083F808
:100A30005B2083F85C201A6683F8652011490B60FF
:100A4000114B1C80114B1880114B1A70114B1C80DC
:100A5000114B188084420ED20123094C84F83030A7
:100A60000E4B236005480EF07EFC0D4A0D492046D2
:100A70000EF091FCA2E71346EFE700BF9C93002025
:100A8000A0930020389600202C9600202E9600205F
:100A9000309600203296002034960020F0030108A2
:100AA000000000205B0700082DE9F04182B0BDF98D
:100AB00020400094FFF77AFF044609F06BFD02F036
:100AC0000BFA054602F00CFA0B9B00930A9B099A5D
:100AD000014628460CF0E0FA2A4B2B4A1A60002007
:100AE00002F010FA29480CF041FA294B1B78BFF3A9
:100AF0005B8F13F0010F0AD023681D6D0BF02AF9EC
:100B000001462046A847204602B0BDE8F0812048B3
:100B10000EF01DFC0028EFD01E4D05F1140068609A
:100B200005F12C08C5F8088005F1B807EF6005F15C
:100B3000CC062E61184B2B6009F04CF9174B6B61FA
:100B4000404609F047F9164BEB62384609F042F986
:100B5000144BC5F8B83005F507772A4639463046B4
:100B600002F030FA384602F037FA304602F032F836
:100B700007480EF0F8FB0C4A0C4928460EF00BFC17
:100B8000BAE700BFA4960020700B002004000020EC
:100B9000089400200C94002014080108780701082C
:100BA000AC070108E0070108000000205508000814
:100BB0002DE9F04184B01749174D0026039602969F
:100BC00001964FF4167300934FF480630A1D0831A9
:100BD0002846FFF769FF04460368D3F874800127AD
:100BE00000973B4610220D49C047022384F8543039
:100BF00084F8457084F8586084F8466005F52A65E5
:100C0000284600F07DFE256184F85C7004B0BDE8E4
:100C1000F08100BF04000020C0000020000800D0C8
:100C200008B5FFF7C5FF08BD10B5044610210EF04A
:100C3000B7FB204610BD10B5044604210EF0B0FBF2
:100C4000204610BD10B5044604210EF0A9FB204635
:100C500010BD08B54FF6FF710120FFF71BFE08BD60
:100C600070477047704770472DE9F04186B0002308
:100C700001930293039304930593314B1B6813B1C3
:100C800006B0BDE8F0814FF001082D4BC3F800809D
:100C9000002400942B4B9A6B42EA08029A639B6BE8
:100CA00003EA08030093009B4FF63F0301930227DA
:100CB0000297032604960C25059501A9224803F006
:100CC000C9FCCDF80480029703940496059501A908
:100CD0001E4803F0BFFC48F23313019302970394BC
:100CE0000496059501A91A4803F0B4FC4FF68373E6
:100CF0000193029703940496059501A9154803F002
:100D0000A9FCC0230193029703940496059501A9B9
:100D1000114803F09FFC4CF2037301930297039474
:100D20000496059501A90D4803F094FC224605217F
:100D3000302002F005FB302002F01EFBA0E700BFD0
:100D4000740B0020003802400014024000080240EA
:100D50000018024000100240001C0240000C02403B
:100D600030B58FB02D4C04F10805284604F0F2F997
:100D70002B4BA3600023E36023616361A3612F22F7
:100D8000E26102222262872262622222A26240F291
:100D90008742E26240F27A22226340F2AF4262630B
:100DA00040F28722A26384F83C30642284F83D201C
:100DB00084F83E30284604F0FDF840BB0022019242
:100DC0004FF48063029303924FF416710491022052
:100DD0000590FF2006900790089305200990114880
:100DE0000A900B930C911F238DF834308DF8353019
:100DF0008DF8363001A90C4804F07CFA50B9002275
:100E00004FF48061084804F0B3FA0FB030BD01F030
:100E10004BF9D3E701F048F9F1E700BF740B00206C
:100E200000680140000800D07C0B002000B589B0AC
:100E30001B481C4BC0F8B0300123C0F8B43000236D
:100E4000C0F8B8300421C0F8BC101022C0F8C0208F
:100E50004022C0F8C4204FF4C072C0F8C820C0F8C7
:100E6000CC304FF40062C0F8D020C0F8D4304FF43A
:100E70000053C0F8D8300223019307220292039155
:100E8000049203220592069307936944B03005F05B
:100E9000F5FA10B909B05DF804FB01F005F9F9E7BE
:100EA000740B0020400100A02DE9F04782B04FF004
:100EB0000009CDF80490294C0126C4F8E4604FF0F5
:100EC0000808C4F8E880C4F8EC60C4F8F09004F1B5
:100ED000E40704F1B0054FF6FF723946284605F0E5
:100EE00025FB304602F030F90223C4F8E430C4F8A0
:100EF000E880C4F8EC60C4F8F0904FF6FF72394611
:100F0000284605F013FB0323C4F8E430C4F8E88056
:100F10004FF0040AC4F8ECA0C4F8F0904FF6FF724A
:100F20003946284605F002FB4FF40C730193C4F8D0
:100F3000E4A0C4F8E880C4F8EC60019BC4F8F03089
:100F40004FF6FF723946284605F0F0FA40F26A5132
:100F5000284605F016FB02B0BDE8F087740B0020B0
:100F60002DE9F0418CB000230793089309930A936D
:100F70000B930268584B9A4202D00CB0BDE8F08146
:100F80000024009403F550435A6C42F080625A6486
:100F90005A6C02F080620092009A01941A6B42F43B
:100FA00080721A631A6B02F480720192019A0294A1
:100FB0001A6B42F020021A631A6B02F020020292AE
:100FC000029A03941A6B42F001021A631A6B02F040
:100FD00001020392039A04941A6B42F002021A630C
:100FE0001A6B02F002020492049A05941A6B42F002
:100FF00080021A631A6B02F080020592059A069429
:101000001A6B42F040021A631B6B03F04003069315
:10101000069B40F207630793022508950E260B9660
:1010200007A92E4803F016FB4FF480630793089539
:1010300009940A940B9607A9294803F00BFB08238F
:101040000793089509940A940B9607A9254803F07D
:1010500001FB03230793089509940A9409270B972A
:10106000DFF88C8007A9404603F0F4FA4FF4E06300
:101070000793089509940A940B9607A9404603F034
:10108000E9FA4FF4D8430793089509940A940B960C
:1010900007A9154803F0DEFA4FF40C63079308958F
:1010A00009940A940B96114E07A9304603F0D2FA20
:1010B0004FF480530793089509940A940B9707A956
:1010C000304603F0C7FA22460521582002F038F9CD
:1010D000582002F051F950E700680140002002401A
:1010E0000014024000000240001C024000180240B0
:1010F0000004024008B50268144B9A4200D008BDB3
:10110000134A536C23F08063536440F20761114823
:1011100003F04AFC4FF480610F4803F045FC0821BE
:101120000E4803F041FC40F203710D4803F03CFC13
:101130004FF4D8410B4803F037FC4FF4C6510A482E
:1011400003F032FC582002F025F9D8E7006801408E
:10115000003802400020024000140240000002401B
:1011600000040240001C02400018024008B5FFF7CE
:101170007BFD08BD02680E4B9A4200D0704700B557
:1011800083B000220192A3F5F043196B41F40001F2
:1011900019631B6B03F400030193019B05215A2083
:1011A00002F0CEF85A2002F0E7F803B05DF804FB35
:1011B00000B0024008B50268064B9A4200D008BD54
:1011C000054A136B23F4000313635A2002F0E2F87C
:1011D000F5E700BF00B002400038024008B50368E0
:1011E0001B6C984708BD08B503685B6A984708BD43
:1011F00030B405682C6824F4403421432960046825
:10120000616B21F007010A43626301680A6C22F4F2
:101210007F5222F03F0213430B64002030BC704722
:1012200008B5034B1B68586803685B69984708BD9D
:101230003896002070470000034B1B780BB100204C
:10124000704740F2EF107047A80C002010B504461C
:10125000074B0360074802F0E1F9074B4FF080624B
:10126000C3F88820BFF34F8FBFF36F8F204610BDA8
:1012700000030108680C002000E100E010B50446FE
:10128000FFF7E4FF4FF42A6120460EF089F820466C
:1012900010BD000010B5074C074B2360204602F03C
:1012A00073F9064B2361064B6361064B4FF0806276
:1012B0009A6010BD680C002000B0024021120008A6
:1012C0003512000800E100E02DE9F04782B00C463D
:1012D0000B68202B07D0402B21D0042B01D00026F7
:1012E00002E0012600E00126802B1CD0B3F5807FB0
:1012F00017D00027624B1B68986803681B6A9847E1
:1013000080462368402B77D00FD9802B18D0B3F5B7
:10131000807F0ED14FF0090A4FF4003114E001260E
:10132000E2E70127E6E70127E4E7042B58D0202B6A
:1013300062D0B8F1100F64D04FF0010A002103E031
:101340004FF00A0A4FF400314E4B5960B8F1100FBC
:101350005BD04FF001094B4DC5F80890638AA28914
:101360009A1AEA60A2899B1A4A462846FFF740FF6C
:10137000C5F82CA0238AA2899B1AAB6206B9DFB1FB
:10138000237EFF2B44D03F4B02221A63227E5A63F6
:1013900047B1B8F1100F3FD06369227E43EA026380
:1013A000384A5363638AA2899B1A36488361C0F81E
:1013B0001C90002102F0B2FB0121324802F0AEFB8A
:1013C0000EB9002F53D06168A268A389E08901900B
:1013D000009313462B4802F0C4F902B0BDE8F08731
:1013E000102804D04FF0010A4FF40031ACE74FF061
:1013F000020A4FF40031A7E74FF0000A4FF4003122
:10140000A2E74FF0020A00219EE74FF00209A2E78F
:101410001C4B00221A63BBE76369C3F3C421C1EB11
:101420000121194880FB01525518CA17C2EB251239
:10143000C3F34511C1EB0121144D85FB01C50D44DA
:10144000C917C1EB651103F01F03C3EB032380FB36
:1014500003501844DB17C3EB2013207E120442EA2A
:10146000006242EA01221343064A53639AE7616825
:10147000A268A389E0890090024802F03FF9ACE736
:1014800038960020680C00204308218483200882BD
:10149000F0B583B00C46414B1B68986803681B6A23
:1014A0009847102830D0012610282FD0237E656958
:1014B00045EA03652368082B52D14FF400373848BA
:1014C00047608660638AA2899A1AC260A2899B1AC1
:1014D00032463946FFF78CFEB7F5003F43D0304B1C
:1014E000DE6200229A6201212D4802F017FBB7F557
:1014F000003F47D0A268A389E18900912946284886
:1015000002F0FCF803B0F0BD0226CDE76369C3F337
:10151000C422C2EB0222234981FB02051544D217E3
:10152000C2EB2515C3F34512C2EB02221E4880FB15
:1015300002701044D217C2EB601203F01F03C3EB1A
:10154000032381FB03011944DB17C3EB2113217E25
:101550002D0445EA016545EA022242EA0305A9E7AE
:101560004FF44037ABE70E4801230363456309237B
:10157000C362638AA2899B1A8361C661002102F05B
:10158000CDFAB0E7A168A389E289019200930B46E6
:101590000A46034802F0E5F8B4E700BF3896002099
:1015A000680C0020430821848320088238B5054652
:1015B0000C30686000232B726B722C46084B44F889
:1015C000203B6022214609F019FB5F23002B04DB3E
:1015D000002262611C34013BF8E7284638BD00BF99
:1015E0000003010880F86410012380F8653070471B
:1015F00008B5406803681B68984708BD002070471D
:1016000008B5436B0BB10846984708BD10B490F875
:10161000642090F830309A4212D0124B1B7863B994
:10162000114B1888114A108011490A88114C2280E8
:1016300008801A800B4B01221A705DF8044B70472A
:10164000084B1B78002BF8D009490A88074B1A80F1
:10165000054B1888074C208008801A80014B002217
:101660001A70EAE7309600202C960020329600206F
:101670002E96002034960020014B986A704700BFD8
:1016800084680140024B9962843B01225A62704790
:1016900084680140064B586C80B2DB68C3F30A03D0
:1016A0000133984202D3C01A80B2704700207047BD
:1016B00000680140034B902283F85A2383F8582393
:1016C000704700BF00E100E00C4B4FF08072C3F8A0
:1016D0008820BFF34F8FBFF36F8F4FF08062C3F846
:1016E0008820BFF34F8FBFF36F8F4FF00072C3F8A6
:1016F0008820BFF34F8FBFF36F8F704700E100E08A
:10170000054B4FF080729A604FF080629A604FF004
:1017100000729A60704700BF00E100E010B50B4B0B
:10172000D968C1F30A01013989B2094A11801B69DC
:10173000C3F30A03013B5380064C204603F09EFE90
:101740002268536B43F00303536310BD00680140EC
:10175000AA0C00207C0B002010B5044609F00AF901
:101760002368D3F884302046984710BD10B569B17E
:101770008163C2630364003218BF012207490A7003
:10178000003318BF0123064A137010BD054B064AEB
:101790004FF4437105480DF00FFE00BF3696002050
:1017A0003796002040080108440301087808010822
:1017B00070B59DF81040551E1F2D34D8DFE805F098
:1017C0002525332533333310333333333333331059
:1017D000333333333333331033333333333333101F
:1017E000174D2E88174D2D8805FB06F5D20802FBF4
:1017F00005F28163F3B11144C163F4B900220264BC
:10180000114A1370114B1C7070BD0D4D2D8802FBD9
:1018100005F2073205D4D2100A4D2D8802FB05F2DD
:10182000E7E70732F7E70A4B0A4A4FF439710A48EB
:101830000DF0C2FD0025C563DFE70A440264DFE75F
:101840002C9600202E9600203696002037960020F9
:1018500020080108940301087808010810B5124B0C
:101860001B6C124A11888B420AD003F007FE00203D
:10187000FFF7F8F90E4B186803689B69984710BD8D
:10188000518803F0FBFD0A4C226892F85630013370
:1018900082F8563008F0D8F9206809F06BF800207B
:1018A000FFF7DFF9EBE700BF00680140AA0C00205A
:1018B000389600204068704741607047521A02EB2A
:1018C0005302B2FBF3F07047034B1B685B6AC068BE
:1018D00000FB03F0704700BFB00C002010B50446B9
:1018E00021B903681B699847A06010BD03681B6994
:1018F0009847A368C01A636818446060F5E7000061
:1019000030B593B0054600240094234B1A6C42F086
:1019100001021A641B6C03F001030093009B202258
:10192000214604A80DF0C3FD019402941B484FF01A
:101930008043036044608460C46004618461012367
:1019400003930593099303A904F01CFFD0B9002366
:101950000193029301A9114805F076F9A8B90CA9E1
:101960000DA804F0B5FB109B93B104F089FB440073
:1019700004F07AFBB0FBF4F0E860084804F0BAFE2B
:1019800013B030BD00F090FBE1E700F08DFBE6E71F
:1019900004F076FB0446EBE700380240B00C002070
:1019A000704700207047000080B485B000AFF86039
:1019B000B9607A60FB68074A1A60BB68064A1A6019
:1019C0007B6880221A6000BF1437BD465DF8047B37
:1019D000704700BFF00C0020480D00202DE9F047B3
:1019E0008EB0002409940A940B940C940D940094E6
:1019F000794B1A6B42F010021A631A6B02F0100254
:101A00000092009A01941A6B42F480721A631A6B66
:101A100002F480720192019A02941A6B42F0200241
:101A20001A631A6B02F020020292029A03941A6B54
:101A300042F004021A631A6B02F004020392039A42
:101A400004941A6B42F001021A631A6B02F001024D
:101A50000492049A05941A6B42F080021A631A6B7E
:101A600002F080020592059A06941A6B42F0020277
:101A70001A631A6B02F002020692069A07941A6B16
:101A800042F040021A631A6B02F040020792079A72
:101A900008941A6B42F008021A631B6B03F00803E8
:101AA0000893089B4D4E22461821304603F086F8D5
:101AB000DFF8408122464FF48071404603F07EF803
:101AC000474F22464FF40171384603F077F8DFF8AC
:101AD00028A1224648F24001504603F06FF8DFF893
:101AE0001C9122464FF48041484603F067F81823C2
:101AF000099301250A950B940C9409A9304602F02C
:101B0000A9FD4FF4807309930A950B940C9409A9CD
:101B1000404602F09FFD4FF400730993314E0A9640
:101B20000B9409A9404602F095FD4FF40173099307
:101B30000A950B940C9409A9384602F08BFD0823F2
:101B400009930A960B9409A9384602F083FD48F2DE
:101B5000400309930A950B940C9409A9504602F08E
:101B600079FD4FF48053099302230A930B940C944C
:101B70000D9309A9384602F06DFD4FF48043099397
:101B80000A950B940C9409A9484602F063FD2023A2
:101B900009930A960B9409A9134802F05BFD1023E0
:101BA00009930A960B94114D09A9284602F052FD9B
:101BB000802309930E4B0A930B9409A9284602F03F
:101BC00049FD22460521092001F0BAFB092001F058
:101BD000D3FB0EB0BDE8F087003802400010024091
:101BE000001C0240000011100004024000200240CE
:101BF00000002110001402400000024000180240C2
:101C000000B583B01048114B036001234360038289
:101C100000238DF8003080228DF80120E1228DF81C
:101C200002208DF803308DF804308DF80530C0F8AF
:101C300014D08361C3614FF40003036202F09CF887
:101C400003B05DF804FB00BF480F00200080024095
:101C500008B50948094B83644FF4E133C36400239A
:101C60000365436583650C22C2650366436648309D
:101C700005F043F808BD00BF480F002000100140E8
:101C800038B5124C124BC4F88830124BC4F88C3063
:101C90000025C4F89050C4F894504FF48043C4F821
:101CA0009830C4F89C50C4F8A050C4F8A450C4F8AC
:101CB000A8508834204602F0D9FF2946204603F078
:101CC000FDF82946204603F035F938BD480F0020BD
:101CD00000580040A086010030B58DB020220021C0
:101CE00004A80DF0E4FB0025019502950F4C104B64
:101CF000C4F8DC30C4F8E050C4F8E450C4F8E8504C
:101D0000C4F8EC50C4F8F4500123039305930993ED
:101D1000DC3403A9204604F035FD0195029501A9A4
:101D2000204604F091FF0DB030BD00BF480F0020E9
:101D30000004004030B58DB02022002104A80DF031
:101D4000B6FB0025019502950F4C104BC4F81C31D1
:101D5000C4F82051C4F82451C4F82851C4F82C51B7
:101D6000C4F83451012303930593099304F58E7449
:101D700003A9204604F006FD0195029501A920461D
:101D800004F062FF0DB030BD480F00200008004095
:101D900030B58DB02022002104A80DF088FB00256D
:101DA00001950295104C114BC4F85C31C4F8605198
:101DB000C4F86451C4F86851C4F86C51C4F8705147
:101DC000C4F87451012303930593099304F5AE7489
:101DD00003A9204604F0D6FC0195029501A92046EE
:101DE00004F032FF0DB030BD480F00200004014068
:101DF00008B51248124BC0F89C314FF48273C0F8FA
:101E0000A0310023C0F8A431C0F8A831C0F8AC312B
:101E1000C0F8B0314FF40072C0F8B421C0F8B83146
:101E2000C0F8BC31C0F8C031C0F8C4310A23C0F8D2
:101E3000C83100F5CE7004F0C4FB08BD480F002087
:101E40000038004008B51248124BC0F8F4314FF486
:101E50008273C0F8F8310023C0F8FC31C0F80032BA
:101E6000C0F80432C0F808324FF40072C0F80C22F7
:101E7000C0F81032C0F81432C0F81832C0F81C3262
:101E80000A23C0F8203200F5FA7004F09AFB08BD6E
:101E9000480F00200034014030B583B00025009584
:101EA0000195094C094BC4F84C3204F513742046D3
:101EB00001F09DFA009501952A466946204601F0F9
:101EC0000CFB03B030BD00BF480F00200074004081
:101ED00008B50448044BC0F8603200F5187001F0F2
:101EE00067FA08BD480F00200030024008B5FEF731
:101EF0004BFD4FF40071034802F079FE642005F0B9
:101F0000FFFAF6E7001C024008B54021034802F042
:101F10006EFE4FF4FA7005F0F3FAF6E700000240A7
:101F200070B5A0B030252A46002114A80DF0BFFAE4
:101F300000240F9410941194129413942A4621466D
:101F400003A80DF0B4FA0194204B1A6C42F08052B1
:101F50001A641B6C03F080530193019B02941C4B89
:101F60001A6842F440421A601B6803F4404302932B
:101F7000029B0225149501231793102318931A9599
:101F80001B9408261C96B4231D931E9506231F93AD
:101F900014A803F093FC03F041FC0F230F9310955A
:101FA00011944FF4A05312934FF4805313930521CF
:101FB0000FA803F0C5FE03963223079309950C94EE
:101FC00003A804F0B7F820B070BD00BF003802408D
:101FD0000070004000B58FB001F074F8FFF7A0FF6B
:101FE000FFF7FCFCFFF70CFEFFF732FEFFF748FEA1
:101FF000FFF772FEFFF79EFEFFF7CAFEFFF7F8FE3F
:10200000FFF720FFFFF748FFFFF762FF1C4C4FF47C
:102010008041204602F0EBFD4FF47A7001F094F815
:102020004FF48041204602F0E2FD4FF40041154894
:1020300002F0DDFDFEF79DFCFEF7F2FD124C07AD50
:1020400026460FCE0FC596E8070085E80700002159
:1020500007A805F009FA0D4EC6F868026D461C3453
:102060000FCC0FC594E8070085E8070000216846FB
:1020700005F0FAF9C6F86C0205F0EFF9FEE700BFCB
:102080000018024000000240D0040108480F002060
:1020900008B50268034B9A4200D008BD01F034F83D
:1020A000FBE700BF001000407047000080B582B021
:1020B00000AF00237B60124B5B6C114A43F48043FA
:1020C00053640F4B5B6C03F480437B607B6800239D
:1020D0003B600B4B1B6C0A4A43F080531364084B64
:1020E0001B6C03F080533B603B6800220F216FF0B4
:1020F000010001F025F900BF0837BD4680BD00BFD3
:102100000038024080B485B000AF78607B681B68FF
:102110000B4A93420DD10023FB600A4B1B6B094A0B
:1021200043F480531363074B1B6B03F48053FB6032
:10213000FB6800BF1437BD465DF8047B704700BFE5
:10214000003002400038024080B58AB000AF7860AD
:1021500007F1140300221A605A609A60DA601A616B
:102160007B681B681B4A93422FD100233B611A4BAB
:102170001B6C194A43F000531364174B1B6C03F09C
:1021800000533B613B690023FB60134B1B6B124AFE
:1021900043F001031363104B1B6B03F00103FB605F
:1021A000FB6810237B610323BB610023FB6107F104
:1021B00014031946094802F04DFA00220021362086
:1021C00001F0BEF8362001F0D7F800BF2837BD4631
:1021D00080BD00BF00740040003802400000024093
:1021E00080B58EB000AF786007F1240300221A603A
:1021F0005A609A60DA601A617B681B68464A9342AB
:1022000040F0858000233B62444B1B6B434A43F004
:1022100000731363414B1B6B03F000733B623B6A1B
:102220000023FB613D4B1B6B3C4A43F0806313630F
:102230003A4B1B6B03F08063FB61FB690023BB61BE
:10224000364B1B6B354A43F000631363334B1B6BF8
:1022500003F00063BB61BB6900237B612F4B1B6BE9
:102260002E4A43F0040313632C4B1B6B03F004034F
:102270007B617B6900233B61284B1B6B274A43F042
:1022800001031363254B1B6B03F001033B613B69A7
:102290000023FB60214B1B6B204A43F002031363B6
:1022A0001E4B1B6B03F00203FB60FB6832237B6257
:1022B0000223BB620023FB6203233B630B237B638C
:1022C00007F124031946164802F0C4F986237B62FD
:1022D0000223BB620023FB6203233B630B237B636C
:1022E00007F1240319460F4802F0B4F94FF4605384
:1022F0007B620223BB620023FB6203233B630B234D
:102300007B6307F124031946074802F0A3F900BFD5
:102310003837BD4680BD00BF008002400038024013
:1023200000080240000002400004024080B58AB06C
:1023300000AF786007F1140300221A605A609A60B7
:10234000DA601A617B681B68194A93422BD100231B
:102350003B61184B1B6B174A43F080031363154B0B
:102360001B6B03F080033B613B6930237B611223CD
:10237000BB610023FB6103233B6204237B6207F103
:10238000140319460C4802F065F90023FB60094B61
:102390001B6C084A43F480031364064B1B6C03F464
:1023A0008003FB60FB6800BF2837BD4680BD00BFCF
:1023B0000058004000380240001C024080B58CB03C
:1023C00000AF786007F11C0300221A605A609A601F
:1023D000DA601A617B681B68414A93424AD1002344
:1023E000BB61404B1B6C3F4A43F4804313643D4B3D
:1023F0001B6C03F48043BB61BB6900237B61394BD9
:102400001B6B384A43F004031363364B1B6B03F01A
:1024100004037B617B6900233B61324B1B6B314AB8
:1024200043F0080313632F4B1B6B03F008033B615E
:102430003B690C23FB6102233B6200237B62032385
:10244000BB620523FB6207F11C031946264802F014
:1024500001F90823FB6102233B6200237B62032313
:10246000BB620523FB6207F11C0319461F4802F0FB
:10247000F1F830E07B681B681D4A93422BD10023A2
:10248000FB60184B5B6C174A43F400535364154BC5
:102490005B6C03F40053FB60FB680023BB60114BD3
:1024A0001B6B104A43F0100313630E4B1B6B03F0BE
:1024B0001003BB60BB686423FB6102233B62002303
:1024C0007B620323BB620523FB6207F11C031946F1
:1024D000084802F0BFF800BF3037BD4680BD00BFDE
:1024E000003800400038024000080240000C024062
:1024F000003401400010024080B590B000AF786019
:1025000007F12C0300221A605A609A60DA601A619F
:102510007B681B68B3F1804F4AD10023BB62714BCB
:102520001B6C704A43F0010313646E4B1B6C03F089
:102530000103BB62BB6A00237B626A4B1B6B694A67
:1025400043F001031363674B1B6B03F001037B62D2
:102550007B6A00233B62634B1B6B624A43F00203BE
:102560001363604B1B6B03F002033B623B6A012366
:10257000FB6202233B6300237B630023BB630123D5
:10258000FB6307F12C031946574802F063F8082350
:10259000FB6202233B6300237B630023BB630123B5
:1025A000FB6307F12C031946504802F053F895E0FD
:1025B0007B681B684E4A93422CD10023FB61494B38
:1025C0001B6C484A43F002031364464B1B6C03F038
:1025D0000203FB61FB690023BB61424B1B6B414A59
:1025E00043F0040313633F4B1B6B03F00403BB6115
:1025F000BB69C023FB6202233B6300237B63002390
:10260000BB630223FB6307F12C031946394802F030
:1026100021F863E07B681B68374A93422DD1002381
:102620007B61304B1B6C2F4A43F0040313642D4B2A
:102630001B6C03F004037B617B6900233B61294B26
:102640001B6B284A43F008031363264B1B6B03F0F4
:1026500008033B613B694FF44053FB6202233B6339
:1026600000237B630023BB630223FB6307F12C037E
:102670001946224801F0EEFF30E07B681B68204AD3
:1026800093422BD10023FB60164B5B6C154A43F041
:1026900002035364134B5B6C03F00203FB60FB68A3
:1026A0000023BB600F4B1B6B0E4A43F48073136314
:1026B0000C4B1B6B03F48073BB60BB686023FB6235
:1026C00002233B6300237B630023BB630323FB6381
:1026D00007F12C0319460B4801F0BCFF00BF40373F
:1026E000BD4680BD003802400000024000040240A8
:1026F000000400400008024000080040000C0240B6
:10270000000401400020024080B58AB000AF78602C
:1027100007F1140300221A605A609A60DA601A61A5
:102720007B681B68284A93424AD100233B61274BB0
:102730005B6C264A43F010035364244B5B6C03F03C
:1027400010033B613B690023FB60204B1B6B1F4A5E
:1027500043F0010313631D4B1B6B03F00103FB608C
:10276000FB680023BB60194B1B6B184A43F0020344
:102770001363164B1B6B03F00203BB60BB684FF483
:1027800080637B610223BB610123FB6103233B6206
:1027900007237B6207F1140319460D4801F05AFF25
:1027A00040237B610223BB610123FB6103233B6266
:1027B00007237B6207F114031946064801F04AFF1C
:1027C00000BF2837BD4680BD0010014000380240E0
:1027D000000002400004024080B58CB000AF786079
:1027E0000023FB620023BB6200227968362000F0E0
:1027F000A7FD362000F0C0FD0023FB601F4B1B6CC3
:102800001E4A43F0100313641C4B1B6C03F01003AF
:10281000FB60FB6807F1100207F11403114618462C
:1028200003F056FC03F02CFC03465B00FB62FB6AE2
:10283000134AA2FB03239B0C013BBB62114B124AC0
:102840001A60104B40F2E732DA600E4ABB6A5360FE
:102850000C4B00221A610B4B00229A60094803F0CE
:1028600014FF0346002B04D1064803F067FF03461C
:1028700000E0012318463037BD4680BD00380240D5
:1028800083DE1B43DC9600200010004080B400AFC4
:1028900000BFBD465DF8047B704780B400AFFEE723
:1028A00080B400AFFEE780B400AFFEE780B400AFB5
:1028B000FEE780B400AF00BFBD465DF8047B704703
:1028C00080B500AF082002F0ADF900BF80BD000068
:1028D00080B500AF024803F005FE00BF80BD00BF19
:1028E000240C002080B500AF034800F0A2FD03488F
:1028F00003F0DAFF00BF80BD94110020DC960020B9
:1029000080B500AF024802F03DFC00BF80BD00BFB3
:102910007C0B002080B500AF024800F0EEFF00BF46
:1029200080BD00BF680C002008B5012907D019B18F
:10293000022907D0002001E000F044F808BD00F0B3
:1029400083F8FBE700F002F8F8E77047164B1B78B6
:10295000BFF35B8F13F0010F01D01448704730B5FF
:1029600089B011480CF0F3FC10B9104809B030BD23
:102970000D4D2C1D0022079206920D4B05930D4B19
:102980000493039202920423019300920A230A49BA
:1029900020460AF0D9F928460CF0E5FC074A084918
:1029A00020460CF0F8FCE0E7B8110020BC11002034
:1029B00038220108382001084422010800000020C4
:1029C0004B290008184B93F82430BFF35B8F13F0AA
:1029D000010F01D01548704730B589B014480CF08C
:1029E000B6FC10B9114809B030BD0F4D05F12804EF
:1029F0000023079306930F4A05920F4A049203930C
:102A00000293042301930093142308220B492046C8
:102A10000AF09AF905F124000CF0A5FC084A0949CE
:102A200020460CF0B8FCDDE7B8110020E0110020D2
:102A3000DC1100203C2201083C200108542201083E
:102A4000000000204B290008184B93F84830BFF3D2
:102A50005B8F13F0010F01D01548704730B589B076
:102A600014480CF074FC10B9114809B030BD0F4D7A
:102A700005F14C040022079206920F4B05930F4B71
:102A800004930392029204230193009228230C4999
:102A900020460AF059F905F148000CF064FC094A97
:102AA000094920460CF077FCDEE700BFB811002092
:102AB00004120020001200204022010834220108E4
:102AC000C4220108000000204B29000810B504466C
:102AD00020210CF065FC204610BD70477047416016
:102AE00070477047D0F8343183B110B504461A6886
:102AF000D2681846904700B910BDD4F83401036875
:102B00009B6898470023C4F83431F5E77047704755
:102B10007047012303727047704710B5034644683D
:102B2000C2685110601812F0010F04D062589B68FF
:102B3000D358984710BD9B68FBE743684BB1836847
:102B40000BB101207047C36813F0010F03D00120BF
:102B50007047002070470020704710B504460C21D4
:102B60000CF01EFC204610BD10B504464FF4A871B1
:102B70000CF016FC204610BD10B5044610210CF0D8
:102B80000FFC204610BD000070B504460D461646E9
:102B900009F000F90020C4F83001C4F834010A4BF0
:102BA0001C600A4B23600A4BC4F83831C4F83C015E
:102BB000C4F84001C4F84401C4F84861C4F84C5159
:102BC00000F0A0F9204670BD949600203809010855
:102BD0002009010810B489B003460D4A069200226C
:102BE00007926C4608AA12E9030084E8030004AACD
:102BF00082E80300C3F83C3103F5A07484E80300C5
:102C000003F59C72C3F8342109B05DF8044B70479A
:102C10005D2D00082DE9F047074688461446994681
:102C2000DDF820A0906803681B6A9847832875D94F
:102C3000606803681B6A98470F2875D9E0680368C5
:102C40001B6A98470B2875D909F084F809F088F8B1
:102C5000D9F8000010B10368DB689847D9F8000084
:102C600010B103681B689847386810B103685B6946
:102C70009847D8F8000010B103685B689847386837
:102C800010B103681B689847D8F8000010B10368BA
:102C90009B689847E06803685B6A0021984705468F
:102CA00020B1002343600372264B0360A0680368D1
:102CB0005B6A00219847064608B100F0C3F96068D6
:102CC00003685B6A00219847044610B1314600F062
:102CD0009BF9C9F80050C8F800403E60002C2FD086
:102CE000231DCAF80030C4F808A0F4633368DB6819
:102CF0003046984723681B68204698472946304647
:102D00000AF000F82B681B692846984709F022F85A
:102D100003689B6A98472046BDE8F0870A4B0B4A38
:102D2000C2210B480CF048FB0A4B084AC321084853
:102D30000CF042FB084B054AC42105480CF03CFB53
:102D40000023CEE7740901088C0901081C0501085D
:102D50001C0A0108A80A01084C0B010800B583B041
:102D6000D0F84C310093054BD0F8482100F598710C
:102D70000348FFF74FFF03B05DF804FB9096002077
:102D80008C960020704770477047704770477047B7
:102D900010B5044684210CF003FB204610BD000052
:102DA0002DE9F04182B0044609F02EFE0026E663CC
:102DB0002546404B45F8403B284608F0E9F8236C8F
:102DC000DB6A40F2AB1128469847236C1B6B4FF42B
:102DD000877128469847ADF8006002AA012322F8BF
:102DE000043D6946284607F02DFFA4F87460324B75
:102DF0001B68002B46D0B4F87420304B1B889A42D5
:102E000046D2B4F874202C4B1B6813F812102C4ACD
:102E1000126852F82170002B40D0B4F87420274B70
:102E20001B889A4240D2AA8E264B1B6853F82280F8
:102E30003B689B6A41463846984706463B68DB6BD1
:102E400041463846984716FB00F6F6B23B685B6A87
:102E5000414638469847304485F84100FF221146E4
:102E600010460AF02BF8A067FF22114610460AF020
:102E700025F8E0672946201D07F090F8204602B0AB
:102E8000BDE8F081104B114ACF2111480CF094FAA3
:102E9000104B0E4AD0210E480CF08EFA0A4B0B4A0A
:102EA000CF210B480CF088FA0A4B084AD021084879
:102EB0000CF082FA28060108989600209C960020C3
:102EC000A096002024120020F00B010854060108EF
:102ED000340C0108C00C0108004870478406010842
:102EE00002207047012800D070474FF6FF739942C7
:102EF000FAD1024B024A1A60F6E700BF2412002002
:102F00009461020838B5094B9880094A1A6000F0AC
:102F100035F8054600F038F8044600F033F8054B64
:102F20001D60054B1C60054B188038BD2412002025
:102F30009461020898960020A09600209C9600209C
:102F400008B54FF6FF710120FFF7CCFF08BD000068
:102F5000012800D070474FF6FF739942FAD110B59F
:102F6000FFF730FD044C2060FFF76EFD6060FFF757
:102F7000EDFCA06010BD00BF3C120020004870476F
:102F8000AC61020801207047004870473C120020E5
:102F900008B54FF6FF710120FFF7DAFF08BD704753
:102FA00010B504464FF4A8710CF0FAF9204610BD94
:102FB00010B50446D0F84C0100F011F8204608F096
:102FC0008DFD10BD10B50446FFF7DEFD014B2360FB
:102FD000204610BD1C0D010800220260704770479A
:102FE0007047043870477047704710B50446102189
:102FF0000CF0D6F9204610BD10B5041F1021204654
:103000000CF0CEF9204610BD10B400228260054AB3
:1030100002F10804046020324260C1605DF8044B94
:10302000704700BFAC0601087047704708B5FFF74E
:10303000AEFE08BD10B5044684210CF0B1F920465F
:1030400010BD000010B50446FFF7AAFE014B236037
:10305000204610BDDC06010880B400AF164BD3F843
:103060008830154A43F47003C2F88830134B1B684C
:10307000124A43F001031360104B00229A600F4B79
:103080001B680E4A23F0847323F4803313600B4BC8
:103090000B4A5A60094B1B68084A23F480231360CB
:1030A000064B0022DA60044B4FF000629A6000BFCA
:1030B000BD465DF8047B704700ED00E0003802403B
:1030C0001030002480B500AF0E4B1B680D4A43F44E
:1030D000007313600B4B1B680A4A43F48063136050
:1030E000084B1B68074A43F480731360032000F009
:1030F0001CF90020FFF770FBFEF7D8FF00231846ED
:1031000080BD00BF003C024080B400AF064B1B787E
:103110001A46064B1B681344044A136000BFBD46A1
:103120005DF8047B704700BF280000201C9700203A
:1031300080B400AF034B1B681846BD465DF8047BA6
:10314000704700BF1C97002080B584B000AF786046
:10315000FFF7EEFFB8607B68FB60FB68B3F1FF3FF1
:1031600005D0094B1B781A46FB681344FB6000BF6F
:10317000FFF7DEFF0246BB68D31AFA689A42F7D817
:1031800000BF1037BD4680BD2800002080B485B048
:1031900000AF78607B6803F00703FB600C4BDB68D3
:1031A000BB60BA684FF6FF031340BB60FB681A02AE
:1031B000BB68134343F0BF6343F40033BB60044A6E
:1031C000BB68D36000BF1437BD465DF8047B704711
:1031D00000ED00E080B400AF044BDB681B0A03F095
:1031E00007031846BD465DF8047B704700ED00E01C
:1031F00080B483B000AF0346FB7197F90730002B12
:103200000BDBFB7903F01F02074997F907305B09D5
:10321000012000FA02F241F8232000BF0C37BD461E
:103220005DF8047B704700BF00E100E080B483B02C
:1032300000AF0346FB7197F90730002B10DBFB79D9
:1032400003F01F02094997F907305B09012000FAD2
:1032500002F2203341F82320BFF34F8FBFF36F8F6B
:1032600000BF0C37BD465DF8047B704700E100E00D
:1032700080B483B000AF03463960FB7197F9073023
:10328000002B0ADB3B68DAB20C4997F907301201D0
:10329000D2B20B4483F800230AE03B68DAB2084953
:1032A000FB7903F00F03043B1201D2B20B441A76F0
:1032B00000BF0C37BD465DF8047B704700E100E0BD
:1032C00000ED00E080B489B000AFF860B9607A60CA
:1032D000FB6803F00703FB61FB69C3F10703042BE1
:1032E00028BF0423BB61FB690433062B02D9FB69A9
:1032F000033B00E000237B614FF0FF32BB6902FA21
:1033000003F3DA43BB681A407B699A404FF0FF3100
:103310007B6901FA03F3D9437B680B4013431846DA
:103320002437BD465DF8047B704780B582B000AF9E
:1033300078607868FFF72AFF00BF0837BD4680BD78
:1033400080B586B000AF0346B9607A60FB73002396
:103350007B61FFF73FFF78617A68B9687869FFF7AA
:10336000B1FF024697F90F3011461846FFF780FF6C
:1033700000BF1837BD4680BD80B582B000AF0346A0
:10338000FB7197F907301846FFF732FF00BF083787
:10339000BD4680BD80B582B000AF0346FB7197F992
:1033A00007301846FFF742FF00BF0837BD4680BD13
:1033B00080B582B000AF78607B68002B01D101231B
:1033C00011E07B685B79DBB2002B05D17B680022C2
:1033D0001A717868FEF796FE7B6802225A717B6844
:1033E00001225A71002318460837BD4680BD80B5BA
:1033F00082B000AF78607B68002B01D1012314E01C
:103400007B681B79DBB2002B05D17B6800225A71E7
:103410007868FEF799FE7B6802221A717B680022A9
:103420001A617B6801221A71002318460837BD46CD
:1034300080BD80B582B000AF78607B681B685B6B35
:1034400003F40053B3F5005F18D17B6804221A71AE
:103450007B681B6943F001027B681A617B681B680B
:103460004FF400525A637B681B681A687B681B68BC
:1034700022F480521A60786800F025F87B681B6897
:103480005B6B03F00053B3F1005F18D17B6804223B
:103490001A717B681B6943F002027B681A617B68C2
:1034A0001B684FF000525A637B681B681A687B6880
:1034B0001B6822F080521A60786800F05BF800BF49
:1034C0000837BD4680BD80B483B000AF786000BFD0
:1034D0000C37BD465DF8047B704780B487B000AF01
:1034E000F860B9607A6000237B6100233B61FB6870
:1034F0005B79012B01D1022336E0FB6801225A716E
:10350000FB6802221A71FB681B681B687B6140F62E
:10351000FE727B6802FA03F3DB437A6913407B6136
:10352000BB681A68BB685B6813433B613A697B6898
:1035300002FA03F37A6913437B61FB681B687A69BB
:103540001A60FB681B681968C0227B6802FA03F3E3
:10355000DA43FB681B680A401A60FB6801221A7193
:10356000FB6800225A71002318461C37BD465DF8DF
:10357000047B704780B483B000AF786000BF0C3725
:10358000BD465DF8047B704780B582B000AF7860BF
:103590007B68002B01D101233BE07B6893F8393035
:1035A000DBB2002B06D17B68002283F838207868D4
:1035B000FDF7E0FD7B68022283F839207B681B68F9
:1035C0001B6823F440317B685A687B681B680A4398
:1035D0001A607B681B685B6B23F007017B689A6845
:1035E0007B681B680A435A637B681B681B6C23F467
:1035F0007F5323F03F037A68D1687A6812680B43DF
:1036000013647B680022DA637B68012283F8392027
:10361000002318460837BD4680BD000080B582B043
:1036200000AF78607B68002B01D101235FE0324B53
:103630001B6B03F40003002B2ED07B681B681B68F8
:1036400003F00103012B07D1786800F0C1F80346AD
:10365000002B21D001234AE07B681B685B6A03F0E2
:103660002003202B08D10021786800F0F7F80346EA
:10367000002B11D001233AE07B681B68DB6903F063
:103680002003202B08D10121786800F0E7F80346D9
:10369000002B01D001232AE07B681B6800221A60FE
:1036A0007B681B683F229A607B681B6800221A6156
:1036B0007B681B6800229A617B681B680022DA61C4
:1036C0007B681B6800225A627B681B6800225A6371
:1036D0007868FDF76FFD7B680022DA637B68002263
:1036E00083F839207B68002283F8382000231846AD
:1036F0000837BD4680BD00BF0038024080B586B0A7
:1037000002AFF860B9607A603B60FB6893F83830CC
:10371000012B01D1022320E0FB68012283F838202D
:10372000FB68022283F83920BB6900933B687A6802
:10373000B968F86800F084FAFB681B681A68FB68CF
:103740001B6842F40C521A60FB681B681A68FB681D
:103750001B6842F001021A60002318461037BD466C
:1037600080BD80B586B002AFF860B9607A603B601A
:10377000FB6893F83830012B01D1022324E0FB6869
:10378000012283F83820FB68022283F83920FB6885
:103790001B687A685A61FB690093BB693A68B9682B
:1037A000F86800F04DFAFB681B681A68FB681B6834
:1037B00042F40C521A60FB681B681A68FB681B68AD
:1037C00042F001021A60002318461037BD4680BD42
:1037D00080B584B000AF78607B681B681B6823F0FD
:1037E00005027B681B6842F004021A60FFF7A0FC28
:1037F000F86017E0FFF79CFC0246FB68D31AB3F5AC
:103800007A7F0FD97B68DB6B43F020027B68DA6339
:103810007B68032283F839207B68002283F83820F4
:10382000032317E07B681B681B6803F00103002B70
:10383000E0D17B681B681A687B681B6822F40C5215
:103840001A607B68012283F839207B68002283F8A4
:103850003820002318461037BD4680BD80B584B09F
:1038600000AF786039607B681B682433FB607B683D
:103870001B681A687B681B6842F004021A603B6888
:10388000012B03D17B681B681C33FB60FFF750FCE6
:10389000B86017E0FFF74CFC0246BB68D31AB3F5DB
:1038A0007A7F0FD97B68DB6B43F020027B68DA6399
:1038B0007B68032283F839207B68002283F8382054
:1038C000032316E0FB681B6803F02003002BE1D103
:1038D0007B681B681A687B681B6822F464521A6054
:1038E0007B68012283F839207B68002283F8382026
:1038F000002318461037BD4680BD80B584B000AFA8
:1039000078607B681B685B68FB607B681B681B6872
:10391000BB60FB6803F00103002B26D0BB6803F4F7
:103920008073002B21D07B681B681A687B681B683A
:1039300022F480721A607B68DB6B43F001027B68C3
:10394000DA637B681B6801229A607B68042283F833
:1039500039207B68002283F838207B685B69002B64
:1039600003D07B685B6978689847FB6803F02003A5
:10397000002B26D0BB6803F40053002B21D07B68BA
:103980001B681A687B681B6822F400521A607B6807
:103990001B6820229A607B68DB6B43F002027B6825
:1039A000DA637B68042283F839207B68002283F87D
:1039B00038207B685B69002B03D07B685B69786883
:1039C0009847FB6803F00803002B26D0BB6803F47C
:1039D0000063002B21D07B681B681A687B681B681A
:1039E00022F400621A607B681B6808229A607B6878
:1039F000DB6B43F004027B68DA637B68042283F8A4
:103A000039207B68002283F838207B685B69002BB3
:103A100003D07B685B6978689847FB6803F0040310
:103A2000002B13D0BB6803F48063002B0ED07B689F
:103A30001B681A687B681B6822F480621A607B68C6
:103A40001B6804229A60786800F053F8FB6803F062
:103A50000203002B24D0BB6803F40073002B1FD09B
:103A60007B681B681A687B681B6822F400721A6006
:103A70007B681B6802229A607B68DA6B7B68DA637A
:103A80007B68012283F839207B68002283F8382084
:103A90007B681B69002B03D07B681B69786898479B
:103AA000FB6803F01003002B1FD0BB6803F48053A6
:103AB000002B1AD07B681B681A687B681B6822F48D
:103AC00080521A607B681B6810229A607B68DA6BF0
:103AD0007B68DA637B68012283F839207B680022E7
:103AE00083F83820786800F00EF800BF1037BD4624
:103AF00080BD80B483B000AF786000BF0C37BD4696
:103B00005DF8047B704780B483B000AF786000BF7D
:103B10000C37BD465DF8047B7047000080B487B069
:103B200000AF786039607B685B68B3F5403F7B68C5
:103B300093F83830012B01D1022379E07B68012210
:103B400083F838207B68022283F839203B681B0108
:103B500018337A6813443B613B695A683B699B6838
:103B60001B0413437B61354BFB603B695B680A2B8D
:103B700003D03B695B68092B07D13B69DB6803F025
:103B80007F437A6913437B6105E03B69DB681B0671
:103B90007A6913437B613B68002B20D17B681B68EB
:103BA0005A6AFB68DB4302EA03017B681B687A6997
:103BB0000A435A627B681B683A6912689A613B69DA
:103BC0005B680A2B03D03B695B68092B27D13B69F3
:103BD000DA687B681B6822F07F429A621FE07B688C
:103BE0001B68DA69FB68DB4302EA03017B681B6838
:103BF0007A690A43DA617B681B683A6912681A615C
:103C00003B695B680A2B03D03B695B68092B06D1D3
:103C10003B69DA687B681B6822F07F421A627B6826
:103C2000012283F839207B68002283F838200023A2
:103C300018461C37BD465DF8047B70470F0003FF34
:103C400080B48BB000AFF860B9607A603B60FB680D
:103C50001B685B6C03F040413B681A043B6B1A43E2
:103C6000FB681B680A435A64FB681B687A68DA635E
:103C7000FB685B68B3F5403F74D1BB6803F07F43DA
:103C80003B62BB6803F47F03FB61BB6803F47F43C3
:103C9000BB61BB68DBB27B61FB689B68002B08D112
:103CA000BA69FB691A433B6A13437A6913437B621F
:103CB00053E0FB689B68012B06D1BA69FB6913438B
:103CC0007A6913437B6248E0FB689B68022B11D141
:103CD000FB69DB0CFB61BB699B0ABB617B69DB0891
:103CE0007B61BB695A01FB69DB0213437A691343A9
:103CF0007B6232E0FB689B68032B17D13B6ADB0FCA
:103D00003B62FB69DB0CFB61BB69DB0ABB617B6966
:103D1000DB087B61BB695A01FB699B021A433B6A62
:103D2000DB0313437A6913437B6216E03B6A1B0F84
:103D30003B62FB691B0DFB61BB691B0BBB617B69B4
:103D40001B097B61BB691A01FB691B021A433B6AB1
:103D50001B0313437A6913437B62FB681B687A6A0F
:103D60009A6303E0FB681B68BA68DA6000BF2C370F
:103D7000BD465DF8047B704780B588B000AF7860C1
:103D80000023FB610023FB60AA4BBB6100237B6126
:103D900000233B617B68002B01D1012385E17B6817
:103DA00093F84430DBB2002B06D17B68002283F805
:103DB00045207868FEF714FA0023BB609E4B5B6CCD
:103DC0009D4A43F4804353649B4B5B6C03F48043F4
:103DD000BB60BB68994B5B68984A23F4000353604F
:103DE000964B5A687B681B6A944913434B607B6807
:103DF0001B6803F580531A687B681B6842F0010258
:103E000003F580531A60FFF793F9786111E0FFF72B
:103E10008FF902467B69D31AB3F5FA7F09D97B681B
:103E2000032283F844207B68002283F84520032383
:103E30003BE17B681B6803F580531B6803F00103BB
:103E4000002BE4D17B681B681B69FB61FB6923F0D5
:103E50001C03FB6102F008F9B861BB69784A934220
:103E600008D9BB69774A934204D8FB6943F0080339
:103E7000FB6127E0BB69734A934208D9BB69724A68
:103E8000934204D8FB6943F00C03FB611AE0BB6961
:103E90006D4A934203D9BB696C4A934211D9BB69FD
:103EA0006A4A934208D9BB69694A934204D8FB69BC
:103EB00043F00403FB6105E0FB6943F01003FB6181
:103EC00000E000BF7B681B68FA691A614FF400428A
:103ED0000021786800F056F90346002B0BD001232F
:103EE0003B613969786800F0B3F97B68012283F897
:103EF00044200123D9E0FF20FFF726F97B685B68A7
:103F0000002B00F0A780FFF713F9786107F10C038D
:103F10001A460121786800F0CDF8FFF709F902464A
:103F20007B69D31A41F2883293420FD901233B6156
:103F30003969786800F08CF97B68012283F84420A5
:103F40007B68002283F845200323AEE0FB6803F082
:103F50000403002BDAD04FF480520021786800F07F
:103F600011F90346002B0BD001233B6139697868B6
:103F700000F06EF97B68012283F84420012394E06D
:103F8000FFF7D6F8786107F10C031A46012178682B
:103F900000F090F8FFF7CCF802467B69D31A41F2A3
:103FA000883293420FD901233B613969786800F068
:103FB0004FF97B68012283F844207B68002283F854
:103FC0004520032371E0FB6803F02003002BDAD0C7
:103FD00007F10C031A461F21786800F06BF80346BE
:103FE000002B0BD001233B613969786800F030F970
:103FF0007B68012283F84420012356E0FB6803F02C
:104000001003002B04D07B684FF40062DA6002E0FA
:104010007B680022DA60FB6803F00403002B03D006
:104020007B6800229A6037E07B684FF480429A6098
:1040300032E000BF0087930300380240003801409F
:10404000FF2C3101BF0E1602FF869303FFE0F5053A
:104050007FD1F0087B68DB68DB089AB27B689B68DD
:104060005B089BB213439BB21A460021786800F0AC
:1040700089F80346002B0BD001233B61396978682E
:1040800000F0E6F87B68012283F8442001230CE06D
:1040900040F6FF70FFF758F83969786800F0D8F8F3
:1040A0007B68012283F84420002318462037BD4650
:1040B00080BD00BF80B586B000AFF8600B467A6067
:1040C0007B8100237B6100233B61FB6893F84430D4
:1040D000DBB2822B01D1022350E0FB68822283F8FD
:1040E0004420FB681B681B697B617B6903F01C0330
:1040F0007B61FB681B8ADB029BB27A6913437B619D
:104100007B899B0103F4F8637A6913437B617B69C4
:1041100023F002037B617B6943F001037B61FB6851
:104120001B687A691A61FFF703F8386115E0FEF73A
:10413000FFFF02463B69D31AB3F5803F09D3FB6802
:10414000012283F84420FB68002283F845200323E2
:1041500014E0FB681B681B697B617B6903F001034A
:10416000002BE4D1FB681B685B699BB21A467B6835
:104170001A60FB68012283F8442000231846183790
:10418000BD4680BD80B586B000AFF8600B467A6052
:104190007B8100237B6100233B61FB6893F8443003
:1041A000DBB2422B01D102234EE0FB68422283F8AE
:1041B0004420FB681B681B697B617B6903F01C035F
:1041C0007B61FB681B8ADB029BB27A6913437B61CC
:1041D0007B899B0103F4F8637A6913437B617B69F4
:1041E00043F002037B617B6943F001037B617B68E1
:1041F0009AB2FB681B685A61FB681B687A691A618E
:10420000FEF796FF386115E0FEF792FF02463B6924
:10421000D31AB3F5803F09D3FB68012283F8442009
:10422000FB68002283F8452003230DE0FB681B6830
:104230001B697B617B6903F00103002BE4D1FB6800
:10424000012283F84420002318461837BD4680BD5C
:1042500080B5B0B000AF786039600023C7F8BC30DB
:104260003B68002B07D07B684FF40062DA607B6804
:104270004FF480429A600023BB640023FB64002358
:104280003B6500237B650023BB650023FB657B68E2
:10429000DB69002B03D14FF480633B6601E0002310
:1042A0003B664FF400737B660023BB660023FB660E
:1042B00000233B6700237B670023BB674023FB672A
:1042C0000023C7F880300023C7F884300023C7F8E4
:1042D00088300023C7F88C300023C7F890300023C3
:1042E000C7F894300023C7F898300023C7F89C30F3
:1042F0008023C7F8A0300023C7F8A4300023C7F8F4
:10430000A8300023C7F8AC300023C7F8B030002332
:10431000C7F8B4300023C7F8B8307B681B681B6847
:10432000C7F8BC30D7F8BC20AC4B1340C7F8BC3042
:10433000BA6CFB6C1A433B6D1A437B6D1A437B6866
:104340009B681A43BB6D1A43FB6D1A437B68DB689D
:104350001A433B6E1A437B6E1A43BB6E1A43FB6EC5
:104360001A433B6F1343D7F8BC201343C7F8BC3044
:104370007B681B68D7F8BC201A607B681B681B68C9
:10438000C7F8BC300120FEF7DFFE7B681B68D7F85A
:10439000BC201A607A6FBB6F1A43FB6F1A43D7F8C1
:1043A00080301A43D7F884301A43D7F888301A433C
:1043B000D7F88C3042EA0301D7F890207B681B685D
:1043C0000A435A607B681B685B68C7F8BC300120F1
:1043D000FEF7BAFE7B681B68D7F8BC205A607B6882
:1043E0001B68D7F894209A607B681B68D7F89820E0
:1043F000DA607B681B689B69C7F8BC30D7F8BC20C3
:104400004FF641731340C7F8BC30D7F89C301A04FC
:10441000D7F8A0301A43D7F8A4301A43D7F8A830F9
:104420001A43D7F8AC301A43D7F8B0301343D7F853
:10443000BC201343C7F8BC307B681B68D7F8BC208E
:104440009A617B681B689B69C7F8BC300120FEF746
:104450007BFE7B681B68D7F8BC209A61D7F8B41044
:10446000D7F8B8207B681B680A43DA617B681B6851
:10447000DB69C7F8BC300120FEF766FE7B681B686D
:10448000D7F8BC20DA610023BB604FF00073FB60FB
:1044900000233B614FF400137B610023BB610023C9
:1044A000FB6100233B6200237B620423BB624FF06D
:1044B0000073FB624FF480333B634FF480037B63F4
:1044C0004FF40053BB638023FB6300233B64002352
:1044D0007B647B681B6803F5805318331B68C7F83F
:1044E000BC30D7F8BC203E4B1340C7F8BC30BA688C
:1044F000FB681A433B691A437B691A43BB691A4339
:10450000FB691A433B6A1A437B6A1A43BB6A13432B
:10451000D7F8BC201343C7F8BC307B681B6803F591
:1045200080531833D7F8BC201A607B681B6803F5EA
:10453000805318331B68C7F8BC300120FEF704FE17
:104540007B681B6803F580531833D7F8BC201A60CA
:10455000FA6A3B6B1A437B6B1A43BB6B1A43FB6BC8
:104560001A433B6C9B001A437B6C1A437B681B68A5
:1045700042F4000203F580531A607B681B6803F560
:1045800080531B68C7F8BC300120FEF7DDFD7B6857
:104590001B6803F58053D7F8BC201A607B689B69C1
:1045A000012B0FD17B681B6803F580531C331A68FD
:1045B0007B681B6842F4803242F0400203F580536E
:1045C0001C331A607B685B691A460021786800F02A
:1045D00009F800BFC037BD4680BD00BF0F8120FF76
:1045E000233FDEF880B487B000AFF860B9607A602E
:1045F0007B6805331B781B027A68043212781343F8
:104600007B61BA68114B13441A467B6913607B685F
:1046100003331B781A067B6802331B781B041A438A
:104620007B6801331B781B0213437A6812781343AB
:104630007B61BA68064B13441A467B69136000BF5E
:104640001C37BD465DF8047B704700BF40800240C8
:104650004480024080B489B000AF786039600023A4
:104660007B6100233B610023BB610023FB6177E199
:104670000122FB6902FA03F37B613B681B687A69DC
:1046800013403B613A697B699A4240F066813B681E
:104690005B68022B03D03B685B68122B23D1FB695C
:1046A000DA087B68083253F82230BB61FB6903F0FB
:1046B00007039B000F2202FA03F3DB43BA6913409E
:1046C000BB613B681A69FB6903F007039B0002FAB0
:1046D00003F3BA691343BB61FB69DA087B680832EC
:1046E000B96943F822107B681B68BB61FB695B00FA
:1046F000032202FA03F3DB43BA691340BB613B6850
:104700005B6803F00302FB695B0002FA03F3BA691A
:104710001343BB617B68BA691A603B685B68012B15
:104720000BD03B685B68022B07D03B685B68112BA2
:1047300003D03B685B68122B30D17B689B68BB6100
:10474000FB695B00032202FA03F3DB43BA691340FF
:10475000BB613B68DA68FB695B0002FA03F3BA6984
:104760001343BB617B68BA699A607B685B68BB6115
:104770000122FB6902FA03F3DB43BA691340BB6110
:104780003B685B681B0903F00102FB6902FA03F353
:10479000BA691343BB617B68BA695A607B68DB689E
:1047A000BB61FB695B00032202FA03F3DB43BA69D6
:1047B0001340BB613B689A68FB695B0002FA03F334
:1047C000BA691343BB617B68BA69DA603B685B68AE
:1047D00003F08053002B00F0C0800023FB60654B8A
:1047E0005B6C644A43F480435364624B5B6C03F438
:1047F0008043FB60FB68604AFB699B08023352F808
:104800002330BB61FB6903F003039B000F2202FA14
:1048100003F3DB43BA691340BB617B68574A934299
:1048200037D07B68564A934231D07B68554A9342D1
:104830002BD07B68544A934225D07B68534A9342DD
:104840001FD07B68524A934219D07B68514A9342E9
:1048500013D07B68504A93420DD07B684F4A9342F5
:1048600007D07B684E4A934201D1092312E00A2304
:1048700010E008230EE007230CE006230AE00523DE
:1048800008E0042306E0032304E0022302E00123FE
:1048900000E00023FA6902F0030292009340BA6933
:1048A0001343BB613449FB699B080233BA6941F881
:1048B00023203C4B1B68BB613B69DB43BA69134057
:1048C000BB613B685B6803F48033002B03D0BA699B
:1048D0003B691343BB61334ABB691360314B5B686F
:1048E000BB613B69DB43BA691340BB613B685B68F2
:1048F00003F40033002B03D0BA693B691343BB6157
:10490000284ABB695360274B9B68BB613B69DB430B
:10491000BA691340BB613B685B6803F48013002BEA
:1049200003D0BA693B691343BB611E4ABB699360FC
:104930001C4BDB68BB613B69DB43BA691340BB615D
:104940003B685B6803F40013002B03D0BA693B6932
:104950001343BB61134ABB69D360FB690133FB613D
:10496000FB690F2B7FF684AE00BF2437BD465DF890
:10497000047B7047003802400038014000000240CC
:104980000004024000080240000C024000100240F7
:104990000014024000180240001C024000200240A7
:1049A00000240240003C014080B487B000AF786032
:1049B000396000233B610023FB600023BB600023C0
:1049C0007B61D9E001227B6902FA03F33B613A681B
:1049D0003B691340FB60FA683B699A4240F0C9802A
:1049E0006A4A7B699B08023352F82330BB607B69BB
:1049F00003F003039B000F2202FA03F3BA6813408B
:104A0000BB607B68624A934237D07B68614A9342BD
:104A100031D07B68604A93422BD07B685F4A9342D7
:104A200025D07B685E4A93421FD07B685D4A9342E3
:104A300019D07B685C4A934213D07B685B4A9342EF
:104A40000DD07B685A4A934207D07B68594A9342FB
:104A500001D1092312E00A2310E008230EE0072306
:104A60000CE006230AE0052308E0042306E0032304
:104A700004E0022302E0012300E000237A6902F04F
:104A8000030292009340BA689A4232D17B6903F0E4
:104A900003039B000F2202FA03F3BB603B4A7B69CE
:104AA0009B08023352F82310BB68DA4337487B690E
:104AB0009B080A40023340F823203F4B1A68FB68EA
:104AC000DB433D4913400B603B4B5A68FB68DB43BB
:104AD000394913404B60384B9A68FB68DB433649D1
:104AE00013408B60344BDA68FB68DB433249134078
:104AF000CB607B681A687B695B00032101FA03F3D2
:104B0000DB431A407B681A607B69DA087B680832ED
:104B100053F822107B6903F007039B000F2202FA6F
:104B200003F3DB437A69D20819407B68083243F803
:104B300022107B689A687B695B00032101FA03F30A
:104B4000DB431A407B689A607B685A6801217B6965
:104B500001FA03F3DB431A407B685A607B68DA682A
:104B60007B695B00032101FA03F3DB431A407B6896
:104B7000DA607B6901337B617B690F2B7FF622AFA3
:104B800000BF1C37BD465DF8047B7047003801400C
:104B9000000002400004024000080240000C0240F5
:104BA000001002400014024000180240001C0240A5
:104BB0000020024000240240003C014080B483B049
:104BC00000AF78600B467B8013467B707B78002BB0
:104BD00003D07A887B689A6103E07B881A047B683B
:104BE0009A6100BF0C37BD465DF8047B704780B406
:104BF00083B000AF78600B467B807B685A697B8806
:104C00001A407B889A4204D17B881A047B689A6197
:104C100002E07A887B689A6100BF0C37BD465DF878
:104C2000047B704780B582B000AF0346FB80084B21
:104C30005A69FB881340002B06D0054AFB88536154
:104C4000FB88184600F006F800BF0837BD4680BD57
:104C5000003C014080B483B000AF0346FB8000BF3E
:104C60000C37BD465DF8047B7047000080B584B00A
:104C700000AF78607B68002B01D101230FE17B68D6
:104C800093F83D30DBB2002B06D17B68002283F81D
:104C90003C207868FDF74AFB7B68242283F83D209E
:104CA0007B681B681A687B681B6822F001021A6027
:104CB00001F0E6F9F8607B685B687B4A934207D8AD
:104CC000FB687A4A934294BF01230023DBB206E0DB
:104CD000FB68774A934294BF01230023DBB2002B89
:104CE00001D00123DBE0FB68724AA2FB03239B0C8B
:104CF000BB607B681B685B6823F03F017B681B68B7
:104D0000BA680A435A607B681B681B6A23F03F013C
:104D10007B685B68644A934202D8BB68013309E050
:104D2000BB684FF4967202FB03F3634AA2FB0323B2
:104D30009B0901337A6812680B4313627B681B6816
:104D4000DB6923F44F4222F0FF027B685B6856491F
:104D50008B420DD8FB68591E7B685B685B00B1FB1A
:104D6000F3F30133C3F30B03042B38BF04234FE0E9
:104D70007B689B68002B11D1FB68581E7B685968C3
:104D80000B465B000B44B0FBF3F30133C3F30B039F
:104D9000002B0CBF01230023DBB212E0FB68581E7E
:104DA0007B6859680B469B000B4499000B44B0FB91
:104DB000F3F30133C3F30B03002B0CBF01230023D8
:104DC000DBB2002B01D0012322E07B689B68002B23
:104DD0000ED1FB68581E7B6859680B465B000B447C
:104DE000B0FBF3F30133C3F30B0343F400430FE0D1
:104DF000FB68581E7B6859680B469B000B44990062
:104E00000B44B0FBF3F30133C3F30B0343F4404310
:104E1000796809681343CB617B681B681B6823F0C2
:104E2000C0017B68DA697B681B6A1A437B681B6870
:104E30000A431A607B681B689B6823F4034323F0D2
:104E4000FF037A6811697A68D26811437A68126838
:104E50000B4393607B681B68DB6823F0FF017B6872
:104E60005A697B689B691A437B681B680A43DA604E
:104E70007B681B681A687B681B6842F001021A6035
:104E80007B6800221A647B68202283F83D207B68BF
:104E900000221A637B68002283F83E200023184614
:104EA0001037BD4680BD00BFA08601007F841E0074
:104EB000FF083D0083DE1B43D34D621080B483B0F6
:104EC00000AF786039607B6893F83D30DBB2202B0F
:104ED00029D17B68242283F83D207B681B681A68EF
:104EE0007B681B6822F001021A607B681B685A6AA3
:104EF0007B681B6822F010025A627B681B68596A43
:104F00007B681B683A680A435A627B681B681A68A8
:104F10007B681B6842F001021A607B68202283F8DC
:104F20003D20002300E0022318460C37BD465DF803
:104F3000047B704780B485B000AF7860396000238F
:104F4000FB817B6893F83D30DBB2202B2AD17B6854
:104F5000242283F83D207B681B681A687B681B68E5
:104F600022F001021A607B681B685B6AFB81FB8987
:104F700023F00F03FB813B689AB2FB891343FB814B
:104F80007B681B68FA895A627B681B681A687B68B1
:104F90001B6842F001021A607B68202283F83D20E2
:104FA000002300E0022318461437BD465DF8047B59
:104FB0007047000080B584B000AF78607B68002B3C
:104FC00001D10123BFE07B6893F8A130DBB2002B55
:104FD00006D17B68002283F8A0207868FBF7C0FF29
:104FE0007B68022283F8A1207B681B689A697B6832
:104FF0001B6822F070429A617B681B6899697B6824
:105000005A687B689B681A437B68DB681A437B6835
:105010001B691A437B681B680A439A617B681B689B
:1050200099687B681A684A4B0B4093607B685B69A0
:105030001B04FB607B681B6899687B689A69FB6846
:105040001A437B681B680A439A607B681B68D968AF
:105050007B681A683E4B0B40D3607B68DB691B049E
:10506000FB607B681B68D9687B681A6AFB681A4317
:105070007B681B680A43DA607B681B6819697B6878
:105080001A68334B0B4013617B685B6A1B04FB603F
:105090007B681B6819697B689A6AFB681A437B689E
:1050A0001B680A431A617B681B6859697B681A6828
:1050B000274B0B4053617B68DB6A1B04FB607B68FA
:1050C0001B6859697B681A6BFB681A437B681B680D
:1050D0000A435A617B6893F835301B02FB607B689A
:1050E00093F836301B04BB607B681B68DA6A7B6808
:1050F0001B6802F07F42DA627B681B68D96ABA6873
:10510000FB6813437A6892F834201A437B681B6863
:105110000A43DA627B681B685A6B7B681B6842F043
:1051200006025A637B681B689A697B681B6842F0B9
:1051300001029A617B680022C3F8A4207B680122E7
:1051400083F8A120002318461037BD4680BD00BF5C
:1051500000F800F080B582B000AF78607868FBF7A7
:10516000C9FF7B680022C3F8A4207B68002283F873
:10517000A1207B68002283F8A0200023184608376E
:10518000BD4680BD80B584B000AF78607B681B6889
:105190009B6BFB607B681B685B6BBB60FB6803F011
:1051A0000403002B23D0BB6803F00403002B1ED0A4
:1051B0007B681B685A6B7B681B6822F004025A6389
:1051C0007B681B680422DA637B68D3F8A43043F061
:1051D00001027B68C3F8A4207B68042283F8A12025
:1051E0007B68002283F8A020786800F06FF8FB68E5
:1051F00003F00203002B23D0BB6803F00203002B53
:105200001ED07B681B685A6B7B681B6822F0020209
:105210005A637B681B680222DA637B68D3F8A43088
:1052200043F002027B68C3F8A4207B68042283F861
:10523000A1207B68002283F8A020786800F046F85F
:10524000FB6803F00103002B1BD0BB6803F00103D4
:10525000002B16D07B681B685A6B7B681B6822F09A
:1052600001025A637B681B680122DA637B680122B2
:1052700083F8A1207B68002283F8A0207868FCF7DF
:10528000EDFAFB6803F00803002B1BD0BB6803F0AA
:105290000803002B16D07B681B685A6B7B681B6861
:1052A00022F008025A637B681B680822DA637B6875
:1052B000012283F8A1207B68002283F8A02078686F
:1052C00000F00EF800BF1037BD4680BD80B483B03B
:1052D00000AF786000BF0C37BD465DF8047B7047B7
:1052E00080B483B000AF786000BF0C37BD465DF876
:1052F000047B7047B0B584B000AFF860B9607A60E5
:10530000FB6893F8A030012B01D102232CE0FB684D
:10531000012283F8A020FB68022283F8A120FA680A
:105320007B68342101FB03F3134403F13802BB68AB
:1053300014461D460FCD0FC40FCD0FC40FCD0FC4A3
:105340002B6823607A68B968F86800F0CFF8FB68CA
:105350001B6801225A62FB68012283F8A120FB68C6
:10536000002283F8A020002318461037BD46B0BDA8
:1053700080B489B000AFF860B9607A60FB6893F8D8
:10538000A030012B01D102236FE0FB68012283F8DA
:10539000A020FB68022283F8A120FA687B683421F0
:1053A00001FB03F3134448331B68BB61BB69002B4B
:1053B00002D10423FB6116E0BB69012B02D1032358
:1053C000FB6110E0BB69042B08D0BB69022B05D040
:1053D000BB69032B02D0BB69072B02D10223FB61FF
:1053E00001E00123FB61BB68FA6902FB03F31B04C4
:1053F0007B61FB681B681A467B68DB0113448433BE
:10540000DB6AFA68126811467A68D2010A4484326B
:1054100023F0FF5323F4F813D362174B5B6A164A49
:1054200043F001035362FB681B681A467B68DB018B
:1054300013448433DA6AFB681B6819467B68DB0116
:105440000B44843319467B691343CB620A4B5B6A76
:10545000094A43F001035362FB68012283F8A1204B
:10546000FB68002283F8A020002318462437BD469D
:105470005DF8047B704700BF0068014080B483B0D2
:1054800000AF786039607B6893F8A030012B01D1C0
:10549000022323E07B68012283F8A0207B6802229C
:1054A00083F8A1207B681B685A6B7B681B6822F01D
:1054B00001025A630C4A3B6813647B681B685A6B91
:1054C0007B681B6842F001025A637B68012283F803
:1054D000A1207B68002283F8A020002318460C3707
:1054E000BD465DF8047B70470068014080B489B018
:1054F00000AFF860B9607A60BB685A68FB681B68E7
:10550000DB681B0CC3F30B0313441B04FB61FB6838
:105510001B681A467B68DB01134484335B68FA68B6
:10552000126811467A68D2010A44843203F4704347
:105530005360BB681A68FB681B68DB681B0CC3F30D
:105540000B0313445A1CFB681B6819467B68DB017C
:105550000B4484331946FB6913434B60BB68DA681C
:10556000FB681B68DB68C3F30A0313441B04FB617D
:10557000FB681B681A467B68DB01134484339B6815
:10558000FA68126811467A68D2010A44843203F438
:1055900070439360BB689A68FB681B68DB68C3F361
:1055A0000A0313445A1CFB681B6819467B68DB011D
:1055B0000B4484331946FB6913438B60FB681B68FB
:1055C0001A467B68DB01134484331B69FA6812684E
:1055D00011467A68D2010A44843223F0070313612A
:1055E000FB681B681A467B68DB01134484331A4648
:1055F000BB681B691361BB6893F831301B02FB6108
:10560000BB6893F832301B04BB61BB689B691B0607
:105610007B61FB681B681A467B68DB01134484339B
:105620009B69FB681B681A467B68DB011344843363
:105630001A4600239361BB6893F830301A46FB6921
:105640001A43BB691A43FB681B6819467B68DB0178
:105650000B44843319467B6913438B61FB681B68D9
:105660001A467B68DB01134484335B69FA6812686D
:1056700011467A68D2010A44843223F0FF03536151
:10568000FB681B681A467B68DB01134484331A46A7
:10569000BB685B695361FB681B681A467B68DB016A
:1056A00013448433DB69FA68126811467A68D201C0
:1056B0000A44843223F4E06323F00703D361BB6818
:1056C000DA69BB681B6AF968096808467968C90124
:1056D000014484311343CB61FB681B681A467B6825
:1056E000DB01134484339B6AFB681B681A467B68A2
:1056F000DB01134484331A4600239362FB681B6862
:105700001A467B68DB01134484331A46BB685B6A24
:105710009362BB681B69002B02D10423FB611BE071
:10572000BB681B69012B02D10323FB6114E0BB683A
:105730001B69042B0BD0BB681B69022B07D0BB680D
:105740001B69032B03D0BB681B69072B02D1022303
:10575000FB6101E00123FB61FB681B681A467B6863
:10576000DB0113448433DB6AFA68126811467A68F5
:10577000D2010A44843203F0E023D362BB689B6AFF
:10578000FA6902FB03F31A04BB685968BB681B681B
:10579000CB1AF96901FB03F30333F968096808467A
:1057A0007968C901014484311343CB62FB681B68EB
:1057B0001A467B68DB01134484331B6BFA6812685A
:1057C00011467A68D2010A44843223F4FF6323F03D
:1057D00007031363FB681B681A467B68DB011344ED
:1057E00084331A46BB68DB6A1363FB681B681A467E
:1057F0007B68DB01134484331B68FA681268114626
:105800007A68D2010A44843243F00103136000BF76
:105810002437BD465DF8047B7047000080B582B038
:1058200000AF00237B6000233B60204B1B6C1F4AB2
:1058300043F0805313641D4B1B6C03F080533B609B
:105840003B681B4B01221A60FDF772FC786009E08F
:10585000FDF76EFC02467B68D31AB3F57A7F01D957
:1058600003231FE0134B5B6803F48033B3F5803FE1
:10587000EED1114B01221A60FDF75AFC786009E065
:10588000FDF756FC02467B68D31AB3F57A7F01D93F
:10589000032307E0074B5B6803F40033B3F5003FD5
:1058A000EED1002318460837BD4680BD00380240BF
:1058B00040000E420070004044000E4280B586B0A9
:1058C00000AF78607B68002B01D101232DE27B685B
:1058D0001B6803F00103002B75D0A34B9B6803F0FA
:1058E0000C03042B0CD0A04B9B6803F00C03082B7B
:1058F00012D19D4B5B6803F48003B3F5800F0BD18D
:10590000994B1B6803F40033002B5BD07B685B680A
:10591000002B57D1012308E27B685B68B3F5803F19
:1059200006D1914B1B68904A43F4803313601DE00D
:105930007B685B68B3F5A02F0CD18B4B1B688A4A40
:1059400043F480231360884B1B68874A43F48033F9
:1059500013600BE0844B1B68834A23F4803313608D
:10596000814B1B68804A23F4802313607B685B684B
:10597000002B13D0FDF7DCFB386108E0FDF7D8FB06
:1059800002463B69D31A642B01D90323CDE1764B40
:105990001B6803F40033002BF0D014E0FDF7C8FBC4
:1059A000386108E0FDF7C4FB02463B69D31A642B5B
:1059B00001D90323B9E16C4B1B6803F40033002BBE
:1059C000F0D100E000BF7B681B6803F00203002BEE
:1059D00063D0654B9B6803F00C03002B0BD0624B2C
:1059E0009B6803F00C03082B1CD15F4B5B6803F42E
:1059F0008003002B16D15C4B1B6803F00203002BC5
:105A000005D07B68DB68012B01D001238DE1564B6B
:105A10001B6823F0F8027B681B69DB0052491343C3
:105A20000B603AE07B68DB68002B20D04F4B0122F3
:105A30001A60FDF77DFB386108E0FDF779FB02464F
:105A40003B69D31A022B01D903236EE1464B1B6835
:105A500003F00203002BF0D0434B1B6823F0F80245
:105A60007B681B69DB00404913430B6015E03F4B2B
:105A700000221A60FDF75CFB386108E0FDF758FB77
:105A800002463B69D31A022B01D903234DE1364B61
:105A90001B6803F00203002BF0D17B681B6803F046
:105AA0000803002B30D07B685B69002B16D0304B8D
:105AB00001221A60FDF73CFB386108E0FDF738FB76
:105AC00002463B69D31A022B01D903232DE1264B51
:105AD0005B6F03F00203002BF0D015E0244B002293
